{
  "abi": [
    {
      "inputs": [
        {
          "components": [
            {
              "internalType": "contract IJBController",
              "name": "controller",
              "type": "address"
            },
            {
              "internalType": "uint48",
              "name": "bluntProjectId",
              "type": "uint48"
            },
            {
              "internalType": "uint48",
              "name": "projectId",
              "type": "uint48"
            },
            {
              "internalType": "uint40",
              "name": "duration",
              "type": "uint40"
            },
            {
              "internalType": "address",
              "name": "ethAddress",
              "type": "address"
            },
            {
              "internalType": "address",
              "name": "usdcAddress",
              "type": "address"
            },
            {
              "internalType": "uint16",
              "name": "maxK",
              "type": "uint16"
            },
            {
              "internalType": "uint16",
              "name": "minK",
              "type": "uint16"
            },
            {
              "internalType": "uint56",
              "name": "upperFundraiseBoundary",
              "type": "uint56"
            },
            {
              "internalType": "uint56",
              "name": "lowerFundraiseBoundary",
              "type": "uint56"
            }
          ],
          "internalType": "struct DeployBluntDelegateDeployerData",
          "name": "_deployBluntDelegateDeployerData",
          "type": "tuple"
        },
        {
          "components": [
            {
              "internalType": "contract IJBDirectory",
              "name": "directory",
              "type": "address"
            },
            {
              "internalType": "address",
              "name": "projectOwner",
              "type": "address"
            },
            {
              "internalType": "uint88",
              "name": "hardcap",
              "type": "uint88"
            },
            {
              "internalType": "uint88",
              "name": "target",
              "type": "uint88"
            },
            {
              "internalType": "uint16",
              "name": "afterRoundReservedRate",
              "type": "uint16"
            },
            {
              "components": [
                {
                  "internalType": "bool",
                  "name": "preferClaimed",
                  "type": "bool"
                },
                {
                  "internalType": "bool",
                  "name": "preferAddToBalance",
                  "type": "bool"
                },
                {
                  "internalType": "uint256",
                  "name": "percent",
                  "type": "uint256"
                },
                {
                  "internalType": "uint256",
                  "name": "projectId",
                  "type": "uint256"
                },
                {
                  "internalType": "address payable",
                  "name": "beneficiary",
                  "type": "address"
                },
                {
                  "internalType": "uint256",
                  "name": "lockedUntil",
                  "type": "uint256"
                },
                {
                  "internalType": "contract IJBSplitAllocator",
                  "name": "allocator",
                  "type": "address"
                }
              ],
              "internalType": "struct JBSplit[]",
              "name": "afterRoundSplits",
              "type": "tuple[]"
            },
            {
              "internalType": "bool",
              "name": "isTargetUsd",
              "type": "bool"
            },
            {
              "internalType": "bool",
              "name": "isHardcapUsd",
              "type": "bool"
            }
          ],
          "internalType": "struct DeployBluntDelegateData",
          "name": "_deployBluntDelegateData",
          "type": "tuple"
        }
      ],
      "stateMutability": "nonpayable",
      "type": "constructor"
    },
    {
      "inputs": [],
      "name": "CAP_REACHED",
      "type": "error"
    },
    {
      "inputs": [],
      "name": "DEADLINE_SET",
      "type": "error"
    },
    {
      "inputs": [],
      "name": "INVALID_DEADLINE",
      "type": "error"
    },
    {
      "inputs": [],
      "name": "INVALID_PAYMENT_EVENT",
      "type": "error"
    },
    {
      "inputs": [],
      "name": "NOT_PROJECT_OWNER",
      "type": "error"
    },
    {
      "inputs": [],
      "name": "ROUND_CLOSED",
      "type": "error"
    },
    {
      "inputs": [],
      "name": "ROUND_ENDED",
      "type": "error"
    },
    {
      "inputs": [],
      "name": "ROUND_NOT_CLOSED",
      "type": "error"
    },
    {
      "inputs": [],
      "name": "ROUND_NOT_ENDED",
      "type": "error"
    },
    {
      "anonymous": false,
      "inputs": [
        {
          "indexed": false,
          "internalType": "uint256",
          "name": "deadline",
          "type": "uint256"
        }
      ],
      "name": "DeadlineSet",
      "type": "event"
    },
    {
      "anonymous": false,
      "inputs": [],
      "name": "RoundClosed",
      "type": "event"
    },
    {
      "anonymous": false,
      "inputs": [
        {
          "components": [
            {
              "internalType": "contract IJBDirectory",
              "name": "directory",
              "type": "address"
            },
            {
              "internalType": "address",
              "name": "projectOwner",
              "type": "address"
            },
            {
              "internalType": "uint88",
              "name": "hardcap",
              "type": "uint88"
            },
            {
              "internalType": "uint88",
              "name": "target",
              "type": "uint88"
            },
            {
              "internalType": "uint16",
              "name": "afterRoundReservedRate",
              "type": "uint16"
            },
            {
              "components": [
                {
                  "internalType": "bool",
                  "name": "preferClaimed",
                  "type": "bool"
                },
                {
                  "internalType": "bool",
                  "name": "preferAddToBalance",
                  "type": "bool"
                },
                {
                  "internalType": "uint256",
                  "name": "percent",
                  "type": "uint256"
                },
                {
                  "internalType": "uint256",
                  "name": "projectId",
                  "type": "uint256"
                },
                {
                  "internalType": "address payable",
                  "name": "beneficiary",
                  "type": "address"
                },
                {
                  "internalType": "uint256",
                  "name": "lockedUntil",
                  "type": "uint256"
                },
                {
                  "internalType": "contract IJBSplitAllocator",
                  "name": "allocator",
                  "type": "address"
                }
              ],
              "internalType": "struct JBSplit[]",
              "name": "afterRoundSplits",
              "type": "tuple[]"
            },
            {
              "internalType": "bool",
              "name": "isTargetUsd",
              "type": "bool"
            },
            {
              "internalType": "bool",
              "name": "isHardcapUsd",
              "type": "bool"
            }
          ],
          "indexed": false,
          "internalType": "struct DeployBluntDelegateData",
          "name": "deployBluntDelegateData",
          "type": "tuple"
        },
        {
          "indexed": false,
          "internalType": "uint256",
          "name": "projectId",
          "type": "uint256"
        },
        {
          "indexed": false,
          "internalType": "uint256",
          "name": "duration",
          "type": "uint256"
        }
      ],
      "name": "RoundCreated",
      "type": "event"
    },
    {
      "inputs": [],
      "name": "LOWER_FUNDRAISE_BOUNDARY_USD",
      "outputs": [
        {
          "internalType": "uint256",
          "name": "",
          "type": "uint256"
        }
      ],
      "stateMutability": "view",
      "type": "function"
    },
    {
      "inputs": [],
      "name": "MAX_K",
      "outputs": [
        {
          "internalType": "uint256",
          "name": "",
          "type": "uint256"
        }
      ],
      "stateMutability": "view",
      "type": "function"
    },
    {
      "inputs": [],
      "name": "MIN_K",
      "outputs": [
        {
          "internalType": "uint256",
          "name": "",
          "type": "uint256"
        }
      ],
      "stateMutability": "view",
      "type": "function"
    },
    {
      "inputs": [],
      "name": "UPPER_FUNDRAISE_BOUNDARY_USD",
      "outputs": [
        {
          "internalType": "uint256",
          "name": "",
          "type": "uint256"
        }
      ],
      "stateMutability": "view",
      "type": "function"
    },
    {
      "inputs": [],
      "name": "bluntProjectId",
      "outputs": [
        {
          "internalType": "uint256",
          "name": "",
          "type": "uint256"
        }
      ],
      "stateMutability": "view",
      "type": "function"
    },
    {
      "inputs": [],
      "name": "closeRound",
      "outputs": [],
      "stateMutability": "nonpayable",
      "type": "function"
    },
    {
      "inputs": [
        {
          "internalType": "address",
          "name": "",
          "type": "address"
        }
      ],
      "name": "contributions",
      "outputs": [
        {
          "internalType": "uint256",
          "name": "",
          "type": "uint256"
        }
      ],
      "stateMutability": "view",
      "type": "function"
    },
    {
      "inputs": [
        {
          "components": [
            {
              "internalType": "address",
              "name": "payer",
              "type": "address"
            },
            {
              "internalType": "uint256",
              "name": "projectId",
              "type": "uint256"
            },
            {
              "internalType": "uint256",
              "name": "currentFundingCycleConfiguration",
              "type": "uint256"
            },
            {
              "components": [
                {
                  "internalType": "address",
                  "name": "token",
                  "type": "address"
                },
                {
                  "internalType": "uint256",
                  "name": "value",
                  "type": "uint256"
                },
                {
                  "internalType": "uint256",
                  "name": "decimals",
                  "type": "uint256"
                },
                {
                  "internalType": "uint256",
                  "name": "currency",
                  "type": "uint256"
                }
              ],
              "internalType": "struct JBTokenAmount",
              "name": "amount",
              "type": "tuple"
            },
            {
              "components": [
                {
                  "internalType": "address",
                  "name": "token",
                  "type": "address"
                },
                {
                  "internalType": "uint256",
                  "name": "value",
                  "type": "uint256"
                },
                {
                  "internalType": "uint256",
                  "name": "decimals",
                  "type": "uint256"
                },
                {
                  "internalType": "uint256",
                  "name": "currency",
                  "type": "uint256"
                }
              ],
              "internalType": "struct JBTokenAmount",
              "name": "forwardedAmount",
              "type": "tuple"
            },
            {
              "internalType": "uint256",
              "name": "projectTokenCount",
              "type": "uint256"
            },
            {
              "internalType": "address",
              "name": "beneficiary",
              "type": "address"
            },
            {
              "internalType": "bool",
              "name": "preferClaimedTokens",
              "type": "bool"
            },
            {
              "internalType": "string",
              "name": "memo",
              "type": "string"
            },
            {
              "internalType": "bytes",
              "name": "metadata",
              "type": "bytes"
            }
          ],
          "internalType": "struct JBDidPayData",
          "name": "_data",
          "type": "tuple"
        }
      ],
      "name": "didPay",
      "outputs": [],
      "stateMutability": "payable",
      "type": "function"
    },
    {
      "inputs": [
        {
          "components": [
            {
              "internalType": "address",
              "name": "holder",
              "type": "address"
            },
            {
              "internalType": "uint256",
              "name": "projectId",
              "type": "uint256"
            },
            {
              "internalType": "uint256",
              "name": "currentFundingCycleConfiguration",
              "type": "uint256"
            },
            {
              "internalType": "uint256",
              "name": "projectTokenCount",
              "type": "uint256"
            },
            {
              "components": [
                {
                  "internalType": "address",
                  "name": "token",
                  "type": "address"
                },
                {
                  "internalType": "uint256",
                  "name": "value",
                  "type": "uint256"
                },
                {
                  "internalType": "uint256",
                  "name": "decimals",
                  "type": "uint256"
                },
                {
                  "internalType": "uint256",
                  "name": "currency",
                  "type": "uint256"
                }
              ],
              "internalType": "struct JBTokenAmount",
              "name": "reclaimedAmount",
              "type": "tuple"
            },
            {
              "components": [
                {
                  "internalType": "address",
                  "name": "token",
                  "type": "address"
                },
                {
                  "internalType": "uint256",
                  "name": "value",
                  "type": "uint256"
                },
                {
                  "internalType": "uint256",
                  "name": "decimals",
                  "type": "uint256"
                },
                {
                  "internalType": "uint256",
                  "name": "currency",
                  "type": "uint256"
                }
              ],
              "internalType": "struct JBTokenAmount",
              "name": "forwardedAmount",
              "type": "tuple"
            },
            {
              "internalType": "address payable",
              "name": "beneficiary",
              "type": "address"
            },
            {
              "internalType": "string",
              "name": "memo",
              "type": "string"
            },
            {
              "internalType": "bytes",
              "name": "metadata",
              "type": "bytes"
            }
          ],
          "internalType": "struct JBDidRedeemData",
          "name": "_data",
          "type": "tuple"
        }
      ],
      "name": "didRedeem",
      "outputs": [],
      "stateMutability": "payable",
      "type": "function"
    },
    {
      "inputs": [],
      "name": "getRoundInfo",
      "outputs": [
        {
          "components": [
            {
              "internalType": "uint256",
              "name": "totalContributions",
              "type": "uint256"
            },
            {
              "internalType": "uint256",
              "name": "target",
              "type": "uint256"
            },
            {
              "internalType": "uint256",
              "name": "hardcap",
              "type": "uint256"
            },
            {
              "internalType": "address",
              "name": "projectOwner",
              "type": "address"
            },
            {
              "internalType": "uint256",
              "name": "afterRoundReservedRate",
              "type": "uint256"
            },
            {
              "components": [
                {
                  "internalType": "bool",
                  "name": "preferClaimed",
                  "type": "bool"
                },
                {
                  "internalType": "bool",
                  "name": "preferAddToBalance",
                  "type": "bool"
                },
                {
                  "internalType": "uint256",
                  "name": "percent",
                  "type": "uint256"
                },
                {
                  "internalType": "uint256",
                  "name": "projectId",
                  "type": "uint256"
                },
                {
                  "internalType": "address payable",
                  "name": "beneficiary",
                  "type": "address"
                },
                {
                  "internalType": "uint256",
                  "name": "lockedUntil",
                  "type": "uint256"
                },
                {
                  "internalType": "contract IJBSplitAllocator",
                  "name": "allocator",
                  "type": "address"
                }
              ],
              "internalType": "struct JBSplit[]",
              "name": "afterRoundSplits",
              "type": "tuple[]"
            },
            {
              "internalType": "bool",
              "name": "isRoundClosed",
              "type": "bool"
            },
            {
              "internalType": "uint256",
              "name": "deadline",
              "type": "uint256"
            },
            {
              "internalType": "bool",
              "name": "isTargetUsd",
              "type": "bool"
            },
            {
              "internalType": "bool",
              "name": "isHardcapUsd",
              "type": "bool"
            }
          ],
          "internalType": "struct RoundInfo",
          "name": "roundInfo",
          "type": "tuple"
        }
      ],
      "stateMutability": "view",
      "type": "function"
    },
    {
      "inputs": [],
      "name": "isTargetReached",
      "outputs": [
        {
          "internalType": "bool",
          "name": "",
          "type": "bool"
        }
      ],
      "stateMutability": "view",
      "type": "function"
    },
    {
      "inputs": [
        {
          "internalType": "address",
          "name": "",
          "type": "address"
        },
        {
          "internalType": "address",
          "name": "",
          "type": "address"
        },
        {
          "internalType": "uint256",
          "name": "",
          "type": "uint256"
        },
        {
          "internalType": "bytes",
          "name": "",
          "type": "bytes"
        }
      ],
      "name": "onERC721Received",
      "outputs": [
        {
          "internalType": "bytes4",
          "name": "",
          "type": "bytes4"
        }
      ],
      "stateMutability": "pure",
      "type": "function"
    },
    {
      "inputs": [
        {
          "components": [
            {
              "internalType": "contract IJBPaymentTerminal",
              "name": "terminal",
              "type": "address"
            },
            {
              "internalType": "address",
              "name": "payer",
              "type": "address"
            },
            {
              "components": [
                {
                  "internalType": "address",
                  "name": "token",
                  "type": "address"
                },
                {
                  "internalType": "uint256",
                  "name": "value",
                  "type": "uint256"
                },
                {
                  "internalType": "uint256",
                  "name": "decimals",
                  "type": "uint256"
                },
                {
                  "internalType": "uint256",
                  "name": "currency",
                  "type": "uint256"
                }
              ],
              "internalType": "struct JBTokenAmount",
              "name": "amount",
              "type": "tuple"
            },
            {
              "internalType": "uint256",
              "name": "projectId",
              "type": "uint256"
            },
            {
              "internalType": "uint256",
              "name": "currentFundingCycleConfiguration",
              "type": "uint256"
            },
            {
              "internalType": "address",
              "name": "beneficiary",
              "type": "address"
            },
            {
              "internalType": "uint256",
              "name": "weight",
              "type": "uint256"
            },
            {
              "internalType": "uint256",
              "name": "reservedRate",
              "type": "uint256"
            },
            {
              "internalType": "string",
              "name": "memo",
              "type": "string"
            },
            {
              "internalType": "bytes",
              "name": "metadata",
              "type": "bytes"
            }
          ],
          "internalType": "struct JBPayParamsData",
          "name": "_data",
          "type": "tuple"
        }
      ],
      "name": "payParams",
      "outputs": [
        {
          "internalType": "uint256",
          "name": "weight",
          "type": "uint256"
        },
        {
          "internalType": "string",
          "name": "memo",
          "type": "string"
        },
        {
          "components": [
            {
              "internalType": "contract IJBPayDelegate",
              "name": "delegate",
              "type": "address"
            },
            {
              "internalType": "uint256",
              "name": "amount",
              "type": "uint256"
            }
          ],
          "internalType": "struct JBPayDelegateAllocation[]",
          "name": "delegateAllocations",
          "type": "tuple[]"
        }
      ],
      "stateMutability": "view",
      "type": "function"
    },
    {
      "inputs": [],
      "name": "projectId",
      "outputs": [
        {
          "internalType": "uint256",
          "name": "",
          "type": "uint256"
        }
      ],
      "stateMutability": "view",
      "type": "function"
    },
    {
      "inputs": [
        {
          "components": [
            {
              "internalType": "contract IJBPaymentTerminal",
              "name": "terminal",
              "type": "address"
            },
            {
              "internalType": "address",
              "name": "holder",
              "type": "address"
            },
            {
              "internalType": "uint256",
              "name": "projectId",
              "type": "uint256"
            },
            {
              "internalType": "uint256",
              "name": "currentFundingCycleConfiguration",
              "type": "uint256"
            },
            {
              "internalType": "uint256",
              "name": "tokenCount",
              "type": "uint256"
            },
            {
              "internalType": "uint256",
              "name": "totalSupply",
              "type": "uint256"
            },
            {
              "internalType": "uint256",
              "name": "overflow",
              "type": "uint256"
            },
            {
              "components": [
                {
                  "internalType": "address",
                  "name": "token",
                  "type": "address"
                },
                {
                  "internalType": "uint256",
                  "name": "value",
                  "type": "uint256"
                },
                {
                  "internalType": "uint256",
                  "name": "decimals",
                  "type": "uint256"
                },
                {
                  "internalType": "uint256",
                  "name": "currency",
                  "type": "uint256"
                }
              ],
              "internalType": "struct JBTokenAmount",
              "name": "reclaimAmount",
              "type": "tuple"
            },
            {
              "internalType": "bool",
              "name": "useTotalOverflow",
              "type": "bool"
            },
            {
              "internalType": "uint256",
              "name": "redemptionRate",
              "type": "uint256"
            },
            {
              "internalType": "string",
              "name": "memo",
              "type": "string"
            },
            {
              "internalType": "bytes",
              "name": "metadata",
              "type": "bytes"
            }
          ],
          "internalType": "struct JBRedeemParamsData",
          "name": "_data",
          "type": "tuple"
        }
      ],
      "name": "redeemParams",
      "outputs": [
        {
          "internalType": "uint256",
          "name": "reclaimAmount",
          "type": "uint256"
        },
        {
          "internalType": "string",
          "name": "memo",
          "type": "string"
        },
        {
          "components": [
            {
              "internalType": "contract IJBRedemptionDelegate",
              "name": "delegate",
              "type": "address"
            },
            {
              "internalType": "uint256",
              "name": "amount",
              "type": "uint256"
            }
          ],
          "internalType": "struct JBRedemptionDelegateAllocation[]",
          "name": "delegateAllocations",
          "type": "tuple[]"
        }
      ],
      "stateMutability": "view",
      "type": "function"
    },
    {
      "inputs": [
        {
          "internalType": "uint256",
          "name": "deadline_",
          "type": "uint256"
        }
      ],
      "name": "setDeadline",
      "outputs": [],
      "stateMutability": "nonpayable",
      "type": "function"
    },
    {
      "inputs": [
        {
          "internalType": "bytes4",
          "name": "_interfaceId",
          "type": "bytes4"
        }
      ],
      "name": "supportsInterface",
      "outputs": [
        {
          "internalType": "bool",
          "name": "",
          "type": "bool"
        }
      ],
      "stateMutability": "view",
      "type": "function"
    }
  ],
  "bytecode": {
    "object": "0x6102806040523480156200001257600080fd5b5060405162003a4438038062003a448339810160408190526200003591620005c4565b60c08083015161ffff90811661010090815260e08086015183166101209081529186015166ffffffffffffff90811661014052918601519091166101605260208086015165ffffffffffff908116855260408088015190911683526080808801516001600160a01b039081166101805260a0808a015182166101a052895182169052875181168252928701519092166101c05290850151909216610220526060848101516001600160581b039081166101e0529385015115156102405291840151909216610200529082015115156102605282015164ffffffffff1615620001525760608201516200012f9064ffffffffff1642620006e4565b6000601a6101000a81548164ffffffffff021916908364ffffffffff1602179055505b60005b8160a00151518110156200022e5760018260a0015182815181106200017e576200017e6200070c565b602090810291909101810151825460018181018555600094855293839020825160069092020180549383015115156101000261ff00199215159290921661ffff19909416939093171782556040810151828401556060810151600283015560808101516003830180546001600160a01b039283166001600160a01b03199182161790915560a0830151600485015560c0909201516005909301805493909116929091169190911790550162000155565b507ff8e12f9e589f21d445dfbd50a8122bbab2c138573a952c3cde5297470d56ad1a81836040015184606001516040516200026c93929190620007b0565b60405180910390a1505062000881565b634e487b7160e01b600052604160045260246000fd5b60405160e081016001600160401b0381118282101715620002b757620002b76200027c565b60405290565b60405161010081016001600160401b0381118282101715620002b757620002b76200027c565b60405161014081016001600160401b0381118282101715620002b757620002b76200027c565b604051601f8201601f191681016001600160401b03811182821017156200033457620003346200027c565b604052919050565b6001600160a01b03811681146200035257600080fd5b50565b805162000362816200033c565b919050565b805165ffffffffffff811681146200036257600080fd5b805164ffffffffff811681146200036257600080fd5b805161ffff811681146200036257600080fd5b805166ffffffffffffff811681146200036257600080fd5b80516001600160581b03811681146200036257600080fd5b805180151581146200036257600080fd5b600082601f830112620003fa57600080fd5b815160206001600160401b038211156200041857620004186200027c565b62000428818360051b0162000309565b82815260e092830285018201928282019190878511156200044857600080fd5b8387015b85811015620004e45781818a031215620004665760008081fd5b6200047062000292565b6200047b82620003d7565b81526200048a868301620003d7565b818701526040828101519082015260608083015190820152608080830151620004b3816200033c565b9082015260a0828101519082015260c080830151620004d2816200033c565b9082015284529284019281016200044c565b5090979650505050505050565b600061010082840312156200050557600080fd5b6200050f620002bd565b90506200051c8262000355565b81526200052c6020830162000355565b60208201526200053f60408301620003bf565b60408201526200055260608301620003bf565b6060820152620005656080830162000394565b608082015260a08201516001600160401b038111156200058457600080fd5b6200059284828501620003e8565b60a083015250620005a660c08301620003d7565b60c0820152620005b960e08301620003d7565b60e082015292915050565b600080828403610160811215620005da57600080fd5b61014080821215620005eb57600080fd5b620005f5620002e3565b9150620006028562000355565b8252620006126020860162000367565b6020830152620006256040860162000367565b604083015262000638606086016200037e565b60608301526200064b6080860162000355565b60808301526200065e60a0860162000355565b60a08301526200067160c0860162000394565b60c08301526200068460e0860162000394565b60e083015261010062000699818701620003a7565b90830152610120620006ad868201620003a7565b908301528401519092506001600160401b03811115620006cc57600080fd5b620006da85828601620004f1565b9150509250929050565b808201808211156200070657634e487b7160e01b600052601160045260246000fd5b92915050565b634e487b7160e01b600052603260045260246000fd5b600081518084526020808501945080840160005b83811015620007a55781518051151588528381015115158489015260408082015190890152606080820151908901526080808201516001600160a01b03908116918a019190915260a080830151908a015260c091820151169088015260e0909601959082019060010162000736565b509495945050505050565b606080825284516001600160a01b0316908201526020840151600090620007e260808401826001600160a01b03169052565b5060408501516001600160581b03811660a08401525060608501516001600160581b03811660c084015250608085015161ffff811660e08401525060a0850151610100838101526200083961016084018262000722565b905060c08601516200085061012085018215159052565b5060e0959095015115156101408301525065ffffffffffff92909216602083015264ffffffffff1660409091015290565b60805160a05160c05160e05161010051610120516101405161016051610180516101a0516101c0516101e05161020051610220516102405161026051612ffb62000a4960003960008181610ce101526117180152600081816108d20152610cb9015260008181610b780152611a90015260008181610b1601526116f10152600081816108ab0152610af00152600081816104c501528181610b3c015281816111e0015281816116300152611bf101526000818161094b0152818161179101526120a2015260008181610973015281816117b9015261207a0152600081816102680152818161213a015281816121d8015261221b01526000818161015a0152818161218901526121f9015260008181610212015281816121b2015261223e0152600081816102af015281816121630152818161225f01526122900152600081816102e3015281816106c80152818161077d01528181610ec901528181610f7e015281816113db0152818161146c015281816114b001528181611658015281816119e20152611df80152600081816103f20152611bcb01526000818161139f0152611a0d0152600081816106f401528181610ef5015281816115600152611e3e0152612ffb6000f3fe60806040526004361061010e5760003560e01c80633fafa127116100a5578063a51cfd1811610074578063da9ee8b711610059578063da9ee8b7146103b8578063e278fe6f146103cb578063f5434b5d146103e057600080fd5b8063a51cfd1814610369578063d46cf1711461039857600080fd5b80633fafa127146102d157806342e94c90146103055780635e098f051461033257806384bc76a61461034757600080fd5b8063195199f6116100e1578063195199f61461023457806323238648146102565780632b13c58f1461028a5780633e4c6ab01461029d57600080fd5b806301ffc9a71461011357806310faea8614610148578063150b7a021461018a578063160e090114610200575b600080fd5b34801561011f57600080fd5b5061013361012e3660046122c2565b610414565b60405190151581526020015b60405180910390f35b34801561015457600080fd5b5061017c7f000000000000000000000000000000000000000000000000000000000000000081565b60405190815260200161013f565b34801561019657600080fd5b506101cf6101a536600461232d565b7f150b7a020000000000000000000000000000000000000000000000000000000095945050505050565b6040517fffffffff00000000000000000000000000000000000000000000000000000000909116815260200161013f565b34801561020c57600080fd5b5061017c7f000000000000000000000000000000000000000000000000000000000000000081565b34801561024057600080fd5b5061025461024f3660046123cc565b6104ad565b005b34801561026257600080fd5b5061017c7f000000000000000000000000000000000000000000000000000000000000000081565b6102546102983660046123fe565b6106a0565b3480156102a957600080fd5b5061017c7f000000000000000000000000000000000000000000000000000000000000000081565b3480156102dd57600080fd5b5061017c7f000000000000000000000000000000000000000000000000000000000000000081565b34801561031157600080fd5b5061017c61032036600461243b565b60026020526000908152604090205481565b34801561033e57600080fd5b506101336108a7565b34801561035357600080fd5b5061035c610a28565b60405161013f91906124f1565b34801561037557600080fd5b506103896103843660046123fe565b610d0d565b60405161013f93929190612618565b3480156103a457600080fd5b506103896103b3366004612697565b610dfb565b6102546103c63660046126d3565b610ea1565b3480156103d757600080fd5b506102546111c8565b3480156103ec57600080fd5b5061017c7f000000000000000000000000000000000000000000000000000000000000000081565b60007fffffffff0000000000000000000000000000000000000000000000000000000082167f71700c690000000000000000000000000000000000000000000000000000000014806104a757507fffffffff0000000000000000000000000000000000000000000000000000000082167fda9ee8b700000000000000000000000000000000000000000000000000000000145b92915050565b3373ffffffffffffffffffffffffffffffffffffffff7f0000000000000000000000000000000000000000000000000000000000000000161461051c576040517f75e669b400000000000000000000000000000000000000000000000000000000815260040160405180910390fd5b6000547f0100000000000000000000000000000000000000000000000000000000000000900460ff161561057c576040517f2c926ffe00000000000000000000000000000000000000000000000000000000815260040160405180910390fd5b6000547a010000000000000000000000000000000000000000000000000000900464ffffffffff16156105db576040517f32ad778500000000000000000000000000000000000000000000000000000000815260040160405180910390fd5b428164ffffffffff16101561061c576040517fb16be21c00000000000000000000000000000000000000000000000000000000815260040160405180910390fd5b600080547fff0000000000ffffffffffffffffffffffffffffffffffffffffffffffffffff167a01000000000000000000000000000000000000000000000000000064ffffffffff8416021790556040518181527f337b880688eb06df8adb77036a6c8def1da2b520bc901c04b3a5a23f9ae130399060200160405180910390a150565b6040517f6e49181f0000000000000000000000000000000000000000000000000000000081527f000000000000000000000000000000000000000000000000000000000000000060048201523360248201527f000000000000000000000000000000000000000000000000000000000000000073ffffffffffffffffffffffffffffffffffffffff1690636e49181f90604401602060405180830381865afa158015610750573d6000803e3d6000fd5b505050506040513d601f19601f820116820180604052508101906107749190612724565b15806107a457507f0000000000000000000000000000000000000000000000000000000000000000816020013514155b156107db576040517fc715ec6c00000000000000000000000000000000000000000000000000000000815260040160405180910390fd5b60a0810135600260006107f66101a08501610180860161243b565b73ffffffffffffffffffffffffffffffffffffffff16815260208101919091526040016000908120805492909203909155547f0100000000000000000000000000000000000000000000000000000000000000900460ff166108a457600080547fffffffffffff0000000000000000000000000000000000000000000000000000811660a084013579ffffffffffffffffffffffffffffffffffffffffffffffffffff928316039091161790555b50565b60007f00000000000000000000000000000000000000000000000000000000000000008015610a03577f000000000000000000000000000000000000000000000000000000000000000015610a03576040517f637113620000000000000000000000000000000000000000000000000000000081526fffffffffffffffffffffffffffffffff8216600482015273ffffffffffffffffffffffffffffffffffffffff7f0000000000000000000000000000000000000000000000000000000000000000811660248301527f0000000000000000000000000000000000000000000000000000000000000000166044820152610708606482015273f2e8176c0b67232b20205f4dfbcec3e74bca471f90636371136290608401602060405180830381865afa1580156109dc573d6000803e3d6000fd5b505050506040513d601f19601f82011682018060405250810190610a00919061273f565b90505b60005479ffffffffffffffffffffffffffffffffffffffffffffffffffff1611919050565b610a9a604051806101400160405280600081526020016000815260200160008152602001600073ffffffffffffffffffffffffffffffffffffffff1681526020016000815260200160608152602001600015158152602001600081526020016000151581526020016000151581525090565b60405180610140016040528060008054906101000a900479ffffffffffffffffffffffffffffffffffffffffffffffffffff1679ffffffffffffffffffffffffffffffffffffffffffffffffffff1681526020017f000000000000000000000000000000000000000000000000000000000000000081526020017f000000000000000000000000000000000000000000000000000000000000000081526020017f000000000000000000000000000000000000000000000000000000000000000073ffffffffffffffffffffffffffffffffffffffff1681526020017f000000000000000000000000000000000000000000000000000000000000000081526020016001805480602002602001604051908101604052809291908181526020016000905b82821015610c565760008481526020908190206040805160e08101825260068602909201805460ff80821615158552610100909104161515838501526001808201549284019290925260028101546060840152600381015473ffffffffffffffffffffffffffffffffffffffff9081166080850152600482015460a08501526005909101541660c08301529083529092019101610bbe565b505050908252506000547f0100000000000000000000000000000000000000000000000000000000000000810460ff16151560208301527a010000000000000000000000000000000000000000000000000000900464ffffffffff1660408201527f0000000000000000000000000000000000000000000000000000000000000000151560608201527f00000000000000000000000000000000000000000000000000000000000000001515608090910152919050565b6040805160018082528183019092526000916060918291849190816020015b6040805180820190915260008082526020820152815260200190600190039081610d2c57905050905060405180604001604052803073ffffffffffffffffffffffffffffffffffffffff168152602001600081525081600081518110610d9457610d94612758565b6020908102919091010152610100850135610db36101a0870187612787565b8382828080601f016020809104026020016040519081016040528093929190818152602001838380828437600092019190915250969c929b5092995090975050505050505050565b6040805160018082528183019092526000916060918291849190816020015b6040805180820190915260008082526020820152815260200190600190039081610e1a57905050905060405180604001604052803073ffffffffffffffffffffffffffffffffffffffff168152602001600081525081600081518110610e8257610e82612758565b6020908102919091010152610120850135610db3610160870187612787565b6040517f6e49181f0000000000000000000000000000000000000000000000000000000081527f000000000000000000000000000000000000000000000000000000000000000060048201523360248201527f000000000000000000000000000000000000000000000000000000000000000073ffffffffffffffffffffffffffffffffffffffff1690636e49181f90604401602060405180830381865afa158015610f51573d6000803e3d6000fd5b505050506040513d601f19601f82011682018060405250810190610f759190612724565b1580610fa557507f0000000000000000000000000000000000000000000000000000000000000000816020013514155b80610fd557506000547f0100000000000000000000000000000000000000000000000000000000000000900460ff165b1561100c576040517fc715ec6c00000000000000000000000000000000000000000000000000000000815260040160405180910390fd5b6000547a010000000000000000000000000000000000000000000000000000900464ffffffffff161580159061106857506000547a010000000000000000000000000000000000000000000000000000900464ffffffffff1642115b1561109f576040517ffa5646f400000000000000000000000000000000000000000000000000000000815260040160405180910390fd5b79ffffffffffffffffffffffffffffffffffffffffffffffffffff608082013511156110f7576040517f60349ef100000000000000000000000000000000000000000000000000000000815260040160405180910390fd5b6000805460808301359190819061112b90849079ffffffffffffffffffffffffffffffffffffffffffffffffffff166127f3565b92506101000a81548179ffffffffffffffffffffffffffffffffffffffffffffffffffff021916908379ffffffffffffffffffffffffffffffffffffffffffffffffffff16021790555061117d6116ef565b6080810135600260006111986101a08501610180860161243b565b73ffffffffffffffffffffffffffffffffffffffff16815260208101919091526040016000208054909101905550565b3373ffffffffffffffffffffffffffffffffffffffff7f00000000000000000000000000000000000000000000000000000000000000001614611237576040517f75e669b400000000000000000000000000000000000000000000000000000000815260040160405180910390fd5b6000547f0100000000000000000000000000000000000000000000000000000000000000900460ff1615611297576040517f2c926ffe00000000000000000000000000000000000000000000000000000000815260040160405180910390fd5b600080547effffffffffffffffffffffffffffffffffffffffffffffffffffffffffffff167f01000000000000000000000000000000000000000000000000000000000000001790556112e86108a7565b156116c4576000547a010000000000000000000000000000000000000000000000000000900464ffffffffff161580159061134957506000547a010000000000000000000000000000000000000000000000000000900464ffffffffff1642105b15611380576040517f92cada5e00000000000000000000000000000000000000000000000000000000815260040160405180910390fd5b6000806000806000806113916118a1565b9550955095509550955095507f000000000000000000000000000000000000000000000000000000000000000073ffffffffffffffffffffffffffffffffffffffff1663badbdf287f00000000000000000000000000000000000000000000000000000000000000008686600087876040518763ffffffff1660e01b81526004016114219695949392919061293a565b6020604051808303816000875af1158015611440573d6000803e3d6000fd5b505050506040513d601f19601f82011682018060405250810190611464919061273f565b5060006114907f0000000000000000000000000000000000000000000000000000000000000000611fc3565b90508673ffffffffffffffffffffffffffffffffffffffff16632b267b4e7f000000000000000000000000000000000000000000000000000000000000000088600161eeee600087886040516020016114ea929190612b4b565b6040516020818303038152906040526040518763ffffffff1660e01b815260040161151a96959493929190612bf6565b6020604051808303816000875af1158015611539573d6000803e3d6000fd5b505050506040513d601f19601f8201168201806040525081019061155d919061273f565b507f000000000000000000000000000000000000000000000000000000000000000073ffffffffffffffffffffffffffffffffffffffff16638b79543c6040518163ffffffff1660e01b8152600401602060405180830381865afa1580156115c9573d6000803e3d6000fd5b505050506040513d601f19601f820116820180604052508101906115ed9190612c49565b6040517f42842e0e00000000000000000000000000000000000000000000000000000000815230600482015273ffffffffffffffffffffffffffffffffffffffff7f0000000000000000000000000000000000000000000000000000000000000000811660248301527f0000000000000000000000000000000000000000000000000000000000000000604483015291909116906342842e0e90606401600060405180830381600087803b1580156116a457600080fd5b505af11580156116b8573d6000803e3d6000fd5b50505050505050505050505b6040517f5e26bbc33940bf0ea57d4933bd129b7dc4805a4933d6b9892762b2e74005555490600090a1565b7f000000000000000000000000000000000000000000000000000000000000000080156108a4577f000000000000000000000000000000000000000000000000000000000000000015611849576040517f637113620000000000000000000000000000000000000000000000000000000081526fffffffffffffffffffffffffffffffff8216600482015273ffffffffffffffffffffffffffffffffffffffff7f0000000000000000000000000000000000000000000000000000000000000000811660248301527f0000000000000000000000000000000000000000000000000000000000000000166044820152610708606482015273f2e8176c0b67232b20205f4dfbcec3e74bca471f90636371136290608401602060405180830381865afa158015611822573d6000803e3d6000fd5b505050506040513d601f19601f82011682018060405250810190611846919061273f565b90505b60005479ffffffffffffffffffffffffffffffffffffffffffffffffffff168110156108a4576040517f60349ef100000000000000000000000000000000000000000000000000000000815260040160405180910390fd5b6000806118e56040518060800160405280600081526020016000815260200160008152602001600073ffffffffffffffffffffffffffffffffffffffff1681525090565b604080516102a0810182526000610240820181815261026083018290526102808301829052825260208201819052918101829052606081018290526080810182905260a0810182905260c0810182905260e08101829052610100810182905261012081018290526101408101829052610160810182905261018081018290526101a081018290526101c081018290526101e08101829052610200810182905261022081019190915260408051608081018252600080825269d3c21bcecceda1000000602083015281830181905260608281019190915291517f8776c4990000000000000000000000000000000000000000000000000000000081527f0000000000000000000000000000000000000000000000000000000000000000600482015290935081907f000000000000000000000000000000000000000000000000000000000000000073ffffffffffffffffffffffffffffffffffffffff1690638776c499906024016103a060405180830381865afa158015611a6a573d6000803e3d6000fd5b505050506040513d601f19601f82011682018060405250810190611a8e9190612ef0565b7f00000000000000000000000000000000000000000000000000000000000000006020820152600160c0820181905260006040808401829052835101819052608083019190915260a082018190526101c082018190526101e08201819052610200820181905254909450611b1e915079ffffffffffffffffffffffffffffffffffffffffffffffffffff16612025565b60408051600180825281830190925291965060009190816020015b6040805160e08101825260008082526020808301829052928201819052606082018190526080820181905260a0820181905260c082015282527fffffffffffffffffffffffffffffffffffffffffffffffffffffffffffffffff909201910181611b395790505090506040518060e00160405280600015158152602001600015158152602001633b9aca0081526020017f000000000000000000000000000000000000000000000000000000000000000081526020017f000000000000000000000000000000000000000000000000000000000000000073ffffffffffffffffffffffffffffffffffffffff16815260200160008152602001600073ffffffffffffffffffffffffffffffffffffffff1681525081600081518110611c6057611c60612758565b60209081029190910101526040805160028082526060820190925290816020015b604080518082019091526000815260606020820152815260200190600190039081611c815790505092506040518060400160405280600181526020018281525083600081518110611cd457611cd4612758565b60200260200101819052506040518060400160405280600281526020016001805480602002602001604051908101604052809291908181526020016000905b82821015611dab5760008481526020908190206040805160e08101825260068602909201805460ff80821615158552610100909104161515838501526001808201549284019290925260028101546060840152600381015473ffffffffffffffffffffffffffffffffffffffff9081166080850152600482015460a08501526005909101541660c08301529083529092019101611d13565b5050505081525083600181518110611dc557611dc5612758565b60209081029190910101526040517f862026500000000000000000000000000000000000000000000000000000000081527f0000000000000000000000000000000000000000000000000000000000000000600482015261eeee602482015260009073ffffffffffffffffffffffffffffffffffffffff7f00000000000000000000000000000000000000000000000000000000000000001690638620265090604401602060405180830381865afa158015611e85573d6000803e3d6000fd5b505050506040513d601f19601f82011682018060405250810190611ea99190612c49565b604080516001808252818301909252919950899250816020015b611f286040518060c00160405280600073ffffffffffffffffffffffffffffffffffffffff168152602001600073ffffffffffffffffffffffffffffffffffffffff168152602001600081526020016000815260200160008152602001600081525090565b815260200190600190039081611ec35790505092506040518060c001604052808273ffffffffffffffffffffffffffffffffffffffff16815260200161eeee73ffffffffffffffffffffffffffffffffffffffff1681526020018881526020016001815260200160008152602001600081525083600081518110611fae57611fae612758565b60200260200101819052505050909192939495565b606060a06040510180604052602081039150506000815280825b600183039250600a81066030018353600a900480611fdd57508190037fffffffffffffffffffffffffffffffffffffffffffffffffffffffffffffffe0909101908152919050565b6040517f637113620000000000000000000000000000000000000000000000000000000081526fffffffffffffffffffffffffffffffff8216600482015273ffffffffffffffffffffffffffffffffffffffff7f0000000000000000000000000000000000000000000000000000000000000000811660248301527f00000000000000000000000000000000000000000000000000000000000000001660448201526107086064820152600090819073f2e8176c0b67232b20205f4dfbcec3e74bca471f90636371136290608401602060405180830381865afa158015612110573d6000803e3d6000fd5b505050506040513d601f19601f82011682018060405250810190612134919061273f565b905060007f000000000000000000000000000000000000000000000000000000000000000082101561218757507f00000000000000000000000000000000000000000000000000000000000000006122b3565b7f00000000000000000000000000000000000000000000000000000000000000008211156121d657507f00000000000000000000000000000000000000000000000000000000000000006122b3565b7f00000000000000000000000000000000000000000000000000000000000000007f0000000000000000000000000000000000000000000000000000000000000000037f000000000000000000000000000000000000000000000000000000000000000083037f00000000000000000000000000000000000000000000000000000000000000007f000000000000000000000000000000000000000000000000000000000000000003028161228d5761228d612f96565b047f00000000000000000000000000000000000000000000000000000000000000000390505b61271081850204949350505050565b6000602082840312156122d457600080fd5b81357fffffffff000000000000000000000000000000000000000000000000000000008116811461230457600080fd5b9392505050565b73ffffffffffffffffffffffffffffffffffffffff811681146108a457600080fd5b60008060008060006080868803121561234557600080fd5b85356123508161230b565b945060208601356123608161230b565b935060408601359250606086013567ffffffffffffffff8082111561238457600080fd5b818801915088601f83011261239857600080fd5b8135818111156123a757600080fd5b8960208285010111156123b957600080fd5b9699959850939650602001949392505050565b6000602082840312156123de57600080fd5b5035919050565b60006101e082840312156123f857600080fd5b50919050565b60006020828403121561241057600080fd5b813567ffffffffffffffff81111561242757600080fd5b612433848285016123e5565b949350505050565b60006020828403121561244d57600080fd5b81356123048161230b565b600081518084526020808501945080840160005b838110156124e657815180511515885283810151151584890152604080820151908901526060808201519089015260808082015173ffffffffffffffffffffffffffffffffffffffff908116918a019190915260a080830151908a015260c091820151169088015260e0909601959082019060010161246c565b509495945050505050565b6020815281516020820152602082015160408201526040820151606082015260006060830151612539608084018273ffffffffffffffffffffffffffffffffffffffff169052565b50608083015160a083015260a08301516101408060c0850152612560610160850183612458565b915060c085015161257560e086018215159052565b5060e0850151610100858101919091528501516101206125988187018315159052565b90950151151593019290925250919050565b60005b838110156125c55781810151838201526020016125ad565b50506000910152565b600081518084526125e68160208601602086016125aa565b601f017fffffffffffffffffffffffffffffffffffffffffffffffffffffffffffffffe0169290920160200192915050565b8381526000602060608184015261263260608401866125ce565b83810360408581019190915285518083528387019284019060005b81811015612688578451805173ffffffffffffffffffffffffffffffffffffffff16845286015186840152938501939183019160010161264d565b50909998505050505050505050565b6000602082840312156126a957600080fd5b813567ffffffffffffffff8111156126c057600080fd5b82016101a0818503121561230457600080fd5b6000602082840312156126e557600080fd5b813567ffffffffffffffff8111156126fc57600080fd5b8201610200818503121561230457600080fd5b8051801515811461271f57600080fd5b919050565b60006020828403121561273657600080fd5b6123048261270f565b60006020828403121561275157600080fd5b5051919050565b7f4e487b7100000000000000000000000000000000000000000000000000000000600052603260045260246000fd5b60008083357fffffffffffffffffffffffffffffffffffffffffffffffffffffffffffffffe18436030181126127bc57600080fd5b83018035915067ffffffffffffffff8211156127d757600080fd5b6020019150368190038213156127ec57600080fd5b9250929050565b79ffffffffffffffffffffffffffffffffffffffffffffffffffff81811683821601908082111561284d577f4e487b7100000000000000000000000000000000000000000000000000000000600052601160045260246000fd5b5092915050565b600081518084526020808501808196508360051b8101915082860160005b858110156128b0578284038952815180518552850151604086860181905261289c81870183612458565b9a87019a9550505090840190600101612872565b5091979650505050505050565b600081518084526020808501945080840160005b838110156124e6578151805173ffffffffffffffffffffffffffffffffffffffff908116895284820151168489015260408082015190890152606080820151908901526080808201519089015260a0908101519088015260c090960195908201906001016128d1565b60006103a088835287516020840152602088015160408401526040880151606084015273ffffffffffffffffffffffffffffffffffffffff60608901511660808401526129a560a0840188518051151582526020808201511515908301526040908101511515910152565b6020870151610100818186015260408901519150610120828187015260608a01519250610140838188015260808b015193506101606129e78189018615159052565b60a08c015194506101806129fe818a018715159052565b60c08d015195506101a0612a15818b018815159052565b60e08e015196506101c0612a2c818c018915159052565b958e015196506101e095612a438b88018915159052565b948e0151965061020094612a5a8b87018915159052565b938e0151965061022093612a718b86018915159052565b928e015115156102408b0152908d015115156102608a01528c015115156102808901528b015115156102a0880152918a015115156102c087015289015173ffffffffffffffffffffffffffffffffffffffff166102e08601528801516103008501525061032083018690526103408301819052612af081840186612854565b9050828103610360840152612b0581856128bd565b838103610380850152601581527f426c756e7420726f756e6420636f6d706c65746564000000000000000000000060208201529050604081019998505050505050505050565b7f4665652066726f6d205b50726f6a656374202300000000000000000000000000815260008351612b838160138501602088016125aa565b7f5d2868747470733a2f2f6a75696365626f782e6d6f6e65792f76322f702f00006013918401918201528351612bc08160318401602088016125aa565b7f290000000000000000000000000000000000000000000000000000000000000060319290910191820152603201949350505050565b86815285602082015284604082015273ffffffffffffffffffffffffffffffffffffffff8416606082015282608082015260c060a08201526000612c3d60c08301846125ce565b98975050505050505050565b600060208284031215612c5b57600080fd5b81516123048161230b565b604051610240810167ffffffffffffffff81118282101715612cb1577f4e487b7100000000000000000000000000000000000000000000000000000000600052604160045260246000fd5b60405290565b604051610120810167ffffffffffffffff81118282101715612cb1577f4e487b7100000000000000000000000000000000000000000000000000000000600052604160045260246000fd5b805161271f8161230b565b600060608284031215612d1f57600080fd5b6040516060810181811067ffffffffffffffff82111715612d69577f4e487b7100000000000000000000000000000000000000000000000000000000600052604160045260246000fd5b604052905080612d788361270f565b8152612d866020840161270f565b6020820152612d976040840161270f565b60408201525092915050565b60006102808284031215612db657600080fd5b612dbe612c66565b9050612dca8383612d0d565b8152606082015160208201526080820151604082015260a08201516060820152612df660c0830161270f565b6080820152612e0760e0830161270f565b60a0820152610100612e1a81840161270f565b60c0830152610120612e2d81850161270f565b60e0840152610140612e4081860161270f565b838501526101609250612e5483860161270f565b828501526101809150612e6882860161270f565b908401526101a0612e7a85820161270f565b838501526101c09250612e8e83860161270f565b828501526101e09150612ea282860161270f565b90840152610200612eb485820161270f565b838501526102209250612ec883860161270f565b82850152612ed96102408601612d02565b818501525050610260830151818301525092915050565b6000808284036103a0811215612f0557600080fd5b61012080821215612f1557600080fd5b612f1d612cb7565b9150845182526020850151602083015260408501516040830152606085015160608301526080850151608083015260a085015160a083015260c085015160c0830152612f6b60e08601612d02565b60e0830152610100808601518184015250819350612f8b86828701612da3565b925050509250929050565b7f4e487b7100000000000000000000000000000000000000000000000000000000600052601260045260246000fdfea26469706673582212207f5dc6da5f8bb327fa084d1239b89a3a19b9f23ac3799467d924c5aec9b24cb364736f6c63430008110033",
    "linkReferences": {}
  },
  "methodIdentifiers": {
    "LOWER_FUNDRAISE_BOUNDARY_USD()": "23238648",
    "MAX_K()": "3e4c6ab0",
    "MIN_K()": "160e0901",
    "UPPER_FUNDRAISE_BOUNDARY_USD()": "10faea86",
    "bluntProjectId()": "f5434b5d",
    "closeRound()": "e278fe6f",
    "contributions(address)": "42e94c90",
    "didPay((address,uint256,uint256,(address,uint256,uint256,uint256),(address,uint256,uint256,uint256),uint256,address,bool,string,bytes))": "da9ee8b7",
    "didRedeem((address,uint256,uint256,uint256,(address,uint256,uint256,uint256),(address,uint256,uint256,uint256),address,string,bytes))": "2b13c58f",
    "getRoundInfo()": "84bc76a6",
    "isTargetReached()": "5e098f05",
    "onERC721Received(address,address,uint256,bytes)": "150b7a02",
    "payParams((address,address,(address,uint256,uint256,uint256),uint256,uint256,address,uint256,uint256,string,bytes))": "d46cf171",
    "projectId()": "3fafa127",
    "redeemParams((address,address,uint256,uint256,uint256,uint256,uint256,(address,uint256,uint256,uint256),bool,uint256,string,bytes))": "a51cfd18",
    "setDeadline(uint256)": "195199f6",
    "supportsInterface(bytes4)": "01ffc9a7"
  },
  "id": 0
}