{
  "abi": [
    {
      "inputs": [],
      "stateMutability": "nonpayable",
      "type": "constructor"
    },
    {
      "inputs": [],
      "name": "CAP_REACHED",
      "type": "error"
    },
    {
      "inputs": [],
      "name": "DEADLINE_SET",
      "type": "error"
    },
    {
      "inputs": [],
      "name": "INVALID_DEADLINE",
      "type": "error"
    },
    {
      "inputs": [],
      "name": "INVALID_PAYMENT_EVENT",
      "type": "error"
    },
    {
      "inputs": [],
      "name": "NOT_PROJECT_OWNER",
      "type": "error"
    },
    {
      "inputs": [],
      "name": "ROUND_CLOSED",
      "type": "error"
    },
    {
      "inputs": [],
      "name": "ROUND_ENDED",
      "type": "error"
    },
    {
      "inputs": [],
      "name": "ROUND_NOT_CLOSED",
      "type": "error"
    },
    {
      "inputs": [],
      "name": "ROUND_NOT_ENDED",
      "type": "error"
    },
    {
      "anonymous": false,
      "inputs": [
        {
          "indexed": false,
          "internalType": "uint256",
          "name": "deadline",
          "type": "uint256"
        }
      ],
      "name": "DeadlineSet",
      "type": "event"
    },
    {
      "anonymous": false,
      "inputs": [
        {
          "indexed": false,
          "internalType": "uint8",
          "name": "version",
          "type": "uint8"
        }
      ],
      "name": "Initialized",
      "type": "event"
    },
    {
      "anonymous": false,
      "inputs": [],
      "name": "RoundClosed",
      "type": "event"
    },
    {
      "anonymous": false,
      "inputs": [
        {
          "components": [
            {
              "internalType": "contract IJBDirectory",
              "name": "directory",
              "type": "address"
            },
            {
              "internalType": "address",
              "name": "projectOwner",
              "type": "address"
            },
            {
              "internalType": "uint88",
              "name": "hardcap",
              "type": "uint88"
            },
            {
              "internalType": "uint88",
              "name": "target",
              "type": "uint88"
            },
            {
              "internalType": "bool",
              "name": "isTargetUsd",
              "type": "bool"
            },
            {
              "internalType": "bool",
              "name": "isHardcapUsd",
              "type": "bool"
            }
          ],
          "indexed": false,
          "internalType": "struct DeployBluntDelegateData",
          "name": "deployBluntDelegateData",
          "type": "tuple"
        },
        {
          "indexed": false,
          "internalType": "uint256",
          "name": "projectId",
          "type": "uint256"
        },
        {
          "indexed": false,
          "internalType": "uint256",
          "name": "duration",
          "type": "uint256"
        }
      ],
      "name": "RoundCreated",
      "type": "event"
    },
    {
      "inputs": [],
      "name": "LOWER_FUNDRAISE_BOUNDARY_USD",
      "outputs": [
        {
          "internalType": "uint56",
          "name": "",
          "type": "uint56"
        }
      ],
      "stateMutability": "view",
      "type": "function"
    },
    {
      "inputs": [],
      "name": "MAX_K",
      "outputs": [
        {
          "internalType": "uint16",
          "name": "",
          "type": "uint16"
        }
      ],
      "stateMutability": "view",
      "type": "function"
    },
    {
      "inputs": [],
      "name": "MIN_K",
      "outputs": [
        {
          "internalType": "uint16",
          "name": "",
          "type": "uint16"
        }
      ],
      "stateMutability": "view",
      "type": "function"
    },
    {
      "inputs": [],
      "name": "UPPER_FUNDRAISE_BOUNDARY_USD",
      "outputs": [
        {
          "internalType": "uint56",
          "name": "",
          "type": "uint56"
        }
      ],
      "stateMutability": "view",
      "type": "function"
    },
    {
      "inputs": [],
      "name": "closeRound",
      "outputs": [],
      "stateMutability": "nonpayable",
      "type": "function"
    },
    {
      "inputs": [
        {
          "internalType": "address",
          "name": "",
          "type": "address"
        }
      ],
      "name": "contributions",
      "outputs": [
        {
          "internalType": "uint256",
          "name": "",
          "type": "uint256"
        }
      ],
      "stateMutability": "view",
      "type": "function"
    },
    {
      "inputs": [
        {
          "components": [
            {
              "internalType": "address",
              "name": "payer",
              "type": "address"
            },
            {
              "internalType": "uint256",
              "name": "projectId",
              "type": "uint256"
            },
            {
              "internalType": "uint256",
              "name": "currentFundingCycleConfiguration",
              "type": "uint256"
            },
            {
              "components": [
                {
                  "internalType": "address",
                  "name": "token",
                  "type": "address"
                },
                {
                  "internalType": "uint256",
                  "name": "value",
                  "type": "uint256"
                },
                {
                  "internalType": "uint256",
                  "name": "decimals",
                  "type": "uint256"
                },
                {
                  "internalType": "uint256",
                  "name": "currency",
                  "type": "uint256"
                }
              ],
              "internalType": "struct JBTokenAmount",
              "name": "amount",
              "type": "tuple"
            },
            {
              "components": [
                {
                  "internalType": "address",
                  "name": "token",
                  "type": "address"
                },
                {
                  "internalType": "uint256",
                  "name": "value",
                  "type": "uint256"
                },
                {
                  "internalType": "uint256",
                  "name": "decimals",
                  "type": "uint256"
                },
                {
                  "internalType": "uint256",
                  "name": "currency",
                  "type": "uint256"
                }
              ],
              "internalType": "struct JBTokenAmount",
              "name": "forwardedAmount",
              "type": "tuple"
            },
            {
              "internalType": "uint256",
              "name": "projectTokenCount",
              "type": "uint256"
            },
            {
              "internalType": "address",
              "name": "beneficiary",
              "type": "address"
            },
            {
              "internalType": "bool",
              "name": "preferClaimedTokens",
              "type": "bool"
            },
            {
              "internalType": "string",
              "name": "memo",
              "type": "string"
            },
            {
              "internalType": "bytes",
              "name": "metadata",
              "type": "bytes"
            }
          ],
          "internalType": "struct JBDidPayData",
          "name": "_data",
          "type": "tuple"
        }
      ],
      "name": "didPay",
      "outputs": [],
      "stateMutability": "payable",
      "type": "function"
    },
    {
      "inputs": [
        {
          "components": [
            {
              "internalType": "address",
              "name": "holder",
              "type": "address"
            },
            {
              "internalType": "uint256",
              "name": "projectId",
              "type": "uint256"
            },
            {
              "internalType": "uint256",
              "name": "currentFundingCycleConfiguration",
              "type": "uint256"
            },
            {
              "internalType": "uint256",
              "name": "projectTokenCount",
              "type": "uint256"
            },
            {
              "components": [
                {
                  "internalType": "address",
                  "name": "token",
                  "type": "address"
                },
                {
                  "internalType": "uint256",
                  "name": "value",
                  "type": "uint256"
                },
                {
                  "internalType": "uint256",
                  "name": "decimals",
                  "type": "uint256"
                },
                {
                  "internalType": "uint256",
                  "name": "currency",
                  "type": "uint256"
                }
              ],
              "internalType": "struct JBTokenAmount",
              "name": "reclaimedAmount",
              "type": "tuple"
            },
            {
              "components": [
                {
                  "internalType": "address",
                  "name": "token",
                  "type": "address"
                },
                {
                  "internalType": "uint256",
                  "name": "value",
                  "type": "uint256"
                },
                {
                  "internalType": "uint256",
                  "name": "decimals",
                  "type": "uint256"
                },
                {
                  "internalType": "uint256",
                  "name": "currency",
                  "type": "uint256"
                }
              ],
              "internalType": "struct JBTokenAmount",
              "name": "forwardedAmount",
              "type": "tuple"
            },
            {
              "internalType": "address payable",
              "name": "beneficiary",
              "type": "address"
            },
            {
              "internalType": "string",
              "name": "memo",
              "type": "string"
            },
            {
              "internalType": "bytes",
              "name": "metadata",
              "type": "bytes"
            }
          ],
          "internalType": "struct JBDidRedeemData",
          "name": "_data",
          "type": "tuple"
        }
      ],
      "name": "didRedeem",
      "outputs": [],
      "stateMutability": "payable",
      "type": "function"
    },
    {
      "inputs": [],
      "name": "feeProjectId",
      "outputs": [
        {
          "internalType": "uint48",
          "name": "",
          "type": "uint48"
        }
      ],
      "stateMutability": "view",
      "type": "function"
    },
    {
      "inputs": [],
      "name": "getRoundInfo",
      "outputs": [
        {
          "components": [
            {
              "internalType": "uint256",
              "name": "totalContributions",
              "type": "uint256"
            },
            {
              "internalType": "uint256",
              "name": "target",
              "type": "uint256"
            },
            {
              "internalType": "uint256",
              "name": "hardcap",
              "type": "uint256"
            },
            {
              "internalType": "address",
              "name": "projectOwner",
              "type": "address"
            },
            {
              "internalType": "bool",
              "name": "isRoundClosed",
              "type": "bool"
            },
            {
              "internalType": "uint256",
              "name": "deadline",
              "type": "uint256"
            },
            {
              "internalType": "bool",
              "name": "isTargetUsd",
              "type": "bool"
            },
            {
              "internalType": "bool",
              "name": "isHardcapUsd",
              "type": "bool"
            }
          ],
          "internalType": "struct RoundInfo",
          "name": "",
          "type": "tuple"
        }
      ],
      "stateMutability": "view",
      "type": "function"
    },
    {
      "inputs": [
        {
          "components": [
            {
              "internalType": "contract IJBController3_1",
              "name": "controller",
              "type": "address"
            },
            {
              "internalType": "uint48",
              "name": "feeProjectId",
              "type": "uint48"
            },
            {
              "internalType": "uint48",
              "name": "projectId",
              "type": "uint48"
            },
            {
              "internalType": "uint40",
              "name": "duration",
              "type": "uint40"
            },
            {
              "internalType": "address",
              "name": "ethAddress",
              "type": "address"
            },
            {
              "internalType": "address",
              "name": "usdcAddress",
              "type": "address"
            },
            {
              "internalType": "uint16",
              "name": "maxK",
              "type": "uint16"
            },
            {
              "internalType": "uint16",
              "name": "minK",
              "type": "uint16"
            },
            {
              "internalType": "uint56",
              "name": "upperFundraiseBoundary",
              "type": "uint56"
            },
            {
              "internalType": "uint56",
              "name": "lowerFundraiseBoundary",
              "type": "uint56"
            }
          ],
          "internalType": "struct DeployBluntDelegateDeployerData",
          "name": "_deployBluntDelegateDeployerData",
          "type": "tuple"
        },
        {
          "components": [
            {
              "internalType": "contract IJBDirectory",
              "name": "directory",
              "type": "address"
            },
            {
              "internalType": "address",
              "name": "projectOwner",
              "type": "address"
            },
            {
              "internalType": "uint88",
              "name": "hardcap",
              "type": "uint88"
            },
            {
              "internalType": "uint88",
              "name": "target",
              "type": "uint88"
            },
            {
              "internalType": "bool",
              "name": "isTargetUsd",
              "type": "bool"
            },
            {
              "internalType": "bool",
              "name": "isHardcapUsd",
              "type": "bool"
            }
          ],
          "internalType": "struct DeployBluntDelegateData",
          "name": "_deployBluntDelegateData",
          "type": "tuple"
        }
      ],
      "name": "initialize",
      "outputs": [],
      "stateMutability": "nonpayable",
      "type": "function"
    },
    {
      "inputs": [],
      "name": "isTargetReached",
      "outputs": [
        {
          "internalType": "bool",
          "name": "",
          "type": "bool"
        }
      ],
      "stateMutability": "view",
      "type": "function"
    },
    {
      "inputs": [
        {
          "internalType": "address",
          "name": "",
          "type": "address"
        },
        {
          "internalType": "address",
          "name": "",
          "type": "address"
        },
        {
          "internalType": "uint256",
          "name": "",
          "type": "uint256"
        },
        {
          "internalType": "bytes",
          "name": "",
          "type": "bytes"
        }
      ],
      "name": "onERC721Received",
      "outputs": [
        {
          "internalType": "bytes4",
          "name": "",
          "type": "bytes4"
        }
      ],
      "stateMutability": "pure",
      "type": "function"
    },
    {
      "inputs": [
        {
          "components": [
            {
              "internalType": "contract IJBPaymentTerminal",
              "name": "terminal",
              "type": "address"
            },
            {
              "internalType": "address",
              "name": "payer",
              "type": "address"
            },
            {
              "components": [
                {
                  "internalType": "address",
                  "name": "token",
                  "type": "address"
                },
                {
                  "internalType": "uint256",
                  "name": "value",
                  "type": "uint256"
                },
                {
                  "internalType": "uint256",
                  "name": "decimals",
                  "type": "uint256"
                },
                {
                  "internalType": "uint256",
                  "name": "currency",
                  "type": "uint256"
                }
              ],
              "internalType": "struct JBTokenAmount",
              "name": "amount",
              "type": "tuple"
            },
            {
              "internalType": "uint256",
              "name": "projectId",
              "type": "uint256"
            },
            {
              "internalType": "uint256",
              "name": "currentFundingCycleConfiguration",
              "type": "uint256"
            },
            {
              "internalType": "address",
              "name": "beneficiary",
              "type": "address"
            },
            {
              "internalType": "uint256",
              "name": "weight",
              "type": "uint256"
            },
            {
              "internalType": "uint256",
              "name": "reservedRate",
              "type": "uint256"
            },
            {
              "internalType": "string",
              "name": "memo",
              "type": "string"
            },
            {
              "internalType": "bytes",
              "name": "metadata",
              "type": "bytes"
            }
          ],
          "internalType": "struct JBPayParamsData",
          "name": "_data",
          "type": "tuple"
        }
      ],
      "name": "payParams",
      "outputs": [
        {
          "internalType": "uint256",
          "name": "weight",
          "type": "uint256"
        },
        {
          "internalType": "string",
          "name": "memo",
          "type": "string"
        },
        {
          "components": [
            {
              "internalType": "contract IJBPayDelegate",
              "name": "delegate",
              "type": "address"
            },
            {
              "internalType": "uint256",
              "name": "amount",
              "type": "uint256"
            }
          ],
          "internalType": "struct JBPayDelegateAllocation[]",
          "name": "delegateAllocations",
          "type": "tuple[]"
        }
      ],
      "stateMutability": "view",
      "type": "function"
    },
    {
      "inputs": [],
      "name": "projectId",
      "outputs": [
        {
          "internalType": "uint48",
          "name": "",
          "type": "uint48"
        }
      ],
      "stateMutability": "view",
      "type": "function"
    },
    {
      "inputs": [
        {
          "components": [
            {
              "internalType": "contract IJBPaymentTerminal",
              "name": "terminal",
              "type": "address"
            },
            {
              "internalType": "address",
              "name": "holder",
              "type": "address"
            },
            {
              "internalType": "uint256",
              "name": "projectId",
              "type": "uint256"
            },
            {
              "internalType": "uint256",
              "name": "currentFundingCycleConfiguration",
              "type": "uint256"
            },
            {
              "internalType": "uint256",
              "name": "tokenCount",
              "type": "uint256"
            },
            {
              "internalType": "uint256",
              "name": "totalSupply",
              "type": "uint256"
            },
            {
              "internalType": "uint256",
              "name": "overflow",
              "type": "uint256"
            },
            {
              "components": [
                {
                  "internalType": "address",
                  "name": "token",
                  "type": "address"
                },
                {
                  "internalType": "uint256",
                  "name": "value",
                  "type": "uint256"
                },
                {
                  "internalType": "uint256",
                  "name": "decimals",
                  "type": "uint256"
                },
                {
                  "internalType": "uint256",
                  "name": "currency",
                  "type": "uint256"
                }
              ],
              "internalType": "struct JBTokenAmount",
              "name": "reclaimAmount",
              "type": "tuple"
            },
            {
              "internalType": "bool",
              "name": "useTotalOverflow",
              "type": "bool"
            },
            {
              "internalType": "uint256",
              "name": "redemptionRate",
              "type": "uint256"
            },
            {
              "internalType": "string",
              "name": "memo",
              "type": "string"
            },
            {
              "internalType": "bytes",
              "name": "metadata",
              "type": "bytes"
            }
          ],
          "internalType": "struct JBRedeemParamsData",
          "name": "_data",
          "type": "tuple"
        }
      ],
      "name": "redeemParams",
      "outputs": [
        {
          "internalType": "uint256",
          "name": "reclaimAmount",
          "type": "uint256"
        },
        {
          "internalType": "string",
          "name": "memo",
          "type": "string"
        },
        {
          "components": [
            {
              "internalType": "contract IJBRedemptionDelegate",
              "name": "delegate",
              "type": "address"
            },
            {
              "internalType": "uint256",
              "name": "amount",
              "type": "uint256"
            }
          ],
          "internalType": "struct JBRedemptionDelegateAllocation[]",
          "name": "delegateAllocations",
          "type": "tuple[]"
        }
      ],
      "stateMutability": "view",
      "type": "function"
    },
    {
      "inputs": [
        {
          "internalType": "uint256",
          "name": "deadline_",
          "type": "uint256"
        }
      ],
      "name": "setDeadline",
      "outputs": [],
      "stateMutability": "nonpayable",
      "type": "function"
    },
    {
      "inputs": [
        {
          "internalType": "bytes4",
          "name": "_interfaceId",
          "type": "bytes4"
        }
      ],
      "name": "supportsInterface",
      "outputs": [
        {
          "internalType": "bool",
          "name": "",
          "type": "bool"
        }
      ],
      "stateMutability": "view",
      "type": "function"
    }
  ],
  "bytecode": {
    "object": "0x60806040523480156200001157600080fd5b506200001c62000022565b620000e3565b600054610100900460ff16156200008f5760405162461bcd60e51b815260206004820152602760248201527f496e697469616c697a61626c653a20636f6e747261637420697320696e697469604482015266616c697a696e6760c81b606482015260840160405180910390fd5b60005460ff90811614620000e1576000805460ff191660ff9081179091556040519081527f7f26b83ff96e1f2b6a682f133852f6798a09c465da95921460cefb38474024989060200160405180910390a15b565b6130fa80620000f36000396000f3fe6080604052600436106101295760003560e01c80633e4c6ab0116100a557806384bc76a611610074578063d46cf17111610059578063d46cf171146105ab578063da9ee8b7146105cb578063e278fe6f146105de57600080fd5b806384bc76a6146103b0578063a51cfd181461057c57600080fd5b80633e4c6ab01461031f5780633fafa1271461033a57806342e94c90146103605780635e098f051461039b57600080fd5b8063195199f6116100fc57806326c0e4b2116100e157806326c0e4b21461029e5780632b13c58f146102ec578063365f298c146102ff57600080fd5b8063195199f61461024d578063232386481461026f57600080fd5b806301ffc9a71461012e57806310faea8614610163578063150b7a02146101a3578063160e090114610219575b600080fd5b34801561013a57600080fd5b5061014e610149366004612225565b6105f3565b60405190151581526020015b60405180910390f35b34801561016f57600080fd5b5060025461018b90640100000000900466ffffffffffffff1681565b60405166ffffffffffffff909116815260200161015a565b3480156101af57600080fd5b506101e86101be3660046122a0565b7f150b7a020000000000000000000000000000000000000000000000000000000095945050505050565b6040517fffffffff00000000000000000000000000000000000000000000000000000000909116815260200161015a565b34801561022557600080fd5b5060025461023a9062010000900461ffff1681565b60405161ffff909116815260200161015a565b34801561025957600080fd5b5061026d61026836600461233f565b610770565b005b34801561027b57600080fd5b5060025461018b906b010000000000000000000000900466ffffffffffffff1681565b3480156102aa57600080fd5b506001546102d59074010000000000000000000000000000000000000000900465ffffffffffff1681565b60405165ffffffffffff909116815260200161015a565b61026d6102fa366004612371565b610917565b34801561030b57600080fd5b5061026d61031a3660046125e4565b610ae9565b34801561032b57600080fd5b5060025461023a9061ffff1681565b34801561034657600080fd5b506001546102d590600160d01b900465ffffffffffff1681565b34801561036c57600080fd5b5061038d61037b3660046126d4565b60086020526000908152604090205481565b60405190815260200161015a565b3480156103a757600080fd5b5061014e610fa3565b3480156103bc57600080fd5b506104ff6040805161010081018252600080825260208201819052918101829052606081018290526080810182905260a0810182905260c0810182905260e081019190915250604080516101008101825260075479ffffffffffffffffffffffffffffffffffffffffffffffffffff811682526005547401000000000000000000000000000000000000000081046affffffffffffffffffffff90811660208501526006549081169484019490945273ffffffffffffffffffffffffffffffffffffffff1660608301527f0100000000000000000000000000000000000000000000000000000000000000810460ff90811615156080840152600160d01b90910464ffffffffff1660a08301526b01000000000000000000000083048116151560c08301526c01000000000000000000000000909204909116151560e082015290565b60405161015a919060006101008201905082518252602083015160208301526040830151604083015273ffffffffffffffffffffffffffffffffffffffff606084015116606083015260808301511515608083015260a083015160a083015260c0830151151560c083015260e0830151151560e083015292915050565b34801561058857600080fd5b5061059c610597366004612371565b6110e8565b60405161015a93929190612755565b3480156105b757600080fd5b5061059c6105c63660046127d4565b6111d6565b61026d6105d9366004612810565b61127c565b3480156105ea57600080fd5b5061026d611684565b60007fffffffff0000000000000000000000000000000000000000000000000000000082167f01ffc9a700000000000000000000000000000000000000000000000000000000148061068657507fffffffff0000000000000000000000000000000000000000000000000000000082167f71700c6900000000000000000000000000000000000000000000000000000000145b806106d257507fffffffff0000000000000000000000000000000000000000000000000000000082167fda9ee8b700000000000000000000000000000000000000000000000000000000145b8061071e57507fffffffff0000000000000000000000000000000000000000000000000000000082167f2b13c58f00000000000000000000000000000000000000000000000000000000145b8061076a57507fffffffff0000000000000000000000000000000000000000000000000000000082167f219c9e3a00000000000000000000000000000000000000000000000000000000145b92915050565b60055473ffffffffffffffffffffffffffffffffffffffff1633146107c1576040517f75e669b400000000000000000000000000000000000000000000000000000000815260040160405180910390fd5b6007547f0100000000000000000000000000000000000000000000000000000000000000900460ff1615610821576040517f2c926ffe00000000000000000000000000000000000000000000000000000000815260040160405180910390fd5b600754600160d01b900464ffffffffff1615610869576040517f32ad778500000000000000000000000000000000000000000000000000000000815260040160405180910390fd5b428164ffffffffff1610156108aa576040517fb16be21c00000000000000000000000000000000000000000000000000000000815260040160405180910390fd5b600780547fff0000000000ffffffffffffffffffffffffffffffffffffffffffffffffffff16600160d01b64ffffffffff8416021790556040518181527f337b880688eb06df8adb77036a6c8def1da2b520bc901c04b3a5a23f9ae130399060200160405180910390a150565b6000546001546040517f6e49181f000000000000000000000000000000000000000000000000000000008152600160d01b90910465ffffffffffff1660048201523360248201526201000090910473ffffffffffffffffffffffffffffffffffffffff1690636e49181f90604401602060405180830381865afa1580156109a2573d6000803e3d6000fd5b505050506040513d601f19601f820116820180604052508101906109c69190612857565b15806109e75750600154600160d01b900465ffffffffffff16602082013514155b15610a1e576040517fc715ec6c00000000000000000000000000000000000000000000000000000000815260040160405180910390fd5b60a081013560086000610a396101a0850161018086016126d4565b73ffffffffffffffffffffffffffffffffffffffff168152602081019190915260400160002080549190910390556007547f0100000000000000000000000000000000000000000000000000000000000000900460ff16610ae657600780547fffffffffffff0000000000000000000000000000000000000000000000000000811660a084013579ffffffffffffffffffffffffffffffffffffffffffffffffffff928316039091161790555b50565b600054610100900460ff1615808015610b095750600054600160ff909116105b80610b235750303b158015610b23575060005460ff166001145b610bb3576040517f08c379a000000000000000000000000000000000000000000000000000000000815260206004820152602e60248201527f496e697469616c697a61626c653a20636f6e747261637420697320616c72656160448201527f647920696e697469616c697a6564000000000000000000000000000000000000606482015260840160405180910390fd5b600080547fffffffffffffffffffffffffffffffffffffffffffffffffffffffffffffff001660011790558015610c1157600080547fffffffffffffffffffffffffffffffffffffffffffffffffffffffffffff00ff166101001790555b60c08301516002805460e086015161010087015161012088015161ffff9586167fffffffffffffffffffffffffffffffffffffffffffffffffffffffff000000009094169390931762010000959092168502919091177fffffffffffffffffffffffffffff0000000000000000000000000000ffffffff1664010000000066ffffffffffffff928316027fffffffffffffffffffffffffffff00000000000000ffffffffffffffffffffff16176b01000000000000000000000091909216810291909117909155602080860151600180546040808a01516080808c0151600380547fffffffffffffffffffffffff000000000000000000000000000000000000000090811673ffffffffffffffffffffffffffffffffffffffff9384161790915560a0808f01516004805484169185169190911790558e519683167401000000000000000000000000000000000000000065ffffffffffff9a8b16810279ffffffffffffffffffffffffffffffffffffffffffffffffffff1691909117600160d01b9a909616999099029490941716948116949094179094558951600080547fffffffffffffffffffff0000000000000000000000000000000000000000ffff169185169099021790975593880151600580546060808c0151939094167fff00000000000000000000000000000000000000000000000000000000000000909116176affffffffffffffffffffff9283169095029490941790935590870151600680549489015196890151969093167fffffffffffffffffffffffffffffffffffffff000000000000000000000000009094169015159094027fffffffffffffffffffffffffffffffffffffff00ff00000000000000000000001693909317919091176c01000000000000000000000000931515939093029290921790915583015164ffffffffff1615610ef8576060830151610ed59064ffffffffff16426128a3565b6007601a6101000a81548164ffffffffff021916908364ffffffffff1602179055505b7fd00b496f40b4fa292146b7af446250130addbd524b0d7380324bea1c83d5a76e8284604001518560600151604051610f33939291906128b6565b60405180910390a18015610f9e57600080547fffffffffffffffffffffffffffffffffffffffffffffffffffffffffffff00ff169055604051600181527f7f26b83ff96e1f2b6a682f133852f6798a09c465da95921460cefb38474024989060200160405180910390a15b505050565b6005546000907401000000000000000000000000000000000000000090046affffffffffffffffffffff1680156110c3576006546b010000000000000000000000900460ff16156110c357600480546003546040517f637113620000000000000000000000000000000000000000000000000000000081526fffffffffffffffffffffffffffffffff85169381019390935273ffffffffffffffffffffffffffffffffffffffff9182166024840152166044820152610708606482015273f2e8176c0b67232b20205f4dfbcec3e74bca471f90636371136290608401602060405180830381865afa15801561109c573d6000803e3d6000fd5b505050506040513d601f19601f820116820180604052508101906110c09190612947565b90505b60075479ffffffffffffffffffffffffffffffffffffffffffffffffffff1611919050565b6040805160018082528183019092526000916060918291849190816020015b604080518082019091526000808252602082015281526020019060019003908161110757905050905060405180604001604052803073ffffffffffffffffffffffffffffffffffffffff16815260200160008152508160008151811061116f5761116f612960565b602090810291909101015261010085013561118e6101a087018761298f565b8382828080601f016020809104026020016040519081016040528093929190818152602001838380828437600092019190915250969c929b5092995090975050505050505050565b6040805160018082528183019092526000916060918291849190816020015b60408051808201909152600080825260208201528152602001906001900390816111f557905050905060405180604001604052803073ffffffffffffffffffffffffffffffffffffffff16815260200160008152508160008151811061125d5761125d612960565b602090810291909101015261012085013561118e61016087018761298f565b6000546001546040517f6e49181f000000000000000000000000000000000000000000000000000000008152600160d01b90910465ffffffffffff1660048201523360248201526201000090910473ffffffffffffffffffffffffffffffffffffffff1690636e49181f90604401602060405180830381865afa158015611307573d6000803e3d6000fd5b505050506040513d601f19601f8201168201806040525081019061132b9190612857565b158061134c5750600154600160d01b900465ffffffffffff16602082013514155b15611383576040517fc715ec6c00000000000000000000000000000000000000000000000000000000815260040160405180910390fd5b6007547f0100000000000000000000000000000000000000000000000000000000000000900460ff16806113e05750600754600160d01b900464ffffffffff16158015906113e05750600754600160d01b900464ffffffffff1642115b15611417576040517ffa5646f400000000000000000000000000000000000000000000000000000000815260040160405180910390fd5b79ffffffffffffffffffffffffffffffffffffffffffffffffffff6080820135111561146f576040517f60349ef100000000000000000000000000000000000000000000000000000000815260040160405180910390fd5b60078054608083013591906000906114a490849079ffffffffffffffffffffffffffffffffffffffffffffffffffff166129fb565b825479ffffffffffffffffffffffffffffffffffffffffffffffffffff9182166101009390930a9283029190920219909116179055506006546affffffffffffffffffffff168015611638576006546c01000000000000000000000000900460ff16156115e057600480546003546040517f637113620000000000000000000000000000000000000000000000000000000081526fffffffffffffffffffffffffffffffff85169381019390935273ffffffffffffffffffffffffffffffffffffffff9182166024840152166044820152610708606482015273f2e8176c0b67232b20205f4dfbcec3e74bca471f90636371136290608401602060405180830381865afa1580156115b9573d6000803e3d6000fd5b505050506040513d601f19601f820116820180604052508101906115dd9190612947565b90505b60075479ffffffffffffffffffffffffffffffffffffffffffffffffffff16811015611638576040517f60349ef100000000000000000000000000000000000000000000000000000000815260040160405180910390fd5b6080820135600860006116536101a0860161018087016126d4565b73ffffffffffffffffffffffffffffffffffffffff1681526020810191909152604001600020805490910190555050565b60055473ffffffffffffffffffffffffffffffffffffffff1633146116d5576040517f75e669b400000000000000000000000000000000000000000000000000000000815260040160405180910390fd5b6007547f0100000000000000000000000000000000000000000000000000000000000000900460ff1615611735576040517f2c926ffe00000000000000000000000000000000000000000000000000000000815260040160405180910390fd5b600780547effffffffffffffffffffffffffffffffffffffffffffffffffffffffffffff167f0100000000000000000000000000000000000000000000000000000000000000179055611786610fa3565b15611ace57600754600160d01b900464ffffffffff16158015906117b95750600754600160d01b900464ffffffffff1642105b156117f0576040517f92cada5e00000000000000000000000000000000000000000000000000000000815260040160405180910390fd5b600080600080600080611801611af9565b6001546040517fbadbdf28000000000000000000000000000000000000000000000000000000008152969c50949a509298509096509450925073ffffffffffffffffffffffffffffffffffffffff81169163badbdf289161188091600160d01b90910465ffffffffffff16908890889060009089908990600401612d19565b6020604051808303816000875af115801561189f573d6000803e3d6000fd5b505050506040513d601f19601f820116820180604052508101906118c39190612947565b50600180546040517f4a4305c0000000000000000000000000000000000000000000000000000000008152600160d01b90910465ffffffffffff16600482015260248101879052604481019190915261eeee606482015260006084820181905260c060a483015260c482015273ffffffffffffffffffffffffffffffffffffffff871690634a4305c09060e4016020604051808303816000875af115801561196f573d6000803e3d6000fd5b505050506040513d601f19601f820116820180604052508101906119939190612947565b50600060029054906101000a900473ffffffffffffffffffffffffffffffffffffffff1673ffffffffffffffffffffffffffffffffffffffff16638b79543c6040518163ffffffff1660e01b8152600401602060405180830381865afa158015611a01573d6000803e3d6000fd5b505050506040513d601f19601f82011682018060405250810190611a259190612de6565b6005546001546040517f42842e0e00000000000000000000000000000000000000000000000000000000815230600482015273ffffffffffffffffffffffffffffffffffffffff9283166024820152600160d01b90910465ffffffffffff1660448201529116906342842e0e90606401600060405180830381600087803b158015611aaf57600080fd5b505af1158015611ac3573d6000803e3d6000fd5b505050505050505050505b6040517f5e26bbc33940bf0ea57d4933bd129b7dc4805a4933d6b9892762b2e74005555490600090a1565b600080611b3d6040518060800160405280600081526020016000815260200160008152602001600073ffffffffffffffffffffffffffffffffffffffff1681525090565b604080516102a0810182526000610240820181815261026083018290526102808301829052825260208201819052918101829052606081018290526080810182905260a0810182905260c0810182905260e08101829052610100810182905261012081018290526101408101829052610160810182905261018081018290526101a081018290526101c081018290526101e0810182905261020081018290526102208101919091526040805160808101825260008082526020820181905281830181905260608083019190915260015492517f8776c499000000000000000000000000000000000000000000000000000000008152600160d01b840465ffffffffffff16600482015291945091829173ffffffffffffffffffffffffffffffffffffffff90911690638776c499906024016103a060405180830381865afa158015611c8c573d6000803e3d6000fd5b505050506040513d601f19601f82011682018060405250810190611cb09190612ffa565b600160c082018190526000604080840182905260608401829052835101819052608083019190915260a082018190526101c082018190526101e08201819052610200820152600754909450611d21915079ffffffffffffffffffffffffffffffffffffffffffffffffffff16612078565b60408051600180825281830190925291965060009190816020015b6040805160e08101825260008082526020808301829052928201819052606082018190526080820181905260a0820181905260c082015282527fffffffffffffffffffffffffffffffffffffffffffffffffffffffffffffffff909201910181611d3c579050506040805160e081018252600080825260208201819052633b9aca009282019290925260015474010000000000000000000000000000000000000000900465ffffffffffff16606082015260055473ffffffffffffffffffffffffffffffffffffffff16608082015260a0810182905260c08101829052825192935091839190611e2e57611e2e612960565b602090810291909101015260408051600180825281830190925290816020015b604080518082019091526000815260606020820152815260200190600190039081611e4e5790505092506040518060400160405280600181526020018281525083600081518110611ea157611ea1612960565b6020908102919091010152600080546001546040517f86202650000000000000000000000000000000000000000000000000000000008152600160d01b90910465ffffffffffff16600482015261eeee60248201526201000090910473ffffffffffffffffffffffffffffffffffffffff1690638620265090604401602060405180830381865afa158015611f3a573d6000803e3d6000fd5b505050506040513d601f19601f82011682018060405250810190611f5e9190612de6565b604080516001808252818301909252919950899250816020015b611fdd6040518060c00160405280600073ffffffffffffffffffffffffffffffffffffffff168152602001600073ffffffffffffffffffffffffffffffffffffffff168152602001600081526020016000815260200160008152602001600081525090565b815260200190600190039081611f785790505092506040518060c001604052808273ffffffffffffffffffffffffffffffffffffffff16815260200161eeee73ffffffffffffffffffffffffffffffffffffffff168152602001888152602001600181526020016000815260200160008152508360008151811061206357612063612960565b60200260200101819052505050909192939495565b600354600480546040517f637113620000000000000000000000000000000000000000000000000000000081526fffffffffffffffffffffffffffffffff85169281019290925273ffffffffffffffffffffffffffffffffffffffff92831660248301529190911660448201526107086064820152600090819073f2e8176c0b67232b20205f4dfbcec3e74bca471f90636371136290608401602060405180830381865afa15801561212e573d6000803e3d6000fd5b505050506040513d601f19601f820116820180604052508101906121529190612947565b6002549091506000906b010000000000000000000000900466ffffffffffffff16821015612187575060025461ffff16612216565b600254640100000000900466ffffffffffffff168211156121b5575060025462010000900461ffff16612216565b60025466ffffffffffffff6b01000000000000000000000082048116640100000000830482168190039091169161ffff62010000820481169181169190910316908403028161220657612206613095565b60025491900461ffff9091160390505b61271081850204949350505050565b60006020828403121561223757600080fd5b81357fffffffff000000000000000000000000000000000000000000000000000000008116811461226757600080fd5b9392505050565b73ffffffffffffffffffffffffffffffffffffffff81168114610ae657600080fd5b803561229b8161226e565b919050565b6000806000806000608086880312156122b857600080fd5b85356122c38161226e565b945060208601356122d38161226e565b935060408601359250606086013567ffffffffffffffff808211156122f757600080fd5b818801915088601f83011261230b57600080fd5b81358181111561231a57600080fd5b89602082850101111561232c57600080fd5b9699959850939650602001949392505050565b60006020828403121561235157600080fd5b5035919050565b60006101e0828403121561236b57600080fd5b50919050565b60006020828403121561238357600080fd5b813567ffffffffffffffff81111561239a57600080fd5b6123a684828501612358565b949350505050565b604051610140810167ffffffffffffffff811182821017156123f9577f4e487b7100000000000000000000000000000000000000000000000000000000600052604160045260246000fd5b60405290565b604051610240810167ffffffffffffffff811182821017156123f9577f4e487b7100000000000000000000000000000000000000000000000000000000600052604160045260246000fd5b604051610120810167ffffffffffffffff811182821017156123f9577f4e487b7100000000000000000000000000000000000000000000000000000000600052604160045260246000fd5b803565ffffffffffff8116811461229b57600080fd5b803564ffffffffff8116811461229b57600080fd5b803561ffff8116811461229b57600080fd5b803566ffffffffffffff8116811461229b57600080fd5b80356affffffffffffffffffffff8116811461229b57600080fd5b8015158114610ae657600080fd5b600060c0828403121561252457600080fd5b60405160c0810181811067ffffffffffffffff8211171561256e577f4e487b7100000000000000000000000000000000000000000000000000000000600052604160045260246000fd5b604052905080823561257f8161226e565b8152602083013561258f8161226e565b60208201526125a0604084016124e9565b60408201526125b1606084016124e9565b606082015260808301356125c481612504565b608082015260a08301356125d781612504565b60a0919091015292915050565b6000808284036102008112156125f957600080fd5b6101408082121561260957600080fd5b6126116123ae565b915061261c85612290565b825261262a60208601612495565b602083015261263b60408601612495565b604083015261264c606086016124ab565b606083015261265d60808601612290565b608083015261266e60a08601612290565b60a083015261267f60c086016124c0565b60c083015261269060e086016124c0565b60e08301526101006126a38187016124d2565b908301526101206126b58682016124d2565b81840152508193506126c986828701612512565b925050509250929050565b6000602082840312156126e657600080fd5b81356122678161226e565b6000815180845260005b81811015612717576020818501810151868301820152016126fb565b5060006020828601015260207fffffffffffffffffffffffffffffffffffffffffffffffffffffffffffffffe0601f83011685010191505092915050565b8381526000602060608184015261276f60608401866126f1565b83810360408581019190915285518083528387019284019060005b818110156127c5578451805173ffffffffffffffffffffffffffffffffffffffff16845286015186840152938501939183019160010161278a565b50909998505050505050505050565b6000602082840312156127e657600080fd5b813567ffffffffffffffff8111156127fd57600080fd5b82016101a0818503121561226757600080fd5b60006020828403121561282257600080fd5b813567ffffffffffffffff81111561283957600080fd5b8201610200818503121561226757600080fd5b805161229b81612504565b60006020828403121561286957600080fd5b815161226781612504565b7f4e487b7100000000000000000000000000000000000000000000000000000000600052601160045260246000fd5b8082018082111561076a5761076a612874565b60006101008201905073ffffffffffffffffffffffffffffffffffffffff8086511683528060208701511660208401525060408501516affffffffffffffffffffff8082166040850152806060880151166060850152505060808501511515608083015260a0850151151560a083015265ffffffffffff841660c08301526123a660e083018464ffffffffff169052565b60006020828403121561295957600080fd5b5051919050565b7f4e487b7100000000000000000000000000000000000000000000000000000000600052603260045260246000fd5b60008083357fffffffffffffffffffffffffffffffffffffffffffffffffffffffffffffffe18436030181126129c457600080fd5b83018035915067ffffffffffffffff8211156129df57600080fd5b6020019150368190038213156129f457600080fd5b9250929050565b79ffffffffffffffffffffffffffffffffffffffffffffffffffff818116838216019080821115612a2e57612a2e612874565b5092915050565b612a5a8282518051151582526020808201511515908301526040908101511515910152565b6020810151606083015260408101516080830152606081015160a08301526080810151612a8b60c084018215159052565b5060a081015180151560e08401525060c0810151610100612aaf8185018315159052565b60e08301519150610120612ac68186018415159052565b90830151915061014090612add8583018415159052565b8301519150610160612af28582018415159052565b90830151915061018090612b098583018415159052565b83015191506101a0612b1e8582018415159052565b9083015191506101c090612b358583018415159052565b83015191506101e0612b4a8582018415159052565b90830151915061020090612b618583018415159052565b8301519150610220612b768582018415159052565b9083015173ffffffffffffffffffffffffffffffffffffffff16610240850152909101516102609092019190915250565b6000815180845260208085019450848260051b86018286016000805b86811015612c83578484038a52825180518552860151604087860181905281518187018190529188019160609081880190865b81811015612c6c5785518051151584528c81015115158d8501528581015186850152848101518585015260808082015173ffffffffffffffffffffffffffffffffffffffff9081169186019190915260a0808301519086015260c0918201511690840152948b019460e090920191600101612bf6565b50509c89019c965050509286019250600101612bc3565b509198975050505050505050565b600081518084526020808501945080840160005b83811015612d0e578151805173ffffffffffffffffffffffffffffffffffffffff908116895284820151168489015260408082015190890152606080820151908901526080808201519089015260a0908101519088015260c09096019590820190600101612ca5565b509495945050505050565b60006103a065ffffffffffff8916835287516020840152602088015160408401526040880151606084015273ffffffffffffffffffffffffffffffffffffffff6060890151166080840152612d7160a0840188612a35565b8561032084015280610340840152612d8b81840186612ba7565b9050828103610360840152612da08185612c91565b838103610380850152601581527f426c756e7420726f756e6420636f6d706c65746564000000000000000000000060208201529050604081019998505050505050505050565b600060208284031215612df857600080fd5b81516122678161226e565b805161229b8161226e565b600060608284031215612e2057600080fd5b6040516060810181811067ffffffffffffffff82111715612e6a577f4e487b7100000000000000000000000000000000000000000000000000000000600052604160045260246000fd5b80604052508091508251612e7d81612504565b81526020830151612e8d81612504565b60208201526040830151612ea081612504565b6040919091015292915050565b60006102808284031215612ec057600080fd5b612ec86123ff565b9050612ed48383612e0e565b8152606082015160208201526080820151604082015260a08201516060820152612f0060c0830161284c565b6080820152612f1160e0830161284c565b60a0820152610100612f2481840161284c565b60c0830152610120612f3781850161284c565b60e0840152610140612f4a81860161284c565b838501526101609250612f5e83860161284c565b828501526101809150612f7282860161284c565b908401526101a0612f8485820161284c565b838501526101c09250612f9883860161284c565b828501526101e09150612fac82860161284c565b90840152610200612fbe85820161284c565b838501526102209250612fd283860161284c565b82850152612fe36102408601612e03565b818501525050610260830151818301525092915050565b6000808284036103a081121561300f57600080fd5b6101208082121561301f57600080fd5b61302761244a565b9150845182526020850151602083015260408501516040830152606085015160608301526080850151608083015260a085015160a083015260c085015160c083015261307560e08601612e03565b60e08301526101008086015181840152508193506126c986828701612ead565b7f4e487b7100000000000000000000000000000000000000000000000000000000600052601260045260246000fdfea2646970667358221220b1972e807dd7c80f76e5ce4f780ca38cd77985bf03a1c46416e60312ca16bb7d64736f6c63430008110033",
    "linkReferences": {}
  },
  "methodIdentifiers": {
    "LOWER_FUNDRAISE_BOUNDARY_USD()": "23238648",
    "MAX_K()": "3e4c6ab0",
    "MIN_K()": "160e0901",
    "UPPER_FUNDRAISE_BOUNDARY_USD()": "10faea86",
    "closeRound()": "e278fe6f",
    "contributions(address)": "42e94c90",
    "didPay((address,uint256,uint256,(address,uint256,uint256,uint256),(address,uint256,uint256,uint256),uint256,address,bool,string,bytes))": "da9ee8b7",
    "didRedeem((address,uint256,uint256,uint256,(address,uint256,uint256,uint256),(address,uint256,uint256,uint256),address,string,bytes))": "2b13c58f",
    "feeProjectId()": "26c0e4b2",
    "getRoundInfo()": "84bc76a6",
    "initialize((address,uint48,uint48,uint40,address,address,uint16,uint16,uint56,uint56),(address,address,uint88,uint88,bool,bool))": "365f298c",
    "isTargetReached()": "5e098f05",
    "onERC721Received(address,address,uint256,bytes)": "150b7a02",
    "payParams((address,address,(address,uint256,uint256,uint256),uint256,uint256,address,uint256,uint256,string,bytes))": "d46cf171",
    "projectId()": "3fafa127",
    "redeemParams((address,address,uint256,uint256,uint256,uint256,uint256,(address,uint256,uint256,uint256),bool,uint256,string,bytes))": "a51cfd18",
    "setDeadline(uint256)": "195199f6",
    "supportsInterface(bytes4)": "01ffc9a7"
  },
  "id": 0
}