{
  "abi": [
    {
      "inputs": [
        {
          "internalType": "address",
          "name": "deployer",
          "type": "address"
        },
        {
          "internalType": "contract IBluntDelegateCloner",
          "name": "_delegateCloner",
          "type": "address"
        },
        {
          "internalType": "contract IJBController3_1",
          "name": "_controller",
          "type": "address"
        },
        {
          "internalType": "uint256",
          "name": "_feeProjectId",
          "type": "uint256"
        },
        {
          "internalType": "address",
          "name": "_ethAddress",
          "type": "address"
        },
        {
          "internalType": "address",
          "name": "_usdcAddress",
          "type": "address"
        },
        {
          "internalType": "uint16",
          "name": "_maxK",
          "type": "uint16"
        },
        {
          "internalType": "uint16",
          "name": "_minK",
          "type": "uint16"
        },
        {
          "internalType": "uint56",
          "name": "_upperFundraiseBoundary",
          "type": "uint56"
        },
        {
          "internalType": "uint56",
          "name": "_lowerFundraiseBoundary",
          "type": "uint56"
        }
      ],
      "stateMutability": "nonpayable",
      "type": "constructor"
    },
    {
      "inputs": [],
      "name": "EXCEEDED_MAX_FEE",
      "type": "error"
    },
    {
      "inputs": [],
      "name": "INVALID_INPUTS",
      "type": "error"
    },
    {
      "inputs": [],
      "name": "INVALID_TOKEN_ISSUANCE",
      "type": "error"
    },
    {
      "anonymous": false,
      "inputs": [
        {
          "indexed": true,
          "internalType": "address",
          "name": "previousOwner",
          "type": "address"
        },
        {
          "indexed": true,
          "internalType": "address",
          "name": "newOwner",
          "type": "address"
        }
      ],
      "name": "OwnershipTransferred",
      "type": "event"
    },
    {
      "inputs": [
        {
          "internalType": "contract IBluntDelegateCloner",
          "name": "newDelegateCloner_",
          "type": "address"
        }
      ],
      "name": "_setDeployer",
      "outputs": [],
      "stateMutability": "nonpayable",
      "type": "function"
    },
    {
      "inputs": [
        {
          "internalType": "uint16",
          "name": "maxK_",
          "type": "uint16"
        },
        {
          "internalType": "uint16",
          "name": "minK_",
          "type": "uint16"
        },
        {
          "internalType": "uint56",
          "name": "upperFundraiseBoundary_",
          "type": "uint56"
        },
        {
          "internalType": "uint56",
          "name": "lowerFundraiseBoundary_",
          "type": "uint56"
        }
      ],
      "name": "_setFees",
      "outputs": [],
      "stateMutability": "nonpayable",
      "type": "function"
    },
    {
      "inputs": [],
      "name": "controller",
      "outputs": [
        {
          "internalType": "contract IJBController3_1",
          "name": "",
          "type": "address"
        }
      ],
      "stateMutability": "view",
      "type": "function"
    },
    {
      "inputs": [],
      "name": "delegateCloner",
      "outputs": [
        {
          "internalType": "contract IBluntDelegateCloner",
          "name": "",
          "type": "address"
        }
      ],
      "stateMutability": "view",
      "type": "function"
    },
    {
      "inputs": [],
      "name": "ethAddress",
      "outputs": [
        {
          "internalType": "address",
          "name": "",
          "type": "address"
        }
      ],
      "stateMutability": "view",
      "type": "function"
    },
    {
      "inputs": [],
      "name": "feeProjectId",
      "outputs": [
        {
          "internalType": "uint256",
          "name": "",
          "type": "uint256"
        }
      ],
      "stateMutability": "view",
      "type": "function"
    },
    {
      "inputs": [
        {
          "components": [
            {
              "internalType": "contract IJBDirectory",
              "name": "directory",
              "type": "address"
            },
            {
              "internalType": "address",
              "name": "projectOwner",
              "type": "address"
            },
            {
              "internalType": "uint88",
              "name": "hardcap",
              "type": "uint88"
            },
            {
              "internalType": "uint88",
              "name": "target",
              "type": "uint88"
            },
            {
              "internalType": "bool",
              "name": "isTargetUsd",
              "type": "bool"
            },
            {
              "internalType": "bool",
              "name": "isHardcapUsd",
              "type": "bool"
            }
          ],
          "internalType": "struct DeployBluntDelegateData",
          "name": "_deployBluntDelegateData",
          "type": "tuple"
        },
        {
          "components": [
            {
              "components": [
                {
                  "internalType": "string",
                  "name": "content",
                  "type": "string"
                },
                {
                  "internalType": "uint256",
                  "name": "domain",
                  "type": "uint256"
                }
              ],
              "internalType": "struct JBProjectMetadata",
              "name": "projectMetadata",
              "type": "tuple"
            },
            {
              "components": [
                {
                  "internalType": "uint256",
                  "name": "duration",
                  "type": "uint256"
                },
                {
                  "internalType": "uint256",
                  "name": "weight",
                  "type": "uint256"
                },
                {
                  "internalType": "uint256",
                  "name": "discountRate",
                  "type": "uint256"
                },
                {
                  "internalType": "contract IJBFundingCycleBallot",
                  "name": "ballot",
                  "type": "address"
                }
              ],
              "internalType": "struct JBFundingCycleData",
              "name": "data",
              "type": "tuple"
            },
            {
              "components": [
                {
                  "components": [
                    {
                      "internalType": "bool",
                      "name": "allowSetTerminals",
                      "type": "bool"
                    },
                    {
                      "internalType": "bool",
                      "name": "allowSetController",
                      "type": "bool"
                    },
                    {
                      "internalType": "bool",
                      "name": "pauseTransfers",
                      "type": "bool"
                    }
                  ],
                  "internalType": "struct JBGlobalFundingCycleMetadata",
                  "name": "global",
                  "type": "tuple"
                },
                {
                  "internalType": "uint256",
                  "name": "reservedRate",
                  "type": "uint256"
                },
                {
                  "internalType": "uint256",
                  "name": "redemptionRate",
                  "type": "uint256"
                },
                {
                  "internalType": "uint256",
                  "name": "ballotRedemptionRate",
                  "type": "uint256"
                },
                {
                  "internalType": "bool",
                  "name": "pausePay",
                  "type": "bool"
                },
                {
                  "internalType": "bool",
                  "name": "pauseDistributions",
                  "type": "bool"
                },
                {
                  "internalType": "bool",
                  "name": "pauseRedeem",
                  "type": "bool"
                },
                {
                  "internalType": "bool",
                  "name": "pauseBurn",
                  "type": "bool"
                },
                {
                  "internalType": "bool",
                  "name": "allowMinting",
                  "type": "bool"
                },
                {
                  "internalType": "bool",
                  "name": "allowTerminalMigration",
                  "type": "bool"
                },
                {
                  "internalType": "bool",
                  "name": "allowControllerMigration",
                  "type": "bool"
                },
                {
                  "internalType": "bool",
                  "name": "holdFees",
                  "type": "bool"
                },
                {
                  "internalType": "bool",
                  "name": "preferClaimedTokenOverride",
                  "type": "bool"
                },
                {
                  "internalType": "bool",
                  "name": "useTotalOverflowForRedemptions",
                  "type": "bool"
                },
                {
                  "internalType": "bool",
                  "name": "useDataSourceForPay",
                  "type": "bool"
                },
                {
                  "internalType": "bool",
                  "name": "useDataSourceForRedeem",
                  "type": "bool"
                },
                {
                  "internalType": "address",
                  "name": "dataSource",
                  "type": "address"
                },
                {
                  "internalType": "uint256",
                  "name": "metadata",
                  "type": "uint256"
                }
              ],
              "internalType": "struct JBFundingCycleMetadata",
              "name": "metadata",
              "type": "tuple"
            },
            {
              "internalType": "uint256",
              "name": "mustStartAtOrAfter",
              "type": "uint256"
            },
            {
              "components": [
                {
                  "internalType": "uint256",
                  "name": "group",
                  "type": "uint256"
                },
                {
                  "components": [
                    {
                      "internalType": "bool",
                      "name": "preferClaimed",
                      "type": "bool"
                    },
                    {
                      "internalType": "bool",
                      "name": "preferAddToBalance",
                      "type": "bool"
                    },
                    {
                      "internalType": "uint256",
                      "name": "percent",
                      "type": "uint256"
                    },
                    {
                      "internalType": "uint256",
                      "name": "projectId",
                      "type": "uint256"
                    },
                    {
                      "internalType": "address payable",
                      "name": "beneficiary",
                      "type": "address"
                    },
                    {
                      "internalType": "uint256",
                      "name": "lockedUntil",
                      "type": "uint256"
                    },
                    {
                      "internalType": "contract IJBSplitAllocator",
                      "name": "allocator",
                      "type": "address"
                    }
                  ],
                  "internalType": "struct JBSplit[]",
                  "name": "splits",
                  "type": "tuple[]"
                }
              ],
              "internalType": "struct JBGroupedSplits[]",
              "name": "groupedSplits",
              "type": "tuple[]"
            },
            {
              "components": [
                {
                  "internalType": "contract IJBPaymentTerminal",
                  "name": "terminal",
                  "type": "address"
                },
                {
                  "internalType": "address",
                  "name": "token",
                  "type": "address"
                },
                {
                  "internalType": "uint256",
                  "name": "distributionLimit",
                  "type": "uint256"
                },
                {
                  "internalType": "uint256",
                  "name": "distributionLimitCurrency",
                  "type": "uint256"
                },
                {
                  "internalType": "uint256",
                  "name": "overflowAllowance",
                  "type": "uint256"
                },
                {
                  "internalType": "uint256",
                  "name": "overflowAllowanceCurrency",
                  "type": "uint256"
                }
              ],
              "internalType": "struct JBFundAccessConstraints[]",
              "name": "fundAccessConstraints",
              "type": "tuple[]"
            },
            {
              "internalType": "contract IJBPaymentTerminal[]",
              "name": "terminals",
              "type": "address[]"
            },
            {
              "internalType": "string",
              "name": "memo",
              "type": "string"
            }
          ],
          "internalType": "struct JBLaunchProjectData",
          "name": "_launchProjectData",
          "type": "tuple"
        }
      ],
      "name": "launchProjectFor",
      "outputs": [
        {
          "internalType": "uint256",
          "name": "projectId",
          "type": "uint256"
        }
      ],
      "stateMutability": "nonpayable",
      "type": "function"
    },
    {
      "inputs": [],
      "name": "lowerFundraiseBoundary",
      "outputs": [
        {
          "internalType": "uint56",
          "name": "",
          "type": "uint56"
        }
      ],
      "stateMutability": "view",
      "type": "function"
    },
    {
      "inputs": [],
      "name": "maxK",
      "outputs": [
        {
          "internalType": "uint16",
          "name": "",
          "type": "uint16"
        }
      ],
      "stateMutability": "view",
      "type": "function"
    },
    {
      "inputs": [],
      "name": "minK",
      "outputs": [
        {
          "internalType": "uint16",
          "name": "",
          "type": "uint16"
        }
      ],
      "stateMutability": "view",
      "type": "function"
    },
    {
      "inputs": [],
      "name": "owner",
      "outputs": [
        {
          "internalType": "address",
          "name": "",
          "type": "address"
        }
      ],
      "stateMutability": "view",
      "type": "function"
    },
    {
      "inputs": [],
      "name": "renounceOwnership",
      "outputs": [],
      "stateMutability": "nonpayable",
      "type": "function"
    },
    {
      "inputs": [
        {
          "internalType": "address",
          "name": "newOwner",
          "type": "address"
        }
      ],
      "name": "transferOwnership",
      "outputs": [],
      "stateMutability": "nonpayable",
      "type": "function"
    },
    {
      "inputs": [],
      "name": "upperFundraiseBoundary",
      "outputs": [
        {
          "internalType": "uint56",
          "name": "",
          "type": "uint56"
        }
      ],
      "stateMutability": "view",
      "type": "function"
    },
    {
      "inputs": [],
      "name": "usdcAddress",
      "outputs": [
        {
          "internalType": "address",
          "name": "",
          "type": "address"
        }
      ],
      "stateMutability": "view",
      "type": "function"
    }
  ],
  "bytecode": {
    "object": "0x6101006040523480156200001257600080fd5b506040516200204d3803806200204d833981016040819052620000359162000197565b6200004033620000fe565b6200004b8a620000fe565b600180546001600160a01b03998a1660e05260c09890985295881660805293871660a0526000805463ffffffff60a01b1916600160a01b61ffff9586160261ffff60b01b191617600160b01b93909416929092029290921766ffffffffffffff60c01b1916600160c01b66ffffffffffffff938416021790556001600160d81b0319909316670100000000000000959094169490940266ffffffffffffff1916929092179216919091179055506200026b565b600080546001600160a01b038381166001600160a01b0319831681178455604051919092169283917f8be0079c531659141344cd1fd0a4f28419497f9722a3daafe3b4186f6b6457e09190a35050565b6001600160a01b03811681146200016457600080fd5b50565b805161ffff811681146200017a57600080fd5b919050565b805166ffffffffffffff811681146200017a57600080fd5b6000806000806000806000806000806101408b8d031215620001b857600080fd5b8a51620001c5816200014e565b60208c0151909a50620001d8816200014e565b60408c0151909950620001eb816200014e565b60608c015160808d0151919950975062000205816200014e565b60a08c015190965062000218816200014e565b94506200022860c08c0162000167565b93506200023860e08c0162000167565b9250620002496101008c016200017f565b91506200025a6101208c016200017f565b90509295989b9194979a5092959850565b60805160a05160c05160e051611d7f620002ce600039600081816102f3015281816106460152818161076e0152610b3f0152600081816101a6015261079a01526000818160ff01526108050152600081816101db01526107dd0152611d7f6000f3fe608060405234801561001057600080fd5b50600436106100f55760003560e01c80636f9e2acb11610097578063a266dc2c11610066578063a266dc2c146102c8578063f2fde38b146102db578063f77c4791146102ee578063f7905fe21461031557600080fd5b80636f9e2acb14610267578063715018a61461027c5780637f67d87e146102845780638da5cb5b146102aa57600080fd5b806326c0e4b2116100d357806326c0e4b2146101a157806341398b15146101d6578063631f44bd146101fd57806366c297901461022c57600080fd5b806302d45457146100fa57806311fa21ad1461014b57806320f6a58d14610176575b600080fd5b6101217f000000000000000000000000000000000000000000000000000000000000000081565b60405173ffffffffffffffffffffffffffffffffffffffff90911681526020015b60405180910390f35b60015461012190670100000000000000900473ffffffffffffffffffffffffffffffffffffffff1681565b6001546101899066ffffffffffffff1681565b60405166ffffffffffffff9091168152602001610142565b6101c87f000000000000000000000000000000000000000000000000000000000000000081565b604051908152602001610142565b6101217f000000000000000000000000000000000000000000000000000000000000000081565b600054610189907801000000000000000000000000000000000000000000000000900466ffffffffffffff1681565b60005461025490760100000000000000000000000000000000000000000000900461ffff1681565b60405161ffff9091168152602001610142565b61027a610275366004610cd1565b610328565b005b61027a6104d6565b6000546102549074010000000000000000000000000000000000000000900461ffff1681565b60005473ffffffffffffffffffffffffffffffffffffffff16610121565b61027a6102d6366004610d47565b6104ea565b61027a6102e9366004610d47565b610544565b6101217f000000000000000000000000000000000000000000000000000000000000000081565b6101c86103233660046115f8565b610600565b610330610950565b6101f48461ffff161115610370576040517fe0ab694100000000000000000000000000000000000000000000000000000000815260040160405180910390fd5b8361ffff168361ffff16118061039757508166ffffffffffffff168166ffffffffffffff16115b156103ce576040517f0c8d1b0a00000000000000000000000000000000000000000000000000000000815260040160405180910390fd5b600080547fffffffffffffffff00000000ffffffffffffffffffffffffffffffffffffffff167401000000000000000000000000000000000000000061ffff968716027fffffffffffffffff0000ffffffffffffffffffffffffffffffffffffffffffff16177601000000000000000000000000000000000000000000009490951693909302939093177fff00000000000000ffffffffffffffffffffffffffffffffffffffffffffffff16780100000000000000000000000000000000000000000000000066ffffffffffffff9283160217909155600180547fffffffffffffffffffffffffffffffffffffffffffffffffff000000000000001692909116919091179055565b6104de610950565b6104e860006109d1565b565b6104f2610950565b6001805473ffffffffffffffffffffffffffffffffffffffff909216670100000000000000027fffffffffff0000000000000000000000000000000000000000ffffffffffffff909216919091179055565b61054c610950565b73ffffffffffffffffffffffffffffffffffffffff81166105f4576040517f08c379a000000000000000000000000000000000000000000000000000000000815260206004820152602660248201527f4f776e61626c653a206e6577206f776e657220697320746865207a65726f206160448201527f646472657373000000000000000000000000000000000000000000000000000060648201526084015b60405180910390fd5b6105fd816109d1565b50565b6000816020015160200151600003610644576040517fbc11a31500000000000000000000000000000000000000000000000000000000815260040160405180910390fd5b7f000000000000000000000000000000000000000000000000000000000000000073ffffffffffffffffffffffffffffffffffffffff16638b79543c6040518163ffffffff1660e01b8152600401602060405180830381865afa1580156106af573d6000803e3d6000fd5b505050506040513d601f19601f820116820180604052508101906106d391906116b9565b73ffffffffffffffffffffffffffffffffffffffff166306661abd6040518163ffffffff1660e01b8152600401602060405180830381865afa15801561071d573d6000803e3d6000fd5b505050506040513d601f19601f8201168201806040525081019061074191906116d6565b61074c9060016116ef565b604080516101408101825273ffffffffffffffffffffffffffffffffffffffff7f00000000000000000000000000000000000000000000000000000000000000008116825265ffffffffffff7f00000000000000000000000000000000000000000000000000000000000000008116602080850191909152908516838501528601515164ffffffffff1660608301527f0000000000000000000000000000000000000000000000000000000000000000811660808301527f0000000000000000000000000000000000000000000000000000000000000000811660a08301526000805461ffff740100000000000000000000000000000000000000008204811660c086015276010000000000000000000000000000000000000000000082041660e085015266ffffffffffffff7801000000000000000000000000000000000000000000000000909104811661010085015260015490811661012085015293517f995ec6fa000000000000000000000000000000000000000000000000000000008152949550919391926701000000000000009004169063995ec6fa906108f9908590899060040161172f565b6020604051808303816000875af1158015610918573d6000803e3d6000fd5b505050506040513d601f19601f8201168201806040525081019061093c91906116b9565b90506109488185610a46565b505092915050565b60005473ffffffffffffffffffffffffffffffffffffffff1633146104e8576040517f08c379a000000000000000000000000000000000000000000000000000000000815260206004820181905260248201527f4f776e61626c653a2063616c6c6572206973206e6f7420746865206f776e657260448201526064016105eb565b6000805473ffffffffffffffffffffffffffffffffffffffff8381167fffffffffffffffffffffffff0000000000000000000000000000000000000000831681178455604051919092169283917f8be0079c531659141344cd1fd0a4f28419497f9722a3daafe3b4186f6b6457e09190a35050565b80516040805160808082018352600080835260208087015181015181850152838501829052606080850183905285516102a08101875261024081018481526102608201859052600161028083018190529082528184018590526127108289018190528284015294810184905260a0810184905260c0810184905260e08101849052610100810184905261012081018490526101408101849052610160810184905261018081018490526101a081018490526101c081018590526101e081019490945273ffffffffffffffffffffffffffffffffffffffff89811661020086015261022085018490529088015186518481529283019096527f0000000000000000000000000000000000000000000000000000000000000000169563b3c526739589959194919391929091610b9d565b604080518082019091526000815260606020820152815260200190600190039081610b755790505b506040805160008082526020820190925290610c2c565b610c196040518060c00160405280600073ffffffffffffffffffffffffffffffffffffffff168152602001600073ffffffffffffffffffffffffffffffffffffffff168152602001600081526020016000815260200160008152602001600081525090565b815260200190600190039081610bb45790505b508960c001518a60e001516040518a63ffffffff1660e01b8152600401610c5b99989796959493929190611c47565b6020604051808303816000875af1158015610c7a573d6000803e3d6000fd5b505050506040513d601f19601f82011682018060405250810190610c9e91906116d6565b505050565b803561ffff81168114610cb557600080fd5b919050565b803566ffffffffffffff81168114610cb557600080fd5b60008060008060808587031215610ce757600080fd5b610cf085610ca3565b9350610cfe60208601610ca3565b9250610d0c60408601610cba565b9150610d1a60608601610cba565b905092959194509250565b73ffffffffffffffffffffffffffffffffffffffff811681146105fd57600080fd5b600060208284031215610d5957600080fd5b8135610d6481610d25565b9392505050565b8035610cb581610d25565b7f4e487b7100000000000000000000000000000000000000000000000000000000600052604160045260246000fd5b6040805190810167ffffffffffffffff81118282101715610dc857610dc8610d76565b60405290565b604051610240810167ffffffffffffffff81118282101715610dc857610dc8610d76565b60405160e0810167ffffffffffffffff81118282101715610dc857610dc8610d76565b60405160c0810167ffffffffffffffff81118282101715610dc857610dc8610d76565b604051610100810167ffffffffffffffff81118282101715610dc857610dc8610d76565b604051601f82017fffffffffffffffffffffffffffffffffffffffffffffffffffffffffffffffe016810167ffffffffffffffff81118282101715610ea357610ea3610d76565b604052919050565b80356affffffffffffffffffffff81168114610cb557600080fd5b80358015158114610cb557600080fd5b600082601f830112610ee757600080fd5b813567ffffffffffffffff811115610f0157610f01610d76565b610f3260207fffffffffffffffffffffffffffffffffffffffffffffffffffffffffffffffe0601f84011601610e5c565b818152846020838601011115610f4757600080fd5b816020850160208301376000918101602001919091529392505050565b600060408284031215610f7657600080fd5b610f7e610da5565b9050813567ffffffffffffffff811115610f9757600080fd5b610fa384828501610ed6565b8252506020820135602082015292915050565b600060808284031215610fc857600080fd5b6040516080810181811067ffffffffffffffff82111715610feb57610feb610d76565b8060405250809150823581526020830135602082015260408301356040820152606083013561101981610d25565b6060919091015292915050565b60006060828403121561103857600080fd5b6040516060810181811067ffffffffffffffff8211171561105b5761105b610d76565b60405290508061106a83610ec6565b815261107860208401610ec6565b602082015261108960408401610ec6565b60408201525092915050565b600061028082840312156110a857600080fd5b6110b0610dce565b90506110bc8383611026565b8152606082013560208201526080820135604082015260a082013560608201526110e860c08301610ec6565b60808201526110f960e08301610ec6565b60a082015261010061110c818401610ec6565b60c083015261012061111f818501610ec6565b60e0840152610140611132818601610ec6565b838501526101609250611146838601610ec6565b82850152610180915061115a828601610ec6565b908401526101a061116c858201610ec6565b838501526101c09250611180838601610ec6565b828501526101e09150611194828601610ec6565b908401526102006111a6858201610ec6565b8385015261022092506111ba838601610ec6565b828501526111cb6102408601610d6b565b818501525050610260830135818301525092915050565b600067ffffffffffffffff8211156111fc576111fc610d76565b5060051b60200190565b600082601f83011261121757600080fd5b8135602061122c611227836111e2565b610e5c565b82815260059290921b8401810191818101908684111561124b57600080fd5b8286015b848110156113b357803567ffffffffffffffff8082111561126f57600080fd5b81890191506040807fffffffffffffffffffffffffffffffffffffffffffffffffffffffffffffffe0848d030112156112a757600080fd5b6112af610da5565b87840135815281840135838111156112c657600080fd5b8085019450508b603f8501126112db57600080fd5b8784013592506112ed611227846111e2565b83815260e09093028401820192888101908d85111561130b57600080fd5b948301945b8486101561139e5760e0868f03121561132857600080fd5b611330610df2565b61133987610ec6565b81526113468b8801610ec6565b8b820152848701358582015260608701356060820152608087013561136a81610d25565b608082015260a0878101359082015260c087013561138781610d25565b60c0820152825260e0959095019490890190611310565b828a015250865250505091830191830161124f565b509695505050505050565b600082601f8301126113cf57600080fd5b813560206113df611227836111e2565b82815260c092830285018201928282019190878511156113fe57600080fd5b8387015b858110156114755781818a03121561141a5760008081fd5b611422610e15565b813561142d81610d25565b81528186013561143c81610d25565b8187015260408281013590820152606080830135908201526080808301359082015260a080830135908201528452928401928101611402565b5090979650505050505050565b600082601f83011261149357600080fd5b813560206114a3611227836111e2565b82815260059290921b840181019181810190868411156114c257600080fd5b8286015b848110156113b35780356114d981610d25565b83529183019183016114c6565b60006103c082840312156114f957600080fd5b611501610e38565b9050813567ffffffffffffffff8082111561151b57600080fd5b61152785838601610f64565b83526115368560208601610fb6565b60208401526115488560a08601611095565b6040840152610320840135606084015261034084013591508082111561156d57600080fd5b61157985838601611206565b608084015261036084013591508082111561159357600080fd5b61159f858386016113be565b60a08401526103808401359150808211156115b957600080fd5b6115c585838601611482565b60c08401526103a08401359150808211156115df57600080fd5b506115ec84828501610ed6565b60e08301525092915050565b60008082840360e081121561160c57600080fd5b60c081121561161a57600080fd5b50611623610e15565b833561162e81610d25565b8152602084013561163e81610d25565b602082015261164f60408501610eab565b604082015261166060608501610eab565b606082015261167160808501610ec6565b608082015261168260a08501610ec6565b60a0820152915060c083013567ffffffffffffffff8111156116a357600080fd5b6116af858286016114e6565b9150509250929050565b6000602082840312156116cb57600080fd5b8151610d6481610d25565b6000602082840312156116e857600080fd5b5051919050565b80820180821115611729577f4e487b7100000000000000000000000000000000000000000000000000000000600052601160045260246000fd5b92915050565b825173ffffffffffffffffffffffffffffffffffffffff16815261020081016020840151611767602084018265ffffffffffff169052565b506040840151611781604084018265ffffffffffff169052565b50606084015161179a606084018264ffffffffff169052565b5060808401516117c2608084018273ffffffffffffffffffffffffffffffffffffffff169052565b5060a08401516117ea60a084018273ffffffffffffffffffffffffffffffffffffffff169052565b5060c084015161180060c084018261ffff169052565b5060e084015161181660e084018261ffff169052565b506101008481015166ffffffffffffff81168483015250506101208481015166ffffffffffffff8116848301525050825173ffffffffffffffffffffffffffffffffffffffff90811661014084015260208401511661016083015260408301516affffffffffffffffffffff9081166101808401526060840151166101a0830152608083015115156101c083015260a083015115156101e0830152610d64565b6000815180845260005b818110156118dc576020818501810151868301820152016118c0565b5060006020828601015260207fffffffffffffffffffffffffffffffffffffffffffffffffffffffffffffffe0601f83011685010191505092915050565b61193f8282518051151582526020808201511515908301526040908101511515910152565b6020810151606083015260408101516080830152606081015160a0830152608081015161197060c084018215159052565b5060a081015180151560e08401525060c08101516101006119948185018315159052565b60e083015191506101206119ab8186018415159052565b908301519150610140906119c28583018415159052565b83015191506101606119d78582018415159052565b908301519150610180906119ee8583018415159052565b83015191506101a0611a038582018415159052565b9083015191506101c090611a1a8583018415159052565b83015191506101e0611a2f8582018415159052565b90830151915061020090611a468583018415159052565b8301519150610220611a5b8582018415159052565b9083015173ffffffffffffffffffffffffffffffffffffffff16610240850152909101516102609092019190915250565b600081518084526020808501808196508360051b810191508286016000805b86811015611b6b578385038a52825180518652860151604087870181905281518188018190529188019160609081890190865b81811015611b545785518051151584528c81015115158d8501528581015186850152848101518585015260808082015173ffffffffffffffffffffffffffffffffffffffff9081169186019190915260a0808301519086015260c0918201511690840152948b019460e090920191600101611ade565b50509c89019c975050509286019250600101611aab565b509298975050505050505050565b600081518084526020808501945080840160005b83811015611bf6578151805173ffffffffffffffffffffffffffffffffffffffff908116895284820151168489015260408082015190890152606080820151908901526080808201519089015260a0908101519088015260c09096019590820190600101611b8d565b509495945050505050565b600081518084526020808501945080840160005b83811015611bf657815173ffffffffffffffffffffffffffffffffffffffff1687529582019590820190600101611c15565b60006103e073ffffffffffffffffffffffffffffffffffffffff8c1683528060208401528a51604082850152611c816104208501826118b6565b91505060208b0151610400840152611cd3604084018b80518252602081015160208301526040810151604083015273ffffffffffffffffffffffffffffffffffffffff60608201511660608301525050565b611ce060c084018a61191a565b87610340840152828103610360840152611cfa8188611a8c565b9050828103610380840152611d0f8187611b79565b90508281036103a0840152611d248186611c01565b90508281036103c0840152611d3981856118b6565b9c9b50505050505050505050505056fea264697066735822122015555e78d93569047e8cee81d20133f61f691d043b838fd32f54361f2e5e940a64736f6c63430008110033",
    "linkReferences": {}
  },
  "methodIdentifiers": {
    "_setDeployer(address)": "a266dc2c",
    "_setFees(uint16,uint16,uint56,uint56)": "6f9e2acb",
    "controller()": "f77c4791",
    "delegateCloner()": "11fa21ad",
    "ethAddress()": "41398b15",
    "feeProjectId()": "26c0e4b2",
    "launchProjectFor((address,address,uint88,uint88,bool,bool),((string,uint256),(uint256,uint256,uint256,address),((bool,bool,bool),uint256,uint256,uint256,bool,bool,bool,bool,bool,bool,bool,bool,bool,bool,bool,bool,address,uint256),uint256,(uint256,(bool,bool,uint256,uint256,address,uint256,address)[])[],(address,address,uint256,uint256,uint256,uint256)[],address[],string))": "f7905fe2",
    "lowerFundraiseBoundary()": "20f6a58d",
    "maxK()": "7f67d87e",
    "minK()": "66c29790",
    "owner()": "8da5cb5b",
    "renounceOwnership()": "715018a6",
    "transferOwnership(address)": "f2fde38b",
    "upperFundraiseBoundary()": "631f44bd",
    "usdcAddress()": "02d45457"
  },
  "id": 2
}