{
  "abi": [
    {
      "inputs": [
        {
          "internalType": "contract IJBController",
          "name": "_controller",
          "type": "address"
        },
        {
          "internalType": "uint256",
          "name": "_projectId",
          "type": "uint256"
        },
        {
          "internalType": "uint256",
          "name": "_duration",
          "type": "uint256"
        },
        {
          "internalType": "address",
          "name": "_ethAddress",
          "type": "address"
        },
        {
          "internalType": "address",
          "name": "_usdcAddress",
          "type": "address"
        },
        {
          "components": [
            {
              "internalType": "contract IJBDirectory",
              "name": "directory",
              "type": "address"
            },
            {
              "internalType": "contract IJBFundingCycleStore",
              "name": "fundingCycleStore",
              "type": "address"
            },
            {
              "internalType": "contract ISliceCore",
              "name": "sliceCore",
              "type": "address"
            },
            {
              "internalType": "address",
              "name": "projectOwner",
              "type": "address"
            },
            {
              "internalType": "uint88",
              "name": "hardcap",
              "type": "uint88"
            },
            {
              "internalType": "uint88",
              "name": "target",
              "type": "uint88"
            },
            {
              "internalType": "uint40",
              "name": "releaseTimelock",
              "type": "uint40"
            },
            {
              "internalType": "uint40",
              "name": "transferTimelock",
              "type": "uint40"
            },
            {
              "internalType": "uint16",
              "name": "afterRoundReservedRate",
              "type": "uint16"
            },
            {
              "components": [
                {
                  "internalType": "bool",
                  "name": "preferClaimed",
                  "type": "bool"
                },
                {
                  "internalType": "bool",
                  "name": "preferAddToBalance",
                  "type": "bool"
                },
                {
                  "internalType": "uint256",
                  "name": "percent",
                  "type": "uint256"
                },
                {
                  "internalType": "uint256",
                  "name": "projectId",
                  "type": "uint256"
                },
                {
                  "internalType": "address payable",
                  "name": "beneficiary",
                  "type": "address"
                },
                {
                  "internalType": "uint256",
                  "name": "lockedUntil",
                  "type": "uint256"
                },
                {
                  "internalType": "contract IJBSplitAllocator",
                  "name": "allocator",
                  "type": "address"
                }
              ],
              "internalType": "struct JBSplit[]",
              "name": "afterRoundSplits",
              "type": "tuple[]"
            },
            {
              "internalType": "string",
              "name": "tokenName",
              "type": "string"
            },
            {
              "internalType": "string",
              "name": "tokenSymbol",
              "type": "string"
            },
            {
              "internalType": "bool",
              "name": "enforceSlicerCreation",
              "type": "bool"
            },
            {
              "internalType": "bool",
              "name": "isTargetUsd",
              "type": "bool"
            },
            {
              "internalType": "bool",
              "name": "isHardcapUsd",
              "type": "bool"
            }
          ],
          "internalType": "struct DeployBluntDelegateData",
          "name": "_deployBluntDelegateData",
          "type": "tuple"
        }
      ],
      "stateMutability": "nonpayable",
      "type": "constructor"
    },
    {
      "inputs": [],
      "name": "ALREADY_QUEUED",
      "type": "error"
    },
    {
      "inputs": [],
      "name": "CANNOT_ACCEPT_ERC1155",
      "type": "error"
    },
    {
      "inputs": [],
      "name": "CAP_REACHED",
      "type": "error"
    },
    {
      "inputs": [],
      "name": "INVALID_PAYMENT_EVENT",
      "type": "error"
    },
    {
      "inputs": [],
      "name": "NOT_PROJECT_OWNER",
      "type": "error"
    },
    {
      "inputs": [],
      "name": "ROUND_CLOSED",
      "type": "error"
    },
    {
      "inputs": [],
      "name": "ROUND_NOT_CLOSED",
      "type": "error"
    },
    {
      "inputs": [],
      "name": "SLICER_NOT_YET_CREATED",
      "type": "error"
    },
    {
      "inputs": [],
      "name": "TOKEN_NOT_SET",
      "type": "error"
    },
    {
      "inputs": [],
      "name": "VALUE_NOT_EXACT",
      "type": "error"
    },
    {
      "anonymous": false,
      "inputs": [
        {
          "indexed": false,
          "internalType": "address",
          "name": "beneficiary",
          "type": "address"
        },
        {
          "indexed": false,
          "internalType": "uint256",
          "name": "amount",
          "type": "uint256"
        }
      ],
      "name": "ClaimedSlices",
      "type": "event"
    },
    {
      "anonymous": false,
      "inputs": [
        {
          "indexed": false,
          "internalType": "address[]",
          "name": "beneficiaries",
          "type": "address[]"
        },
        {
          "indexed": false,
          "internalType": "uint256[]",
          "name": "amounts",
          "type": "uint256[]"
        }
      ],
      "name": "ClaimedSlicesBatch",
      "type": "event"
    },
    {
      "anonymous": false,
      "inputs": [
        {
          "indexed": false,
          "internalType": "address",
          "name": "beneficiary",
          "type": "address"
        },
        {
          "indexed": false,
          "internalType": "uint256",
          "name": "amount",
          "type": "uint256"
        }
      ],
      "name": "Paid",
      "type": "event"
    },
    {
      "anonymous": false,
      "inputs": [],
      "name": "Queued",
      "type": "event"
    },
    {
      "anonymous": false,
      "inputs": [
        {
          "indexed": false,
          "internalType": "address",
          "name": "beneficiary",
          "type": "address"
        },
        {
          "indexed": false,
          "internalType": "uint256",
          "name": "amount",
          "type": "uint256"
        }
      ],
      "name": "Redeemed",
      "type": "event"
    },
    {
      "anonymous": false,
      "inputs": [],
      "name": "RoundClosed",
      "type": "event"
    },
    {
      "anonymous": false,
      "inputs": [
        {
          "components": [
            {
              "internalType": "contract IJBDirectory",
              "name": "directory",
              "type": "address"
            },
            {
              "internalType": "contract IJBFundingCycleStore",
              "name": "fundingCycleStore",
              "type": "address"
            },
            {
              "internalType": "contract ISliceCore",
              "name": "sliceCore",
              "type": "address"
            },
            {
              "internalType": "address",
              "name": "projectOwner",
              "type": "address"
            },
            {
              "internalType": "uint88",
              "name": "hardcap",
              "type": "uint88"
            },
            {
              "internalType": "uint88",
              "name": "target",
              "type": "uint88"
            },
            {
              "internalType": "uint40",
              "name": "releaseTimelock",
              "type": "uint40"
            },
            {
              "internalType": "uint40",
              "name": "transferTimelock",
              "type": "uint40"
            },
            {
              "internalType": "uint16",
              "name": "afterRoundReservedRate",
              "type": "uint16"
            },
            {
              "components": [
                {
                  "internalType": "bool",
                  "name": "preferClaimed",
                  "type": "bool"
                },
                {
                  "internalType": "bool",
                  "name": "preferAddToBalance",
                  "type": "bool"
                },
                {
                  "internalType": "uint256",
                  "name": "percent",
                  "type": "uint256"
                },
                {
                  "internalType": "uint256",
                  "name": "projectId",
                  "type": "uint256"
                },
                {
                  "internalType": "address payable",
                  "name": "beneficiary",
                  "type": "address"
                },
                {
                  "internalType": "uint256",
                  "name": "lockedUntil",
                  "type": "uint256"
                },
                {
                  "internalType": "contract IJBSplitAllocator",
                  "name": "allocator",
                  "type": "address"
                }
              ],
              "internalType": "struct JBSplit[]",
              "name": "afterRoundSplits",
              "type": "tuple[]"
            },
            {
              "internalType": "string",
              "name": "tokenName",
              "type": "string"
            },
            {
              "internalType": "string",
              "name": "tokenSymbol",
              "type": "string"
            },
            {
              "internalType": "bool",
              "name": "enforceSlicerCreation",
              "type": "bool"
            },
            {
              "internalType": "bool",
              "name": "isTargetUsd",
              "type": "bool"
            },
            {
              "internalType": "bool",
              "name": "isHardcapUsd",
              "type": "bool"
            }
          ],
          "indexed": false,
          "internalType": "struct DeployBluntDelegateData",
          "name": "deployBluntDelegateData",
          "type": "tuple"
        },
        {
          "indexed": false,
          "internalType": "uint256",
          "name": "projectId",
          "type": "uint256"
        },
        {
          "indexed": false,
          "internalType": "uint256",
          "name": "duration",
          "type": "uint256"
        },
        {
          "indexed": false,
          "internalType": "uint256",
          "name": "currentFundingCycle",
          "type": "uint256"
        }
      ],
      "name": "RoundCreated",
      "type": "event"
    },
    {
      "anonymous": false,
      "inputs": [
        {
          "indexed": false,
          "internalType": "uint256",
          "name": "slicerId_",
          "type": "uint256"
        },
        {
          "indexed": false,
          "internalType": "address",
          "name": "slicerAddress",
          "type": "address"
        }
      ],
      "name": "SlicerCreated",
      "type": "event"
    },
    {
      "anonymous": false,
      "inputs": [
        {
          "indexed": false,
          "internalType": "string",
          "name": "tokenName_",
          "type": "string"
        },
        {
          "indexed": false,
          "internalType": "string",
          "name": "tokenSymbol_",
          "type": "string"
        }
      ],
      "name": "TokenMetadataSet",
      "type": "event"
    },
    {
      "inputs": [],
      "name": "MAX_CONTRIBUTION",
      "outputs": [
        {
          "internalType": "uint88",
          "name": "",
          "type": "uint88"
        }
      ],
      "stateMutability": "view",
      "type": "function"
    },
    {
      "inputs": [],
      "name": "TOKENS_PER_SLICE",
      "outputs": [
        {
          "internalType": "uint64",
          "name": "",
          "type": "uint64"
        }
      ],
      "stateMutability": "view",
      "type": "function"
    },
    {
      "inputs": [],
      "name": "afterRoundReservedRate",
      "outputs": [
        {
          "internalType": "uint16",
          "name": "",
          "type": "uint16"
        }
      ],
      "stateMutability": "view",
      "type": "function"
    },
    {
      "inputs": [
        {
          "internalType": "uint256",
          "name": "",
          "type": "uint256"
        }
      ],
      "name": "afterRoundSplits",
      "outputs": [
        {
          "internalType": "bool",
          "name": "preferClaimed",
          "type": "bool"
        },
        {
          "internalType": "bool",
          "name": "preferAddToBalance",
          "type": "bool"
        },
        {
          "internalType": "uint256",
          "name": "percent",
          "type": "uint256"
        },
        {
          "internalType": "uint256",
          "name": "projectId",
          "type": "uint256"
        },
        {
          "internalType": "address payable",
          "name": "beneficiary",
          "type": "address"
        },
        {
          "internalType": "uint256",
          "name": "lockedUntil",
          "type": "uint256"
        },
        {
          "internalType": "contract IJBSplitAllocator",
          "name": "allocator",
          "type": "address"
        }
      ],
      "stateMutability": "view",
      "type": "function"
    },
    {
      "inputs": [],
      "name": "claimSlices",
      "outputs": [],
      "stateMutability": "nonpayable",
      "type": "function"
    },
    {
      "inputs": [],
      "name": "closeRound",
      "outputs": [],
      "stateMutability": "nonpayable",
      "type": "function"
    },
    {
      "inputs": [
        {
          "internalType": "address",
          "name": "",
          "type": "address"
        }
      ],
      "name": "contributions",
      "outputs": [
        {
          "internalType": "uint256",
          "name": "",
          "type": "uint256"
        }
      ],
      "stateMutability": "view",
      "type": "function"
    },
    {
      "inputs": [],
      "name": "controller",
      "outputs": [
        {
          "internalType": "contract IJBController",
          "name": "",
          "type": "address"
        }
      ],
      "stateMutability": "view",
      "type": "function"
    },
    {
      "inputs": [
        {
          "components": [
            {
              "internalType": "address",
              "name": "payer",
              "type": "address"
            },
            {
              "internalType": "uint256",
              "name": "projectId",
              "type": "uint256"
            },
            {
              "internalType": "uint256",
              "name": "currentFundingCycleConfiguration",
              "type": "uint256"
            },
            {
              "components": [
                {
                  "internalType": "address",
                  "name": "token",
                  "type": "address"
                },
                {
                  "internalType": "uint256",
                  "name": "value",
                  "type": "uint256"
                },
                {
                  "internalType": "uint256",
                  "name": "decimals",
                  "type": "uint256"
                },
                {
                  "internalType": "uint256",
                  "name": "currency",
                  "type": "uint256"
                }
              ],
              "internalType": "struct JBTokenAmount",
              "name": "amount",
              "type": "tuple"
            },
            {
              "components": [
                {
                  "internalType": "address",
                  "name": "token",
                  "type": "address"
                },
                {
                  "internalType": "uint256",
                  "name": "value",
                  "type": "uint256"
                },
                {
                  "internalType": "uint256",
                  "name": "decimals",
                  "type": "uint256"
                },
                {
                  "internalType": "uint256",
                  "name": "currency",
                  "type": "uint256"
                }
              ],
              "internalType": "struct JBTokenAmount",
              "name": "forwardedAmount",
              "type": "tuple"
            },
            {
              "internalType": "uint256",
              "name": "projectTokenCount",
              "type": "uint256"
            },
            {
              "internalType": "address",
              "name": "beneficiary",
              "type": "address"
            },
            {
              "internalType": "bool",
              "name": "preferClaimedTokens",
              "type": "bool"
            },
            {
              "internalType": "string",
              "name": "memo",
              "type": "string"
            },
            {
              "internalType": "bytes",
              "name": "metadata",
              "type": "bytes"
            }
          ],
          "internalType": "struct JBDidPayData",
          "name": "_data",
          "type": "tuple"
        }
      ],
      "name": "didPay",
      "outputs": [],
      "stateMutability": "payable",
      "type": "function"
    },
    {
      "inputs": [
        {
          "components": [
            {
              "internalType": "address",
              "name": "holder",
              "type": "address"
            },
            {
              "internalType": "uint256",
              "name": "projectId",
              "type": "uint256"
            },
            {
              "internalType": "uint256",
              "name": "currentFundingCycleConfiguration",
              "type": "uint256"
            },
            {
              "internalType": "uint256",
              "name": "projectTokenCount",
              "type": "uint256"
            },
            {
              "components": [
                {
                  "internalType": "address",
                  "name": "token",
                  "type": "address"
                },
                {
                  "internalType": "uint256",
                  "name": "value",
                  "type": "uint256"
                },
                {
                  "internalType": "uint256",
                  "name": "decimals",
                  "type": "uint256"
                },
                {
                  "internalType": "uint256",
                  "name": "currency",
                  "type": "uint256"
                }
              ],
              "internalType": "struct JBTokenAmount",
              "name": "reclaimedAmount",
              "type": "tuple"
            },
            {
              "components": [
                {
                  "internalType": "address",
                  "name": "token",
                  "type": "address"
                },
                {
                  "internalType": "uint256",
                  "name": "value",
                  "type": "uint256"
                },
                {
                  "internalType": "uint256",
                  "name": "decimals",
                  "type": "uint256"
                },
                {
                  "internalType": "uint256",
                  "name": "currency",
                  "type": "uint256"
                }
              ],
              "internalType": "struct JBTokenAmount",
              "name": "forwardedAmount",
              "type": "tuple"
            },
            {
              "internalType": "address payable",
              "name": "beneficiary",
              "type": "address"
            },
            {
              "internalType": "string",
              "name": "memo",
              "type": "string"
            },
            {
              "internalType": "bytes",
              "name": "metadata",
              "type": "bytes"
            }
          ],
          "internalType": "struct JBDidRedeemData",
          "name": "_data",
          "type": "tuple"
        }
      ],
      "name": "didRedeem",
      "outputs": [],
      "stateMutability": "payable",
      "type": "function"
    },
    {
      "inputs": [],
      "name": "directory",
      "outputs": [
        {
          "internalType": "contract IJBDirectory",
          "name": "",
          "type": "address"
        }
      ],
      "stateMutability": "view",
      "type": "function"
    },
    {
      "inputs": [],
      "name": "ethAddress",
      "outputs": [
        {
          "internalType": "address",
          "name": "",
          "type": "address"
        }
      ],
      "stateMutability": "view",
      "type": "function"
    },
    {
      "inputs": [],
      "name": "fundingCycleRound",
      "outputs": [
        {
          "internalType": "uint40",
          "name": "",
          "type": "uint40"
        }
      ],
      "stateMutability": "view",
      "type": "function"
    },
    {
      "inputs": [],
      "name": "fundingCycleStore",
      "outputs": [
        {
          "internalType": "contract IJBFundingCycleStore",
          "name": "",
          "type": "address"
        }
      ],
      "stateMutability": "view",
      "type": "function"
    },
    {
      "inputs": [],
      "name": "getRoundInfo",
      "outputs": [
        {
          "components": [
            {
              "internalType": "uint256",
              "name": "totalContributions",
              "type": "uint256"
            },
            {
              "internalType": "uint256",
              "name": "target",
              "type": "uint256"
            },
            {
              "internalType": "uint256",
              "name": "hardcap",
              "type": "uint256"
            },
            {
              "internalType": "uint40",
              "name": "releaseTimelock",
              "type": "uint40"
            },
            {
              "internalType": "uint40",
              "name": "transferTimelock",
              "type": "uint40"
            },
            {
              "internalType": "address",
              "name": "projectOwner",
              "type": "address"
            },
            {
              "internalType": "uint40",
              "name": "fundingCycleRound",
              "type": "uint40"
            },
            {
              "internalType": "uint16",
              "name": "afterRoundReservedRate",
              "type": "uint16"
            },
            {
              "components": [
                {
                  "internalType": "bool",
                  "name": "preferClaimed",
                  "type": "bool"
                },
                {
                  "internalType": "bool",
                  "name": "preferAddToBalance",
                  "type": "bool"
                },
                {
                  "internalType": "uint256",
                  "name": "percent",
                  "type": "uint256"
                },
                {
                  "internalType": "uint256",
                  "name": "projectId",
                  "type": "uint256"
                },
                {
                  "internalType": "address payable",
                  "name": "beneficiary",
                  "type": "address"
                },
                {
                  "internalType": "uint256",
                  "name": "lockedUntil",
                  "type": "uint256"
                },
                {
                  "internalType": "contract IJBSplitAllocator",
                  "name": "allocator",
                  "type": "address"
                }
              ],
              "internalType": "struct JBSplit[]",
              "name": "afterRoundSplits",
              "type": "tuple[]"
            },
            {
              "internalType": "string",
              "name": "tokenName",
              "type": "string"
            },
            {
              "internalType": "string",
              "name": "tokenSymbol",
              "type": "string"
            },
            {
              "internalType": "bool",
              "name": "isRoundClosed",
              "type": "bool"
            },
            {
              "internalType": "bool",
              "name": "isQueued",
              "type": "bool"
            },
            {
              "internalType": "bool",
              "name": "isSlicerToBeCreated",
              "type": "bool"
            },
            {
              "internalType": "uint256",
              "name": "slicerId",
              "type": "uint256"
            }
          ],
          "internalType": "struct RoundInfo",
          "name": "roundInfo",
          "type": "tuple"
        }
      ],
      "stateMutability": "view",
      "type": "function"
    },
    {
      "inputs": [],
      "name": "hardcap",
      "outputs": [
        {
          "internalType": "uint88",
          "name": "",
          "type": "uint88"
        }
      ],
      "stateMutability": "view",
      "type": "function"
    },
    {
      "inputs": [],
      "name": "isHardcapUsd",
      "outputs": [
        {
          "internalType": "bool",
          "name": "",
          "type": "bool"
        }
      ],
      "stateMutability": "view",
      "type": "function"
    },
    {
      "inputs": [],
      "name": "isQueued",
      "outputs": [
        {
          "internalType": "bool",
          "name": "",
          "type": "bool"
        }
      ],
      "stateMutability": "view",
      "type": "function"
    },
    {
      "inputs": [],
      "name": "isRoundClosed",
      "outputs": [
        {
          "internalType": "bool",
          "name": "",
          "type": "bool"
        }
      ],
      "stateMutability": "view",
      "type": "function"
    },
    {
      "inputs": [],
      "name": "isSlicerToBeCreated",
      "outputs": [
        {
          "internalType": "bool",
          "name": "",
          "type": "bool"
        }
      ],
      "stateMutability": "view",
      "type": "function"
    },
    {
      "inputs": [],
      "name": "isTargetReached",
      "outputs": [
        {
          "internalType": "bool",
          "name": "",
          "type": "bool"
        }
      ],
      "stateMutability": "view",
      "type": "function"
    },
    {
      "inputs": [],
      "name": "isTargetUsd",
      "outputs": [
        {
          "internalType": "bool",
          "name": "",
          "type": "bool"
        }
      ],
      "stateMutability": "view",
      "type": "function"
    },
    {
      "inputs": [
        {
          "internalType": "address",
          "name": "",
          "type": "address"
        },
        {
          "internalType": "address",
          "name": "",
          "type": "address"
        },
        {
          "internalType": "uint256[]",
          "name": "",
          "type": "uint256[]"
        },
        {
          "internalType": "uint256[]",
          "name": "",
          "type": "uint256[]"
        },
        {
          "internalType": "bytes",
          "name": "",
          "type": "bytes"
        }
      ],
      "name": "onERC1155BatchReceived",
      "outputs": [
        {
          "internalType": "bytes4",
          "name": "",
          "type": "bytes4"
        }
      ],
      "stateMutability": "view",
      "type": "function"
    },
    {
      "inputs": [
        {
          "internalType": "address",
          "name": "",
          "type": "address"
        },
        {
          "internalType": "address",
          "name": "",
          "type": "address"
        },
        {
          "internalType": "uint256",
          "name": "",
          "type": "uint256"
        },
        {
          "internalType": "uint256",
          "name": "",
          "type": "uint256"
        },
        {
          "internalType": "bytes",
          "name": "",
          "type": "bytes"
        }
      ],
      "name": "onERC1155Received",
      "outputs": [
        {
          "internalType": "bytes4",
          "name": "",
          "type": "bytes4"
        }
      ],
      "stateMutability": "view",
      "type": "function"
    },
    {
      "inputs": [
        {
          "internalType": "address",
          "name": "",
          "type": "address"
        },
        {
          "internalType": "address",
          "name": "",
          "type": "address"
        },
        {
          "internalType": "uint256",
          "name": "",
          "type": "uint256"
        },
        {
          "internalType": "bytes",
          "name": "",
          "type": "bytes"
        }
      ],
      "name": "onERC721Received",
      "outputs": [
        {
          "internalType": "bytes4",
          "name": "",
          "type": "bytes4"
        }
      ],
      "stateMutability": "pure",
      "type": "function"
    },
    {
      "inputs": [
        {
          "components": [
            {
              "internalType": "contract IJBPaymentTerminal",
              "name": "terminal",
              "type": "address"
            },
            {
              "internalType": "address",
              "name": "payer",
              "type": "address"
            },
            {
              "components": [
                {
                  "internalType": "address",
                  "name": "token",
                  "type": "address"
                },
                {
                  "internalType": "uint256",
                  "name": "value",
                  "type": "uint256"
                },
                {
                  "internalType": "uint256",
                  "name": "decimals",
                  "type": "uint256"
                },
                {
                  "internalType": "uint256",
                  "name": "currency",
                  "type": "uint256"
                }
              ],
              "internalType": "struct JBTokenAmount",
              "name": "amount",
              "type": "tuple"
            },
            {
              "internalType": "uint256",
              "name": "projectId",
              "type": "uint256"
            },
            {
              "internalType": "uint256",
              "name": "currentFundingCycleConfiguration",
              "type": "uint256"
            },
            {
              "internalType": "address",
              "name": "beneficiary",
              "type": "address"
            },
            {
              "internalType": "uint256",
              "name": "weight",
              "type": "uint256"
            },
            {
              "internalType": "uint256",
              "name": "reservedRate",
              "type": "uint256"
            },
            {
              "internalType": "string",
              "name": "memo",
              "type": "string"
            },
            {
              "internalType": "bytes",
              "name": "metadata",
              "type": "bytes"
            }
          ],
          "internalType": "struct JBPayParamsData",
          "name": "_data",
          "type": "tuple"
        }
      ],
      "name": "payParams",
      "outputs": [
        {
          "internalType": "uint256",
          "name": "weight",
          "type": "uint256"
        },
        {
          "internalType": "string",
          "name": "memo",
          "type": "string"
        },
        {
          "components": [
            {
              "internalType": "contract IJBPayDelegate",
              "name": "delegate",
              "type": "address"
            },
            {
              "internalType": "uint256",
              "name": "amount",
              "type": "uint256"
            }
          ],
          "internalType": "struct JBPayDelegateAllocation[]",
          "name": "delegateAllocations",
          "type": "tuple[]"
        }
      ],
      "stateMutability": "view",
      "type": "function"
    },
    {
      "inputs": [],
      "name": "priceFeed",
      "outputs": [
        {
          "internalType": "contract IPriceFeed",
          "name": "",
          "type": "address"
        }
      ],
      "stateMutability": "view",
      "type": "function"
    },
    {
      "inputs": [],
      "name": "projectId",
      "outputs": [
        {
          "internalType": "uint256",
          "name": "",
          "type": "uint256"
        }
      ],
      "stateMutability": "view",
      "type": "function"
    },
    {
      "inputs": [],
      "name": "projectOwner",
      "outputs": [
        {
          "internalType": "address",
          "name": "",
          "type": "address"
        }
      ],
      "stateMutability": "view",
      "type": "function"
    },
    {
      "inputs": [],
      "name": "queueNextPhase",
      "outputs": [],
      "stateMutability": "nonpayable",
      "type": "function"
    },
    {
      "inputs": [
        {
          "components": [
            {
              "internalType": "contract IJBPaymentTerminal",
              "name": "terminal",
              "type": "address"
            },
            {
              "internalType": "address",
              "name": "holder",
              "type": "address"
            },
            {
              "internalType": "uint256",
              "name": "projectId",
              "type": "uint256"
            },
            {
              "internalType": "uint256",
              "name": "currentFundingCycleConfiguration",
              "type": "uint256"
            },
            {
              "internalType": "uint256",
              "name": "tokenCount",
              "type": "uint256"
            },
            {
              "internalType": "uint256",
              "name": "totalSupply",
              "type": "uint256"
            },
            {
              "internalType": "uint256",
              "name": "overflow",
              "type": "uint256"
            },
            {
              "components": [
                {
                  "internalType": "address",
                  "name": "token",
                  "type": "address"
                },
                {
                  "internalType": "uint256",
                  "name": "value",
                  "type": "uint256"
                },
                {
                  "internalType": "uint256",
                  "name": "decimals",
                  "type": "uint256"
                },
                {
                  "internalType": "uint256",
                  "name": "currency",
                  "type": "uint256"
                }
              ],
              "internalType": "struct JBTokenAmount",
              "name": "reclaimAmount",
              "type": "tuple"
            },
            {
              "internalType": "bool",
              "name": "useTotalOverflow",
              "type": "bool"
            },
            {
              "internalType": "uint256",
              "name": "redemptionRate",
              "type": "uint256"
            },
            {
              "internalType": "string",
              "name": "memo",
              "type": "string"
            },
            {
              "internalType": "bytes",
              "name": "metadata",
              "type": "bytes"
            }
          ],
          "internalType": "struct JBRedeemParamsData",
          "name": "_data",
          "type": "tuple"
        }
      ],
      "name": "redeemParams",
      "outputs": [
        {
          "internalType": "uint256",
          "name": "reclaimAmount",
          "type": "uint256"
        },
        {
          "internalType": "string",
          "name": "memo",
          "type": "string"
        },
        {
          "components": [
            {
              "internalType": "contract IJBRedemptionDelegate",
              "name": "delegate",
              "type": "address"
            },
            {
              "internalType": "uint256",
              "name": "amount",
              "type": "uint256"
            }
          ],
          "internalType": "struct JBRedemptionDelegateAllocation[]",
          "name": "delegateAllocations",
          "type": "tuple[]"
        }
      ],
      "stateMutability": "view",
      "type": "function"
    },
    {
      "inputs": [],
      "name": "releaseTimelock",
      "outputs": [
        {
          "internalType": "uint40",
          "name": "",
          "type": "uint40"
        }
      ],
      "stateMutability": "view",
      "type": "function"
    },
    {
      "inputs": [
        {
          "internalType": "string",
          "name": "tokenName_",
          "type": "string"
        },
        {
          "internalType": "string",
          "name": "tokenSymbol_",
          "type": "string"
        }
      ],
      "name": "setTokenMetadata",
      "outputs": [],
      "stateMutability": "nonpayable",
      "type": "function"
    },
    {
      "inputs": [],
      "name": "sliceCore",
      "outputs": [
        {
          "internalType": "contract ISliceCore",
          "name": "",
          "type": "address"
        }
      ],
      "stateMutability": "view",
      "type": "function"
    },
    {
      "inputs": [],
      "name": "slicerId",
      "outputs": [
        {
          "internalType": "uint144",
          "name": "",
          "type": "uint144"
        }
      ],
      "stateMutability": "view",
      "type": "function"
    },
    {
      "inputs": [
        {
          "internalType": "bytes4",
          "name": "_interfaceId",
          "type": "bytes4"
        }
      ],
      "name": "supportsInterface",
      "outputs": [
        {
          "internalType": "bool",
          "name": "",
          "type": "bool"
        }
      ],
      "stateMutability": "view",
      "type": "function"
    },
    {
      "inputs": [],
      "name": "target",
      "outputs": [
        {
          "internalType": "uint88",
          "name": "",
          "type": "uint88"
        }
      ],
      "stateMutability": "view",
      "type": "function"
    },
    {
      "inputs": [],
      "name": "tokenName",
      "outputs": [
        {
          "internalType": "string",
          "name": "",
          "type": "string"
        }
      ],
      "stateMutability": "view",
      "type": "function"
    },
    {
      "inputs": [],
      "name": "tokenSymbol",
      "outputs": [
        {
          "internalType": "string",
          "name": "",
          "type": "string"
        }
      ],
      "stateMutability": "view",
      "type": "function"
    },
    {
      "inputs": [],
      "name": "totalContributions",
      "outputs": [
        {
          "internalType": "uint88",
          "name": "",
          "type": "uint88"
        }
      ],
      "stateMutability": "view",
      "type": "function"
    },
    {
      "inputs": [],
      "name": "transferTimelock",
      "outputs": [
        {
          "internalType": "uint40",
          "name": "",
          "type": "uint40"
        }
      ],
      "stateMutability": "view",
      "type": "function"
    },
    {
      "inputs": [
        {
          "internalType": "contract IERC20",
          "name": "token",
          "type": "address"
        }
      ],
      "name": "transferToken",
      "outputs": [],
      "stateMutability": "nonpayable",
      "type": "function"
    },
    {
      "inputs": [
        {
          "internalType": "address[]",
          "name": "beneficiaries",
          "type": "address[]"
        }
      ],
      "name": "transferUnclaimedSlicesTo",
      "outputs": [],
      "stateMutability": "nonpayable",
      "type": "function"
    },
    {
      "inputs": [],
      "name": "usdcAddress",
      "outputs": [
        {
          "internalType": "address",
          "name": "",
          "type": "address"
        }
      ],
      "stateMutability": "view",
      "type": "function"
    }
  ],
  "bytecode": {
    "object": "0x6102a06040523480156200001257600080fd5b5060405162005bc838038062005bc883398101604081905262000035916200063b565b6101408590526001600160a01b038084166101009081528382166101205287821660c09081528351831660809081526020850151841660a09081526040860151851660e09081526060870151909516610160529185015164ffffffffff9081166101c090815294860151166101e0529184015161ffff16610220528301516001600160581b039081166101809081526101a0808601511515610240529285015190911690915290820151151561026052810151806200013d575061012081015151158015906200013d575060006001600160a01b031681610120015160008151811062000126576200012662000848565b6020026020010151608001516001600160a01b0316145b15156102805261014081015151156200016757610140810151600190620001659082620008ed565b505b61016081015151156200018b57610160810151600290620001899082620008ed565b505b83600003620001a8576000805460ff60f01b1916600160f01b1790555b60005b81610120015151811015620002865760038261012001518281518110620001d657620001d662000848565b602090810291909101810151825460018181018555600094855293839020825160069092020180549383015115156101000261ff00199215159290921661ffff19909416939093171782556040810151828401556060810151600283015560808101516003830180546001600160a01b039283166001600160a01b03199182161790915560a0830151600485015560c09092015160059093018054939091169290911691909117905501620001ab565b5060208101516040516321d1336160e11b8152600481018790526000916001600160a01b0316906343a266c29060240161012060405180830381865afa158015620002d5573d6000803e3d6000fd5b505050506040513d601f19601f82011682018060405250810190620002fb9190620009b9565b5160010164ffffffffff8116610200526040519091507f1e642e93a66a3d3cbed8bb54d6871409c4df8677a00814037ceefa5816a182b5906200034690849089908990869062000afa565b60405180910390a15050505050505062000c91565b6001600160a01b03811681146200037157600080fd5b50565b805162000381816200035b565b919050565b634e487b7160e01b600052604160045260246000fd5b60405160e081016001600160401b0381118282101715620003c157620003c162000386565b60405290565b6040516101e081016001600160401b0381118282101715620003c157620003c162000386565b60405161012081016001600160401b0381118282101715620003c157620003c162000386565b604051601f8201601f191681016001600160401b03811182821017156200043e576200043e62000386565b604052919050565b80516001600160581b03811681146200038157600080fd5b805164ffffffffff811681146200038157600080fd5b805161ffff811681146200038157600080fd5b805180151581146200038157600080fd5b600082601f830112620004aa57600080fd5b815160206001600160401b03821115620004c857620004c862000386565b620004d8818360051b0162000413565b82815260e09283028501820192828201919087851115620004f857600080fd5b8387015b85811015620005945781818a031215620005165760008081fd5b620005206200039c565b6200052b8262000487565b81526200053a86830162000487565b81870152604082810151908201526060808301519082015260808083015162000563816200035b565b9082015260a0828101519082015260c08083015162000582816200035b565b908201528452928401928101620004fc565b5090979650505050505050565b60005b83811015620005be578181015183820152602001620005a4565b50506000910152565b600082601f830112620005d957600080fd5b81516001600160401b03811115620005f557620005f562000386565b6200060a601f8201601f191660200162000413565b8181528460208386010111156200062057600080fd5b62000633826020830160208701620005a1565b949350505050565b60008060008060008060c087890312156200065557600080fd5b865162000662816200035b565b809650506020870151945060408701519350606087015162000684816200035b565b608088015190935062000697816200035b565b60a08801519092506001600160401b0380821115620006b557600080fd5b908801906101e0828b031215620006cb57600080fd5b620006d5620003c7565b620006e08362000374565b8152620006f06020840162000374565b6020820152620007036040840162000374565b6040820152620007166060840162000374565b6060820152620007296080840162000446565b60808201526200073c60a0840162000446565b60a08201526200074f60c084016200045e565b60c08201526200076260e084016200045e565b60e08201526101006200077781850162000474565b9082015261012083810151838111156200079057600080fd5b6200079e8d82870162000498565b8284015250506101408084015183811115620007b957600080fd5b620007c78d828701620005c7565b8284015250506101608084015183811115620007e257600080fd5b620007f08d828701620005c7565b82840152505061018091506200080882840162000487565b828201526101a091506200081e82840162000487565b828201526101c091506200083482840162000487565b828201528093505050509295509295509295565b634e487b7160e01b600052603260045260246000fd5b600181811c908216806200087357607f821691505b6020821081036200089457634e487b7160e01b600052602260045260246000fd5b50919050565b601f821115620008e857600081815260208120601f850160051c81016020861015620008c35750805b601f850160051c820191505b81811015620008e457828155600101620008cf565b5050505b505050565b81516001600160401b0381111562000909576200090962000386565b62000921816200091a84546200085e565b846200089a565b602080601f831160018114620009595760008415620009405750858301515b600019600386901b1c1916600185901b178555620008e4565b600085815260208120601f198616915b828110156200098a5788860151825594840194600190910190840162000969565b5085821015620009a95787850151600019600388901b60f8161c191681555b5050505050600190811b01905550565b60006101208284031215620009cd57600080fd5b620009d7620003ed565b825181526020830151602082015260408301516040820152606083015160608201526080830151608082015260a083015160a082015260c083015160c082015262000a2560e0840162000374565b60e0820152610100928301519281019290925250919050565b600081518084526020808501945080840160005b8381101562000ac15781518051151588528381015115158489015260408082015190890152606080820151908901526080808201516001600160a01b03908116918a019190915260a080830151908a015260c091820151169088015260e0909601959082019060010162000a52565b509495945050505050565b6000815180845262000ae6816020860160208601620005a1565b601f01601f19169290920160200192915050565b6080815262000b156080820186516001600160a01b03169052565b6000602086015162000b3260a08401826001600160a01b03169052565b5060408601516001600160a01b0390811660c084015260608701511660e083015260808601516001600160581b0381166101008085019190915260a0880151915061012062000b8b818601846001600160581b03169052565b60c0890151925061014062000ba88187018564ffffffffff169052565b60e08a0151935061016062000bc58188018664ffffffffff169052565b928a015193506101809262000bdf8785018661ffff169052565b828b015194506101e092506101a0838189015262000c0261026089018762000a3e565b9550828c01519250607f196101c0818a890301818b015262000c25888662000acc565b9750838e01519450818a890301868b015262000c42888662000acc565b968e015115156102008b0152918d015115156102208a0152508b015180151561024089015293945062000c7492505050565b506020830195909552506040810192909252606090910152919050565b60805160a05160c05160e05161010051610120516101405161016051610180516101a0516101c0516101e0516102005161022051610240516102605161028051614cfb62000ecd600039600081816109b801528181610f31015281816117c601528181611da101526125f3015260008181610a6801526131df015260008181610a1f01526110250152600081816104070152818161156f015261231a015260008181610674015281816115420152611b940152600081816106be015281816114e601526136f20152600081816108dc015281816114b901526136c50152600081816108a80152818161148601526131b701526000818161098401528181610ffd015261145301526000818161080a01528181610c4e0152818161151301528181611f5a015281816121460152612a6901526000818161059d01528181610d8201528181610e2a01528181611a7101528181611b1901528181611b6e015281816122780152818161256c015281816128aa01528181612a9101528181612bf70152612cf701526000818161033301528181611091015261324b0152600081816105df015281816110b90152613273015260008181610ad101528181611301015281816118f901528181611fad01528181612e8e015281816130e40152613672015260008181610b05015281816122a1015281816124dc0152818161288301528181612c250152612cc80152600081816106400152611bbd01526000818161093001528181610dae01528181611a9d01526129b30152614cfb6000f3fe6080604052600436106102e75760003560e01c806384bc76a611610184578063d6ba0da7116100d6578063e44d1c401161008a578063f4c7636311610064578063f4c7636314610abf578063f77c479114610af3578063fcf1299114610b2757600080fd5b8063e44d1c4014610a56578063e7ef7d0d14610a8a578063f23a6e6114610a9f57600080fd5b8063deebeac9116100bb578063deebeac9146109ed578063dffe0c2114610a0d578063e278fe6f14610a4157600080fd5b8063d6ba0da7146109a6578063da9ee8b7146109da57600080fd5b8063b071cbe611610138578063c41c2f2411610112578063c41c2f241461091e578063d46cf17114610952578063d4b839921461097257600080fd5b8063b071cbe614610896578063bb3b0347146108ca578063bc197c81146108fe57600080fd5b8063a4475ce411610169578063a4475ce4146107f8578063a51cfd181461082c578063ae3e7c461461085b57600080fd5b806384bc76a6146107b757806394d95f8f146107d957600080fd5b806341398b151161023d5780635d8dc389116101f15780636ef2267e116101cb5780636ef2267e14610765578063741bef1a1461077a5780637b61c320146107a257600080fd5b80635d8dc389146106e05780635e098f051461072e5780636c02a9311461074357600080fd5b8063557e715511610222578063557e71551461062e57806357c8fe3c146106625780635cf84d4d146106ac57600080fd5b806341398b15146105cd57806342e94c901461060157600080fd5b8063150b7a021161029f57806331b9e3b11161027957806331b9e3b11461050157806337c08923146105355780633fafa1271461058b57600080fd5b8063150b7a021461043c5780631b25de8f146104b25780632b13c58f146104ee57600080fd5b80630bdc3b30116102d05780630bdc3b301461036d5780630d71e3d7146103d35780630e1c46ea146103f557600080fd5b806301ffc9a7146102ec57806302d4545714610321575b600080fd5b3480156102f857600080fd5b5061030c610307366004613859565b610b47565b60405190151581526020015b60405180910390f35b34801561032d57600080fd5b506103557f000000000000000000000000000000000000000000000000000000000000000081565b6040516001600160a01b039091168152602001610318565b34801561037957600080fd5b5061038d61038836600461387d565b610be0565b60408051971515885295151560208801529486019390935260608501919091526001600160a01b03908116608085015260a08401919091521660c082015260e001610318565b3480156103df57600080fd5b506103f36103ee3660046139b4565b610c43565b005b34801561040157600080fd5b506104297f000000000000000000000000000000000000000000000000000000000000000081565b60405161ffff9091168152602001610318565b34801561044857600080fd5b50610481610457366004613a2d565b7f150b7a020000000000000000000000000000000000000000000000000000000095945050505050565b6040517fffffffff000000000000000000000000000000000000000000000000000000009091168152602001610318565b3480156104be57600080fd5b5060005461030c907e01000000000000000000000000000000000000000000000000000000000000900460ff1681565b6103f36104fc366004613ae5565b610d5a565b34801561050d57600080fd5b5061051c66038d7ea4c6800081565b60405167ffffffffffffffff9091168152602001610318565b34801561054157600080fd5b5060005461056f90720100000000000000000000000000000000000090046affffffffffffffffffffff1681565b6040516affffffffffffffffffffff9091168152602001610318565b34801561059757600080fd5b506105bf7f000000000000000000000000000000000000000000000000000000000000000081565b604051908152602001610318565b3480156105d957600080fd5b506103557f000000000000000000000000000000000000000000000000000000000000000081565b34801561060d57600080fd5b506105bf61061c366004613b22565b60046020526000908152604090205481565b34801561063a57600080fd5b506103557f000000000000000000000000000000000000000000000000000000000000000081565b34801561066e57600080fd5b506106967f000000000000000000000000000000000000000000000000000000000000000081565b60405164ffffffffff9091168152602001610318565b3480156106b857600080fd5b506106967f000000000000000000000000000000000000000000000000000000000000000081565b3480156106ec57600080fd5b5060005461070b9071ffffffffffffffffffffffffffffffffffff1681565b60405171ffffffffffffffffffffffffffffffffffff9091168152602001610318565b34801561073a57600080fd5b5061030c610fed565b34801561074f57600080fd5b50610758611175565b6040516103189190613b85565b34801561077157600080fd5b506103f3611203565b34801561078657600080fd5b5061035573f2e8176c0b67232b20205f4dfbcec3e74bca471f81565b3480156107ae57600080fd5b50610758611394565b3480156107c357600080fd5b506107cc6113a1565b6040516103189190613c24565b3480156107e557600080fd5b5061056f6a03796274caf64c7100000081565b34801561080457600080fd5b506103557f000000000000000000000000000000000000000000000000000000000000000081565b34801561083857600080fd5b5061084c610847366004613ae5565b61180b565b60405161031893929190613d65565b34801561086757600080fd5b5060005461030c907d010000000000000000000000000000000000000000000000000000000000900460ff1681565b3480156108a257600080fd5b5061056f7f000000000000000000000000000000000000000000000000000000000000000081565b3480156108d657600080fd5b506106967f000000000000000000000000000000000000000000000000000000000000000081565b34801561090a57600080fd5b50610481610919366004613e58565b6118ec565b34801561092a57600080fd5b506103557f000000000000000000000000000000000000000000000000000000000000000081565b34801561095e57600080fd5b5061084c61096d366004613f06565b6119b0565b34801561097e57600080fd5b5061056f7f000000000000000000000000000000000000000000000000000000000000000081565b3480156109b257600080fd5b5061030c7f000000000000000000000000000000000000000000000000000000000000000081565b6103f36109e8366004613f42565b611a49565b3480156109f957600080fd5b506103f3610a08366004613b22565b611ecb565b348015610a1957600080fd5b5061030c7f000000000000000000000000000000000000000000000000000000000000000081565b348015610a4d57600080fd5b506103f361213b565b348015610a6257600080fd5b5061030c7f000000000000000000000000000000000000000000000000000000000000000081565b348015610a9657600080fd5b506103f3612b27565b348015610aab57600080fd5b50610481610aba366004613f7e565b612e81565b348015610acb57600080fd5b506103557f000000000000000000000000000000000000000000000000000000000000000081565b348015610aff57600080fd5b506103557f000000000000000000000000000000000000000000000000000000000000000081565b348015610b3357600080fd5b506103f3610b42366004613fe7565b612f40565b60007fffffffff0000000000000000000000000000000000000000000000000000000082167f71700c69000000000000000000000000000000000000000000000000000000001480610bda57507fffffffff0000000000000000000000000000000000000000000000000000000082167fda9ee8b700000000000000000000000000000000000000000000000000000000145b92915050565b60038181548110610bf057600080fd5b600091825260209091206006909102018054600182015460028301546003840154600485015460059095015460ff808616975061010090950490941694929391926001600160a01b039182169290911687565b336001600160a01b037f00000000000000000000000000000000000000000000000000000000000000001614610ca5576040517f75e669b400000000000000000000000000000000000000000000000000000000815260040160405180910390fd5b6000547d010000000000000000000000000000000000000000000000000000000000900460ff1615610d03576040517f2c926ffe00000000000000000000000000000000000000000000000000000000815260040160405180910390fd5b6001610d0f83826140f8565b506002610d1c82826140f8565b507f0d398822381eae0e3a93b65acd33efeddbeab022957a12d680a4d03764d998da8282604051610d4e9291906141f4565b60405180910390a15050565b6040517f6e49181f0000000000000000000000000000000000000000000000000000000081527f000000000000000000000000000000000000000000000000000000000000000060048201523360248201527f00000000000000000000000000000000000000000000000000000000000000006001600160a01b031690636e49181f90604401602060405180830381865afa158015610dfd573d6000803e3d6000fd5b505050506040513d601f19601f82011682018060405250810190610e219190614237565b1580610e5157507f0000000000000000000000000000000000000000000000000000000000000000816020013514155b15610e88576040517fc715ec6c00000000000000000000000000000000000000000000000000000000815260040160405180910390fd5b610e9d66038d7ea4c6800060a0830135614281565b15610ed4576040517fed94ea2a00000000000000000000000000000000000000000000000000000000815260040160405180910390fd5b6000805460a08301356affffffffffffffffffffff720100000000000000000000000000000000000080840482169290920316027fffffff0000000000000000000000ffffffffffffffffffffffffffffffffffff9091161790557f000000000000000000000000000000000000000000000000000000000000000015610f925760a081013560046000610f706101a085016101808601613b22565b6001600160a01b03168152602081019190915260400160002080549190910390555b7f4896181ff8f4543cc00db9fe9b6fb7e6f032b7eb772c72ab1ec1b4d2e03b9369610fc56101a083016101808401613b22565b604080516001600160a01b03909216825260a08401356020830152015b60405180910390a150565b60006affffffffffffffffffffff7f0000000000000000000000000000000000000000000000000000000000000000168015611149577f000000000000000000000000000000000000000000000000000000000000000015611149576040517f637113620000000000000000000000000000000000000000000000000000000081526fffffffffffffffffffffffffffffffff821660048201526001600160a01b037f0000000000000000000000000000000000000000000000000000000000000000811660248301527f0000000000000000000000000000000000000000000000000000000000000000166044820152610708606482015273f2e8176c0b67232b20205f4dfbcec3e74bca471f90636371136290608401602060405180830381865afa158015611122573d6000803e3d6000fd5b505050506040513d601f19601f820116820180604052508101906111469190614295565b90505b600054720100000000000000000000000000000000000090046affffffffffffffffffffff1611919050565b600180546111829061405c565b80601f01602080910402602001604051908101604052809291908181526020018280546111ae9061405c565b80156111fb5780601f106111d0576101008083540402835291602001916111fb565b820191906000526020600020905b8154815290600101906020018083116111de57829003601f168201915b505050505081565b6000805471ffffffffffffffffffffffffffffffffffff169003611253576040517ffc86ac2300000000000000000000000000000000000000000000000000000000815260040160405180910390fd5b336000908152600460205260408120546112759066038d7ea4c68000906142ae565b9050801561135e57336000818152600460208190526040808320839055825490517fc3592b0c0000000000000000000000000000000000000000000000000000000081523092810192909252602482019390935271ffffffffffffffffffffffffffffffffffff90921660448301526064820183905260a0608483015260a48201526001600160a01b037f0000000000000000000000000000000000000000000000000000000000000000169063c3592b0c9060c401600060405180830381600087803b15801561134557600080fd5b505af1158015611359573d6000803e3d6000fd5b505050505b60408051338152602081018390527f5f17621961339df04bbc649a3c5486d171acb7b35a34a399068e2174fd3761cd9101610fe2565b600280546111829061405c565b604080516101e08101825260008082526020820181905291810182905260608082018390526080820183905260a0820183905260c0820183905260e0820183905261010082018190526101208201819052610140820152610160810182905261018081018290526101a081018290526101c0810191909152604051806101e00160405280600060129054906101000a90046affffffffffffffffffffff166affffffffffffffffffffff1681526020017f00000000000000000000000000000000000000000000000000000000000000006affffffffffffffffffffff1681526020017f00000000000000000000000000000000000000000000000000000000000000006affffffffffffffffffffff1681526020017f000000000000000000000000000000000000000000000000000000000000000064ffffffffff1681526020017f000000000000000000000000000000000000000000000000000000000000000064ffffffffff1681526020017f00000000000000000000000000000000000000000000000000000000000000006001600160a01b031681526020017f000000000000000000000000000000000000000000000000000000000000000064ffffffffff1681526020017f000000000000000000000000000000000000000000000000000000000000000061ffff1681526020016003805480602002602001604051908101604052809291908181526020016000905b828210156116445760008481526020908190206040805160e08101825260068602909201805460ff8082161515855261010090910416151583850152600180820154928401929092526002810154606084015260038101546001600160a01b039081166080850152600482015460a08501526005909101541660c083015290835290920191016115b9565b5050505081526020016001805461165a9061405c565b80601f01602080910402602001604051908101604052809291908181526020018280546116869061405c565b80156116d35780601f106116a8576101008083540402835291602001916116d3565b820191906000526020600020905b8154815290600101906020018083116116b657829003601f168201915b50505050508152602001600280546116ea9061405c565b80601f01602080910402602001604051908101604052809291908181526020018280546117169061405c565b80156117635780601f1061173857610100808354040283529160200191611763565b820191906000526020600020905b81548152906001019060200180831161174657829003601f168201915b505050918352505060005460ff7d01000000000000000000000000000000000000000000000000000000000082048116151560208401527e01000000000000000000000000000000000000000000000000000000000000820416151560408301527f00000000000000000000000000000000000000000000000000000000000000001515606083015271ffffffffffffffffffffffffffffffffffff16608090910152919050565b6040805160018082528183019092526000916060918291849190816020015b604080518082019091526000808252602082015281526020019060019003908161182a5790505090506040518060400160405280306001600160a01b03168152602001600081525081600081518110611885576118856142c2565b60209081029190910101526101008501356118a46101a08701876142f1565b8382828080601f016020809104026020016040519081016040528093929190818152602001838380828437600092019190915250969c929b5092995090975050505050505050565b6000336001600160a01b037f00000000000000000000000000000000000000000000000000000000000000001614611985576040517f08c379a000000000000000000000000000000000000000000000000000000000815260206004820152600d60248201527f4e4f545f535550504f525445440000000000000000000000000000000000000060448201526064015b60405180910390fd5b507fbc197c810000000000000000000000000000000000000000000000000000000095945050505050565b6040805160018082528183019092526000916060918291849190816020015b60408051808201909152600080825260208201528152602001906001900390816119cf5790505090506040518060400160405280306001600160a01b03168152602001600081525081600081518110611a2a57611a2a6142c2565b60209081029190910101526101208501356118a46101608701876142f1565b6040517f6e49181f0000000000000000000000000000000000000000000000000000000081527f000000000000000000000000000000000000000000000000000000000000000060048201523360248201527f00000000000000000000000000000000000000000000000000000000000000006001600160a01b031690636e49181f90604401602060405180830381865afa158015611aec573d6000803e3d6000fd5b505050506040513d601f19601f82011682018060405250810190611b109190614237565b1580611b4057507f0000000000000000000000000000000000000000000000000000000000000000816020013514155b80611c3557506040517f43a266c20000000000000000000000000000000000000000000000000000000081527f000000000000000000000000000000000000000000000000000000000000000060048201527f000000000000000000000000000000000000000000000000000000000000000064ffffffffff16907f00000000000000000000000000000000000000000000000000000000000000006001600160a01b0316906343a266c29060240161012060405180830381865afa158015611c0d573d6000803e3d6000fd5b505050506040513d601f19601f82011682018060405250810190611c3191906143e8565b5114155b80611c6357506000547d010000000000000000000000000000000000000000000000000000000000900460ff165b15611c9a576040517fc715ec6c00000000000000000000000000000000000000000000000000000000815260040160405180910390fd5b611caf66038d7ea4c680006080830135614281565b15611ce6576040517fed94ea2a00000000000000000000000000000000000000000000000000000000815260040160405180910390fd5b6affffffffffffffffffffff60808201351115611d2f576040517f60349ef100000000000000000000000000000000000000000000000000000000815260040160405180910390fd5b6000805460808301359190601290611d6b908490720100000000000000000000000000000000000090046affffffffffffffffffffff16614405565b92506101000a8154816affffffffffffffffffffff02191690836affffffffffffffffffffff160217905550611d9f6131a9565b7f000000000000000000000000000000000000000000000000000000000000000015611e775760046000611ddb6101a084016101808501613b22565b6001600160a01b03168152602081019190915260400160002054158015611e1c5750611e0f6101a082016101808301613b22565b6001600160a01b03163b15155b15611e3b57611e3b611e366101a083016101808401613b22565b613378565b608081013560046000611e566101a085016101808601613b22565b6001600160a01b031681526020810191909152604001600020805490910190555b7f737c69225d647e5994eab1a6c301bf6d9232beb2759ae1e27a8966b4732bc489611eaa6101a083016101808401613b22565b604080516001600160a01b0390921682526080840135602083015201610fe2565b6000547d010000000000000000000000000000000000000000000000000000000000900460ff16611f28576040517f12db127600000000000000000000000000000000000000000000000000000000815260040160405180910390fd5b6000805471ffffffffffffffffffffffffffffffffffff1690611f49610fed565b8015611f5457508115155b611f7e577f0000000000000000000000000000000000000000000000000000000000000000612020565b6040517f175fa7ea000000000000000000000000000000000000000000000000000000008152600481018390527f00000000000000000000000000000000000000000000000000000000000000006001600160a01b03169063175fa7ea90602401602060405180830381865afa158015611ffc573d6000803e3d6000fd5b505050506040513d601f19601f820116820180604052508101906120209190614457565b6040517f70a082310000000000000000000000000000000000000000000000000000000081523060048201529091506001600160a01b0384169063a9059cbb90839083906370a0823190602401602060405180830381865afa15801561208a573d6000803e3d6000fd5b505050506040513d601f19601f820116820180604052508101906120ae9190614295565b6040517fffffffff0000000000000000000000000000000000000000000000000000000060e085901b1681526001600160a01b03909216600483015260248201526044016020604051808303816000875af1158015612111573d6000803e3d6000fd5b505050506040513d601f19601f820116820180604052508101906121359190614237565b50505050565b336001600160a01b037f0000000000000000000000000000000000000000000000000000000000000000161461219d576040517f75e669b400000000000000000000000000000000000000000000000000000000815260040160405180910390fd5b6000547d010000000000000000000000000000000000000000000000000000000000900460ff16156121fb576040517f2c926ffe00000000000000000000000000000000000000000000000000000000815260040160405180910390fd5b600080547fffff00ffffffffffffffffffffffffffffffffffffffffffffffffffffffffff167d01000000000000000000000000000000000000000000000000000000000017905561224b610fed565b15612afc576040517f8776c4990000000000000000000000000000000000000000000000000000000081527f000000000000000000000000000000000000000000000000000000000000000060048201526000907f00000000000000000000000000000000000000000000000000000000000000006001600160a01b031690638776c499906024016103a060405180830381865afa1580156122f1573d6000803e3d6000fd5b505050506040513d601f19601f8201168201806040525081019061231591906144e3565b61ffff7f0000000000000000000000000000000000000000000000000000000000000000166020808301919091526000604080840182905283518101829052600160808086018290526101c086018490526101e0860184905261020086018490528251908101835283815269d3c21bcecceda100000094810194909452908301829052606083018290528054939550919350918291906123b49061405c565b80601f01602080910402602001604051908101604052809291908181526020018280546123e09061405c565b801561242d5780601f106124025761010080835404028352916020019161242d565b820191906000526020600020905b81548152906001019060200180831161241057829003601f168201915b505050505090506000600280546124439061405c565b80601f016020809104026020016040519081016040528092919081815260200182805461246f9061405c565b80156124bc5780601f10612491576101008083540402835291602001916124bc565b820191906000526020600020905b81548152906001019060200180831161249f57829003601f168201915b5050505050905081516000141580156124d55750805115155b156125f1577f00000000000000000000000000000000000000000000000000000000000000006001600160a01b031663619306306040518163ffffffff1660e01b8152600401602060405180830381865afa158015612538573d6000803e3d6000fd5b505050506040513d601f19601f8201168201806040525081019061255c9190614457565b6001600160a01b031663a7f2a70b7f000000000000000000000000000000000000000000000000000000000000000084846040518463ffffffff1660e01b81526004016125ab9392919061467a565b6020604051808303816000875af11580156125ca573d6000803e3d6000fd5b505050506040513d601f19601f820116820180604052508101906125ee9190614457565b92505b7f000000000000000000000000000000000000000000000000000000000000000015612754576001600160a01b038316612657576040517f4713118c00000000000000000000000000000000000000000000000000000000815260040160405180910390fd5b600061266284613528565b600354909150158015906126af575060006001600160a01b03166003600081548110612690576126906142c2565b60009182526020909120600360069092020101546001600160a01b0316145b15612752578060036000815481106126c9576126c96142c2565b906000526020600020906006020160030160006101000a8154816001600160a01b0302191690836001600160a01b0316021790555060016003600081548110612714576127146142c2565b6000918252602090912060069091020180547fffffffffffffffffffffffffffffffffffffffffffffffffffffffffffffff00169115159190911790555b505b604080516001808252818301909252600091816020015b60408051808201909152600081526060602082015281526020019060019003908161276b5790505090506040518060400160405280600281526020016003805480602002602001604051908101604052809291908181526020016000905b828210156128545760008481526020908190206040805160e08101825260068602909201805460ff8082161515855261010090910416151583850152600180820154928401929092526002810154606084015260038101546001600160a01b039081166080850152600482015460a08501526005909101541660c083015290835290920191016127c9565b505050508152508160008151811061286e5761286e6142c2565b60209081029190910101526001600160a01b037f00000000000000000000000000000000000000000000000000000000000000001663badbdf287f000000000000000000000000000000000000000000000000000000000000000087896000868160405190808252806020026020018201604052801561294b57816020015b6129386040518060c0016040528060006001600160a01b0316815260200160006001600160a01b03168152602001600081526020016000815260200160008152602001600081525090565b8152602001906001900390816128ed5790505b506040518763ffffffff1660e01b815260040161296d96959493929190614788565b6020604051808303816000875af115801561298c573d6000803e3d6000fd5b505050506040513d601f19601f820116820180604052508101906129b09190614295565b507f00000000000000000000000000000000000000000000000000000000000000006001600160a01b0316638b79543c6040518163ffffffff1660e01b8152600401602060405180830381865afa158015612a0f573d6000803e3d6000fd5b505050506040513d601f19601f82011682018060405250810190612a339190614457565b6040517f42842e0e0000000000000000000000000000000000000000000000000000000081523060048201526001600160a01b037f0000000000000000000000000000000000000000000000000000000000000000811660248301527f0000000000000000000000000000000000000000000000000000000000000000604483015291909116906342842e0e90606401600060405180830381600087803b158015612add57600080fd5b505af1158015612af1573d6000803e3d6000fd5b505050505050505050505b6040517f5e26bbc33940bf0ea57d4933bd129b7dc4805a4933d6b9892762b2e74005555490600090a1565b6000547e01000000000000000000000000000000000000000000000000000000000000900460ff1615612b86576040517fb2d36f5900000000000000000000000000000000000000000000000000000000815260040160405180910390fd5b600080547fff00ffffffffffffffffffffffffffffffffffffffffffffffffffffffffffff167e010000000000000000000000000000000000000000000000000000000000001781556040517f8776c4990000000000000000000000000000000000000000000000000000000081527f000000000000000000000000000000000000000000000000000000000000000060048201526001600160a01b037f00000000000000000000000000000000000000000000000000000000000000001690638776c499906024016103a060405180830381865afa158015612c6d573d6000803e3d6000fd5b505050506040513d601f19601f82011682018060405250810190612c9191906144e3565b9150506000604051806080016040528060008152602001600181526020016000815260200160006001600160a01b031681525090507f00000000000000000000000000000000000000000000000000000000000000006001600160a01b031663badbdf287f0000000000000000000000000000000000000000000000000000000000000000838560008067ffffffffffffffff811115612d3357612d33613896565b604051908082528060200260200182016040528015612d7957816020015b604080518082019091526000815260606020820152815260200190600190039081612d515790505b506040805160008082526020820190925290612dee565b612ddb6040518060c0016040528060006001600160a01b0316815260200160006001600160a01b03168152602001600081526020016000815260200160008152602001600081525090565b815260200190600190039081612d905790505b506040518763ffffffff1660e01b8152600401612e1096959493929190614788565b6020604051808303816000875af1158015612e2f573d6000803e3d6000fd5b505050506040513d601f19601f82011682018060405250810190612e539190614295565b506040517f1be783e8d4e1d8a6ade777ccbd4d35a094adc4bb03dfd823740e6d97e56232b590600090a15050565b6000336001600160a01b037f00000000000000000000000000000000000000000000000000000000000000001614612f15576040517f08c379a000000000000000000000000000000000000000000000000000000000815260206004820152600d60248201527f4e4f545f535550504f5254454400000000000000000000000000000000000000604482015260640161197c565b507ff23a6e610000000000000000000000000000000000000000000000000000000095945050505050565b6000805471ffffffffffffffffffffffffffffffffffff169003612f90576040517ffc86ac2300000000000000000000000000000000000000000000000000000000815260040160405180910390fd5b60008167ffffffffffffffff811115612fab57612fab613896565b604051908082528060200260200182016040528015612fd4578160200160208202803683370190505b5090506000805b838110156130af5760046000868684818110612ff957612ff96142c2565b905060200201602081019061300e9190613b22565b6001600160a01b03168152602081019190915260400160002054915081156130a75761304166038d7ea4c68000836142ae565b838281518110613053576130536142c2565b602002602001018181525050600060046000878785818110613077576130776142c2565b905060200201602081019061308c9190613b22565b6001600160a01b031681526020810191909152604001600020555b600101612fdb565b50600080546040517fa58fa7c40000000000000000000000000000000000000000000000000000000081526001600160a01b037f0000000000000000000000000000000000000000000000000000000000000000169263a58fa7c4926131369230928a928a9271ffffffffffffffffffffffffffffffffffff909116918a916004016149c7565b600060405180830381600087803b15801561315057600080fd5b505af1158015613164573d6000803e3d6000fd5b505050507fb70bd4fe9aea55f7258b1d1acd7d9188d608c557e51ea6ac39b6004ad18ffdb584848460405161319b93929190614a2c565b60405180910390a150505050565b6affffffffffffffffffffff7f0000000000000000000000000000000000000000000000000000000000000000168015613308577f000000000000000000000000000000000000000000000000000000000000000015613303576040517f637113620000000000000000000000000000000000000000000000000000000081526fffffffffffffffffffffffffffffffff821660048201526001600160a01b037f0000000000000000000000000000000000000000000000000000000000000000811660248301527f0000000000000000000000000000000000000000000000000000000000000000166044820152610708606482015273f2e8176c0b67232b20205f4dfbcec3e74bca471f90636371136290608401602060405180830381865afa1580156132dc573d6000803e3d6000fd5b505050506040513d601f19601f820116820180604052508101906133009190614295565b90505b613316565b506a03796274caf64c710000005b600054720100000000000000000000000000000000000090046affffffffffffffffffffff16811015613375576040517f60349ef100000000000000000000000000000000000000000000000000000000815260040160405180910390fd5b50565b6040517ff23a6e6100000000000000000000000000000000000000000000000000000000815230600482018190526024820152600160448201819052606482015260a06084820152600060a48201526001600160a01b0382169063f23a6e619060c4016020604051808303816000875af1925050508015613416575060408051601f3d908101601f1916820190925261341391810190614a52565b60015b6134a957613422614a6f565b806308c379a0036134755750613436614a8b565b806134415750613477565b806040517f08c379a000000000000000000000000000000000000000000000000000000000815260040161197c9190613b85565b505b6040517fd7d6c40900000000000000000000000000000000000000000000000000000000815260040160405180910390fd5b7fffffffff0000000000000000000000000000000000000000000000000000000081167ff23a6e610000000000000000000000000000000000000000000000000000000014613524576040517fd7d6c40900000000000000000000000000000000000000000000000000000000815260040160405180910390fd5b5050565b6000805481906135639066038d7ea4c6800090720100000000000000000000000000000000000090046affffffffffffffffffffff16614b33565b60408051600180825281830190925291925060009190816020015b60408051606081018252600080825260208083018290529282015282527fffffffffffffffffffffffffffffffffffffffffffffffffffffffffffffffff90920191018161357e5790505090506040518060600160405280306001600160a01b031681526020018363ffffffff168152602001600115158152508160008151811061360b5761360b6142c2565b6020908102919091010152604080516001808252818301909252600091816020016020820280368337019050509050848160008151811061364e5761364e6142c2565b60200260200101906001600160a01b031690816001600160a01b03168152505060007f00000000000000000000000000000000000000000000000000000000000000006001600160a01b031663d0137a2c6040518061010001604052808681526020018763ffffffff1681526020018581526020017f000000000000000000000000000000000000000000000000000000000000000064ffffffffff1681526020017f000000000000000000000000000000000000000000000000000000000000000064ffffffffff16815260200160006001600160a01b03168152602001600060ff168152602001600060ff168152506040518263ffffffff1660e01b815260040161375b9190614b96565b60408051808303816000875af1158015613779573d6000803e3d6000fd5b505050506040513d601f19601f8201168201806040525081019061379d9190614c95565b600080547fffffffffffffffffffffffffffff0000000000000000000000000000000000001671ffffffffffffffffffffffffffffffffffff8416179055604080518381526001600160a01b03831660208201529197509192507fb91da58efe04ba897759f485c57adb3a9350dbacbf972be040c5e4d82c8b4c8e910160405180910390a150505050919050565b7fffffffff000000000000000000000000000000000000000000000000000000008116811461337557600080fd5b60006020828403121561386b57600080fd5b81356138768161382b565b9392505050565b60006020828403121561388f57600080fd5b5035919050565b7f4e487b7100000000000000000000000000000000000000000000000000000000600052604160045260246000fd5b601f19601f830116810181811067ffffffffffffffff821117156138eb576138eb613896565b6040525050565b604051610120810167ffffffffffffffff8111828210171561391657613916613896565b60405290565b604051610240810167ffffffffffffffff8111828210171561391657613916613896565b600082601f83011261395157600080fd5b813567ffffffffffffffff81111561396b5761396b613896565b6040516139826020601f19601f85011601826138c5565b81815284602083860101111561399757600080fd5b816020850160208301376000918101602001919091529392505050565b600080604083850312156139c757600080fd5b823567ffffffffffffffff808211156139df57600080fd5b6139eb86838701613940565b93506020850135915080821115613a0157600080fd5b50613a0e85828601613940565b9150509250929050565b6001600160a01b038116811461337557600080fd5b600080600080600060808688031215613a4557600080fd5b8535613a5081613a18565b94506020860135613a6081613a18565b935060408601359250606086013567ffffffffffffffff80821115613a8457600080fd5b818801915088601f830112613a9857600080fd5b813581811115613aa757600080fd5b896020828501011115613ab957600080fd5b9699959850939650602001949392505050565b60006101e08284031215613adf57600080fd5b50919050565b600060208284031215613af757600080fd5b813567ffffffffffffffff811115613b0e57600080fd5b613b1a84828501613acc565b949350505050565b600060208284031215613b3457600080fd5b813561387681613a18565b6000815180845260005b81811015613b6557602081850181015186830182015201613b49565b506000602082860101526020601f19601f83011685010191505092915050565b6020815260006138766020830184613b3f565b600081518084526020808501945080840160005b83811015613c195781518051151588528381015115158489015260408082015190890152606080820151908901526080808201516001600160a01b03908116918a019190915260a080830151908a015260c091820151169088015260e09096019590820190600101613bac565b509495945050505050565b6020815281516020820152602082015160408201526040820151606082015260006060830151613c5d608084018264ffffffffff169052565b50608083015164ffffffffff811660a08401525060a08301516001600160a01b03811660c08401525060c083015164ffffffffff811660e08401525060e0830151610100613cb08185018361ffff169052565b808501519150506101e06101208181860152613cd0610200860184613b98565b9250808601519050601f19610140818786030181880152613cf18584613b3f565b945080880151925050610160818786030181880152613d108584613b3f565b94508088015192505050610180613d2a8187018315159052565b86015190506101a0613d3f8682018315159052565b86015190506101c0613d548682018315159052565b959095015193019290925250919050565b83815260006020606081840152613d7f6060840186613b3f565b83810360408581019190915285518083528387019284019060005b81811015613dc857845180516001600160a01b03168452860151868401529385019391830191600101613d9a565b50909998505050505050505050565b600082601f830112613de857600080fd5b8135602067ffffffffffffffff821115613e0457613e04613896565b8160051b604051613e17838301826138c5565b92835284810182019282810187851115613e3057600080fd5b83870192505b84831015613e4d5782358152918301918301613e36565b509695505050505050565b600080600080600060a08688031215613e7057600080fd5b8535613e7b81613a18565b94506020860135613e8b81613a18565b9350604086013567ffffffffffffffff80821115613ea857600080fd5b613eb489838a01613dd7565b94506060880135915080821115613eca57600080fd5b613ed689838a01613dd7565b93506080880135915080821115613eec57600080fd5b50613ef988828901613940565b9150509295509295909350565b600060208284031215613f1857600080fd5b813567ffffffffffffffff811115613f2f57600080fd5b82016101a0818503121561387657600080fd5b600060208284031215613f5457600080fd5b813567ffffffffffffffff811115613f6b57600080fd5b8201610200818503121561387657600080fd5b600080600080600060a08688031215613f9657600080fd5b8535613fa181613a18565b94506020860135613fb181613a18565b93506040860135925060608601359150608086013567ffffffffffffffff811115613fdb57600080fd5b613ef988828901613940565b60008060208385031215613ffa57600080fd5b823567ffffffffffffffff8082111561401257600080fd5b818501915085601f83011261402657600080fd5b81358181111561403557600080fd5b8660208260051b850101111561404a57600080fd5b60209290920196919550909350505050565b600181811c9082168061407057607f821691505b602082108103613adf577f4e487b7100000000000000000000000000000000000000000000000000000000600052602260045260246000fd5b601f8211156140f357600081815260208120601f850160051c810160208610156140d05750805b601f850160051c820191505b818110156140ef578281556001016140dc565b5050505b505050565b815167ffffffffffffffff81111561411257614112613896565b61412681614120845461405c565b846140a9565b602080601f83116001811461417957600084156141435750858301515b7fffffffffffffffffffffffffffffffffffffffffffffffffffffffffffffffff600386901b1c1916600185901b1785556140ef565b600085815260208120601f198616915b828110156141a857888601518255948401946001909101908401614189565b50858210156141e457878501517fffffffffffffffffffffffffffffffffffffffffffffffffffffffffffffffff600388901b60f8161c191681555b5050505050600190811b01905550565b6040815260006142076040830185613b3f565b82810360208401526142198185613b3f565b95945050505050565b8051801515811461423257600080fd5b919050565b60006020828403121561424957600080fd5b61387682614222565b7f4e487b7100000000000000000000000000000000000000000000000000000000600052601260045260246000fd5b60008261429057614290614252565b500690565b6000602082840312156142a757600080fd5b5051919050565b6000826142bd576142bd614252565b500490565b7f4e487b7100000000000000000000000000000000000000000000000000000000600052603260045260246000fd5b60008083357fffffffffffffffffffffffffffffffffffffffffffffffffffffffffffffffe184360301811261432657600080fd5b83018035915067ffffffffffffffff82111561434157600080fd5b60200191503681900382131561435657600080fd5b9250929050565b805161423281613a18565b6000610120828403121561437b57600080fd5b6143836138f2565b9050815181526020820151602082015260408201516040820152606082015160608201526080820151608082015260a082015160a082015260c082015160c08201526143d160e0830161435d565b60e082015261010080830151818301525092915050565b600061012082840312156143fb57600080fd5b6138768383614368565b6affffffffffffffffffffff818116838216019080821115614450577f4e487b7100000000000000000000000000000000000000000000000000000000600052601160045260246000fd5b5092915050565b60006020828403121561446957600080fd5b815161387681613a18565b60006060828403121561448657600080fd5b6040516060810181811067ffffffffffffffff821117156144a9576144a9613896565b6040529050806144b883614222565b81526144c660208401614222565b60208201526144d760408401614222565b60408201525092915050565b6000808284036103a08112156144f857600080fd5b6145028585614368565b9250610120610280807ffffffffffffffffffffffffffffffffffffffffffffffffffffffffffffffee08401121561453957600080fd5b61454161391c565b925061454f87838801614474565b83526101808087015160208501526101a08088015160408601526101c08089015160608701526101e0614583818b01614222565b6080880152610200614596818c01614222565b60a08901526102206145a9818d01614222565b60c08a01526145bb6102408d01614222565b60e08a01526145cd6102608d01614222565b6101008a01526145de878d01614222565b888a01526145ef6102a08d01614222565b6101408a01526146026102c08d01614222565b6101608a01526146156102e08d01614222565b868a01526146266103008d01614222565b858a01526146376103208d01614222565b848a01526146486103408d01614222565b838a01526146596103608d0161435d565b828a01526103808c0151818a01525050505050505050809150509250929050565b8381526060602082015260006146936060830185613b3f565b82810360408401526146a58185613b3f565b9695505050505050565b600081518084526020808501808196508360051b8101915082860160005b8581101561470b57828403895281518051855285015160408686018190526146f781870183613b98565b9a87019a95505050908401906001016146cd565b5091979650505050505050565b600081518084526020808501945080840160005b83811015613c1957815180516001600160a01b03908116895284820151168489015260408082015190890152606080820151908901526080808201519089015260a0908101519088015260c0909601959082019060010161472c565b60006103a08883528751602084015260208801516040840152604088015160608401526001600160a01b0360608901511660808401526147e660a0840188518051151582526020808201511515908301526040908101511515910152565b6020870151610100818186015260408901519150610120828187015260608a01519250610140838188015260808b015193506101606148288189018615159052565b60a08c0151945061018061483f818a018715159052565b60c08d015195506101a0614856818b018815159052565b60e08e015196506101c061486d818c018915159052565b958e015196506101e0956148848b88018915159052565b948e015196506102009461489b8b87018915159052565b938e01519650610220936148b28b86018915159052565b928e015115156102408b0152908d015115156102608a01528c015115156102808901528b015115156102a0880152918a015115156102c08701528901516001600160a01b03166102e08601528801516103008501525061032083018690526103408301819052614924818401866146af565b90508281036103608401526149398185614718565b838103610380850152600081529050602081019998505050505050505050565b8183526000602080850194508260005b85811015613c1957813561497c81613a18565b6001600160a01b031687529582019590820190600101614969565b600081518084526020808501945080840160005b83811015613c19578151875295820195908201906001016149ab565b6001600160a01b038716815260a0602082015260006149ea60a083018789614959565b71ffffffffffffffffffffffffffffffffffff861660408401528281036060840152614a168186614997565b9150508215156080830152979650505050505050565b604081526000614a40604083018587614959565b82810360208401526146a58185614997565b600060208284031215614a6457600080fd5b81516138768161382b565b600060033d1115614a885760046000803e5060005160e01c5b90565b600060443d1015614a995790565b6040517ffffffffffffffffffffffffffffffffffffffffffffffffffffffffffffffffc803d016004833e81513d67ffffffffffffffff8160248401118184111715614ae757505050505090565b8285019150815181811115614aff5750505050505090565b843d8701016020828501011115614b195750505050505090565b614b28602082860101876138c5565b509095945050505050565b60006affffffffffffffffffffff80841680614b5157614b51614252565b92169190910492915050565b600081518084526020808501945080840160005b83811015613c195781516001600160a01b031687529582019590820190600101614b71565b60208082528251610100838301819052815161012085018190526000939283019184916101408701905b80841015614c0757845180516001600160a01b031683528681015163ffffffff16878401526040908101511515908301529385019360019390930192606090910190614bc0565b5084880151604088015260408801519450601f19878203016060880152614c2e8186614b5d565b9450506060870151608087015260808701519250614c5560a087018464ffffffffff169052565b60a08701516001600160a01b03811660c0880152925060c087015160ff811660e0880152925060e087015160ff8116878301529250509195945050505050565b60008060408385031215614ca857600080fd5b825191506020830151614cba81613a18565b80915050925092905056fea2646970667358221220e0710a87b4cc4c436008d39f417a9a170385881fc718efdf47fb049d9a9f65dc64736f6c63430008110033",
    "linkReferences": {}
  },
  "methodIdentifiers": {
    "MAX_CONTRIBUTION()": "94d95f8f",
    "TOKENS_PER_SLICE()": "31b9e3b1",
    "afterRoundReservedRate()": "0e1c46ea",
    "afterRoundSplits(uint256)": "0bdc3b30",
    "claimSlices()": "6ef2267e",
    "closeRound()": "e278fe6f",
    "contributions(address)": "42e94c90",
    "controller()": "f77c4791",
    "didPay((address,uint256,uint256,(address,uint256,uint256,uint256),(address,uint256,uint256,uint256),uint256,address,bool,string,bytes))": "da9ee8b7",
    "didRedeem((address,uint256,uint256,uint256,(address,uint256,uint256,uint256),(address,uint256,uint256,uint256),address,string,bytes))": "2b13c58f",
    "directory()": "c41c2f24",
    "ethAddress()": "41398b15",
    "fundingCycleRound()": "57c8fe3c",
    "fundingCycleStore()": "557e7155",
    "getRoundInfo()": "84bc76a6",
    "hardcap()": "b071cbe6",
    "isHardcapUsd()": "e44d1c40",
    "isQueued()": "1b25de8f",
    "isRoundClosed()": "ae3e7c46",
    "isSlicerToBeCreated()": "d6ba0da7",
    "isTargetReached()": "5e098f05",
    "isTargetUsd()": "dffe0c21",
    "onERC1155BatchReceived(address,address,uint256[],uint256[],bytes)": "bc197c81",
    "onERC1155Received(address,address,uint256,uint256,bytes)": "f23a6e61",
    "onERC721Received(address,address,uint256,bytes)": "150b7a02",
    "payParams((address,address,(address,uint256,uint256,uint256),uint256,uint256,address,uint256,uint256,string,bytes))": "d46cf171",
    "priceFeed()": "741bef1a",
    "projectId()": "3fafa127",
    "projectOwner()": "a4475ce4",
    "queueNextPhase()": "e7ef7d0d",
    "redeemParams((address,address,uint256,uint256,uint256,uint256,uint256,(address,uint256,uint256,uint256),bool,uint256,string,bytes))": "a51cfd18",
    "releaseTimelock()": "bb3b0347",
    "setTokenMetadata(string,string)": "0d71e3d7",
    "sliceCore()": "f4c76363",
    "slicerId()": "5d8dc389",
    "supportsInterface(bytes4)": "01ffc9a7",
    "target()": "d4b83992",
    "tokenName()": "6c02a931",
    "tokenSymbol()": "7b61c320",
    "totalContributions()": "37c08923",
    "transferTimelock()": "5cf84d4d",
    "transferToken(address)": "deebeac9",
    "transferUnclaimedSlicesTo(address[])": "fcf12991",
    "usdcAddress()": "02d45457"
  },
  "id": 0
}