{
  "abi": [
    {
      "inputs": [
        {
          "internalType": "contract IBluntDelegateDeployer",
          "name": "_delegateDeployer",
          "type": "address"
        },
        {
          "internalType": "contract IJBController",
          "name": "_controller",
          "type": "address"
        },
        {
          "internalType": "contract IJBOperatorStore",
          "name": "_operatorStore",
          "type": "address"
        },
        {
          "internalType": "address",
          "name": "_ethAddress",
          "type": "address"
        },
        {
          "internalType": "address",
          "name": "_usdcAddress",
          "type": "address"
        }
      ],
      "stateMutability": "nonpayable",
      "type": "constructor"
    },
    {
      "inputs": [],
      "name": "INVALID_TOKEN_ISSUANCE",
      "type": "error"
    },
    {
      "inputs": [],
      "name": "UNAUTHORIZED",
      "type": "error"
    },
    {
      "inputs": [],
      "name": "TOKENS_PER_ETH",
      "outputs": [
        {
          "internalType": "uint64",
          "name": "",
          "type": "uint64"
        }
      ],
      "stateMutability": "view",
      "type": "function"
    },
    {
      "inputs": [],
      "name": "controller",
      "outputs": [
        {
          "internalType": "contract IJBController",
          "name": "",
          "type": "address"
        }
      ],
      "stateMutability": "view",
      "type": "function"
    },
    {
      "inputs": [],
      "name": "delegateDeployer",
      "outputs": [
        {
          "internalType": "contract IBluntDelegateDeployer",
          "name": "",
          "type": "address"
        }
      ],
      "stateMutability": "view",
      "type": "function"
    },
    {
      "inputs": [],
      "name": "ethAddress",
      "outputs": [
        {
          "internalType": "address",
          "name": "",
          "type": "address"
        }
      ],
      "stateMutability": "view",
      "type": "function"
    },
    {
      "inputs": [
        {
          "components": [
            {
              "internalType": "contract IJBDirectory",
              "name": "directory",
              "type": "address"
            },
            {
              "internalType": "contract IJBFundingCycleStore",
              "name": "fundingCycleStore",
              "type": "address"
            },
            {
              "internalType": "contract ISliceCore",
              "name": "sliceCore",
              "type": "address"
            },
            {
              "internalType": "address",
              "name": "projectOwner",
              "type": "address"
            },
            {
              "internalType": "uint88",
              "name": "hardcap",
              "type": "uint88"
            },
            {
              "internalType": "uint88",
              "name": "target",
              "type": "uint88"
            },
            {
              "internalType": "uint40",
              "name": "releaseTimelock",
              "type": "uint40"
            },
            {
              "internalType": "uint40",
              "name": "transferTimelock",
              "type": "uint40"
            },
            {
              "internalType": "uint16",
              "name": "afterRoundReservedRate",
              "type": "uint16"
            },
            {
              "components": [
                {
                  "internalType": "bool",
                  "name": "preferClaimed",
                  "type": "bool"
                },
                {
                  "internalType": "bool",
                  "name": "preferAddToBalance",
                  "type": "bool"
                },
                {
                  "internalType": "uint256",
                  "name": "percent",
                  "type": "uint256"
                },
                {
                  "internalType": "uint256",
                  "name": "projectId",
                  "type": "uint256"
                },
                {
                  "internalType": "address payable",
                  "name": "beneficiary",
                  "type": "address"
                },
                {
                  "internalType": "uint256",
                  "name": "lockedUntil",
                  "type": "uint256"
                },
                {
                  "internalType": "contract IJBSplitAllocator",
                  "name": "allocator",
                  "type": "address"
                }
              ],
              "internalType": "struct JBSplit[]",
              "name": "afterRoundSplits",
              "type": "tuple[]"
            },
            {
              "internalType": "string",
              "name": "tokenName",
              "type": "string"
            },
            {
              "internalType": "string",
              "name": "tokenSymbol",
              "type": "string"
            },
            {
              "internalType": "bool",
              "name": "enforceSlicerCreation",
              "type": "bool"
            },
            {
              "internalType": "bool",
              "name": "isTargetUsd",
              "type": "bool"
            },
            {
              "internalType": "bool",
              "name": "isHardcapUsd",
              "type": "bool"
            }
          ],
          "internalType": "struct DeployBluntDelegateData",
          "name": "_deployBluntDelegateData",
          "type": "tuple"
        },
        {
          "components": [
            {
              "components": [
                {
                  "internalType": "string",
                  "name": "content",
                  "type": "string"
                },
                {
                  "internalType": "uint256",
                  "name": "domain",
                  "type": "uint256"
                }
              ],
              "internalType": "struct JBProjectMetadata",
              "name": "projectMetadata",
              "type": "tuple"
            },
            {
              "components": [
                {
                  "internalType": "uint256",
                  "name": "duration",
                  "type": "uint256"
                },
                {
                  "internalType": "uint256",
                  "name": "weight",
                  "type": "uint256"
                },
                {
                  "internalType": "uint256",
                  "name": "discountRate",
                  "type": "uint256"
                },
                {
                  "internalType": "contract IJBFundingCycleBallot",
                  "name": "ballot",
                  "type": "address"
                }
              ],
              "internalType": "struct JBFundingCycleData",
              "name": "data",
              "type": "tuple"
            },
            {
              "components": [
                {
                  "components": [
                    {
                      "internalType": "bool",
                      "name": "allowSetTerminals",
                      "type": "bool"
                    },
                    {
                      "internalType": "bool",
                      "name": "allowSetController",
                      "type": "bool"
                    },
                    {
                      "internalType": "bool",
                      "name": "pauseTransfers",
                      "type": "bool"
                    }
                  ],
                  "internalType": "struct JBGlobalFundingCycleMetadata",
                  "name": "global",
                  "type": "tuple"
                },
                {
                  "internalType": "uint256",
                  "name": "reservedRate",
                  "type": "uint256"
                },
                {
                  "internalType": "uint256",
                  "name": "redemptionRate",
                  "type": "uint256"
                },
                {
                  "internalType": "uint256",
                  "name": "ballotRedemptionRate",
                  "type": "uint256"
                },
                {
                  "internalType": "bool",
                  "name": "pausePay",
                  "type": "bool"
                },
                {
                  "internalType": "bool",
                  "name": "pauseDistributions",
                  "type": "bool"
                },
                {
                  "internalType": "bool",
                  "name": "pauseRedeem",
                  "type": "bool"
                },
                {
                  "internalType": "bool",
                  "name": "pauseBurn",
                  "type": "bool"
                },
                {
                  "internalType": "bool",
                  "name": "allowMinting",
                  "type": "bool"
                },
                {
                  "internalType": "bool",
                  "name": "allowTerminalMigration",
                  "type": "bool"
                },
                {
                  "internalType": "bool",
                  "name": "allowControllerMigration",
                  "type": "bool"
                },
                {
                  "internalType": "bool",
                  "name": "holdFees",
                  "type": "bool"
                },
                {
                  "internalType": "bool",
                  "name": "preferClaimedTokenOverride",
                  "type": "bool"
                },
                {
                  "internalType": "bool",
                  "name": "useTotalOverflowForRedemptions",
                  "type": "bool"
                },
                {
                  "internalType": "bool",
                  "name": "useDataSourceForPay",
                  "type": "bool"
                },
                {
                  "internalType": "bool",
                  "name": "useDataSourceForRedeem",
                  "type": "bool"
                },
                {
                  "internalType": "address",
                  "name": "dataSource",
                  "type": "address"
                },
                {
                  "internalType": "uint256",
                  "name": "metadata",
                  "type": "uint256"
                }
              ],
              "internalType": "struct JBFundingCycleMetadata",
              "name": "metadata",
              "type": "tuple"
            },
            {
              "internalType": "uint256",
              "name": "mustStartAtOrAfter",
              "type": "uint256"
            },
            {
              "components": [
                {
                  "internalType": "uint256",
                  "name": "group",
                  "type": "uint256"
                },
                {
                  "components": [
                    {
                      "internalType": "bool",
                      "name": "preferClaimed",
                      "type": "bool"
                    },
                    {
                      "internalType": "bool",
                      "name": "preferAddToBalance",
                      "type": "bool"
                    },
                    {
                      "internalType": "uint256",
                      "name": "percent",
                      "type": "uint256"
                    },
                    {
                      "internalType": "uint256",
                      "name": "projectId",
                      "type": "uint256"
                    },
                    {
                      "internalType": "address payable",
                      "name": "beneficiary",
                      "type": "address"
                    },
                    {
                      "internalType": "uint256",
                      "name": "lockedUntil",
                      "type": "uint256"
                    },
                    {
                      "internalType": "contract IJBSplitAllocator",
                      "name": "allocator",
                      "type": "address"
                    }
                  ],
                  "internalType": "struct JBSplit[]",
                  "name": "splits",
                  "type": "tuple[]"
                }
              ],
              "internalType": "struct JBGroupedSplits[]",
              "name": "groupedSplits",
              "type": "tuple[]"
            },
            {
              "components": [
                {
                  "internalType": "contract IJBPaymentTerminal",
                  "name": "terminal",
                  "type": "address"
                },
                {
                  "internalType": "address",
                  "name": "token",
                  "type": "address"
                },
                {
                  "internalType": "uint256",
                  "name": "distributionLimit",
                  "type": "uint256"
                },
                {
                  "internalType": "uint256",
                  "name": "distributionLimitCurrency",
                  "type": "uint256"
                },
                {
                  "internalType": "uint256",
                  "name": "overflowAllowance",
                  "type": "uint256"
                },
                {
                  "internalType": "uint256",
                  "name": "overflowAllowanceCurrency",
                  "type": "uint256"
                }
              ],
              "internalType": "struct JBFundAccessConstraints[]",
              "name": "fundAccessConstraints",
              "type": "tuple[]"
            },
            {
              "internalType": "contract IJBPaymentTerminal[]",
              "name": "terminals",
              "type": "address[]"
            },
            {
              "internalType": "string",
              "name": "memo",
              "type": "string"
            }
          ],
          "internalType": "struct JBLaunchProjectData",
          "name": "_launchProjectData",
          "type": "tuple"
        }
      ],
      "name": "launchProjectFor",
      "outputs": [
        {
          "internalType": "uint256",
          "name": "projectId",
          "type": "uint256"
        }
      ],
      "stateMutability": "nonpayable",
      "type": "function"
    },
    {
      "inputs": [],
      "name": "operatorStore",
      "outputs": [
        {
          "internalType": "contract IJBOperatorStore",
          "name": "",
          "type": "address"
        }
      ],
      "stateMutability": "view",
      "type": "function"
    },
    {
      "inputs": [],
      "name": "usdcAddress",
      "outputs": [
        {
          "internalType": "address",
          "name": "",
          "type": "address"
        }
      ],
      "stateMutability": "view",
      "type": "function"
    }
  ],
  "bytecode": {
    "object": "0x6101206040523480156200001257600080fd5b506040516200195b3803806200195b833981016040819052620000359162000079565b6001600160a01b039283166080529382166101005291811660e05290811660a0521660c052620000f9565b6001600160a01b03811681146200007657600080fd5b50565b600080600080600060a086880312156200009257600080fd5b85516200009f8162000060565b6020870151909550620000b28162000060565b6040870151909450620000c58162000060565b6060870151909350620000d88162000060565b6080870151909250620000eb8162000060565b809150509295509295909350565b60805160a05160c05160e051610100516117f56200016660003960008181610120015261030a015260008181610195015281816101bb0152818161033701526104af0152600081816087015261037e01526000818160f9015261035c0152600061014701526117f56000f3fe608060405234801561001057600080fd5b506004361061007d5760003560e01c80638f3d964b1161005b5780638f3d964b1461011b578063ad007d6314610142578063bc6e660414610169578063f77c47911461019057600080fd5b806302d45457146100825780631ebfad16146100d357806341398b15146100f4575b600080fd5b6100a97f000000000000000000000000000000000000000000000000000000000000000081565b60405173ffffffffffffffffffffffffffffffffffffffff90911681526020015b60405180910390f35b6100e66100e1366004610e88565b6101b7565b6040519081526020016100ca565b6100a97f000000000000000000000000000000000000000000000000000000000000000081565b6100a97f000000000000000000000000000000000000000000000000000000000000000081565b6100a97f000000000000000000000000000000000000000000000000000000000000000081565b61017766038d7ea4c6800081565b60405167ffffffffffffffff90911681526020016100ca565b6100a97f000000000000000000000000000000000000000000000000000000000000000081565b60007f000000000000000000000000000000000000000000000000000000000000000073ffffffffffffffffffffffffffffffffffffffff16638b79543c6040518163ffffffff1660e01b8152600401602060405180830381865afa158015610224573d6000803e3d6000fd5b505050506040513d601f19601f820116820180604052508101906102489190611039565b73ffffffffffffffffffffffffffffffffffffffff166306661abd6040518163ffffffff1660e01b8152600401602060405180830381865afa158015610292573d6000803e3d6000fd5b505050506040513d601f19601f820116820180604052508101906102b6919061105d565b6102c1906001611076565b6020830151516040517f67e8efe700000000000000000000000000000000000000000000000000000000815291925060009173ffffffffffffffffffffffffffffffffffffffff7f000000000000000000000000000000000000000000000000000000000000000016916367e8efe7916103a8917f0000000000000000000000000000000000000000000000000000000000000000918791907f0000000000000000000000000000000000000000000000000000000000000000907f0000000000000000000000000000000000000000000000000000000000000000908c906004016111b3565b6020604051808303816000875af11580156103c7573d6000803e3d6000fd5b505050506040513d601f19601f820116820180604052508101906103eb9190611039565b6040808501805173ffffffffffffffffffffffffffffffffffffffff841661020090910152805160016101c090910181905281516101e0018190528151612710908401529051519091015260208085015101519091501580610465575060208084015101516104629066038d7ea4c68000906113e4565b15155b1561049c576040517fbc11a31500000000000000000000000000000000000000000000000000000000815260040160405180910390fd5b6104a681846104ad565b5092915050565b7f000000000000000000000000000000000000000000000000000000000000000073ffffffffffffffffffffffffffffffffffffffff1663b3c5267383836000015184602001518560400151866060015187608001518860a001518960c001518a60e001516040518a63ffffffff1660e01b8152600401610536999897969594939291906116bd565b6020604051808303816000875af1158015610555573d6000803e3d6000fd5b505050506040513d601f19601f82011682018060405250810190610579919061105d565b505050565b7f4e487b7100000000000000000000000000000000000000000000000000000000600052604160045260246000fd5b60405160e0810167ffffffffffffffff811182821017156105d0576105d061057e565b60405290565b6040805190810167ffffffffffffffff811182821017156105d0576105d061057e565b604051610240810167ffffffffffffffff811182821017156105d0576105d061057e565b60405160c0810167ffffffffffffffff811182821017156105d0576105d061057e565b604051610100810167ffffffffffffffff811182821017156105d0576105d061057e565b6040516101e0810167ffffffffffffffff811182821017156105d0576105d061057e565b604051601f82017fffffffffffffffffffffffffffffffffffffffffffffffffffffffffffffffe016810167ffffffffffffffff811182821017156106cf576106cf61057e565b604052919050565b73ffffffffffffffffffffffffffffffffffffffff811681146106f957600080fd5b50565b8035610707816106d7565b919050565b80356affffffffffffffffffffff8116811461070757600080fd5b803564ffffffffff8116811461070757600080fd5b803561ffff8116811461070757600080fd5b600067ffffffffffffffff8211156107685761076861057e565b5060051b60200190565b8035801515811461070757600080fd5b600082601f83011261079357600080fd5b813560206107a86107a38361074e565b610688565b82815260e092830285018201928282019190878511156107c757600080fd5b8387015b858110156108565781818a0312156107e35760008081fd5b6107eb6105ad565b6107f482610772565b8152610801868301610772565b818701526040828101359082015260608083013590820152608080830135610828816106d7565b9082015260a0828101359082015260c080830135610845816106d7565b9082015284529284019281016107cb565b5090979650505050505050565b600082601f83011261087457600080fd5b813567ffffffffffffffff81111561088e5761088e61057e565b6108bf60207fffffffffffffffffffffffffffffffffffffffffffffffffffffffffffffffe0601f84011601610688565b8181528460208386010111156108d457600080fd5b816020850160208301376000918101602001919091529392505050565b60006040828403121561090357600080fd5b61090b6105d6565b9050813567ffffffffffffffff81111561092457600080fd5b61093084828501610863565b8252506020820135602082015292915050565b60006080828403121561095557600080fd5b6040516080810181811067ffffffffffffffff821117156109785761097861057e565b806040525080915082358152602083013560208201526040830135604082015260608301356109a6816106d7565b6060919091015292915050565b6000606082840312156109c557600080fd5b6040516060810181811067ffffffffffffffff821117156109e8576109e861057e565b6040529050806109f783610772565b8152610a0560208401610772565b6020820152610a1660408401610772565b60408201525092915050565b60006102808284031215610a3557600080fd5b610a3d6105f9565b9050610a4983836109b3565b8152606082013560208201526080820135604082015260a08201356060820152610a7560c08301610772565b6080820152610a8660e08301610772565b60a0820152610100610a99818401610772565b60c0830152610120610aac818501610772565b60e0840152610140610abf818601610772565b838501526101609250610ad3838601610772565b828501526101809150610ae7828601610772565b908401526101a0610af9858201610772565b838501526101c09250610b0d838601610772565b828501526101e09150610b21828601610772565b90840152610200610b33858201610772565b838501526102209250610b47838601610772565b82850152610b5861024086016106fc565b818501525050610260830135818301525092915050565b600082601f830112610b8057600080fd5b81356020610b906107a38361074e565b82815260059290921b84018101918181019086841115610baf57600080fd5b8286015b84811015610c5057803567ffffffffffffffff80821115610bd45760008081fd5b81890191506040807fffffffffffffffffffffffffffffffffffffffffffffffffffffffffffffffe0848d03011215610c0d5760008081fd5b610c156105d6565b838801358152908301359082821115610c2e5760008081fd5b610c3c8c8984870101610782565b818901528652505050918301918301610bb3565b509695505050505050565b600082601f830112610c6c57600080fd5b81356020610c7c6107a38361074e565b82815260c09283028501820192828201919087851115610c9b57600080fd5b8387015b858110156108565781818a031215610cb75760008081fd5b610cbf61061d565b8135610cca816106d7565b815281860135610cd9816106d7565b8187015260408281013590820152606080830135908201526080808301359082015260a080830135908201528452928401928101610c9f565b600082601f830112610d2357600080fd5b81356020610d336107a38361074e565b82815260059290921b84018101918181019086841115610d5257600080fd5b8286015b84811015610c50578035610d69816106d7565b8352918301918301610d56565b60006103c08284031215610d8957600080fd5b610d91610640565b9050813567ffffffffffffffff80821115610dab57600080fd5b610db7858386016108f1565b8352610dc68560208601610943565b6020840152610dd88560a08601610a22565b60408401526103208401356060840152610340840135915080821115610dfd57600080fd5b610e0985838601610b6f565b6080840152610360840135915080821115610e2357600080fd5b610e2f85838601610c5b565b60a0840152610380840135915080821115610e4957600080fd5b610e5585838601610d12565b60c08401526103a0840135915080821115610e6f57600080fd5b50610e7c84828501610863565b60e08301525092915050565b60008060408385031215610e9b57600080fd5b823567ffffffffffffffff80821115610eb357600080fd5b908401906101e08287031215610ec857600080fd5b610ed0610664565b610ed9836106fc565b8152610ee7602084016106fc565b6020820152610ef8604084016106fc565b6040820152610f09606084016106fc565b6060820152610f1a6080840161070c565b6080820152610f2b60a0840161070c565b60a0820152610f3c60c08401610727565b60c0820152610f4d60e08401610727565b60e0820152610100610f6081850161073c565b908201526101208381013583811115610f7857600080fd5b610f8489828701610782565b8284015250506101408084013583811115610f9e57600080fd5b610faa89828701610863565b8284015250506101608084013583811115610fc457600080fd5b610fd089828701610863565b828401525050610180610fe4818501610772565b908201526101a0610ff6848201610772565b908201526101c0611008848201610772565b908201529350602085013591508082111561102257600080fd5b5061102f85828601610d76565b9150509250929050565b60006020828403121561104b57600080fd5b8151611056816106d7565b9392505050565b60006020828403121561106f57600080fd5b5051919050565b808201808211156110b0577f4e487b7100000000000000000000000000000000000000000000000000000000600052601160045260246000fd5b92915050565b600081518084526020808501945080840160005b8381101561114457815180511515885283810151151584890152604080820151908901526060808201519089015260808082015173ffffffffffffffffffffffffffffffffffffffff908116918a019190915260a080830151908a015260c091820151169088015260e090960195908201906001016110ca565b509495945050505050565b6000815180845260005b8181101561117557602081850181015186830182015201611159565b5060006020828601015260207fffffffffffffffffffffffffffffffffffffffffffffffffffffffffffffffe0601f83011685010191505092915050565b600073ffffffffffffffffffffffffffffffffffffffff8089168352876020840152866040840152808616606084015280851660808401525060c060a083015261121660c08301845173ffffffffffffffffffffffffffffffffffffffff169052565b602083015173ffffffffffffffffffffffffffffffffffffffff811660e08401525060408301516101006112618185018373ffffffffffffffffffffffffffffffffffffffff169052565b6060850151915061012061128c8186018473ffffffffffffffffffffffffffffffffffffffff169052565b608086015192506101406112ae818701856affffffffffffffffffffff169052565b60a087015193506101606112d0818801866affffffffffffffffffffff169052565b60c088015194506101806112ec8189018764ffffffffff169052565b60e089015195506101a0611308818a018864ffffffffff169052565b9489015195506101c0946113218987018861ffff169052565b848a015196506101e0945084858a015261133f6102a08a01886110b6565b9650838a015194507fffffffffffffffffffffffffffffffffffffffffffffffffffffffffffffff40935083898803016102008a015261137f878661114f565b9650828a0151945083898803016102208a015261139c878661114f565b9650818a015194506113b36102408a018615159052565b8901518015156102608a015293506113ca92505050565b508401518015156102808501525098975050505050505050565b60008261141a577f4e487b7100000000000000000000000000000000000000000000000000000000600052601260045260246000fd5b500690565b6114448282518051151582526020808201511515908301526040908101511515910152565b6020810151606083015260408101516080830152606081015160a0830152608081015161147560c084018215159052565b5060a081015180151560e08401525060c08101516101006114998185018315159052565b60e083015191506101206114b08186018415159052565b908301519150610140906114c78583018415159052565b83015191506101606114dc8582018415159052565b908301519150610180906114f38583018415159052565b83015191506101a06115088582018415159052565b9083015191506101c09061151f8583018415159052565b83015191506101e06115348582018415159052565b9083015191506102009061154b8583018415159052565b83015191506102206115608582018415159052565b9083015173ffffffffffffffffffffffffffffffffffffffff16610240850152909101516102609092019190915250565b600081518084526020808501808196508360051b8101915082860160005b858110156115ed57828403895281518051855285015160408686018190526115d9818701836110b6565b9a87019a95505050908401906001016115af565b5091979650505050505050565b600081518084526020808501945080840160005b83811015611144578151805173ffffffffffffffffffffffffffffffffffffffff908116895284820151168489015260408082015190890152606080820151908901526080808201519089015260a0908101519088015260c0909601959082019060010161160e565b600081518084526020808501945080840160005b8381101561114457815173ffffffffffffffffffffffffffffffffffffffff168752958201959082019060010161168b565b60006103e073ffffffffffffffffffffffffffffffffffffffff8c1683528060208401528a516040828501526116f761042085018261114f565b91505060208b0151610400840152611749604084018b80518252602081015160208301526040810151604083015273ffffffffffffffffffffffffffffffffffffffff60608201511660608301525050565b61175660c084018a61141f565b876103408401528281036103608401526117708188611591565b905082810361038084015261178581876115fa565b90508281036103a084015261179a8186611677565b90508281036103c08401526117af818561114f565b9c9b50505050505050505050505056fea2646970667358221220cedcb5aae17e0093a8f451096ca9890946fc4f60ea559448c88f6e10c151c04264736f6c63430008110033",
    "linkReferences": {}
  },
  "methodIdentifiers": {
    "TOKENS_PER_ETH()": "bc6e6604",
    "controller()": "f77c4791",
    "delegateDeployer()": "8f3d964b",
    "ethAddress()": "41398b15",
    "launchProjectFor((address,address,address,address,uint88,uint88,uint40,uint40,uint16,(bool,bool,uint256,uint256,address,uint256,address)[],string,string,bool,bool,bool),((string,uint256),(uint256,uint256,uint256,address),((bool,bool,bool),uint256,uint256,uint256,bool,bool,bool,bool,bool,bool,bool,bool,bool,bool,bool,bool,address,uint256),uint256,(uint256,(bool,bool,uint256,uint256,address,uint256,address)[])[],(address,address,uint256,uint256,uint256,uint256)[],address[],string))": "1ebfad16",
    "operatorStore()": "ad007d63",
    "usdcAddress()": "02d45457"
  },
  "id": 2
}