{
  "abi": [
    {
      "inputs": [
        {
          "internalType": "contract IBluntDelegateDeployer",
          "name": "_delegateDeployer",
          "type": "address"
        },
        {
          "internalType": "contract IBluntDelegateCloner",
          "name": "_delegateCloner",
          "type": "address"
        },
        {
          "internalType": "contract IJBController",
          "name": "_controller",
          "type": "address"
        },
        {
          "internalType": "contract IJBOperatorStore",
          "name": "_operatorStore",
          "type": "address"
        },
        {
          "internalType": "address",
          "name": "_ethAddress",
          "type": "address"
        },
        {
          "internalType": "address",
          "name": "_usdcAddress",
          "type": "address"
        }
      ],
      "stateMutability": "nonpayable",
      "type": "constructor"
    },
    {
      "inputs": [],
      "name": "INVALID_TOKEN_ISSUANCE",
      "type": "error"
    },
    {
      "inputs": [],
      "name": "UNAUTHORIZED",
      "type": "error"
    },
    {
      "inputs": [],
      "name": "TOKENS_PER_ETH",
      "outputs": [
        {
          "internalType": "uint64",
          "name": "",
          "type": "uint64"
        }
      ],
      "stateMutability": "view",
      "type": "function"
    },
    {
      "inputs": [],
      "name": "controller",
      "outputs": [
        {
          "internalType": "contract IJBController",
          "name": "",
          "type": "address"
        }
      ],
      "stateMutability": "view",
      "type": "function"
    },
    {
      "inputs": [],
      "name": "delegateCloner",
      "outputs": [
        {
          "internalType": "contract IBluntDelegateCloner",
          "name": "",
          "type": "address"
        }
      ],
      "stateMutability": "view",
      "type": "function"
    },
    {
      "inputs": [],
      "name": "delegateDeployer",
      "outputs": [
        {
          "internalType": "contract IBluntDelegateDeployer",
          "name": "",
          "type": "address"
        }
      ],
      "stateMutability": "view",
      "type": "function"
    },
    {
      "inputs": [],
      "name": "ethAddress",
      "outputs": [
        {
          "internalType": "address",
          "name": "",
          "type": "address"
        }
      ],
      "stateMutability": "view",
      "type": "function"
    },
    {
      "inputs": [
        {
          "components": [
            {
              "internalType": "contract IJBDirectory",
              "name": "directory",
              "type": "address"
            },
            {
              "internalType": "contract IJBFundingCycleStore",
              "name": "fundingCycleStore",
              "type": "address"
            },
            {
              "internalType": "contract ISliceCore",
              "name": "sliceCore",
              "type": "address"
            },
            {
              "internalType": "address",
              "name": "projectOwner",
              "type": "address"
            },
            {
              "internalType": "uint88",
              "name": "hardcap",
              "type": "uint88"
            },
            {
              "internalType": "uint88",
              "name": "target",
              "type": "uint88"
            },
            {
              "internalType": "uint40",
              "name": "releaseTimelock",
              "type": "uint40"
            },
            {
              "internalType": "uint40",
              "name": "transferTimelock",
              "type": "uint40"
            },
            {
              "internalType": "uint16",
              "name": "afterRoundReservedRate",
              "type": "uint16"
            },
            {
              "components": [
                {
                  "internalType": "bool",
                  "name": "preferClaimed",
                  "type": "bool"
                },
                {
                  "internalType": "bool",
                  "name": "preferAddToBalance",
                  "type": "bool"
                },
                {
                  "internalType": "uint256",
                  "name": "percent",
                  "type": "uint256"
                },
                {
                  "internalType": "uint256",
                  "name": "projectId",
                  "type": "uint256"
                },
                {
                  "internalType": "address payable",
                  "name": "beneficiary",
                  "type": "address"
                },
                {
                  "internalType": "uint256",
                  "name": "lockedUntil",
                  "type": "uint256"
                },
                {
                  "internalType": "contract IJBSplitAllocator",
                  "name": "allocator",
                  "type": "address"
                }
              ],
              "internalType": "struct JBSplit[]",
              "name": "afterRoundSplits",
              "type": "tuple[]"
            },
            {
              "internalType": "string",
              "name": "tokenName",
              "type": "string"
            },
            {
              "internalType": "string",
              "name": "tokenSymbol",
              "type": "string"
            },
            {
              "internalType": "bool",
              "name": "enforceSlicerCreation",
              "type": "bool"
            },
            {
              "internalType": "bool",
              "name": "isTargetUsd",
              "type": "bool"
            },
            {
              "internalType": "bool",
              "name": "isHardcapUsd",
              "type": "bool"
            }
          ],
          "internalType": "struct DeployBluntDelegateData",
          "name": "_deployBluntDelegateData",
          "type": "tuple"
        },
        {
          "components": [
            {
              "components": [
                {
                  "internalType": "string",
                  "name": "content",
                  "type": "string"
                },
                {
                  "internalType": "uint256",
                  "name": "domain",
                  "type": "uint256"
                }
              ],
              "internalType": "struct JBProjectMetadata",
              "name": "projectMetadata",
              "type": "tuple"
            },
            {
              "components": [
                {
                  "internalType": "uint256",
                  "name": "duration",
                  "type": "uint256"
                },
                {
                  "internalType": "uint256",
                  "name": "weight",
                  "type": "uint256"
                },
                {
                  "internalType": "uint256",
                  "name": "discountRate",
                  "type": "uint256"
                },
                {
                  "internalType": "contract IJBFundingCycleBallot",
                  "name": "ballot",
                  "type": "address"
                }
              ],
              "internalType": "struct JBFundingCycleData",
              "name": "data",
              "type": "tuple"
            },
            {
              "components": [
                {
                  "components": [
                    {
                      "internalType": "bool",
                      "name": "allowSetTerminals",
                      "type": "bool"
                    },
                    {
                      "internalType": "bool",
                      "name": "allowSetController",
                      "type": "bool"
                    },
                    {
                      "internalType": "bool",
                      "name": "pauseTransfers",
                      "type": "bool"
                    }
                  ],
                  "internalType": "struct JBGlobalFundingCycleMetadata",
                  "name": "global",
                  "type": "tuple"
                },
                {
                  "internalType": "uint256",
                  "name": "reservedRate",
                  "type": "uint256"
                },
                {
                  "internalType": "uint256",
                  "name": "redemptionRate",
                  "type": "uint256"
                },
                {
                  "internalType": "uint256",
                  "name": "ballotRedemptionRate",
                  "type": "uint256"
                },
                {
                  "internalType": "bool",
                  "name": "pausePay",
                  "type": "bool"
                },
                {
                  "internalType": "bool",
                  "name": "pauseDistributions",
                  "type": "bool"
                },
                {
                  "internalType": "bool",
                  "name": "pauseRedeem",
                  "type": "bool"
                },
                {
                  "internalType": "bool",
                  "name": "pauseBurn",
                  "type": "bool"
                },
                {
                  "internalType": "bool",
                  "name": "allowMinting",
                  "type": "bool"
                },
                {
                  "internalType": "bool",
                  "name": "allowTerminalMigration",
                  "type": "bool"
                },
                {
                  "internalType": "bool",
                  "name": "allowControllerMigration",
                  "type": "bool"
                },
                {
                  "internalType": "bool",
                  "name": "holdFees",
                  "type": "bool"
                },
                {
                  "internalType": "bool",
                  "name": "preferClaimedTokenOverride",
                  "type": "bool"
                },
                {
                  "internalType": "bool",
                  "name": "useTotalOverflowForRedemptions",
                  "type": "bool"
                },
                {
                  "internalType": "bool",
                  "name": "useDataSourceForPay",
                  "type": "bool"
                },
                {
                  "internalType": "bool",
                  "name": "useDataSourceForRedeem",
                  "type": "bool"
                },
                {
                  "internalType": "address",
                  "name": "dataSource",
                  "type": "address"
                },
                {
                  "internalType": "uint256",
                  "name": "metadata",
                  "type": "uint256"
                }
              ],
              "internalType": "struct JBFundingCycleMetadata",
              "name": "metadata",
              "type": "tuple"
            },
            {
              "internalType": "uint256",
              "name": "mustStartAtOrAfter",
              "type": "uint256"
            },
            {
              "components": [
                {
                  "internalType": "uint256",
                  "name": "group",
                  "type": "uint256"
                },
                {
                  "components": [
                    {
                      "internalType": "bool",
                      "name": "preferClaimed",
                      "type": "bool"
                    },
                    {
                      "internalType": "bool",
                      "name": "preferAddToBalance",
                      "type": "bool"
                    },
                    {
                      "internalType": "uint256",
                      "name": "percent",
                      "type": "uint256"
                    },
                    {
                      "internalType": "uint256",
                      "name": "projectId",
                      "type": "uint256"
                    },
                    {
                      "internalType": "address payable",
                      "name": "beneficiary",
                      "type": "address"
                    },
                    {
                      "internalType": "uint256",
                      "name": "lockedUntil",
                      "type": "uint256"
                    },
                    {
                      "internalType": "contract IJBSplitAllocator",
                      "name": "allocator",
                      "type": "address"
                    }
                  ],
                  "internalType": "struct JBSplit[]",
                  "name": "splits",
                  "type": "tuple[]"
                }
              ],
              "internalType": "struct JBGroupedSplits[]",
              "name": "groupedSplits",
              "type": "tuple[]"
            },
            {
              "components": [
                {
                  "internalType": "contract IJBPaymentTerminal",
                  "name": "terminal",
                  "type": "address"
                },
                {
                  "internalType": "address",
                  "name": "token",
                  "type": "address"
                },
                {
                  "internalType": "uint256",
                  "name": "distributionLimit",
                  "type": "uint256"
                },
                {
                  "internalType": "uint256",
                  "name": "distributionLimitCurrency",
                  "type": "uint256"
                },
                {
                  "internalType": "uint256",
                  "name": "overflowAllowance",
                  "type": "uint256"
                },
                {
                  "internalType": "uint256",
                  "name": "overflowAllowanceCurrency",
                  "type": "uint256"
                }
              ],
              "internalType": "struct JBFundAccessConstraints[]",
              "name": "fundAccessConstraints",
              "type": "tuple[]"
            },
            {
              "internalType": "contract IJBPaymentTerminal[]",
              "name": "terminals",
              "type": "address[]"
            },
            {
              "internalType": "string",
              "name": "memo",
              "type": "string"
            }
          ],
          "internalType": "struct JBLaunchProjectData",
          "name": "_launchProjectData",
          "type": "tuple"
        },
        {
          "internalType": "bool",
          "name": "_clone",
          "type": "bool"
        }
      ],
      "name": "launchProjectFor",
      "outputs": [
        {
          "internalType": "uint256",
          "name": "projectId",
          "type": "uint256"
        }
      ],
      "stateMutability": "nonpayable",
      "type": "function"
    },
    {
      "inputs": [],
      "name": "operatorStore",
      "outputs": [
        {
          "internalType": "contract IJBOperatorStore",
          "name": "",
          "type": "address"
        }
      ],
      "stateMutability": "view",
      "type": "function"
    },
    {
      "inputs": [],
      "name": "usdcAddress",
      "outputs": [
        {
          "internalType": "address",
          "name": "",
          "type": "address"
        }
      ],
      "stateMutability": "view",
      "type": "function"
    }
  ],
  "bytecode": {
    "object": "0x6101406040523480156200001257600080fd5b50604051620019a0380380620019a0833981016040819052620000359162000080565b6001600160a01b03928316608052948216610100529281166101205290811660e05290811660a0521660c05262000114565b6001600160a01b03811681146200007d57600080fd5b50565b60008060008060008060c087890312156200009a57600080fd5b8651620000a78162000067565b6020880151909650620000ba8162000067565b6040880151909550620000cd8162000067565b6060880151909450620000e08162000067565b6080880151909350620000f38162000067565b60a0880151909250620001068162000067565b809150509295509295509295565b60805160a05160c05160e05161010051610120516117f8620001a86000396000818160f7015261030c015260008181610145015261042a0152600081816101ba015281816101e0015281816103390152818161045701526105c3015260008181609201528181610380015261049e01526000818161011e0152818161035e015261047c0152600061016c01526117f86000f3fe608060405234801561001057600080fd5b50600436106100885760003560e01c80638f3d964b1161005b5780638f3d964b14610140578063ad007d6314610167578063bc6e66041461018e578063f77c4791146101b557600080fd5b806302d454571461008d5780630e1cda12146100d157806311fa21ad146100f257806341398b1514610119575b600080fd5b6100b47f000000000000000000000000000000000000000000000000000000000000000081565b6040516001600160a01b0390911681526020015b60405180910390f35b6100e46100df366004610f28565b6101dc565b6040519081526020016100c8565b6100b47f000000000000000000000000000000000000000000000000000000000000000081565b6100b47f000000000000000000000000000000000000000000000000000000000000000081565b6100b47f000000000000000000000000000000000000000000000000000000000000000081565b6100b47f000000000000000000000000000000000000000000000000000000000000000081565b61019c66038d7ea4c6800081565b60405167ffffffffffffffff90911681526020016100c8565b6100b47f000000000000000000000000000000000000000000000000000000000000000081565b60007f00000000000000000000000000000000000000000000000000000000000000006001600160a01b0316638b79543c6040518163ffffffff1660e01b8152600401602060405180830381865afa15801561023c573d6000803e3d6000fd5b505050506040513d601f19601f8201168201806040525081019061026091906110e9565b6001600160a01b03166306661abd6040518163ffffffff1660e01b8152600401602060405180830381865afa15801561029d573d6000803e3d6000fd5b505050506040513d601f19601f820116820180604052508101906102c1919061110d565b6102cc906001611126565b9050600082156103f4576020840151516040517f67e8efe70000000000000000000000000000000000000000000000000000000081526001600160a01b037f000000000000000000000000000000000000000000000000000000000000000016916367e8efe7916103aa917f0000000000000000000000000000000000000000000000000000000000000000918791907f0000000000000000000000000000000000000000000000000000000000000000907f0000000000000000000000000000000000000000000000000000000000000000908d90600401611238565b6020604051808303816000875af11580156103c9573d6000803e3d6000fd5b505050506040513d601f19601f820116820180604052508101906103ed91906110e9565b905061050e565b6020840151516040517f67e8efe70000000000000000000000000000000000000000000000000000000081526001600160a01b037f000000000000000000000000000000000000000000000000000000000000000016916367e8efe7916104c8917f0000000000000000000000000000000000000000000000000000000000000000918791907f0000000000000000000000000000000000000000000000000000000000000000907f0000000000000000000000000000000000000000000000000000000000000000908d90600401611238565b6020604051808303816000875af11580156104e7573d6000803e3d6000fd5b505050506040513d601f19601f8201168201806040525081019061050b91906110e9565b90505b604080850180516001600160a01b03841661020090910152805160016101c090910181905281516101e0018190528151612710908401529051519091015260208085015101511580610578575060208085015101516105759066038d7ea4c6800090611428565b15155b156105af576040517fbc11a31500000000000000000000000000000000000000000000000000000000815260040160405180910390fd5b6105b981856105c1565b509392505050565b7f00000000000000000000000000000000000000000000000000000000000000006001600160a01b031663b3c5267383836000015184602001518560400151866060015187608001518860a001518960c001518a60e001516040518a63ffffffff1660e01b815260040161063d999897969594939291906116da565b6020604051808303816000875af115801561065c573d6000803e3d6000fd5b505050506040513d601f19601f82011682018060405250810190610680919061110d565b505050565b7f4e487b7100000000000000000000000000000000000000000000000000000000600052604160045260246000fd5b60405160e0810167ffffffffffffffff811182821017156106d7576106d7610685565b60405290565b6040805190810167ffffffffffffffff811182821017156106d7576106d7610685565b604051610240810167ffffffffffffffff811182821017156106d7576106d7610685565b60405160c0810167ffffffffffffffff811182821017156106d7576106d7610685565b604051610100810167ffffffffffffffff811182821017156106d7576106d7610685565b6040516101e0810167ffffffffffffffff811182821017156106d7576106d7610685565b604051601f8201601f1916810167ffffffffffffffff811182821017156107b8576107b8610685565b604052919050565b6001600160a01b03811681146107d557600080fd5b50565b80356107e3816107c0565b919050565b80356affffffffffffffffffffff811681146107e357600080fd5b803564ffffffffff811681146107e357600080fd5b803561ffff811681146107e357600080fd5b600067ffffffffffffffff82111561084457610844610685565b5060051b60200190565b803580151581146107e357600080fd5b600082601f83011261086f57600080fd5b8135602061088461087f8361082a565b61078f565b82815260e092830285018201928282019190878511156108a357600080fd5b8387015b858110156109325781818a0312156108bf5760008081fd5b6108c76106b4565b6108d08261084e565b81526108dd86830161084e565b818701526040828101359082015260608083013590820152608080830135610904816107c0565b9082015260a0828101359082015260c080830135610921816107c0565b9082015284529284019281016108a7565b5090979650505050505050565b600082601f83011261095057600080fd5b813567ffffffffffffffff81111561096a5761096a610685565b61097d6020601f19601f8401160161078f565b81815284602083860101111561099257600080fd5b816020850160208301376000918101602001919091529392505050565b6000604082840312156109c157600080fd5b6109c96106dd565b9050813567ffffffffffffffff8111156109e257600080fd5b6109ee8482850161093f565b8252506020820135602082015292915050565b600060808284031215610a1357600080fd5b6040516080810181811067ffffffffffffffff82111715610a3657610a36610685565b80604052508091508235815260208301356020820152604083013560408201526060830135610a64816107c0565b6060919091015292915050565b600060608284031215610a8357600080fd5b6040516060810181811067ffffffffffffffff82111715610aa657610aa6610685565b604052905080610ab58361084e565b8152610ac36020840161084e565b6020820152610ad46040840161084e565b60408201525092915050565b60006102808284031215610af357600080fd5b610afb610700565b9050610b078383610a71565b8152606082013560208201526080820135604082015260a08201356060820152610b3360c0830161084e565b6080820152610b4460e0830161084e565b60a0820152610100610b5781840161084e565b60c0830152610120610b6a81850161084e565b60e0840152610140610b7d81860161084e565b838501526101609250610b9183860161084e565b828501526101809150610ba582860161084e565b908401526101a0610bb785820161084e565b838501526101c09250610bcb83860161084e565b828501526101e09150610bdf82860161084e565b90840152610200610bf185820161084e565b838501526102209250610c0583860161084e565b82850152610c1661024086016107d8565b818501525050610260830135818301525092915050565b600082601f830112610c3e57600080fd5b81356020610c4e61087f8361082a565b82815260059290921b84018101918181019086841115610c6d57600080fd5b8286015b84811015610cf057803567ffffffffffffffff80821115610c925760008081fd5b8189019150604080601f19848d03011215610cad5760008081fd5b610cb56106dd565b838801358152908301359082821115610cce5760008081fd5b610cdc8c898487010161085e565b818901528652505050918301918301610c71565b509695505050505050565b600082601f830112610d0c57600080fd5b81356020610d1c61087f8361082a565b82815260c09283028501820192828201919087851115610d3b57600080fd5b8387015b858110156109325781818a031215610d575760008081fd5b610d5f610724565b8135610d6a816107c0565b815281860135610d79816107c0565b8187015260408281013590820152606080830135908201526080808301359082015260a080830135908201528452928401928101610d3f565b600082601f830112610dc357600080fd5b81356020610dd361087f8361082a565b82815260059290921b84018101918181019086841115610df257600080fd5b8286015b84811015610cf0578035610e09816107c0565b8352918301918301610df6565b60006103c08284031215610e2957600080fd5b610e31610747565b9050813567ffffffffffffffff80821115610e4b57600080fd5b610e57858386016109af565b8352610e668560208601610a01565b6020840152610e788560a08601610ae0565b60408401526103208401356060840152610340840135915080821115610e9d57600080fd5b610ea985838601610c2d565b6080840152610360840135915080821115610ec357600080fd5b610ecf85838601610cfb565b60a0840152610380840135915080821115610ee957600080fd5b610ef585838601610db2565b60c08401526103a0840135915080821115610f0f57600080fd5b50610f1c8482850161093f565b60e08301525092915050565b600080600060608486031215610f3d57600080fd5b833567ffffffffffffffff80821115610f5557600080fd5b908501906101e08288031215610f6a57600080fd5b610f7261076b565b610f7b836107d8565b8152610f89602084016107d8565b6020820152610f9a604084016107d8565b6040820152610fab606084016107d8565b6060820152610fbc608084016107e8565b6080820152610fcd60a084016107e8565b60a0820152610fde60c08401610803565b60c0820152610fef60e08401610803565b60e0820152610100611002818501610818565b90820152610120838101358381111561101a57600080fd5b6110268a82870161085e565b828401525050610140808401358381111561104057600080fd5b61104c8a82870161093f565b828401525050610160808401358381111561106657600080fd5b6110728a82870161093f565b82840152505061018061108681850161084e565b908201526101a061109884820161084e565b908201526101c06110aa84820161084e565b90820152945060208601359150808211156110c457600080fd5b506110d186828701610e16565b9250506110e06040850161084e565b90509250925092565b6000602082840312156110fb57600080fd5b8151611106816107c0565b9392505050565b60006020828403121561111f57600080fd5b5051919050565b80820180821115611160577f4e487b7100000000000000000000000000000000000000000000000000000000600052601160045260246000fd5b92915050565b600081518084526020808501945080840160005b838110156111e75781518051151588528381015115158489015260408082015190890152606080820151908901526080808201516001600160a01b03908116918a019190915260a080830151908a015260c091820151169088015260e0909601959082019060010161117a565b509495945050505050565b6000815180845260005b81811015611218576020818501810151868301820152016111fc565b506000602082860101526020601f19601f83011685010191505092915050565b60006001600160a01b038089168352876020840152866040840152808616606084015280851660808401525060c060a083015261128160c0830184516001600160a01b03169052565b60208301516001600160a01b03811660e08401525060408301516101006112b2818501836001600160a01b03169052565b606085015191506101206112d0818601846001600160a01b03169052565b608086015192506101406112f2818701856affffffffffffffffffffff169052565b60a08701519350610160611314818801866affffffffffffffffffffff169052565b60c088015194506101806113308189018764ffffffffff169052565b60e089015195506101a061134c818a018864ffffffffff169052565b9489015195506101c0946113658987018861ffff169052565b848a015196506101e0945084858a01526113836102a08a0188611166565b9650838a015194507fffffffffffffffffffffffffffffffffffffffffffffffffffffffffffffff40935083898803016102008a01526113c387866111f2565b9650828a0151945083898803016102208a01526113e087866111f2565b9650818a015194506113f76102408a018615159052565b8901518015156102608a0152935061140e92505050565b508401518015156102808501525098975050505050505050565b60008261145e577f4e487b7100000000000000000000000000000000000000000000000000000000600052601260045260246000fd5b500690565b6114888282518051151582526020808201511515908301526040908101511515910152565b6020810151606083015260408101516080830152606081015160a083015260808101516114b960c084018215159052565b5060a081015180151560e08401525060c08101516101006114dd8185018315159052565b60e083015191506101206114f48186018415159052565b9083015191506101409061150b8583018415159052565b83015191506101606115208582018415159052565b908301519150610180906115378583018415159052565b83015191506101a061154c8582018415159052565b9083015191506101c0906115638583018415159052565b83015191506101e06115788582018415159052565b9083015191506102009061158f8583018415159052565b83015191506102206115a48582018415159052565b908301516001600160a01b0316610240850152909101516102609092019190915250565b600081518084526020808501808196508360051b8101915082860160005b85811015611624578284038952815180518552850151604086860181905261161081870183611166565b9a87019a95505050908401906001016115e6565b5091979650505050505050565b600081518084526020808501945080840160005b838110156111e757815180516001600160a01b03908116895284820151168489015260408082015190890152606080820151908901526080808201519089015260a0908101519088015260c09096019590820190600101611645565b600081518084526020808501945080840160005b838110156111e75781516001600160a01b0316875295820195908201906001016116b5565b60006103e06001600160a01b038c1683528060208401528a516040828501526117076104208501826111f2565b91505060208b015161040084015261174c604084018b8051825260208101516020830152604081015160408301526001600160a01b0360608201511660608301525050565b61175960c084018a611463565b8761034084015282810361036084015261177381886115c8565b90508281036103808401526117888187611631565b90508281036103a084015261179d81866116a1565b90508281036103c08401526117b281856111f2565b9c9b50505050505050505050505056fea2646970667358221220a8b320d75a0055d15b3d69627d14fc510e941a76ef2265c48c4bdb34bbd5cbe564736f6c63430008110033",
    "linkReferences": {}
  },
  "methodIdentifiers": {
    "TOKENS_PER_ETH()": "bc6e6604",
    "controller()": "f77c4791",
    "delegateCloner()": "11fa21ad",
    "delegateDeployer()": "8f3d964b",
    "ethAddress()": "41398b15",
    "launchProjectFor((address,address,address,address,uint88,uint88,uint40,uint40,uint16,(bool,bool,uint256,uint256,address,uint256,address)[],string,string,bool,bool,bool),((string,uint256),(uint256,uint256,uint256,address),((bool,bool,bool),uint256,uint256,uint256,bool,bool,bool,bool,bool,bool,bool,bool,bool,bool,bool,bool,address,uint256),uint256,(uint256,(bool,bool,uint256,uint256,address,uint256,address)[])[],(address,address,uint256,uint256,uint256,uint256)[],address[],string),bool)": "0e1cda12",
    "operatorStore()": "ad007d63",
    "usdcAddress()": "02d45457"
  },
  "id": 4
}