{
  "abi": [
    {
      "inputs": [
        {
          "internalType": "contract IJBController",
          "name": "_controller",
          "type": "address"
        },
        {
          "internalType": "uint256",
          "name": "_projectId",
          "type": "uint256"
        },
        {
          "internalType": "uint256",
          "name": "_duration",
          "type": "uint256"
        },
        {
          "internalType": "address",
          "name": "_ethAddress",
          "type": "address"
        },
        {
          "internalType": "address",
          "name": "_usdcAddress",
          "type": "address"
        },
        {
          "components": [
            {
              "internalType": "contract IJBDirectory",
              "name": "directory",
              "type": "address"
            },
            {
              "internalType": "contract IJBFundingCycleStore",
              "name": "fundingCycleStore",
              "type": "address"
            },
            {
              "internalType": "contract ISliceCore",
              "name": "sliceCore",
              "type": "address"
            },
            {
              "internalType": "address",
              "name": "projectOwner",
              "type": "address"
            },
            {
              "internalType": "uint88",
              "name": "hardcap",
              "type": "uint88"
            },
            {
              "internalType": "uint88",
              "name": "target",
              "type": "uint88"
            },
            {
              "internalType": "uint40",
              "name": "releaseTimelock",
              "type": "uint40"
            },
            {
              "internalType": "uint40",
              "name": "transferTimelock",
              "type": "uint40"
            },
            {
              "internalType": "uint16",
              "name": "afterRoundReservedRate",
              "type": "uint16"
            },
            {
              "components": [
                {
                  "internalType": "bool",
                  "name": "preferClaimed",
                  "type": "bool"
                },
                {
                  "internalType": "bool",
                  "name": "preferAddToBalance",
                  "type": "bool"
                },
                {
                  "internalType": "uint256",
                  "name": "percent",
                  "type": "uint256"
                },
                {
                  "internalType": "uint256",
                  "name": "projectId",
                  "type": "uint256"
                },
                {
                  "internalType": "address payable",
                  "name": "beneficiary",
                  "type": "address"
                },
                {
                  "internalType": "uint256",
                  "name": "lockedUntil",
                  "type": "uint256"
                },
                {
                  "internalType": "contract IJBSplitAllocator",
                  "name": "allocator",
                  "type": "address"
                }
              ],
              "internalType": "struct JBSplit[]",
              "name": "afterRoundSplits",
              "type": "tuple[]"
            },
            {
              "internalType": "string",
              "name": "tokenName",
              "type": "string"
            },
            {
              "internalType": "string",
              "name": "tokenSymbol",
              "type": "string"
            },
            {
              "internalType": "bool",
              "name": "enforceSlicerCreation",
              "type": "bool"
            },
            {
              "internalType": "bool",
              "name": "isTargetUsd",
              "type": "bool"
            },
            {
              "internalType": "bool",
              "name": "isHardcapUsd",
              "type": "bool"
            }
          ],
          "internalType": "struct DeployBluntDelegateData",
          "name": "_deployBluntDelegateData",
          "type": "tuple"
        }
      ],
      "stateMutability": "nonpayable",
      "type": "constructor"
    },
    {
      "inputs": [],
      "name": "ALREADY_QUEUED",
      "type": "error"
    },
    {
      "inputs": [],
      "name": "CANNOT_ACCEPT_ERC1155",
      "type": "error"
    },
    {
      "inputs": [],
      "name": "CANNOT_ACCEPT_ERC721",
      "type": "error"
    },
    {
      "inputs": [],
      "name": "CAP_REACHED",
      "type": "error"
    },
    {
      "inputs": [],
      "name": "INVALID_PAYMENT_EVENT",
      "type": "error"
    },
    {
      "inputs": [],
      "name": "NOT_PROJECT_OWNER",
      "type": "error"
    },
    {
      "inputs": [],
      "name": "ROUND_CLOSED",
      "type": "error"
    },
    {
      "inputs": [],
      "name": "ROUND_NOT_CLOSED",
      "type": "error"
    },
    {
      "inputs": [],
      "name": "SLICER_NOT_YET_CREATED",
      "type": "error"
    },
    {
      "inputs": [],
      "name": "TOKEN_NOT_SET",
      "type": "error"
    },
    {
      "inputs": [],
      "name": "VALUE_NOT_EXACT",
      "type": "error"
    },
    {
      "anonymous": false,
      "inputs": [
        {
          "indexed": false,
          "internalType": "address",
          "name": "beneficiary",
          "type": "address"
        },
        {
          "indexed": false,
          "internalType": "uint256",
          "name": "amount",
          "type": "uint256"
        }
      ],
      "name": "ClaimedSlices",
      "type": "event"
    },
    {
      "anonymous": false,
      "inputs": [
        {
          "indexed": false,
          "internalType": "address[]",
          "name": "beneficiaries",
          "type": "address[]"
        },
        {
          "indexed": false,
          "internalType": "uint256[]",
          "name": "amounts",
          "type": "uint256[]"
        }
      ],
      "name": "ClaimedSlicesBatch",
      "type": "event"
    },
    {
      "anonymous": false,
      "inputs": [],
      "name": "Queued",
      "type": "event"
    },
    {
      "anonymous": false,
      "inputs": [],
      "name": "RoundClosed",
      "type": "event"
    },
    {
      "anonymous": false,
      "inputs": [
        {
          "components": [
            {
              "internalType": "contract IJBDirectory",
              "name": "directory",
              "type": "address"
            },
            {
              "internalType": "contract IJBFundingCycleStore",
              "name": "fundingCycleStore",
              "type": "address"
            },
            {
              "internalType": "contract ISliceCore",
              "name": "sliceCore",
              "type": "address"
            },
            {
              "internalType": "address",
              "name": "projectOwner",
              "type": "address"
            },
            {
              "internalType": "uint88",
              "name": "hardcap",
              "type": "uint88"
            },
            {
              "internalType": "uint88",
              "name": "target",
              "type": "uint88"
            },
            {
              "internalType": "uint40",
              "name": "releaseTimelock",
              "type": "uint40"
            },
            {
              "internalType": "uint40",
              "name": "transferTimelock",
              "type": "uint40"
            },
            {
              "internalType": "uint16",
              "name": "afterRoundReservedRate",
              "type": "uint16"
            },
            {
              "components": [
                {
                  "internalType": "bool",
                  "name": "preferClaimed",
                  "type": "bool"
                },
                {
                  "internalType": "bool",
                  "name": "preferAddToBalance",
                  "type": "bool"
                },
                {
                  "internalType": "uint256",
                  "name": "percent",
                  "type": "uint256"
                },
                {
                  "internalType": "uint256",
                  "name": "projectId",
                  "type": "uint256"
                },
                {
                  "internalType": "address payable",
                  "name": "beneficiary",
                  "type": "address"
                },
                {
                  "internalType": "uint256",
                  "name": "lockedUntil",
                  "type": "uint256"
                },
                {
                  "internalType": "contract IJBSplitAllocator",
                  "name": "allocator",
                  "type": "address"
                }
              ],
              "internalType": "struct JBSplit[]",
              "name": "afterRoundSplits",
              "type": "tuple[]"
            },
            {
              "internalType": "string",
              "name": "tokenName",
              "type": "string"
            },
            {
              "internalType": "string",
              "name": "tokenSymbol",
              "type": "string"
            },
            {
              "internalType": "bool",
              "name": "enforceSlicerCreation",
              "type": "bool"
            },
            {
              "internalType": "bool",
              "name": "isTargetUsd",
              "type": "bool"
            },
            {
              "internalType": "bool",
              "name": "isHardcapUsd",
              "type": "bool"
            }
          ],
          "indexed": false,
          "internalType": "struct DeployBluntDelegateData",
          "name": "deployBluntDelegateData",
          "type": "tuple"
        },
        {
          "indexed": false,
          "internalType": "uint256",
          "name": "projectId",
          "type": "uint256"
        },
        {
          "indexed": false,
          "internalType": "uint256",
          "name": "duration",
          "type": "uint256"
        },
        {
          "indexed": false,
          "internalType": "uint256",
          "name": "currentFundingCycle",
          "type": "uint256"
        }
      ],
      "name": "RoundCreated",
      "type": "event"
    },
    {
      "anonymous": false,
      "inputs": [
        {
          "indexed": false,
          "internalType": "uint256",
          "name": "slicerId_",
          "type": "uint256"
        },
        {
          "indexed": false,
          "internalType": "address",
          "name": "slicerAddress",
          "type": "address"
        }
      ],
      "name": "SlicerCreated",
      "type": "event"
    },
    {
      "anonymous": false,
      "inputs": [
        {
          "indexed": false,
          "internalType": "string",
          "name": "tokenName_",
          "type": "string"
        },
        {
          "indexed": false,
          "internalType": "string",
          "name": "tokenSymbol_",
          "type": "string"
        }
      ],
      "name": "TokenMetadataSet",
      "type": "event"
    },
    {
      "inputs": [],
      "name": "MAX_CONTRIBUTION",
      "outputs": [
        {
          "internalType": "uint88",
          "name": "",
          "type": "uint88"
        }
      ],
      "stateMutability": "view",
      "type": "function"
    },
    {
      "inputs": [],
      "name": "TOKENS_PER_SLICE",
      "outputs": [
        {
          "internalType": "uint64",
          "name": "",
          "type": "uint64"
        }
      ],
      "stateMutability": "view",
      "type": "function"
    },
    {
      "inputs": [],
      "name": "claimSlices",
      "outputs": [],
      "stateMutability": "nonpayable",
      "type": "function"
    },
    {
      "inputs": [],
      "name": "closeRound",
      "outputs": [],
      "stateMutability": "nonpayable",
      "type": "function"
    },
    {
      "inputs": [
        {
          "internalType": "address",
          "name": "",
          "type": "address"
        }
      ],
      "name": "contributions",
      "outputs": [
        {
          "internalType": "uint256",
          "name": "",
          "type": "uint256"
        }
      ],
      "stateMutability": "view",
      "type": "function"
    },
    {
      "inputs": [],
      "name": "controller",
      "outputs": [
        {
          "internalType": "contract IJBController",
          "name": "",
          "type": "address"
        }
      ],
      "stateMutability": "view",
      "type": "function"
    },
    {
      "inputs": [
        {
          "components": [
            {
              "internalType": "address",
              "name": "payer",
              "type": "address"
            },
            {
              "internalType": "uint256",
              "name": "projectId",
              "type": "uint256"
            },
            {
              "internalType": "uint256",
              "name": "currentFundingCycleConfiguration",
              "type": "uint256"
            },
            {
              "components": [
                {
                  "internalType": "address",
                  "name": "token",
                  "type": "address"
                },
                {
                  "internalType": "uint256",
                  "name": "value",
                  "type": "uint256"
                },
                {
                  "internalType": "uint256",
                  "name": "decimals",
                  "type": "uint256"
                },
                {
                  "internalType": "uint256",
                  "name": "currency",
                  "type": "uint256"
                }
              ],
              "internalType": "struct JBTokenAmount",
              "name": "amount",
              "type": "tuple"
            },
            {
              "components": [
                {
                  "internalType": "address",
                  "name": "token",
                  "type": "address"
                },
                {
                  "internalType": "uint256",
                  "name": "value",
                  "type": "uint256"
                },
                {
                  "internalType": "uint256",
                  "name": "decimals",
                  "type": "uint256"
                },
                {
                  "internalType": "uint256",
                  "name": "currency",
                  "type": "uint256"
                }
              ],
              "internalType": "struct JBTokenAmount",
              "name": "forwardedAmount",
              "type": "tuple"
            },
            {
              "internalType": "uint256",
              "name": "projectTokenCount",
              "type": "uint256"
            },
            {
              "internalType": "address",
              "name": "beneficiary",
              "type": "address"
            },
            {
              "internalType": "bool",
              "name": "preferClaimedTokens",
              "type": "bool"
            },
            {
              "internalType": "string",
              "name": "memo",
              "type": "string"
            },
            {
              "internalType": "bytes",
              "name": "metadata",
              "type": "bytes"
            }
          ],
          "internalType": "struct JBDidPayData",
          "name": "_data",
          "type": "tuple"
        }
      ],
      "name": "didPay",
      "outputs": [],
      "stateMutability": "payable",
      "type": "function"
    },
    {
      "inputs": [
        {
          "components": [
            {
              "internalType": "address",
              "name": "holder",
              "type": "address"
            },
            {
              "internalType": "uint256",
              "name": "projectId",
              "type": "uint256"
            },
            {
              "internalType": "uint256",
              "name": "currentFundingCycleConfiguration",
              "type": "uint256"
            },
            {
              "internalType": "uint256",
              "name": "projectTokenCount",
              "type": "uint256"
            },
            {
              "components": [
                {
                  "internalType": "address",
                  "name": "token",
                  "type": "address"
                },
                {
                  "internalType": "uint256",
                  "name": "value",
                  "type": "uint256"
                },
                {
                  "internalType": "uint256",
                  "name": "decimals",
                  "type": "uint256"
                },
                {
                  "internalType": "uint256",
                  "name": "currency",
                  "type": "uint256"
                }
              ],
              "internalType": "struct JBTokenAmount",
              "name": "reclaimedAmount",
              "type": "tuple"
            },
            {
              "components": [
                {
                  "internalType": "address",
                  "name": "token",
                  "type": "address"
                },
                {
                  "internalType": "uint256",
                  "name": "value",
                  "type": "uint256"
                },
                {
                  "internalType": "uint256",
                  "name": "decimals",
                  "type": "uint256"
                },
                {
                  "internalType": "uint256",
                  "name": "currency",
                  "type": "uint256"
                }
              ],
              "internalType": "struct JBTokenAmount",
              "name": "forwardedAmount",
              "type": "tuple"
            },
            {
              "internalType": "address payable",
              "name": "beneficiary",
              "type": "address"
            },
            {
              "internalType": "string",
              "name": "memo",
              "type": "string"
            },
            {
              "internalType": "bytes",
              "name": "metadata",
              "type": "bytes"
            }
          ],
          "internalType": "struct JBDidRedeemData",
          "name": "_data",
          "type": "tuple"
        }
      ],
      "name": "didRedeem",
      "outputs": [],
      "stateMutability": "payable",
      "type": "function"
    },
    {
      "inputs": [],
      "name": "directory",
      "outputs": [
        {
          "internalType": "contract IJBDirectory",
          "name": "",
          "type": "address"
        }
      ],
      "stateMutability": "view",
      "type": "function"
    },
    {
      "inputs": [],
      "name": "ethAddress",
      "outputs": [
        {
          "internalType": "address",
          "name": "",
          "type": "address"
        }
      ],
      "stateMutability": "view",
      "type": "function"
    },
    {
      "inputs": [],
      "name": "fundingCycleStore",
      "outputs": [
        {
          "internalType": "contract IJBFundingCycleStore",
          "name": "",
          "type": "address"
        }
      ],
      "stateMutability": "view",
      "type": "function"
    },
    {
      "inputs": [],
      "name": "getRoundInfo",
      "outputs": [
        {
          "components": [
            {
              "internalType": "uint256",
              "name": "totalContributions",
              "type": "uint256"
            },
            {
              "internalType": "uint256",
              "name": "target",
              "type": "uint256"
            },
            {
              "internalType": "uint256",
              "name": "hardcap",
              "type": "uint256"
            },
            {
              "internalType": "uint40",
              "name": "releaseTimelock",
              "type": "uint40"
            },
            {
              "internalType": "uint40",
              "name": "transferTimelock",
              "type": "uint40"
            },
            {
              "internalType": "address",
              "name": "projectOwner",
              "type": "address"
            },
            {
              "internalType": "uint40",
              "name": "fundingCycleRound",
              "type": "uint40"
            },
            {
              "internalType": "uint16",
              "name": "afterRoundReservedRate",
              "type": "uint16"
            },
            {
              "components": [
                {
                  "internalType": "bool",
                  "name": "preferClaimed",
                  "type": "bool"
                },
                {
                  "internalType": "bool",
                  "name": "preferAddToBalance",
                  "type": "bool"
                },
                {
                  "internalType": "uint256",
                  "name": "percent",
                  "type": "uint256"
                },
                {
                  "internalType": "uint256",
                  "name": "projectId",
                  "type": "uint256"
                },
                {
                  "internalType": "address payable",
                  "name": "beneficiary",
                  "type": "address"
                },
                {
                  "internalType": "uint256",
                  "name": "lockedUntil",
                  "type": "uint256"
                },
                {
                  "internalType": "contract IJBSplitAllocator",
                  "name": "allocator",
                  "type": "address"
                }
              ],
              "internalType": "struct JBSplit[]",
              "name": "afterRoundSplits",
              "type": "tuple[]"
            },
            {
              "internalType": "string",
              "name": "tokenName",
              "type": "string"
            },
            {
              "internalType": "string",
              "name": "tokenSymbol",
              "type": "string"
            },
            {
              "internalType": "bool",
              "name": "isRoundClosed",
              "type": "bool"
            },
            {
              "internalType": "bool",
              "name": "isQueued",
              "type": "bool"
            },
            {
              "internalType": "bool",
              "name": "isTargetUsd",
              "type": "bool"
            },
            {
              "internalType": "bool",
              "name": "isHardcapUsd",
              "type": "bool"
            },
            {
              "internalType": "bool",
              "name": "isSlicerToBeCreated",
              "type": "bool"
            },
            {
              "internalType": "uint256",
              "name": "slicerId",
              "type": "uint256"
            }
          ],
          "internalType": "struct RoundInfo",
          "name": "roundInfo",
          "type": "tuple"
        }
      ],
      "stateMutability": "view",
      "type": "function"
    },
    {
      "inputs": [],
      "name": "isTargetReached",
      "outputs": [
        {
          "internalType": "bool",
          "name": "",
          "type": "bool"
        }
      ],
      "stateMutability": "view",
      "type": "function"
    },
    {
      "inputs": [
        {
          "internalType": "address",
          "name": "",
          "type": "address"
        },
        {
          "internalType": "address",
          "name": "",
          "type": "address"
        },
        {
          "internalType": "uint256[]",
          "name": "",
          "type": "uint256[]"
        },
        {
          "internalType": "uint256[]",
          "name": "",
          "type": "uint256[]"
        },
        {
          "internalType": "bytes",
          "name": "",
          "type": "bytes"
        }
      ],
      "name": "onERC1155BatchReceived",
      "outputs": [
        {
          "internalType": "bytes4",
          "name": "",
          "type": "bytes4"
        }
      ],
      "stateMutability": "view",
      "type": "function"
    },
    {
      "inputs": [
        {
          "internalType": "address",
          "name": "",
          "type": "address"
        },
        {
          "internalType": "address",
          "name": "",
          "type": "address"
        },
        {
          "internalType": "uint256",
          "name": "",
          "type": "uint256"
        },
        {
          "internalType": "uint256",
          "name": "",
          "type": "uint256"
        },
        {
          "internalType": "bytes",
          "name": "",
          "type": "bytes"
        }
      ],
      "name": "onERC1155Received",
      "outputs": [
        {
          "internalType": "bytes4",
          "name": "",
          "type": "bytes4"
        }
      ],
      "stateMutability": "view",
      "type": "function"
    },
    {
      "inputs": [
        {
          "internalType": "address",
          "name": "",
          "type": "address"
        },
        {
          "internalType": "address",
          "name": "",
          "type": "address"
        },
        {
          "internalType": "uint256",
          "name": "",
          "type": "uint256"
        },
        {
          "internalType": "bytes",
          "name": "",
          "type": "bytes"
        }
      ],
      "name": "onERC721Received",
      "outputs": [
        {
          "internalType": "bytes4",
          "name": "",
          "type": "bytes4"
        }
      ],
      "stateMutability": "pure",
      "type": "function"
    },
    {
      "inputs": [
        {
          "components": [
            {
              "internalType": "contract IJBPaymentTerminal",
              "name": "terminal",
              "type": "address"
            },
            {
              "internalType": "address",
              "name": "payer",
              "type": "address"
            },
            {
              "components": [
                {
                  "internalType": "address",
                  "name": "token",
                  "type": "address"
                },
                {
                  "internalType": "uint256",
                  "name": "value",
                  "type": "uint256"
                },
                {
                  "internalType": "uint256",
                  "name": "decimals",
                  "type": "uint256"
                },
                {
                  "internalType": "uint256",
                  "name": "currency",
                  "type": "uint256"
                }
              ],
              "internalType": "struct JBTokenAmount",
              "name": "amount",
              "type": "tuple"
            },
            {
              "internalType": "uint256",
              "name": "projectId",
              "type": "uint256"
            },
            {
              "internalType": "uint256",
              "name": "currentFundingCycleConfiguration",
              "type": "uint256"
            },
            {
              "internalType": "address",
              "name": "beneficiary",
              "type": "address"
            },
            {
              "internalType": "uint256",
              "name": "weight",
              "type": "uint256"
            },
            {
              "internalType": "uint256",
              "name": "reservedRate",
              "type": "uint256"
            },
            {
              "internalType": "string",
              "name": "memo",
              "type": "string"
            },
            {
              "internalType": "bytes",
              "name": "metadata",
              "type": "bytes"
            }
          ],
          "internalType": "struct JBPayParamsData",
          "name": "_data",
          "type": "tuple"
        }
      ],
      "name": "payParams",
      "outputs": [
        {
          "internalType": "uint256",
          "name": "weight",
          "type": "uint256"
        },
        {
          "internalType": "string",
          "name": "memo",
          "type": "string"
        },
        {
          "components": [
            {
              "internalType": "contract IJBPayDelegate",
              "name": "delegate",
              "type": "address"
            },
            {
              "internalType": "uint256",
              "name": "amount",
              "type": "uint256"
            }
          ],
          "internalType": "struct JBPayDelegateAllocation[]",
          "name": "delegateAllocations",
          "type": "tuple[]"
        }
      ],
      "stateMutability": "view",
      "type": "function"
    },
    {
      "inputs": [],
      "name": "priceFeed",
      "outputs": [
        {
          "internalType": "contract IPriceFeed",
          "name": "",
          "type": "address"
        }
      ],
      "stateMutability": "view",
      "type": "function"
    },
    {
      "inputs": [],
      "name": "projectId",
      "outputs": [
        {
          "internalType": "uint256",
          "name": "",
          "type": "uint256"
        }
      ],
      "stateMutability": "view",
      "type": "function"
    },
    {
      "inputs": [],
      "name": "queueNextPhase",
      "outputs": [],
      "stateMutability": "nonpayable",
      "type": "function"
    },
    {
      "inputs": [
        {
          "components": [
            {
              "internalType": "contract IJBPaymentTerminal",
              "name": "terminal",
              "type": "address"
            },
            {
              "internalType": "address",
              "name": "holder",
              "type": "address"
            },
            {
              "internalType": "uint256",
              "name": "projectId",
              "type": "uint256"
            },
            {
              "internalType": "uint256",
              "name": "currentFundingCycleConfiguration",
              "type": "uint256"
            },
            {
              "internalType": "uint256",
              "name": "tokenCount",
              "type": "uint256"
            },
            {
              "internalType": "uint256",
              "name": "totalSupply",
              "type": "uint256"
            },
            {
              "internalType": "uint256",
              "name": "overflow",
              "type": "uint256"
            },
            {
              "components": [
                {
                  "internalType": "address",
                  "name": "token",
                  "type": "address"
                },
                {
                  "internalType": "uint256",
                  "name": "value",
                  "type": "uint256"
                },
                {
                  "internalType": "uint256",
                  "name": "decimals",
                  "type": "uint256"
                },
                {
                  "internalType": "uint256",
                  "name": "currency",
                  "type": "uint256"
                }
              ],
              "internalType": "struct JBTokenAmount",
              "name": "reclaimAmount",
              "type": "tuple"
            },
            {
              "internalType": "bool",
              "name": "useTotalOverflow",
              "type": "bool"
            },
            {
              "internalType": "uint256",
              "name": "redemptionRate",
              "type": "uint256"
            },
            {
              "internalType": "string",
              "name": "memo",
              "type": "string"
            },
            {
              "internalType": "bytes",
              "name": "metadata",
              "type": "bytes"
            }
          ],
          "internalType": "struct JBRedeemParamsData",
          "name": "_data",
          "type": "tuple"
        }
      ],
      "name": "redeemParams",
      "outputs": [
        {
          "internalType": "uint256",
          "name": "reclaimAmount",
          "type": "uint256"
        },
        {
          "internalType": "string",
          "name": "memo",
          "type": "string"
        },
        {
          "components": [
            {
              "internalType": "contract IJBRedemptionDelegate",
              "name": "delegate",
              "type": "address"
            },
            {
              "internalType": "uint256",
              "name": "amount",
              "type": "uint256"
            }
          ],
          "internalType": "struct JBRedemptionDelegateAllocation[]",
          "name": "delegateAllocations",
          "type": "tuple[]"
        }
      ],
      "stateMutability": "view",
      "type": "function"
    },
    {
      "inputs": [
        {
          "internalType": "string",
          "name": "tokenName_",
          "type": "string"
        },
        {
          "internalType": "string",
          "name": "tokenSymbol_",
          "type": "string"
        }
      ],
      "name": "setTokenMetadata",
      "outputs": [],
      "stateMutability": "nonpayable",
      "type": "function"
    },
    {
      "inputs": [],
      "name": "sliceCore",
      "outputs": [
        {
          "internalType": "contract ISliceCore",
          "name": "",
          "type": "address"
        }
      ],
      "stateMutability": "view",
      "type": "function"
    },
    {
      "inputs": [
        {
          "internalType": "bytes4",
          "name": "_interfaceId",
          "type": "bytes4"
        }
      ],
      "name": "supportsInterface",
      "outputs": [
        {
          "internalType": "bool",
          "name": "",
          "type": "bool"
        }
      ],
      "stateMutability": "view",
      "type": "function"
    },
    {
      "inputs": [
        {
          "internalType": "contract IERC20",
          "name": "token",
          "type": "address"
        }
      ],
      "name": "transferToken",
      "outputs": [],
      "stateMutability": "nonpayable",
      "type": "function"
    },
    {
      "inputs": [
        {
          "internalType": "address[]",
          "name": "beneficiaries",
          "type": "address[]"
        }
      ],
      "name": "transferUnclaimedSlicesTo",
      "outputs": [],
      "stateMutability": "nonpayable",
      "type": "function"
    },
    {
      "inputs": [],
      "name": "usdcAddress",
      "outputs": [
        {
          "internalType": "address",
          "name": "",
          "type": "address"
        }
      ],
      "stateMutability": "view",
      "type": "function"
    }
  ],
  "bytecode": {
    "object": "0x6102a06040523480156200001257600080fd5b506040516200568f3803806200568f833981016040819052620000359162000791565b60608101516001600160a01b03163b156200005a5760608101516200005a9062000380565b6101408590526001600160a01b038084166101009081528382166101205287821660c09081528351831660809081526020850151841660a09081526040860151851660e09081526060870151909516610160529185015164ffffffffff9081166101c090815294860151166101e0529184015161ffff16610220528301516001600160581b039081166101809081526101a080860151151561024052928501519091169091529082015115156102605281015180620001625750610120810151511580159062000162575060006001600160a01b03168161012001516000815181106200014b576200014b6200099e565b6020026020010151608001516001600160a01b0316145b15156102805261014081015151156200018c576101408101516001906200018a908262000a43565b505b6101608101515115620001b057610160810151600290620001ae908262000a43565b505b83600003620001cd576000805460ff60f01b1916600160f01b1790555b60005b81610120015151811015620002ab5760038261012001518281518110620001fb57620001fb6200099e565b602090810291909101810151825460018181018555600094855293839020825160069092020180549383015115156101000261ff00199215159290921661ffff19909416939093171782556040810151828401556060810151600283015560808101516003830180546001600160a01b039283166001600160a01b03199182161790915560a0830151600485015560c09092015160059093018054939091169290911691909117905501620001d0565b5060208101516040516321d1336160e11b8152600481018790526000916001600160a01b0316906343a266c29060240161012060405180830381865afa158015620002fa573d6000803e3d6000fd5b505050506040513d601f19601f8201168201806040525081019062000320919062000b0f565b5160010164ffffffffff8116610200526040519091507f1e642e93a66a3d3cbed8bb54d6871409c4df8677a00814037ceefa5816a182b5906200036b90849089908990869062000c50565b60405180910390a15050505050505062000edb565b604051630a85bd0160e11b8152306004820181905260248201526001604482015260806064820152600060848201526001600160a01b0382169063150b7a029060a4016020604051808303816000875af192505050801562000401575060408051601f3d908101601f19168201909252620003fe9181019062000de7565b60015b62000474576200041062000e1a565b806308c379a0036200045957506200042762000e37565b806200043457506200045b565b8060405162461bcd60e51b815260040162000450919062000ec6565b60405180910390fd5b505b60405163c87d991b60e01b815260040160405180910390fd5b6001600160e01b03198116630a85bd0160e11b14620004a65760405163c87d991b60e01b815260040160405180910390fd5b505b50565b6001600160a01b0381168114620004a857600080fd5b8051620004ce81620004ab565b919050565b634e487b7160e01b600052604160045260246000fd5b60e081016001600160401b03811182821017156200050b576200050b620004d3565b60405250565b601f8201601f191681016001600160401b0381118282101715620005395762000539620004d3565b6040525050565b6040516101e081016001600160401b0381118282101715620005665762000566620004d3565b60405290565b60405161012081016001600160401b0381118282101715620005665762000566620004d3565b80516001600160581b0381168114620004ce57600080fd5b805164ffffffffff81168114620004ce57600080fd5b805161ffff81168114620004ce57600080fd5b80518015158114620004ce57600080fd5b600082601f830112620005f657600080fd5b815160206001600160401b03821115620006145762000614620004d3565b6040805162000629838560051b018262000511565b83815260e0938402860183019383820190888611156200064857600080fd5b8488015b86811015620006e55781818b031215620006665760008081fd5b84516200067381620004e9565b6200067e82620005d3565b81526200068d878301620005d3565b81880152818601518682015260608083015190820152608080830151620006b481620004ab565b9082015260a0828101519082015260c080830151620006d381620004ab565b9082015283529185019181016200064c565b509198975050505050505050565b60005b8381101562000710578181015183820152602001620006f6565b50506000910152565b600082601f8301126200072b57600080fd5b81516001600160401b03811115620007475762000747620004d3565b60405162000760601f8301601f19166020018262000511565b8181528460208386010111156200077657600080fd5b62000789826020830160208701620006f3565b949350505050565b60008060008060008060c08789031215620007ab57600080fd5b8651620007b881620004ab565b8096505060208701519450604087015193506060870151620007da81620004ab565b6080880151909350620007ed81620004ab565b60a08801519092506001600160401b03808211156200080b57600080fd5b908801906101e0828b0312156200082157600080fd5b6200082b62000540565b6200083683620004c1565b81526200084660208401620004c1565b60208201526200085960408401620004c1565b60408201526200086c60608401620004c1565b60608201526200087f6080840162000592565b60808201526200089260a0840162000592565b60a0820152620008a560c08401620005aa565b60c0820152620008b860e08401620005aa565b60e0820152610100620008cd818501620005c0565b908201526101208381015183811115620008e657600080fd5b620008f48d828701620005e4565b82840152505061014080840151838111156200090f57600080fd5b6200091d8d82870162000719565b82840152505061016080840151838111156200093857600080fd5b620009468d82870162000719565b82840152505061018091506200095e828401620005d3565b828201526101a0915062000974828401620005d3565b828201526101c091506200098a828401620005d3565b828201528093505050509295509295509295565b634e487b7160e01b600052603260045260246000fd5b600181811c90821680620009c957607f821691505b602082108103620009ea57634e487b7160e01b600052602260045260246000fd5b50919050565b601f82111562000a3e57600081815260208120601f850160051c8101602086101562000a195750805b601f850160051c820191505b8181101562000a3a5782815560010162000a25565b5050505b505050565b81516001600160401b0381111562000a5f5762000a5f620004d3565b62000a778162000a708454620009b4565b84620009f0565b602080601f83116001811462000aaf576000841562000a965750858301515b600019600386901b1c1916600185901b17855562000a3a565b600085815260208120601f198616915b8281101562000ae05788860151825594840194600190910190840162000abf565b508582101562000aff5787850151600019600388901b60f8161c191681555b5050505050600190811b01905550565b6000610120828403121562000b2357600080fd5b62000b2d6200056c565b825181526020830151602082015260408301516040820152606083015160608201526080830151608082015260a083015160a082015260c083015160c082015262000b7b60e08401620004c1565b60e0820152610100928301519281019290925250919050565b600081518084526020808501945080840160005b8381101562000c175781518051151588528381015115158489015260408082015190890152606080820151908901526080808201516001600160a01b03908116918a019190915260a080830151908a015260c091820151169088015260e0909601959082019060010162000ba8565b509495945050505050565b6000815180845262000c3c816020860160208601620006f3565b601f01601f19169290920160200192915050565b6080815262000c6b6080820186516001600160a01b03169052565b6000602086015162000c8860a08401826001600160a01b03169052565b5060408601516001600160a01b0390811660c084015260608701511660e083015260808601516001600160581b0381166101008085019190915260a0880151915061012062000ce1818601846001600160581b03169052565b60c0890151925061014062000cfe8187018564ffffffffff169052565b60e08a0151935061016062000d1b8188018664ffffffffff169052565b928a015193506101809262000d358785018661ffff169052565b828b015194506101e092506101a0838189015262000d5861026089018762000b94565b9550828c01519250607f196101c0818a890301818b015262000d7b888662000c22565b9750838e01519450818a890301868b015262000d98888662000c22565b968e015115156102008b0152918d015115156102208a0152508b015180151561024089015293945062000dca92505050565b506020830195909552506040810192909252606090910152919050565b60006020828403121562000dfa57600080fd5b81516001600160e01b03198116811462000e1357600080fd5b9392505050565b600060033d111562000e345760046000803e5060005160e01c5b90565b600060443d101562000e465790565b6040516003193d81016004833e81513d6001600160401b03808311602484018310171562000e7657505050505090565b828501915081518181111562000e8f5750505050505090565b843d870101602082850101111562000eaa5750505050505090565b62000ebb6020828601018762000511565b509095945050505050565b60208152600062000e13602083018462000c22565b60805160a05160c05160e05161010051610120516101405161016051610180516101a0516101c0516101e05161020051610220516102405161026051610280516145b0620010df60003960008181610a10015281816111fe015281816117bf0152611f710152600081816111d60152612b5d015260008181610aac01526111ae015260008181610f710152611c98015260008181610f4401526115cc015260008181610ee8015261304f015260008181610ebb0152613022015260008181610e880152612b35015260008181610a840152610e550152600081816106e301528181610f150152818161190c01528181611af801526123e7015260008181610323015281816107fd015281816108a5015281816114a901528181611551015281816115a601528181611bf601528181611eea015281816122280152818161240f0152818161257501526126750152600081816101f801528181610b180152612bc901526000818161036501528181610b400152612bf10152600081816105c901528181610cfa015281816113310152818161195f0152818161280c01528181612a620152612fcf0152600081816105fd01528181611c1f01528181611e5a01528181612201015281816125a301526126460152600081816103c601526115f50152600081816104f801528181610829015281816114d5015261233101526145b06000f3fe6080604052600436106101ac5760003560e01c806384bc76a6116100ec578063deebeac91161008a578063f23a6e6111610064578063f23a6e6114610597578063f4c76363146105b7578063f77c4791146105eb578063fcf129911461061f57600080fd5b8063deebeac91461054d578063e278fe6f1461056d578063e7ef7d0d1461058257600080fd5b8063bc197c81116100c6578063bc197c81146104c6578063c41c2f24146104e6578063d46cf1711461051a578063da9ee8b71461053a57600080fd5b806384bc76a61461043a57806394d95f8f1461045c578063a51cfd181461049757600080fd5b80633fafa12711610159578063557e715511610133578063557e7155146103b45780635e098f05146103e85780636ef2267e146103fd578063741bef1a1461041257600080fd5b80633fafa1271461031157806341398b151461035357806342e94c901461038757600080fd5b8063150b7a021161018a578063150b7a02146102545780632b13c58f146102ca57806331b9e3b1146102dd57600080fd5b806301ffc9a7146101b157806302d45457146101e65780630d71e3d714610232575b600080fd5b3480156101bd57600080fd5b506101d16101cc3660046131b6565b61063f565b60405190151581526020015b60405180910390f35b3480156101f257600080fd5b5061021a7f000000000000000000000000000000000000000000000000000000000000000081565b6040516001600160a01b0390911681526020016101dd565b34801561023e57600080fd5b5061025261024d3660046132df565b6106d8565b005b34801561026057600080fd5b5061029961026f366004613358565b7f150b7a020000000000000000000000000000000000000000000000000000000095945050505050565b6040517fffffffff0000000000000000000000000000000000000000000000000000000090911681526020016101dd565b6102526102d8366004613410565b6107d5565b3480156102e957600080fd5b506102f866038d7ea4c6800081565b60405167ffffffffffffffff90911681526020016101dd565b34801561031d57600080fd5b506103457f000000000000000000000000000000000000000000000000000000000000000081565b6040519081526020016101dd565b34801561035f57600080fd5b5061021a7f000000000000000000000000000000000000000000000000000000000000000081565b34801561039357600080fd5b506103456103a236600461344d565b60046020526000908152604090205481565b3480156103c057600080fd5b5061021a7f000000000000000000000000000000000000000000000000000000000000000081565b3480156103f457600080fd5b506101d1610a74565b34801561040957600080fd5b50610252610bfc565b34801561041e57600080fd5b5061021a73f2e8176c0b67232b20205f4dfbcec3e74bca471f81565b34801561044657600080fd5b5061044f610d93565b6040516101dd919061353c565b34801561046857600080fd5b5061047b6a03796274caf64c7100000081565b6040516affffffffffffffffffffff90911681526020016101dd565b3480156104a357600080fd5b506104b76104b2366004613410565b611243565b6040516101dd939291906136a7565b3480156104d257600080fd5b506102996104e136600461379a565b611324565b3480156104f257600080fd5b5061021a7f000000000000000000000000000000000000000000000000000000000000000081565b34801561052657600080fd5b506104b7610535366004613848565b6113e8565b610252610548366004613884565b611481565b34801561055957600080fd5b5061025261056836600461344d565b611897565b34801561057957600080fd5b50610252611aed565b34801561058e57600080fd5b506102526124a5565b3480156105a357600080fd5b506102996105b23660046138c0565b6127ff565b3480156105c357600080fd5b5061021a7f000000000000000000000000000000000000000000000000000000000000000081565b3480156105f757600080fd5b5061021a7f000000000000000000000000000000000000000000000000000000000000000081565b34801561062b57600080fd5b5061025261063a366004613929565b6128be565b60007fffffffff0000000000000000000000000000000000000000000000000000000082167f71700c690000000000000000000000000000000000000000000000000000000014806106d257507fffffffff0000000000000000000000000000000000000000000000000000000082167fda9ee8b700000000000000000000000000000000000000000000000000000000145b92915050565b336001600160a01b037f0000000000000000000000000000000000000000000000000000000000000000161461073a576040517f75e669b400000000000000000000000000000000000000000000000000000000815260040160405180910390fd5b600054600160e81b900460ff161561077e576040517f2c926ffe00000000000000000000000000000000000000000000000000000000815260040160405180910390fd5b600161078a8382613a21565b5060026107978282613a21565b507f0d398822381eae0e3a93b65acd33efeddbeab022957a12d680a4d03764d998da82826040516107c9929190613ae1565b60405180910390a15050565b6040517f6e49181f0000000000000000000000000000000000000000000000000000000081527f000000000000000000000000000000000000000000000000000000000000000060048201523360248201527f00000000000000000000000000000000000000000000000000000000000000006001600160a01b031690636e49181f90604401602060405180830381865afa158015610878573d6000803e3d6000fd5b505050506040513d601f19601f8201168201806040525081019061089c9190613b24565b15806108cc57507f0000000000000000000000000000000000000000000000000000000000000000816020013514155b15610903576040517fc715ec6c00000000000000000000000000000000000000000000000000000000815260040160405180910390fd5b600054600160e81b900460ff16801561091f575061091f610a74565b15610956576040517f2c926ffe00000000000000000000000000000000000000000000000000000000815260040160405180910390fd5b600054600160e81b900460ff16610a715761097c66038d7ea4c6800060a0830135613b55565b156109b3576040517fed94ea2a00000000000000000000000000000000000000000000000000000000815260040160405180910390fd5b6000805460a08301356affffffffffffffffffffff720100000000000000000000000000000000000080840482169290920316027fffffff0000000000000000000000ffffffffffffffffffffffffffffffffffff9091161790557f000000000000000000000000000000000000000000000000000000000000000015610a715760a081013560046000610a4f6101a08501610180860161344d565b6001600160a01b03168152602081019190915260400160002080549190910390555b50565b60006affffffffffffffffffffff7f0000000000000000000000000000000000000000000000000000000000000000168015610bd0577f000000000000000000000000000000000000000000000000000000000000000015610bd0576040517f637113620000000000000000000000000000000000000000000000000000000081526fffffffffffffffffffffffffffffffff821660048201526001600160a01b037f0000000000000000000000000000000000000000000000000000000000000000811660248301527f0000000000000000000000000000000000000000000000000000000000000000166044820152610708606482015273f2e8176c0b67232b20205f4dfbcec3e74bca471f90636371136290608401602060405180830381865afa158015610ba9573d6000803e3d6000fd5b505050506040513d601f19601f82011682018060405250810190610bcd9190613b69565b90505b600054720100000000000000000000000000000000000090046affffffffffffffffffffff1611919050565b6000805471ffffffffffffffffffffffffffffffffffff169003610c4c576040517ffc86ac2300000000000000000000000000000000000000000000000000000000815260040160405180910390fd5b33600090815260046020526040812054610c6e9066038d7ea4c6800090613b82565b90508015610d5757336000818152600460208190526040808320839055825490517fc3592b0c0000000000000000000000000000000000000000000000000000000081523092810192909252602482019390935271ffffffffffffffffffffffffffffffffffff90921660448301526064820183905260a0608483015260a48201526001600160a01b037f0000000000000000000000000000000000000000000000000000000000000000169063c3592b0c9060c401600060405180830381600087803b158015610d3e57600080fd5b505af1158015610d52573d6000803e3d6000fd5b505050505b60408051338152602081018390527f5f17621961339df04bbc649a3c5486d171acb7b35a34a399068e2174fd3761cd910160405180910390a150565b604080516102208101825260008082526020820181905291810182905260608082018390526080820183905260a0820183905260c0820183905260e0820183905261010082018190526101208201819052610140820152610160810182905261018081018290526101a081018290526101c081018290526101e08101829052610200810191909152604051806102200160405280600060129054906101000a90046affffffffffffffffffffff166affffffffffffffffffffff1681526020017f00000000000000000000000000000000000000000000000000000000000000006affffffffffffffffffffff1681526020017f00000000000000000000000000000000000000000000000000000000000000006affffffffffffffffffffff1681526020017f000000000000000000000000000000000000000000000000000000000000000064ffffffffff1681526020017f000000000000000000000000000000000000000000000000000000000000000064ffffffffff1681526020017f00000000000000000000000000000000000000000000000000000000000000006001600160a01b031681526020017f000000000000000000000000000000000000000000000000000000000000000064ffffffffff1681526020017f000000000000000000000000000000000000000000000000000000000000000061ffff1681526020016003805480602002602001604051908101604052809291908181526020016000905b828210156110465760008481526020908190206040805160e08101825260068602909201805460ff8082161515855261010090910416151583850152600180820154928401929092526002810154606084015260038101546001600160a01b039081166080850152600482015460a08501526005909101541660c08301529083529092019101610fbb565b5050505081526020016001805461105c9061399e565b80601f01602080910402602001604051908101604052809291908181526020018280546110889061399e565b80156110d55780601f106110aa576101008083540402835291602001916110d5565b820191906000526020600020905b8154815290600101906020018083116110b857829003601f168201915b50505050508152602001600280546110ec9061399e565b80601f01602080910402602001604051908101604052809291908181526020018280546111189061399e565b80156111655780601f1061113a57610100808354040283529160200191611165565b820191906000526020600020905b81548152906001019060200180831161114857829003601f168201915b505050918352505060005460ff600160e81b82048116151560208401527e01000000000000000000000000000000000000000000000000000000000000820416151560408301527f0000000000000000000000000000000000000000000000000000000000000000151560608301527f0000000000000000000000000000000000000000000000000000000000000000151560808301527f0000000000000000000000000000000000000000000000000000000000000000151560a083015271ffffffffffffffffffffffffffffffffffff1660c090910152919050565b6040805160018082528183019092526000916060918291849190816020015b60408051808201909152600080825260208201528152602001906001900390816112625790505090506040518060400160405280306001600160a01b031681526020016000815250816000815181106112bd576112bd613b96565b60209081029190910101526101008501356112dc6101a0870187613bac565b8382828080601f016020809104026020016040519081016040528093929190818152602001838380828437600092019190915250969c929b5092995090975050505050505050565b6000336001600160a01b037f000000000000000000000000000000000000000000000000000000000000000016146113bd576040517f08c379a000000000000000000000000000000000000000000000000000000000815260206004820152600d60248201527f4e4f545f535550504f525445440000000000000000000000000000000000000060448201526064015b60405180910390fd5b507fbc197c810000000000000000000000000000000000000000000000000000000095945050505050565b6040805160018082528183019092526000916060918291849190816020015b60408051808201909152600080825260208201528152602001906001900390816114075790505090506040518060400160405280306001600160a01b0316815260200160008152508160008151811061146257611462613b96565b60209081029190910101526101208501356112dc610160870187613bac565b6040517f6e49181f0000000000000000000000000000000000000000000000000000000081527f000000000000000000000000000000000000000000000000000000000000000060048201523360248201527f00000000000000000000000000000000000000000000000000000000000000006001600160a01b031690636e49181f90604401602060405180830381865afa158015611524573d6000803e3d6000fd5b505050506040513d601f19601f820116820180604052508101906115489190613b24565b158061157857507f0000000000000000000000000000000000000000000000000000000000000000816020013514155b8061166d57506040517f43a266c20000000000000000000000000000000000000000000000000000000081527f000000000000000000000000000000000000000000000000000000000000000060048201527f000000000000000000000000000000000000000000000000000000000000000064ffffffffff16907f00000000000000000000000000000000000000000000000000000000000000006001600160a01b0316906343a266c29060240161012060405180830381865afa158015611645573d6000803e3d6000fd5b505050506040513d601f19601f820116820180604052508101906116699190613ca3565b5114155b806116815750600054600160e81b900460ff165b156116b8576040517fc715ec6c00000000000000000000000000000000000000000000000000000000815260040160405180910390fd5b6116cd66038d7ea4c680006080830135613b55565b15611704576040517fed94ea2a00000000000000000000000000000000000000000000000000000000815260040160405180910390fd5b6affffffffffffffffffffff6080820135111561174d576040517f60349ef100000000000000000000000000000000000000000000000000000000815260040160405180910390fd5b6000805460808301359190601290611789908490720100000000000000000000000000000000000090046affffffffffffffffffffff16613cc0565b92506101000a8154816affffffffffffffffffffff02191690836affffffffffffffffffffff1602179055506117bd612b27565b7f000000000000000000000000000000000000000000000000000000000000000015610a7157600460006117f96101a08401610180850161344d565b6001600160a01b0316815260208101919091526040016000205415801561183a575061182d6101a08201610180830161344d565b6001600160a01b03163b15155b15611859576118596118546101a08301610180840161344d565b612cf3565b6080810135600460006118746101a08501610180860161344d565b6001600160a01b0316815260208101919091526040016000208054909101905550565b600054600160e81b900460ff166118da576040517f12db127600000000000000000000000000000000000000000000000000000000815260040160405180910390fd5b6000805471ffffffffffffffffffffffffffffffffffff16906118fb610a74565b801561190657508115155b611930577f00000000000000000000000000000000000000000000000000000000000000006119d2565b6040517f175fa7ea000000000000000000000000000000000000000000000000000000008152600481018390527f00000000000000000000000000000000000000000000000000000000000000006001600160a01b03169063175fa7ea90602401602060405180830381865afa1580156119ae573d6000803e3d6000fd5b505050506040513d601f19601f820116820180604052508101906119d29190613cf9565b6040517f70a082310000000000000000000000000000000000000000000000000000000081523060048201529091506001600160a01b0384169063a9059cbb90839083906370a0823190602401602060405180830381865afa158015611a3c573d6000803e3d6000fd5b505050506040513d601f19601f82011682018060405250810190611a609190613b69565b6040517fffffffff0000000000000000000000000000000000000000000000000000000060e085901b1681526001600160a01b03909216600483015260248201526044016020604051808303816000875af1158015611ac3573d6000803e3d6000fd5b505050506040513d601f19601f82011682018060405250810190611ae79190613b24565b50505050565b336001600160a01b037f00000000000000000000000000000000000000000000000000000000000000001614611b4f576040517f75e669b400000000000000000000000000000000000000000000000000000000815260040160405180910390fd5b600054600160e81b900460ff1615611b93576040517f2c926ffe00000000000000000000000000000000000000000000000000000000815260040160405180910390fd5b600080547fffff00ffffffffffffffffffffffffffffffffffffffffffffffffffffffffff16600160e81b179055611bc9610a74565b1561247a576040517f8776c4990000000000000000000000000000000000000000000000000000000081527f000000000000000000000000000000000000000000000000000000000000000060048201526000907f00000000000000000000000000000000000000000000000000000000000000006001600160a01b031690638776c499906024016103a060405180830381865afa158015611c6f573d6000803e3d6000fd5b505050506040513d601f19601f82011682018060405250810190611c939190613d85565b61ffff7f0000000000000000000000000000000000000000000000000000000000000000166020808301919091526000604080840182905283518101829052600160808086018290526101c086018490526101e0860184905261020086018490528251908101835283815269d3c21bcecceda10000009481019490945290830182905260608301829052805493955091935091829190611d329061399e565b80601f0160208091040260200160405190810160405280929190818152602001828054611d5e9061399e565b8015611dab5780601f10611d8057610100808354040283529160200191611dab565b820191906000526020600020905b815481529060010190602001808311611d8e57829003601f168201915b50505050509050600060028054611dc19061399e565b80601f0160208091040260200160405190810160405280929190818152602001828054611ded9061399e565b8015611e3a5780601f10611e0f57610100808354040283529160200191611e3a565b820191906000526020600020905b815481529060010190602001808311611e1d57829003601f168201915b505050505090508151600014158015611e535750805115155b15611f6f577f00000000000000000000000000000000000000000000000000000000000000006001600160a01b031663619306306040518163ffffffff1660e01b8152600401602060405180830381865afa158015611eb6573d6000803e3d6000fd5b505050506040513d601f19601f82011682018060405250810190611eda9190613cf9565b6001600160a01b031663a7f2a70b7f000000000000000000000000000000000000000000000000000000000000000084846040518463ffffffff1660e01b8152600401611f2993929190613f1c565b6020604051808303816000875af1158015611f48573d6000803e3d6000fd5b505050506040513d601f19601f82011682018060405250810190611f6c9190613cf9565b92505b7f0000000000000000000000000000000000000000000000000000000000000000156120d2576001600160a01b038316611fd5576040517f4713118c00000000000000000000000000000000000000000000000000000000815260040160405180910390fd5b6000611fe084612ea3565b6003549091501580159061202d575060006001600160a01b0316600360008154811061200e5761200e613b96565b60009182526020909120600360069092020101546001600160a01b0316145b156120d05780600360008154811061204757612047613b96565b906000526020600020906006020160030160006101000a8154816001600160a01b0302191690836001600160a01b031602179055506001600360008154811061209257612092613b96565b6000918252602090912060069091020180547fffffffffffffffffffffffffffffffffffffffffffffffffffffffffffffff00169115159190911790555b505b604080516001808252818301909252600091816020015b6040805180820190915260008152606060208201528152602001906001900390816120e95790505090506040518060400160405280600281526020016003805480602002602001604051908101604052809291908181526020016000905b828210156121d25760008481526020908190206040805160e08101825260068602909201805460ff8082161515855261010090910416151583850152600180820154928401929092526002810154606084015260038101546001600160a01b039081166080850152600482015460a08501526005909101541660c08301529083529092019101612147565b50505050815250816000815181106121ec576121ec613b96565b60209081029190910101526001600160a01b037f00000000000000000000000000000000000000000000000000000000000000001663badbdf287f00000000000000000000000000000000000000000000000000000000000000008789600086816040519080825280602002602001820160405280156122c957816020015b6122b66040518060c0016040528060006001600160a01b0316815260200160006001600160a01b03168152602001600081526020016000815260200160008152602001600081525090565b81526020019060019003908161226b5790505b506040518763ffffffff1660e01b81526004016122eb9695949392919061402a565b6020604051808303816000875af115801561230a573d6000803e3d6000fd5b505050506040513d601f19601f8201168201806040525081019061232e9190613b69565b507f00000000000000000000000000000000000000000000000000000000000000006001600160a01b0316638b79543c6040518163ffffffff1660e01b8152600401602060405180830381865afa15801561238d573d6000803e3d6000fd5b505050506040513d601f19601f820116820180604052508101906123b19190613cf9565b6040517f42842e0e0000000000000000000000000000000000000000000000000000000081523060048201526001600160a01b037f0000000000000000000000000000000000000000000000000000000000000000811660248301527f0000000000000000000000000000000000000000000000000000000000000000604483015291909116906342842e0e90606401600060405180830381600087803b15801561245b57600080fd5b505af115801561246f573d6000803e3d6000fd5b505050505050505050505b6040517f5e26bbc33940bf0ea57d4933bd129b7dc4805a4933d6b9892762b2e74005555490600090a1565b6000547e01000000000000000000000000000000000000000000000000000000000000900460ff1615612504576040517fb2d36f5900000000000000000000000000000000000000000000000000000000815260040160405180910390fd5b600080547fff00ffffffffffffffffffffffffffffffffffffffffffffffffffffffffffff167e010000000000000000000000000000000000000000000000000000000000001781556040517f8776c4990000000000000000000000000000000000000000000000000000000081527f000000000000000000000000000000000000000000000000000000000000000060048201526001600160a01b037f00000000000000000000000000000000000000000000000000000000000000001690638776c499906024016103a060405180830381865afa1580156125eb573d6000803e3d6000fd5b505050506040513d601f19601f8201168201806040525081019061260f9190613d85565b9150506000604051806080016040528060008152602001600181526020016000815260200160006001600160a01b031681525090507f00000000000000000000000000000000000000000000000000000000000000006001600160a01b031663badbdf287f0000000000000000000000000000000000000000000000000000000000000000838560008067ffffffffffffffff8111156126b1576126b16131da565b6040519080825280602002602001820160405280156126f757816020015b6040805180820190915260008152606060208201528152602001906001900390816126cf5790505b50604080516000808252602082019092529061276c565b6127596040518060c0016040528060006001600160a01b0316815260200160006001600160a01b03168152602001600081526020016000815260200160008152602001600081525090565b81526020019060019003908161270e5790505b506040518763ffffffff1660e01b815260040161278e9695949392919061402a565b6020604051808303816000875af11580156127ad573d6000803e3d6000fd5b505050506040513d601f19601f820116820180604052508101906127d19190613b69565b506040517f1be783e8d4e1d8a6ade777ccbd4d35a094adc4bb03dfd823740e6d97e56232b590600090a15050565b6000336001600160a01b037f00000000000000000000000000000000000000000000000000000000000000001614612893576040517f08c379a000000000000000000000000000000000000000000000000000000000815260206004820152600d60248201527f4e4f545f535550504f525445440000000000000000000000000000000000000060448201526064016113b4565b507ff23a6e610000000000000000000000000000000000000000000000000000000095945050505050565b6000805471ffffffffffffffffffffffffffffffffffff16900361290e576040517ffc86ac2300000000000000000000000000000000000000000000000000000000815260040160405180910390fd5b60008167ffffffffffffffff811115612929576129296131da565b604051908082528060200260200182016040528015612952578160200160208202803683370190505b5090506000805b83811015612a2d576004600086868481811061297757612977613b96565b905060200201602081019061298c919061344d565b6001600160a01b0316815260208101919091526040016000205491508115612a25576129bf66038d7ea4c6800083613b82565b8382815181106129d1576129d1613b96565b6020026020010181815250506000600460008787858181106129f5576129f5613b96565b9050602002016020810190612a0a919061344d565b6001600160a01b031681526020810191909152604001600020555b600101612959565b50600080546040517fa58fa7c40000000000000000000000000000000000000000000000000000000081526001600160a01b037f0000000000000000000000000000000000000000000000000000000000000000169263a58fa7c492612ab49230928a928a9271ffffffffffffffffffffffffffffffffffff909116918a91600401614269565b600060405180830381600087803b158015612ace57600080fd5b505af1158015612ae2573d6000803e3d6000fd5b505050507fb70bd4fe9aea55f7258b1d1acd7d9188d608c557e51ea6ac39b6004ad18ffdb5848484604051612b19939291906142ce565b60405180910390a150505050565b6affffffffffffffffffffff7f0000000000000000000000000000000000000000000000000000000000000000168015612c86577f000000000000000000000000000000000000000000000000000000000000000015612c81576040517f637113620000000000000000000000000000000000000000000000000000000081526fffffffffffffffffffffffffffffffff821660048201526001600160a01b037f0000000000000000000000000000000000000000000000000000000000000000811660248301527f0000000000000000000000000000000000000000000000000000000000000000166044820152610708606482015273f2e8176c0b67232b20205f4dfbcec3e74bca471f90636371136290608401602060405180830381865afa158015612c5a573d6000803e3d6000fd5b505050506040513d601f19601f82011682018060405250810190612c7e9190613b69565b90505b612c94565b506a03796274caf64c710000005b600054720100000000000000000000000000000000000090046affffffffffffffffffffff16811015610a71576040517f60349ef100000000000000000000000000000000000000000000000000000000815260040160405180910390fd5b6040517ff23a6e6100000000000000000000000000000000000000000000000000000000815230600482018190526024820152600160448201819052606482015260a06084820152600060a48201526001600160a01b0382169063f23a6e619060c4016020604051808303816000875af1925050508015612d91575060408051601f3d908101601f19168201909252612d8e918101906142f4565b60015b612e2457612d9d614311565b806308c379a003612df05750612db161432d565b80612dbc5750612df2565b806040517f08c379a00000000000000000000000000000000000000000000000000000000081526004016113b491906143d5565b505b6040517fd7d6c40900000000000000000000000000000000000000000000000000000000815260040160405180910390fd5b7fffffffff0000000000000000000000000000000000000000000000000000000081167ff23a6e610000000000000000000000000000000000000000000000000000000014612e9f576040517fd7d6c40900000000000000000000000000000000000000000000000000000000815260040160405180910390fd5b5050565b600080548190612ede9066038d7ea4c6800090720100000000000000000000000000000000000090046affffffffffffffffffffff166143e8565b60408051600180825281830190925291925060009190816020015b6040805160608101825260008082526020808301829052928201528252600019909201910181612ef95790505090506040518060600160405280306001600160a01b031681526020018363ffffffff1681526020016001151581525081600081518110612f6857612f68613b96565b60209081029190910101526040805160018082528183019092526000918160200160208202803683370190505090508481600081518110612fab57612fab613b96565b60200260200101906001600160a01b031690816001600160a01b03168152505060007f00000000000000000000000000000000000000000000000000000000000000006001600160a01b031663d0137a2c6040518061010001604052808681526020018763ffffffff1681526020018581526020017f000000000000000000000000000000000000000000000000000000000000000064ffffffffff1681526020017f000000000000000000000000000000000000000000000000000000000000000064ffffffffff16815260200160006001600160a01b03168152602001600060ff168152602001600060ff168152506040518263ffffffff1660e01b81526004016130b8919061444b565b60408051808303816000875af11580156130d6573d6000803e3d6000fd5b505050506040513d601f19601f820116820180604052508101906130fa919061454a565b600080547fffffffffffffffffffffffffffff0000000000000000000000000000000000001671ffffffffffffffffffffffffffffffffffff8416179055604080518381526001600160a01b03831660208201529197509192507fb91da58efe04ba897759f485c57adb3a9350dbacbf972be040c5e4d82c8b4c8e910160405180910390a150505050919050565b7fffffffff0000000000000000000000000000000000000000000000000000000081168114610a7157600080fd5b6000602082840312156131c857600080fd5b81356131d381613188565b9392505050565b634e487b7160e01b600052604160045260246000fd5b601f19601f830116810181811067ffffffffffffffff82111715613216576132166131da565b6040525050565b604051610120810167ffffffffffffffff81118282101715613241576132416131da565b60405290565b604051610240810167ffffffffffffffff81118282101715613241576132416131da565b600082601f83011261327c57600080fd5b813567ffffffffffffffff811115613296576132966131da565b6040516132ad6020601f19601f85011601826131f0565b8181528460208386010111156132c257600080fd5b816020850160208301376000918101602001919091529392505050565b600080604083850312156132f257600080fd5b823567ffffffffffffffff8082111561330a57600080fd5b6133168683870161326b565b9350602085013591508082111561332c57600080fd5b506133398582860161326b565b9150509250929050565b6001600160a01b0381168114610a7157600080fd5b60008060008060006080868803121561337057600080fd5b853561337b81613343565b9450602086013561338b81613343565b935060408601359250606086013567ffffffffffffffff808211156133af57600080fd5b818801915088601f8301126133c357600080fd5b8135818111156133d257600080fd5b8960208285010111156133e457600080fd5b9699959850939650602001949392505050565b60006101e0828403121561340a57600080fd5b50919050565b60006020828403121561342257600080fd5b813567ffffffffffffffff81111561343957600080fd5b613445848285016133f7565b949350505050565b60006020828403121561345f57600080fd5b81356131d381613343565b600081518084526020808501945080840160005b838110156134eb5781518051151588528381015115158489015260408082015190890152606080820151908901526080808201516001600160a01b03908116918a019190915260a080830151908a015260c091820151169088015260e0909601959082019060010161347e565b509495945050505050565b6000815180845260005b8181101561351c57602081850181015186830182015201613500565b506000602082860101526020601f19601f83011685010191505092915050565b6020815281516020820152602082015160408201526040820151606082015260006060830151613575608084018264ffffffffff169052565b50608083015164ffffffffff811660a08401525060a08301516001600160a01b03811660c08401525060c083015164ffffffffff811660e08401525060e08301516101006135c88185018361ffff169052565b8085015191505061022061012081818601526135e861024086018461346a565b9250808601519050601f1961014081878603018188015261360985846134f6565b94508088015192505061016081878603018188015261362885846134f6565b945080880151925050506101806136428187018315159052565b86015190506101a06136578682018315159052565b86015190506101c061366c8682018315159052565b86015190506101e06136818682018315159052565b86015190506102006136968682018315159052565b959095015193019290925250919050565b838152600060206060818401526136c160608401866134f6565b83810360408581019190915285518083528387019284019060005b8181101561370a57845180516001600160a01b031684528601518684015293850193918301916001016136dc565b50909998505050505050505050565b600082601f83011261372a57600080fd5b8135602067ffffffffffffffff821115613746576137466131da565b8160051b604051613759838301826131f0565b9283528481018201928281018785111561377257600080fd5b83870192505b8483101561378f5782358152918301918301613778565b509695505050505050565b600080600080600060a086880312156137b257600080fd5b85356137bd81613343565b945060208601356137cd81613343565b9350604086013567ffffffffffffffff808211156137ea57600080fd5b6137f689838a01613719565b9450606088013591508082111561380c57600080fd5b61381889838a01613719565b9350608088013591508082111561382e57600080fd5b5061383b8882890161326b565b9150509295509295909350565b60006020828403121561385a57600080fd5b813567ffffffffffffffff81111561387157600080fd5b82016101a081850312156131d357600080fd5b60006020828403121561389657600080fd5b813567ffffffffffffffff8111156138ad57600080fd5b820161020081850312156131d357600080fd5b600080600080600060a086880312156138d857600080fd5b85356138e381613343565b945060208601356138f381613343565b93506040860135925060608601359150608086013567ffffffffffffffff81111561391d57600080fd5b61383b8882890161326b565b6000806020838503121561393c57600080fd5b823567ffffffffffffffff8082111561395457600080fd5b818501915085601f83011261396857600080fd5b81358181111561397757600080fd5b8660208260051b850101111561398c57600080fd5b60209290920196919550909350505050565b600181811c908216806139b257607f821691505b60208210810361340a57634e487b7160e01b600052602260045260246000fd5b601f821115613a1c57600081815260208120601f850160051c810160208610156139f95750805b601f850160051c820191505b81811015613a1857828155600101613a05565b5050505b505050565b815167ffffffffffffffff811115613a3b57613a3b6131da565b613a4f81613a49845461399e565b846139d2565b602080601f831160018114613a845760008415613a6c5750858301515b600019600386901b1c1916600185901b178555613a18565b600085815260208120601f198616915b82811015613ab357888601518255948401946001909101908401613a94565b5085821015613ad15787850151600019600388901b60f8161c191681555b5050505050600190811b01905550565b604081526000613af460408301856134f6565b8281036020840152613b0681856134f6565b95945050505050565b80518015158114613b1f57600080fd5b919050565b600060208284031215613b3657600080fd5b6131d382613b0f565b634e487b7160e01b600052601260045260246000fd5b600082613b6457613b64613b3f565b500690565b600060208284031215613b7b57600080fd5b5051919050565b600082613b9157613b91613b3f565b500490565b634e487b7160e01b600052603260045260246000fd5b60008083357fffffffffffffffffffffffffffffffffffffffffffffffffffffffffffffffe1843603018112613be157600080fd5b83018035915067ffffffffffffffff821115613bfc57600080fd5b602001915036819003821315613c1157600080fd5b9250929050565b8051613b1f81613343565b60006101208284031215613c3657600080fd5b613c3e61321d565b9050815181526020820151602082015260408201516040820152606082015160608201526080820151608082015260a082015160a082015260c082015160c0820152613c8c60e08301613c18565b60e082015261010080830151818301525092915050565b60006101208284031215613cb657600080fd5b6131d38383613c23565b6affffffffffffffffffffff818116838216019080821115613cf257634e487b7160e01b600052601160045260246000fd5b5092915050565b600060208284031215613d0b57600080fd5b81516131d381613343565b600060608284031215613d2857600080fd5b6040516060810181811067ffffffffffffffff82111715613d4b57613d4b6131da565b604052905080613d5a83613b0f565b8152613d6860208401613b0f565b6020820152613d7960408401613b0f565b60408201525092915050565b6000808284036103a0811215613d9a57600080fd5b613da48585613c23565b9250610120610280807ffffffffffffffffffffffffffffffffffffffffffffffffffffffffffffffee084011215613ddb57600080fd5b613de3613247565b9250613df187838801613d16565b83526101808087015160208501526101a08088015160408601526101c08089015160608701526101e0613e25818b01613b0f565b6080880152610200613e38818c01613b0f565b60a0890152610220613e4b818d01613b0f565b60c08a0152613e5d6102408d01613b0f565b60e08a0152613e6f6102608d01613b0f565b6101008a0152613e80878d01613b0f565b888a0152613e916102a08d01613b0f565b6101408a0152613ea46102c08d01613b0f565b6101608a0152613eb76102e08d01613b0f565b868a0152613ec86103008d01613b0f565b858a0152613ed96103208d01613b0f565b848a0152613eea6103408d01613b0f565b838a0152613efb6103608d01613c18565b828a01526103808c0151818a01525050505050505050809150509250929050565b838152606060208201526000613f3560608301856134f6565b8281036040840152613f4781856134f6565b9695505050505050565b600081518084526020808501808196508360051b8101915082860160005b85811015613fad5782840389528151805185528501516040868601819052613f998187018361346a565b9a87019a9550505090840190600101613f6f565b5091979650505050505050565b600081518084526020808501945080840160005b838110156134eb57815180516001600160a01b03908116895284820151168489015260408082015190890152606080820151908901526080808201519089015260a0908101519088015260c09096019590820190600101613fce565b60006103a08883528751602084015260208801516040840152604088015160608401526001600160a01b03606089015116608084015261408860a0840188518051151582526020808201511515908301526040908101511515910152565b6020870151610100818186015260408901519150610120828187015260608a01519250610140838188015260808b015193506101606140ca8189018615159052565b60a08c015194506101806140e1818a018715159052565b60c08d015195506101a06140f8818b018815159052565b60e08e015196506101c061410f818c018915159052565b958e015196506101e0956141268b88018915159052565b948e015196506102009461413d8b87018915159052565b938e01519650610220936141548b86018915159052565b928e015115156102408b0152908d015115156102608a01528c015115156102808901528b015115156102a0880152918a015115156102c08701528901516001600160a01b03166102e086015288015161030085015250610320830186905261034083018190526141c681840186613f51565b90508281036103608401526141db8185613fba565b838103610380850152600081529050602081019998505050505050505050565b8183526000602080850194508260005b858110156134eb57813561421e81613343565b6001600160a01b03168752958201959082019060010161420b565b600081518084526020808501945080840160005b838110156134eb5781518752958201959082019060010161424d565b6001600160a01b038716815260a06020820152600061428c60a0830187896141fb565b71ffffffffffffffffffffffffffffffffffff8616604084015282810360608401526142b88186614239565b9150508215156080830152979650505050505050565b6040815260006142e26040830185876141fb565b8281036020840152613f478185614239565b60006020828403121561430657600080fd5b81516131d381613188565b600060033d111561432a5760046000803e5060005160e01c5b90565b600060443d101561433b5790565b6040517ffffffffffffffffffffffffffffffffffffffffffffffffffffffffffffffffc803d016004833e81513d67ffffffffffffffff816024840111818411171561438957505050505090565b82850191508151818111156143a15750505050505090565b843d87010160208285010111156143bb5750505050505090565b6143ca602082860101876131f0565b509095945050505050565b6020815260006131d360208301846134f6565b60006affffffffffffffffffffff8084168061440657614406613b3f565b92169190910492915050565b600081518084526020808501945080840160005b838110156134eb5781516001600160a01b031687529582019590820190600101614426565b60208082528251610100838301819052815161012085018190526000939283019184916101408701905b808410156144bc57845180516001600160a01b031683528681015163ffffffff16878401526040908101511515908301529385019360019390930192606090910190614475565b5084880151604088015260408801519450601f198782030160608801526144e38186614412565b945050606087015160808701526080870151925061450a60a087018464ffffffffff169052565b60a08701516001600160a01b03811660c0880152925060c087015160ff811660e0880152925060e087015160ff8116878301529250509195945050505050565b6000806040838503121561455d57600080fd5b82519150602083015161456f81613343565b80915050925092905056fea26469706673582212204dc7f9d0296ae7b52843ee4b0fe9a012fe91310fdebf85065f1eee9458ac9d9164736f6c63430008110033",
    "linkReferences": {}
  },
  "methodIdentifiers": {
    "MAX_CONTRIBUTION()": "94d95f8f",
    "TOKENS_PER_SLICE()": "31b9e3b1",
    "claimSlices()": "6ef2267e",
    "closeRound()": "e278fe6f",
    "contributions(address)": "42e94c90",
    "controller()": "f77c4791",
    "didPay((address,uint256,uint256,(address,uint256,uint256,uint256),(address,uint256,uint256,uint256),uint256,address,bool,string,bytes))": "da9ee8b7",
    "didRedeem((address,uint256,uint256,uint256,(address,uint256,uint256,uint256),(address,uint256,uint256,uint256),address,string,bytes))": "2b13c58f",
    "directory()": "c41c2f24",
    "ethAddress()": "41398b15",
    "fundingCycleStore()": "557e7155",
    "getRoundInfo()": "84bc76a6",
    "isTargetReached()": "5e098f05",
    "onERC1155BatchReceived(address,address,uint256[],uint256[],bytes)": "bc197c81",
    "onERC1155Received(address,address,uint256,uint256,bytes)": "f23a6e61",
    "onERC721Received(address,address,uint256,bytes)": "150b7a02",
    "payParams((address,address,(address,uint256,uint256,uint256),uint256,uint256,address,uint256,uint256,string,bytes))": "d46cf171",
    "priceFeed()": "741bef1a",
    "projectId()": "3fafa127",
    "queueNextPhase()": "e7ef7d0d",
    "redeemParams((address,address,uint256,uint256,uint256,uint256,uint256,(address,uint256,uint256,uint256),bool,uint256,string,bytes))": "a51cfd18",
    "setTokenMetadata(string,string)": "0d71e3d7",
    "sliceCore()": "f4c76363",
    "supportsInterface(bytes4)": "01ffc9a7",
    "transferToken(address)": "deebeac9",
    "transferUnclaimedSlicesTo(address[])": "fcf12991",
    "usdcAddress()": "02d45457"
  },
  "id": 0
}