{
  "abi": [
    {
      "inputs": [
        {
          "internalType": "address",
          "name": "deployer",
          "type": "address"
        },
        {
          "internalType": "contract IBluntDelegateDeployer",
          "name": "_delegateDeployer",
          "type": "address"
        },
        {
          "internalType": "contract IBluntDelegateCloner",
          "name": "_delegateCloner",
          "type": "address"
        },
        {
          "internalType": "contract IJBController3_1",
          "name": "_controller",
          "type": "address"
        },
        {
          "internalType": "uint256",
          "name": "_feeProjectId",
          "type": "uint256"
        },
        {
          "internalType": "address",
          "name": "_ethAddress",
          "type": "address"
        },
        {
          "internalType": "address",
          "name": "_usdcAddress",
          "type": "address"
        },
        {
          "internalType": "uint16",
          "name": "_maxK",
          "type": "uint16"
        },
        {
          "internalType": "uint16",
          "name": "_minK",
          "type": "uint16"
        },
        {
          "internalType": "uint56",
          "name": "_upperFundraiseBoundary",
          "type": "uint56"
        },
        {
          "internalType": "uint56",
          "name": "_lowerFundraiseBoundary",
          "type": "uint56"
        }
      ],
      "stateMutability": "nonpayable",
      "type": "constructor"
    },
    {
      "inputs": [],
      "name": "EXCEEDED_MAX_FEE",
      "type": "error"
    },
    {
      "inputs": [],
      "name": "INVALID_INPUTS",
      "type": "error"
    },
    {
      "inputs": [],
      "name": "INVALID_TOKEN_ISSUANCE",
      "type": "error"
    },
    {
      "anonymous": false,
      "inputs": [
        {
          "indexed": true,
          "internalType": "address",
          "name": "previousOwner",
          "type": "address"
        },
        {
          "indexed": true,
          "internalType": "address",
          "name": "newOwner",
          "type": "address"
        }
      ],
      "name": "OwnershipTransferred",
      "type": "event"
    },
    {
      "inputs": [
        {
          "internalType": "contract IBluntDelegateDeployer",
          "name": "newDelegateDeployer_",
          "type": "address"
        },
        {
          "internalType": "contract IBluntDelegateCloner",
          "name": "newDelegateCloner_",
          "type": "address"
        }
      ],
      "name": "_setDelegates",
      "outputs": [],
      "stateMutability": "nonpayable",
      "type": "function"
    },
    {
      "inputs": [
        {
          "internalType": "uint16",
          "name": "maxK_",
          "type": "uint16"
        },
        {
          "internalType": "uint16",
          "name": "minK_",
          "type": "uint16"
        },
        {
          "internalType": "uint56",
          "name": "upperFundraiseBoundary_",
          "type": "uint56"
        },
        {
          "internalType": "uint56",
          "name": "lowerFundraiseBoundary_",
          "type": "uint56"
        }
      ],
      "name": "_setFees",
      "outputs": [],
      "stateMutability": "nonpayable",
      "type": "function"
    },
    {
      "inputs": [],
      "name": "controller",
      "outputs": [
        {
          "internalType": "contract IJBController3_1",
          "name": "",
          "type": "address"
        }
      ],
      "stateMutability": "view",
      "type": "function"
    },
    {
      "inputs": [],
      "name": "delegateCloner",
      "outputs": [
        {
          "internalType": "contract IBluntDelegateCloner",
          "name": "",
          "type": "address"
        }
      ],
      "stateMutability": "view",
      "type": "function"
    },
    {
      "inputs": [],
      "name": "delegateDeployer",
      "outputs": [
        {
          "internalType": "contract IBluntDelegateDeployer",
          "name": "",
          "type": "address"
        }
      ],
      "stateMutability": "view",
      "type": "function"
    },
    {
      "inputs": [],
      "name": "ethAddress",
      "outputs": [
        {
          "internalType": "address",
          "name": "",
          "type": "address"
        }
      ],
      "stateMutability": "view",
      "type": "function"
    },
    {
      "inputs": [],
      "name": "feeProjectId",
      "outputs": [
        {
          "internalType": "uint256",
          "name": "",
          "type": "uint256"
        }
      ],
      "stateMutability": "view",
      "type": "function"
    },
    {
      "inputs": [
        {
          "components": [
            {
              "internalType": "contract IJBDirectory",
              "name": "directory",
              "type": "address"
            },
            {
              "internalType": "address",
              "name": "projectOwner",
              "type": "address"
            },
            {
              "internalType": "uint88",
              "name": "hardcap",
              "type": "uint88"
            },
            {
              "internalType": "uint88",
              "name": "target",
              "type": "uint88"
            },
            {
              "internalType": "uint16",
              "name": "afterRoundReservedRate",
              "type": "uint16"
            },
            {
              "components": [
                {
                  "internalType": "bool",
                  "name": "preferClaimed",
                  "type": "bool"
                },
                {
                  "internalType": "bool",
                  "name": "preferAddToBalance",
                  "type": "bool"
                },
                {
                  "internalType": "uint256",
                  "name": "percent",
                  "type": "uint256"
                },
                {
                  "internalType": "uint256",
                  "name": "projectId",
                  "type": "uint256"
                },
                {
                  "internalType": "address payable",
                  "name": "beneficiary",
                  "type": "address"
                },
                {
                  "internalType": "uint256",
                  "name": "lockedUntil",
                  "type": "uint256"
                },
                {
                  "internalType": "contract IJBSplitAllocator",
                  "name": "allocator",
                  "type": "address"
                }
              ],
              "internalType": "struct JBSplit[]",
              "name": "afterRoundSplits",
              "type": "tuple[]"
            },
            {
              "internalType": "bool",
              "name": "isTargetUsd",
              "type": "bool"
            },
            {
              "internalType": "bool",
              "name": "isHardcapUsd",
              "type": "bool"
            }
          ],
          "internalType": "struct DeployBluntDelegateData",
          "name": "_deployBluntDelegateData",
          "type": "tuple"
        },
        {
          "components": [
            {
              "components": [
                {
                  "internalType": "string",
                  "name": "content",
                  "type": "string"
                },
                {
                  "internalType": "uint256",
                  "name": "domain",
                  "type": "uint256"
                }
              ],
              "internalType": "struct JBProjectMetadata",
              "name": "projectMetadata",
              "type": "tuple"
            },
            {
              "components": [
                {
                  "internalType": "uint256",
                  "name": "duration",
                  "type": "uint256"
                },
                {
                  "internalType": "uint256",
                  "name": "weight",
                  "type": "uint256"
                },
                {
                  "internalType": "uint256",
                  "name": "discountRate",
                  "type": "uint256"
                },
                {
                  "internalType": "contract IJBFundingCycleBallot",
                  "name": "ballot",
                  "type": "address"
                }
              ],
              "internalType": "struct JBFundingCycleData",
              "name": "data",
              "type": "tuple"
            },
            {
              "components": [
                {
                  "components": [
                    {
                      "internalType": "bool",
                      "name": "allowSetTerminals",
                      "type": "bool"
                    },
                    {
                      "internalType": "bool",
                      "name": "allowSetController",
                      "type": "bool"
                    },
                    {
                      "internalType": "bool",
                      "name": "pauseTransfers",
                      "type": "bool"
                    }
                  ],
                  "internalType": "struct JBGlobalFundingCycleMetadata",
                  "name": "global",
                  "type": "tuple"
                },
                {
                  "internalType": "uint256",
                  "name": "reservedRate",
                  "type": "uint256"
                },
                {
                  "internalType": "uint256",
                  "name": "redemptionRate",
                  "type": "uint256"
                },
                {
                  "internalType": "uint256",
                  "name": "ballotRedemptionRate",
                  "type": "uint256"
                },
                {
                  "internalType": "bool",
                  "name": "pausePay",
                  "type": "bool"
                },
                {
                  "internalType": "bool",
                  "name": "pauseDistributions",
                  "type": "bool"
                },
                {
                  "internalType": "bool",
                  "name": "pauseRedeem",
                  "type": "bool"
                },
                {
                  "internalType": "bool",
                  "name": "pauseBurn",
                  "type": "bool"
                },
                {
                  "internalType": "bool",
                  "name": "allowMinting",
                  "type": "bool"
                },
                {
                  "internalType": "bool",
                  "name": "allowTerminalMigration",
                  "type": "bool"
                },
                {
                  "internalType": "bool",
                  "name": "allowControllerMigration",
                  "type": "bool"
                },
                {
                  "internalType": "bool",
                  "name": "holdFees",
                  "type": "bool"
                },
                {
                  "internalType": "bool",
                  "name": "preferClaimedTokenOverride",
                  "type": "bool"
                },
                {
                  "internalType": "bool",
                  "name": "useTotalOverflowForRedemptions",
                  "type": "bool"
                },
                {
                  "internalType": "bool",
                  "name": "useDataSourceForPay",
                  "type": "bool"
                },
                {
                  "internalType": "bool",
                  "name": "useDataSourceForRedeem",
                  "type": "bool"
                },
                {
                  "internalType": "address",
                  "name": "dataSource",
                  "type": "address"
                },
                {
                  "internalType": "uint256",
                  "name": "metadata",
                  "type": "uint256"
                }
              ],
              "internalType": "struct JBFundingCycleMetadata",
              "name": "metadata",
              "type": "tuple"
            },
            {
              "internalType": "uint256",
              "name": "mustStartAtOrAfter",
              "type": "uint256"
            },
            {
              "components": [
                {
                  "internalType": "uint256",
                  "name": "group",
                  "type": "uint256"
                },
                {
                  "components": [
                    {
                      "internalType": "bool",
                      "name": "preferClaimed",
                      "type": "bool"
                    },
                    {
                      "internalType": "bool",
                      "name": "preferAddToBalance",
                      "type": "bool"
                    },
                    {
                      "internalType": "uint256",
                      "name": "percent",
                      "type": "uint256"
                    },
                    {
                      "internalType": "uint256",
                      "name": "projectId",
                      "type": "uint256"
                    },
                    {
                      "internalType": "address payable",
                      "name": "beneficiary",
                      "type": "address"
                    },
                    {
                      "internalType": "uint256",
                      "name": "lockedUntil",
                      "type": "uint256"
                    },
                    {
                      "internalType": "contract IJBSplitAllocator",
                      "name": "allocator",
                      "type": "address"
                    }
                  ],
                  "internalType": "struct JBSplit[]",
                  "name": "splits",
                  "type": "tuple[]"
                }
              ],
              "internalType": "struct JBGroupedSplits[]",
              "name": "groupedSplits",
              "type": "tuple[]"
            },
            {
              "components": [
                {
                  "internalType": "contract IJBPaymentTerminal",
                  "name": "terminal",
                  "type": "address"
                },
                {
                  "internalType": "address",
                  "name": "token",
                  "type": "address"
                },
                {
                  "internalType": "uint256",
                  "name": "distributionLimit",
                  "type": "uint256"
                },
                {
                  "internalType": "uint256",
                  "name": "distributionLimitCurrency",
                  "type": "uint256"
                },
                {
                  "internalType": "uint256",
                  "name": "overflowAllowance",
                  "type": "uint256"
                },
                {
                  "internalType": "uint256",
                  "name": "overflowAllowanceCurrency",
                  "type": "uint256"
                }
              ],
              "internalType": "struct JBFundAccessConstraints[]",
              "name": "fundAccessConstraints",
              "type": "tuple[]"
            },
            {
              "internalType": "contract IJBPaymentTerminal[]",
              "name": "terminals",
              "type": "address[]"
            },
            {
              "internalType": "string",
              "name": "memo",
              "type": "string"
            }
          ],
          "internalType": "struct JBLaunchProjectData",
          "name": "_launchProjectData",
          "type": "tuple"
        },
        {
          "internalType": "bool",
          "name": "_clone",
          "type": "bool"
        }
      ],
      "name": "launchProjectFor",
      "outputs": [
        {
          "internalType": "uint256",
          "name": "projectId",
          "type": "uint256"
        }
      ],
      "stateMutability": "nonpayable",
      "type": "function"
    },
    {
      "inputs": [],
      "name": "lowerFundraiseBoundary",
      "outputs": [
        {
          "internalType": "uint56",
          "name": "",
          "type": "uint56"
        }
      ],
      "stateMutability": "view",
      "type": "function"
    },
    {
      "inputs": [],
      "name": "maxK",
      "outputs": [
        {
          "internalType": "uint16",
          "name": "",
          "type": "uint16"
        }
      ],
      "stateMutability": "view",
      "type": "function"
    },
    {
      "inputs": [],
      "name": "minK",
      "outputs": [
        {
          "internalType": "uint16",
          "name": "",
          "type": "uint16"
        }
      ],
      "stateMutability": "view",
      "type": "function"
    },
    {
      "inputs": [],
      "name": "owner",
      "outputs": [
        {
          "internalType": "address",
          "name": "",
          "type": "address"
        }
      ],
      "stateMutability": "view",
      "type": "function"
    },
    {
      "inputs": [],
      "name": "renounceOwnership",
      "outputs": [],
      "stateMutability": "nonpayable",
      "type": "function"
    },
    {
      "inputs": [
        {
          "internalType": "address",
          "name": "newOwner",
          "type": "address"
        }
      ],
      "name": "transferOwnership",
      "outputs": [],
      "stateMutability": "nonpayable",
      "type": "function"
    },
    {
      "inputs": [],
      "name": "upperFundraiseBoundary",
      "outputs": [
        {
          "internalType": "uint56",
          "name": "",
          "type": "uint56"
        }
      ],
      "stateMutability": "view",
      "type": "function"
    },
    {
      "inputs": [],
      "name": "usdcAddress",
      "outputs": [
        {
          "internalType": "address",
          "name": "",
          "type": "address"
        }
      ],
      "stateMutability": "view",
      "type": "function"
    }
  ],
  "bytecode": {
    "object": "0x6101006040523480156200001257600080fd5b5060405162002282380380620022828339810160408190526200003591620001ab565b620000403362000112565b6200004b8b62000112565b60018054600280546001600160a01b0319166001600160a01b039c8d16179055988a1660e05260c09790975294881660805292871660a0526000805463ffffffff60a01b1916600160a01b61ffff9485160261ffff60b01b191617600160b01b92909316919091029190911766ffffffffffffff60c01b1916600160c01b66ffffffffffffff938416021790556001600160d81b0319909316670100000000000000959094169490940266ffffffffffffff19169290921792169190911790555062000296565b600080546001600160a01b038381166001600160a01b0319831681178455604051919092169283917f8be0079c531659141344cd1fd0a4f28419497f9722a3daafe3b4186f6b6457e09190a35050565b6001600160a01b03811681146200017857600080fd5b50565b805161ffff811681146200018e57600080fd5b919050565b805166ffffffffffffff811681146200018e57600080fd5b60008060008060008060008060008060006101608c8e031215620001ce57600080fd5b8b51620001db8162000162565b60208d0151909b50620001ee8162000162565b60408d0151909a50620002018162000162565b60608d0151909950620002148162000162565b60808d015160a08e015191995097506200022e8162000162565b60c08d0151909650620002418162000162565b94506200025160e08d016200017b565b9350620002626101008d016200017b565b9250620002736101208d0162000193565b9150620002846101408d0162000193565b90509295989b509295989b9093969950565b60805160a05160c05160e051611f88620002fa6000396000818161033101528181610399015281816104c10152610b600152600081816101a601526104ed01526000818161010a015261055c0152600081816101db01526105340152611f886000f3fe608060405234801561001057600080fd5b50600436106101005760003560e01c80636f9e2acb116100975780638f3d964b116100665780638f3d964b146102db578063cbd6a52814610306578063f2fde38b14610319578063f77c47911461032c57600080fd5b80636f9e2acb1461027a578063715018a61461028f5780637f67d87e146102975780638da5cb5b146102bd57600080fd5b806341398b15116100d357806341398b15146101d6578063631f44bd146101fd5780636482c9111461022c57806366c297901461023f57600080fd5b806302d454571461010557806311fa21ad1461015657806320f6a58d1461017657806326c0e4b2146101a1575b600080fd5b61012c7f000000000000000000000000000000000000000000000000000000000000000081565b60405173ffffffffffffffffffffffffffffffffffffffff90911681526020015b60405180910390f35b60025461012c9073ffffffffffffffffffffffffffffffffffffffff1681565b6001546101899066ffffffffffffff1681565b60405166ffffffffffffff909116815260200161014d565b6101c87f000000000000000000000000000000000000000000000000000000000000000081565b60405190815260200161014d565b61012c7f000000000000000000000000000000000000000000000000000000000000000081565b600054610189907801000000000000000000000000000000000000000000000000900466ffffffffffffff1681565b6101c861023a366004611688565b610353565b60005461026790760100000000000000000000000000000000000000000000900461ffff1681565b60405161ffff909116815260200161014d565b61028d6102883660046117b9565b610767565b005b61028d610915565b6000546102679074010000000000000000000000000000000000000000900461ffff1681565b60005473ffffffffffffffffffffffffffffffffffffffff1661012c565b60015461012c90670100000000000000900473ffffffffffffffffffffffffffffffffffffffff1681565b61028d61031436600461180d565b610929565b61028d610327366004611846565b6109ab565b61012c7f000000000000000000000000000000000000000000000000000000000000000081565b6000826020015160200151600003610397576040517fbc11a31500000000000000000000000000000000000000000000000000000000815260040160405180910390fd5b7f000000000000000000000000000000000000000000000000000000000000000073ffffffffffffffffffffffffffffffffffffffff16638b79543c6040518163ffffffff1660e01b8152600401602060405180830381865afa158015610402573d6000803e3d6000fd5b505050506040513d601f19601f82011682018060405250810190610426919061186a565b73ffffffffffffffffffffffffffffffffffffffff166306661abd6040518163ffffffff1660e01b8152600401602060405180830381865afa158015610470573d6000803e3d6000fd5b505050506040513d601f19601f820116820180604052508101906104949190611887565b61049f9060016118a0565b604080516101408101825273ffffffffffffffffffffffffffffffffffffffff7f00000000000000000000000000000000000000000000000000000000000000008116825265ffffffffffff7f0000000000000000000000000000000000000000000000000000000000000000811660208085019190915290851693830193909352918601515164ffffffffff1660608201527f0000000000000000000000000000000000000000000000000000000000000000821660808201527f000000000000000000000000000000000000000000000000000000000000000090911660a08201526000805461ffff740100000000000000000000000000000000000000008204811660c085015276010000000000000000000000000000000000000000000082041660e084015266ffffffffffffff78010000000000000000000000000000000000000000000000009091048116610100840152600154166101208301529192509083156106ac576002546040517f227e767c00000000000000000000000000000000000000000000000000000000815273ffffffffffffffffffffffffffffffffffffffff9091169063227e767c906106629085908a90600401611a2c565b6020604051808303816000875af1158015610681573d6000803e3d6000fd5b505050506040513d601f19601f820116820180604052508101906106a5919061186a565b9050610754565b6001546040517f227e767c00000000000000000000000000000000000000000000000000000000815267010000000000000090910473ffffffffffffffffffffffffffffffffffffffff169063227e767c9061070e9085908a90600401611a2c565b6020604051808303816000875af115801561072d573d6000803e3d6000fd5b505050506040513d601f19601f82011682018060405250810190610751919061186a565b90505b61075e8186610a67565b50509392505050565b61076f610cc4565b6101f48461ffff1611156107af576040517fe0ab694100000000000000000000000000000000000000000000000000000000815260040160405180910390fd5b8361ffff168361ffff1611806107d657508166ffffffffffffff168166ffffffffffffff16115b1561080d576040517f0c8d1b0a00000000000000000000000000000000000000000000000000000000815260040160405180910390fd5b600080547fffffffffffffffff00000000ffffffffffffffffffffffffffffffffffffffff167401000000000000000000000000000000000000000061ffff968716027fffffffffffffffff0000ffffffffffffffffffffffffffffffffffffffffffff16177601000000000000000000000000000000000000000000009490951693909302939093177fff00000000000000ffffffffffffffffffffffffffffffffffffffffffffffff16780100000000000000000000000000000000000000000000000066ffffffffffffff9283160217909155600180547fffffffffffffffffffffffffffffffffffffffffffffffffff000000000000001692909116919091179055565b61091d610cc4565b6109276000610d45565b565b610931610cc4565b600180547fffffffffff0000000000000000000000000000000000000000ffffffffffffff1667010000000000000073ffffffffffffffffffffffffffffffffffffffff94851602179055600280547fffffffffffffffffffffffff00000000000000000000000000000000000000001691909216179055565b6109b3610cc4565b73ffffffffffffffffffffffffffffffffffffffff8116610a5b576040517f08c379a000000000000000000000000000000000000000000000000000000000815260206004820152602660248201527f4f776e61626c653a206e6577206f776e657220697320746865207a65726f206160448201527f646472657373000000000000000000000000000000000000000000000000000060648201526084015b60405180910390fd5b610a6481610d45565b50565b80516040805160808082018352600080835260208087015181015181850152838501829052606080850183905285516102a08101875261024081018481526102608201859052600161028083018190529082528184018590526127108289018190528284015294810184905260a0810184905260c0810184905260e08101849052610100810184905261012081018490526101408101849052610160810184905261018081018490526101a081018490526101c081018590526101e081019490945273ffffffffffffffffffffffffffffffffffffffff89811661020086015261022085018490529088015186518481529283019096527f0000000000000000000000000000000000000000000000000000000000000000169563b3c526739589959194919391929091610bbe565b604080518082019091526000815260606020820152815260200190600190039081610b965790505b506040805160008082526020820190925290610c4d565b610c3a6040518060c00160405280600073ffffffffffffffffffffffffffffffffffffffff168152602001600073ffffffffffffffffffffffffffffffffffffffff168152602001600081526020016000815260200160008152602001600081525090565b815260200190600190039081610bd55790505b508960c001518a60e001516040518a63ffffffff1660e01b8152600401610c7c99989796959493929190611e50565b6020604051808303816000875af1158015610c9b573d6000803e3d6000fd5b505050506040513d601f19601f82011682018060405250810190610cbf9190611887565b505050565b60005473ffffffffffffffffffffffffffffffffffffffff163314610927576040517f08c379a000000000000000000000000000000000000000000000000000000000815260206004820181905260248201527f4f776e61626c653a2063616c6c6572206973206e6f7420746865206f776e65726044820152606401610a52565b6000805473ffffffffffffffffffffffffffffffffffffffff8381167fffffffffffffffffffffffff0000000000000000000000000000000000000000831681178455604051919092169283917f8be0079c531659141344cd1fd0a4f28419497f9722a3daafe3b4186f6b6457e09190a35050565b7f4e487b7100000000000000000000000000000000000000000000000000000000600052604160045260246000fd5b60405160e0810167ffffffffffffffff81118282101715610e0c57610e0c610dba565b60405290565b6040805190810167ffffffffffffffff81118282101715610e0c57610e0c610dba565b604051610240810167ffffffffffffffff81118282101715610e0c57610e0c610dba565b60405160c0810167ffffffffffffffff81118282101715610e0c57610e0c610dba565b604051610100810167ffffffffffffffff81118282101715610e0c57610e0c610dba565b604051601f82017fffffffffffffffffffffffffffffffffffffffffffffffffffffffffffffffe016810167ffffffffffffffff81118282101715610ee757610ee7610dba565b604052919050565b73ffffffffffffffffffffffffffffffffffffffff81168114610a6457600080fd5b8035610f1c81610eef565b919050565b80356affffffffffffffffffffff81168114610f1c57600080fd5b803561ffff81168114610f1c57600080fd5b600067ffffffffffffffff821115610f6857610f68610dba565b5060051b60200190565b80358015158114610f1c57600080fd5b600082601f830112610f9357600080fd5b81356020610fa8610fa383610f4e565b610ea0565b82815260e09283028501820192828201919087851115610fc757600080fd5b8387015b858110156110565781818a031215610fe35760008081fd5b610feb610de9565b610ff482610f72565b8152611001868301610f72565b81870152604082810135908201526060808301359082015260808083013561102881610eef565b9082015260a0828101359082015260c08083013561104581610eef565b908201528452928401928101610fcb565b5090979650505050505050565b600082601f83011261107457600080fd5b813567ffffffffffffffff81111561108e5761108e610dba565b6110bf60207fffffffffffffffffffffffffffffffffffffffffffffffffffffffffffffffe0601f84011601610ea0565b8181528460208386010111156110d457600080fd5b816020850160208301376000918101602001919091529392505050565b60006040828403121561110357600080fd5b61110b610e12565b9050813567ffffffffffffffff81111561112457600080fd5b61113084828501611063565b8252506020820135602082015292915050565b60006080828403121561115557600080fd5b6040516080810181811067ffffffffffffffff8211171561117857611178610dba565b806040525080915082358152602083013560208201526040830135604082015260608301356111a681610eef565b6060919091015292915050565b6000606082840312156111c557600080fd5b6040516060810181811067ffffffffffffffff821117156111e8576111e8610dba565b6040529050806111f783610f72565b815261120560208401610f72565b602082015261121660408401610f72565b60408201525092915050565b6000610280828403121561123557600080fd5b61123d610e35565b905061124983836111b3565b8152606082013560208201526080820135604082015260a0820135606082015261127560c08301610f72565b608082015261128660e08301610f72565b60a0820152610100611299818401610f72565b60c08301526101206112ac818501610f72565b60e08401526101406112bf818601610f72565b8385015261016092506112d3838601610f72565b8285015261018091506112e7828601610f72565b908401526101a06112f9858201610f72565b838501526101c0925061130d838601610f72565b828501526101e09150611321828601610f72565b90840152610200611333858201610f72565b838501526102209250611347838601610f72565b828501526113586102408601610f11565b818501525050610260830135818301525092915050565b600082601f83011261138057600080fd5b81356020611390610fa383610f4e565b82815260059290921b840181019181810190868411156113af57600080fd5b8286015b8481101561145057803567ffffffffffffffff808211156113d45760008081fd5b81890191506040807fffffffffffffffffffffffffffffffffffffffffffffffffffffffffffffffe0848d0301121561140d5760008081fd5b611415610e12565b83880135815290830135908282111561142e5760008081fd5b61143c8c8984870101610f82565b8189015286525050509183019183016113b3565b509695505050505050565b600082601f83011261146c57600080fd5b8135602061147c610fa383610f4e565b82815260c0928302850182019282820191908785111561149b57600080fd5b8387015b858110156110565781818a0312156114b75760008081fd5b6114bf610e59565b81356114ca81610eef565b8152818601356114d981610eef565b8187015260408281013590820152606080830135908201526080808301359082015260a08083013590820152845292840192810161149f565b600082601f83011261152357600080fd5b81356020611533610fa383610f4e565b82815260059290921b8401810191818101908684111561155257600080fd5b8286015b8481101561145057803561156981610eef565b8352918301918301611556565b60006103c0828403121561158957600080fd5b611591610e7c565b9050813567ffffffffffffffff808211156115ab57600080fd5b6115b7858386016110f1565b83526115c68560208601611143565b60208401526115d88560a08601611222565b604084015261032084013560608401526103408401359150808211156115fd57600080fd5b6116098583860161136f565b608084015261036084013591508082111561162357600080fd5b61162f8583860161145b565b60a084015261038084013591508082111561164957600080fd5b61165585838601611512565b60c08401526103a084013591508082111561166f57600080fd5b5061167c84828501611063565b60e08301525092915050565b60008060006060848603121561169d57600080fd5b833567ffffffffffffffff808211156116b557600080fd5b9085019061010082880312156116ca57600080fd5b6116d2610e7c565b6116db83610f11565b81526116e960208401610f11565b60208201526116fa60408401610f21565b604082015261170b60608401610f21565b606082015261171c60808401610f3c565b608082015260a08301358281111561173357600080fd5b61173f89828601610f82565b60a08301525061175160c08401610f72565b60c082015261176260e08401610f72565b60e08201529450602086013591508082111561177d57600080fd5b5061178a86828701611576565b92505061179960408501610f72565b90509250925092565b803566ffffffffffffff81168114610f1c57600080fd5b600080600080608085870312156117cf57600080fd5b6117d885610f3c565b93506117e660208601610f3c565b92506117f4604086016117a2565b9150611802606086016117a2565b905092959194509250565b6000806040838503121561182057600080fd5b823561182b81610eef565b9150602083013561183b81610eef565b809150509250929050565b60006020828403121561185857600080fd5b813561186381610eef565b9392505050565b60006020828403121561187c57600080fd5b815161186381610eef565b60006020828403121561189957600080fd5b5051919050565b808201808211156118da577f4e487b7100000000000000000000000000000000000000000000000000000000600052601160045260246000fd5b92915050565b600081518084526020808501945080840160005b8381101561196e57815180511515885283810151151584890152604080820151908901526060808201519089015260808082015173ffffffffffffffffffffffffffffffffffffffff908116918a019190915260a080830151908a015260c091820151169088015260e090960195908201906001016118f4565b509495945050505050565b600061010073ffffffffffffffffffffffffffffffffffffffff8084511685528060208501511660208601525060408301516affffffffffffffffffffff8082166040870152806060860151166060870152505060808301516119e2608086018261ffff169052565b5060a08301518160a08601526119fa828601826118e0565b91505060c0830151611a1060c086018215159052565b5060e0830151611a2460e086018215159052565b509392505050565b825173ffffffffffffffffffffffffffffffffffffffff16815260006101606020850151611a64602085018265ffffffffffff169052565b506040850151611a7e604085018265ffffffffffff169052565b506060850151611a97606085018264ffffffffff169052565b506080850151611abf608085018273ffffffffffffffffffffffffffffffffffffffff169052565b5060a0850151611ae760a085018273ffffffffffffffffffffffffffffffffffffffff169052565b5060c0850151611afd60c085018261ffff169052565b5060e0850151611b1360e085018261ffff169052565b506101008581015166ffffffffffffff81168583015250506101208581015166ffffffffffffff811685830152505080610140840152611b5581840185611979565b95945050505050565b6000815180845260005b81811015611b8457602081850181015186830182015201611b68565b5060006020828601015260207fffffffffffffffffffffffffffffffffffffffffffffffffffffffffffffffe0601f83011685010191505092915050565b611be78282518051151582526020808201511515908301526040908101511515910152565b6020810151606083015260408101516080830152606081015160a08301526080810151611c1860c084018215159052565b5060a081015180151560e08401525060c0810151610100611c3c8185018315159052565b60e08301519150610120611c538186018415159052565b90830151915061014090611c6a8583018415159052565b8301519150610160611c7f8582018415159052565b90830151915061018090611c968583018415159052565b83015191506101a0611cab8582018415159052565b9083015191506101c090611cc28583018415159052565b83015191506101e0611cd78582018415159052565b90830151915061020090611cee8583018415159052565b8301519150610220611d038582018415159052565b9083015173ffffffffffffffffffffffffffffffffffffffff16610240850152909101516102609092019190915250565b6000815180845260208085019450848260051b860182860160005b858110156110565783830389528151805184528501516040868501819052611d79818601836118e0565b9a87019a9450505090840190600101611d4f565b600081518084526020808501945080840160005b8381101561196e578151805173ffffffffffffffffffffffffffffffffffffffff908116895284820151168489015260408082015190890152606080820151908901526080808201519089015260a0908101519088015260c09096019590820190600101611da1565b600081518084526020808501945080840160005b8381101561196e57815173ffffffffffffffffffffffffffffffffffffffff1687529582019590820190600101611e1e565b60006103e073ffffffffffffffffffffffffffffffffffffffff8c1683528060208401528a51604082850152611e8a610420850182611b5e565b91505060208b0151610400840152611edc604084018b80518252602081015160208301526040810151604083015273ffffffffffffffffffffffffffffffffffffffff60608201511660608301525050565b611ee960c084018a611bc2565b87610340840152828103610360840152611f038188611d34565b9050828103610380840152611f188187611d8d565b90508281036103a0840152611f2d8186611e0a565b90508281036103c0840152611f428185611b5e565b9c9b50505050505050505050505056fea2646970667358221220c963214192169a8271ea49f5dfb215ed145bd3e24c4f6f5efe3c55f0ed392b1f64736f6c63430008110033",
    "linkReferences": {}
  },
  "methodIdentifiers": {
    "_setDelegates(address,address)": "cbd6a528",
    "_setFees(uint16,uint16,uint56,uint56)": "6f9e2acb",
    "controller()": "f77c4791",
    "delegateCloner()": "11fa21ad",
    "delegateDeployer()": "8f3d964b",
    "ethAddress()": "41398b15",
    "feeProjectId()": "26c0e4b2",
    "launchProjectFor((address,address,uint88,uint88,uint16,(bool,bool,uint256,uint256,address,uint256,address)[],bool,bool),((string,uint256),(uint256,uint256,uint256,address),((bool,bool,bool),uint256,uint256,uint256,bool,bool,bool,bool,bool,bool,bool,bool,bool,bool,bool,bool,address,uint256),uint256,(uint256,(bool,bool,uint256,uint256,address,uint256,address)[])[],(address,address,uint256,uint256,uint256,uint256)[],address[],string),bool)": "6482c911",
    "lowerFundraiseBoundary()": "20f6a58d",
    "maxK()": "7f67d87e",
    "minK()": "66c29790",
    "owner()": "8da5cb5b",
    "renounceOwnership()": "715018a6",
    "transferOwnership(address)": "f2fde38b",
    "upperFundraiseBoundary()": "631f44bd",
    "usdcAddress()": "02d45457"
  },
  "id": 4
}