{
  "abi": [
    {
      "inputs": [
        {
          "internalType": "contract IBluntDelegateDeployer",
          "name": "_delegateDeployer",
          "type": "address"
        },
        {
          "internalType": "contract IBluntDelegateCloner",
          "name": "_delegateCloner",
          "type": "address"
        },
        {
          "internalType": "contract IJBController",
          "name": "_controller",
          "type": "address"
        },
        {
          "internalType": "contract IJBOperatorStore",
          "name": "_operatorStore",
          "type": "address"
        },
        {
          "internalType": "uint256",
          "name": "_bluntProjectId",
          "type": "uint256"
        },
        {
          "internalType": "address",
          "name": "_ethAddress",
          "type": "address"
        },
        {
          "internalType": "address",
          "name": "_usdcAddress",
          "type": "address"
        },
        {
          "internalType": "uint16",
          "name": "_maxK",
          "type": "uint16"
        },
        {
          "internalType": "uint16",
          "name": "_minK",
          "type": "uint16"
        },
        {
          "internalType": "uint56",
          "name": "_upperFundraiseBoundary",
          "type": "uint56"
        },
        {
          "internalType": "uint56",
          "name": "_lowerFundraiseBoundary",
          "type": "uint56"
        }
      ],
      "stateMutability": "nonpayable",
      "type": "constructor"
    },
    {
      "inputs": [],
      "name": "EXCEEDED_MAX_FEE",
      "type": "error"
    },
    {
      "inputs": [],
      "name": "INVALID_INPUTS",
      "type": "error"
    },
    {
      "inputs": [],
      "name": "INVALID_TOKEN_ISSUANCE",
      "type": "error"
    },
    {
      "inputs": [],
      "name": "UNAUTHORIZED",
      "type": "error"
    },
    {
      "anonymous": false,
      "inputs": [
        {
          "indexed": true,
          "internalType": "address",
          "name": "previousOwner",
          "type": "address"
        },
        {
          "indexed": true,
          "internalType": "address",
          "name": "newOwner",
          "type": "address"
        }
      ],
      "name": "OwnershipTransferred",
      "type": "event"
    },
    {
      "inputs": [
        {
          "internalType": "contract IBluntDelegateDeployer",
          "name": "newDelegateDeployer_",
          "type": "address"
        },
        {
          "internalType": "contract IBluntDelegateCloner",
          "name": "newDelegateCloner_",
          "type": "address"
        }
      ],
      "name": "_setDelegates",
      "outputs": [],
      "stateMutability": "nonpayable",
      "type": "function"
    },
    {
      "inputs": [
        {
          "internalType": "uint16",
          "name": "maxK_",
          "type": "uint16"
        },
        {
          "internalType": "uint16",
          "name": "minK_",
          "type": "uint16"
        },
        {
          "internalType": "uint56",
          "name": "upperFundraiseBoundary_",
          "type": "uint56"
        },
        {
          "internalType": "uint56",
          "name": "lowerFundraiseBoundary_",
          "type": "uint56"
        }
      ],
      "name": "_setFees",
      "outputs": [],
      "stateMutability": "nonpayable",
      "type": "function"
    },
    {
      "inputs": [],
      "name": "bluntProjectId",
      "outputs": [
        {
          "internalType": "uint256",
          "name": "",
          "type": "uint256"
        }
      ],
      "stateMutability": "view",
      "type": "function"
    },
    {
      "inputs": [],
      "name": "controller",
      "outputs": [
        {
          "internalType": "contract IJBController",
          "name": "",
          "type": "address"
        }
      ],
      "stateMutability": "view",
      "type": "function"
    },
    {
      "inputs": [],
      "name": "delegateCloner",
      "outputs": [
        {
          "internalType": "contract IBluntDelegateCloner",
          "name": "",
          "type": "address"
        }
      ],
      "stateMutability": "view",
      "type": "function"
    },
    {
      "inputs": [],
      "name": "delegateDeployer",
      "outputs": [
        {
          "internalType": "contract IBluntDelegateDeployer",
          "name": "",
          "type": "address"
        }
      ],
      "stateMutability": "view",
      "type": "function"
    },
    {
      "inputs": [],
      "name": "ethAddress",
      "outputs": [
        {
          "internalType": "address",
          "name": "",
          "type": "address"
        }
      ],
      "stateMutability": "view",
      "type": "function"
    },
    {
      "inputs": [
        {
          "components": [
            {
              "internalType": "contract IJBDirectory",
              "name": "directory",
              "type": "address"
            },
            {
              "internalType": "address",
              "name": "projectOwner",
              "type": "address"
            },
            {
              "internalType": "uint88",
              "name": "hardcap",
              "type": "uint88"
            },
            {
              "internalType": "uint88",
              "name": "target",
              "type": "uint88"
            },
            {
              "internalType": "uint16",
              "name": "afterRoundReservedRate",
              "type": "uint16"
            },
            {
              "components": [
                {
                  "internalType": "bool",
                  "name": "preferClaimed",
                  "type": "bool"
                },
                {
                  "internalType": "bool",
                  "name": "preferAddToBalance",
                  "type": "bool"
                },
                {
                  "internalType": "uint256",
                  "name": "percent",
                  "type": "uint256"
                },
                {
                  "internalType": "uint256",
                  "name": "projectId",
                  "type": "uint256"
                },
                {
                  "internalType": "address payable",
                  "name": "beneficiary",
                  "type": "address"
                },
                {
                  "internalType": "uint256",
                  "name": "lockedUntil",
                  "type": "uint256"
                },
                {
                  "internalType": "contract IJBSplitAllocator",
                  "name": "allocator",
                  "type": "address"
                }
              ],
              "internalType": "struct JBSplit[]",
              "name": "afterRoundSplits",
              "type": "tuple[]"
            },
            {
              "internalType": "bool",
              "name": "isTargetUsd",
              "type": "bool"
            },
            {
              "internalType": "bool",
              "name": "isHardcapUsd",
              "type": "bool"
            }
          ],
          "internalType": "struct DeployBluntDelegateData",
          "name": "_deployBluntDelegateData",
          "type": "tuple"
        },
        {
          "components": [
            {
              "components": [
                {
                  "internalType": "string",
                  "name": "content",
                  "type": "string"
                },
                {
                  "internalType": "uint256",
                  "name": "domain",
                  "type": "uint256"
                }
              ],
              "internalType": "struct JBProjectMetadata",
              "name": "projectMetadata",
              "type": "tuple"
            },
            {
              "components": [
                {
                  "internalType": "uint256",
                  "name": "duration",
                  "type": "uint256"
                },
                {
                  "internalType": "uint256",
                  "name": "weight",
                  "type": "uint256"
                },
                {
                  "internalType": "uint256",
                  "name": "discountRate",
                  "type": "uint256"
                },
                {
                  "internalType": "contract IJBFundingCycleBallot",
                  "name": "ballot",
                  "type": "address"
                }
              ],
              "internalType": "struct JBFundingCycleData",
              "name": "data",
              "type": "tuple"
            },
            {
              "components": [
                {
                  "components": [
                    {
                      "internalType": "bool",
                      "name": "allowSetTerminals",
                      "type": "bool"
                    },
                    {
                      "internalType": "bool",
                      "name": "allowSetController",
                      "type": "bool"
                    },
                    {
                      "internalType": "bool",
                      "name": "pauseTransfers",
                      "type": "bool"
                    }
                  ],
                  "internalType": "struct JBGlobalFundingCycleMetadata",
                  "name": "global",
                  "type": "tuple"
                },
                {
                  "internalType": "uint256",
                  "name": "reservedRate",
                  "type": "uint256"
                },
                {
                  "internalType": "uint256",
                  "name": "redemptionRate",
                  "type": "uint256"
                },
                {
                  "internalType": "uint256",
                  "name": "ballotRedemptionRate",
                  "type": "uint256"
                },
                {
                  "internalType": "bool",
                  "name": "pausePay",
                  "type": "bool"
                },
                {
                  "internalType": "bool",
                  "name": "pauseDistributions",
                  "type": "bool"
                },
                {
                  "internalType": "bool",
                  "name": "pauseRedeem",
                  "type": "bool"
                },
                {
                  "internalType": "bool",
                  "name": "pauseBurn",
                  "type": "bool"
                },
                {
                  "internalType": "bool",
                  "name": "allowMinting",
                  "type": "bool"
                },
                {
                  "internalType": "bool",
                  "name": "allowTerminalMigration",
                  "type": "bool"
                },
                {
                  "internalType": "bool",
                  "name": "allowControllerMigration",
                  "type": "bool"
                },
                {
                  "internalType": "bool",
                  "name": "holdFees",
                  "type": "bool"
                },
                {
                  "internalType": "bool",
                  "name": "preferClaimedTokenOverride",
                  "type": "bool"
                },
                {
                  "internalType": "bool",
                  "name": "useTotalOverflowForRedemptions",
                  "type": "bool"
                },
                {
                  "internalType": "bool",
                  "name": "useDataSourceForPay",
                  "type": "bool"
                },
                {
                  "internalType": "bool",
                  "name": "useDataSourceForRedeem",
                  "type": "bool"
                },
                {
                  "internalType": "address",
                  "name": "dataSource",
                  "type": "address"
                },
                {
                  "internalType": "uint256",
                  "name": "metadata",
                  "type": "uint256"
                }
              ],
              "internalType": "struct JBFundingCycleMetadata",
              "name": "metadata",
              "type": "tuple"
            },
            {
              "internalType": "uint256",
              "name": "mustStartAtOrAfter",
              "type": "uint256"
            },
            {
              "components": [
                {
                  "internalType": "uint256",
                  "name": "group",
                  "type": "uint256"
                },
                {
                  "components": [
                    {
                      "internalType": "bool",
                      "name": "preferClaimed",
                      "type": "bool"
                    },
                    {
                      "internalType": "bool",
                      "name": "preferAddToBalance",
                      "type": "bool"
                    },
                    {
                      "internalType": "uint256",
                      "name": "percent",
                      "type": "uint256"
                    },
                    {
                      "internalType": "uint256",
                      "name": "projectId",
                      "type": "uint256"
                    },
                    {
                      "internalType": "address payable",
                      "name": "beneficiary",
                      "type": "address"
                    },
                    {
                      "internalType": "uint256",
                      "name": "lockedUntil",
                      "type": "uint256"
                    },
                    {
                      "internalType": "contract IJBSplitAllocator",
                      "name": "allocator",
                      "type": "address"
                    }
                  ],
                  "internalType": "struct JBSplit[]",
                  "name": "splits",
                  "type": "tuple[]"
                }
              ],
              "internalType": "struct JBGroupedSplits[]",
              "name": "groupedSplits",
              "type": "tuple[]"
            },
            {
              "components": [
                {
                  "internalType": "contract IJBPaymentTerminal",
                  "name": "terminal",
                  "type": "address"
                },
                {
                  "internalType": "address",
                  "name": "token",
                  "type": "address"
                },
                {
                  "internalType": "uint256",
                  "name": "distributionLimit",
                  "type": "uint256"
                },
                {
                  "internalType": "uint256",
                  "name": "distributionLimitCurrency",
                  "type": "uint256"
                },
                {
                  "internalType": "uint256",
                  "name": "overflowAllowance",
                  "type": "uint256"
                },
                {
                  "internalType": "uint256",
                  "name": "overflowAllowanceCurrency",
                  "type": "uint256"
                }
              ],
              "internalType": "struct JBFundAccessConstraints[]",
              "name": "fundAccessConstraints",
              "type": "tuple[]"
            },
            {
              "internalType": "contract IJBPaymentTerminal[]",
              "name": "terminals",
              "type": "address[]"
            },
            {
              "internalType": "string",
              "name": "memo",
              "type": "string"
            }
          ],
          "internalType": "struct JBLaunchProjectData",
          "name": "_launchProjectData",
          "type": "tuple"
        },
        {
          "internalType": "bool",
          "name": "_clone",
          "type": "bool"
        }
      ],
      "name": "launchProjectFor",
      "outputs": [
        {
          "internalType": "uint256",
          "name": "projectId",
          "type": "uint256"
        }
      ],
      "stateMutability": "nonpayable",
      "type": "function"
    },
    {
      "inputs": [],
      "name": "lowerFundraiseBoundary",
      "outputs": [
        {
          "internalType": "uint56",
          "name": "",
          "type": "uint56"
        }
      ],
      "stateMutability": "view",
      "type": "function"
    },
    {
      "inputs": [],
      "name": "maxK",
      "outputs": [
        {
          "internalType": "uint16",
          "name": "",
          "type": "uint16"
        }
      ],
      "stateMutability": "view",
      "type": "function"
    },
    {
      "inputs": [],
      "name": "minK",
      "outputs": [
        {
          "internalType": "uint16",
          "name": "",
          "type": "uint16"
        }
      ],
      "stateMutability": "view",
      "type": "function"
    },
    {
      "inputs": [],
      "name": "operatorStore",
      "outputs": [
        {
          "internalType": "contract IJBOperatorStore",
          "name": "",
          "type": "address"
        }
      ],
      "stateMutability": "view",
      "type": "function"
    },
    {
      "inputs": [],
      "name": "owner",
      "outputs": [
        {
          "internalType": "address",
          "name": "",
          "type": "address"
        }
      ],
      "stateMutability": "view",
      "type": "function"
    },
    {
      "inputs": [],
      "name": "renounceOwnership",
      "outputs": [],
      "stateMutability": "nonpayable",
      "type": "function"
    },
    {
      "inputs": [
        {
          "internalType": "address",
          "name": "newOwner",
          "type": "address"
        }
      ],
      "name": "transferOwnership",
      "outputs": [],
      "stateMutability": "nonpayable",
      "type": "function"
    },
    {
      "inputs": [],
      "name": "upperFundraiseBoundary",
      "outputs": [
        {
          "internalType": "uint56",
          "name": "",
          "type": "uint56"
        }
      ],
      "stateMutability": "view",
      "type": "function"
    },
    {
      "inputs": [],
      "name": "usdcAddress",
      "outputs": [
        {
          "internalType": "address",
          "name": "",
          "type": "address"
        }
      ],
      "stateMutability": "view",
      "type": "function"
    }
  ],
  "bytecode": {
    "object": "0x6101206040523480156200001257600080fd5b506040516200230e3803806200230e8339810160408190526200003591620001ad565b6001600160a01b0388166080526200004d3362000114565b60018054600280546001600160a01b0319166001600160a01b039d8e16179055998b166101005260e09790975294891660a05292881660c0526000805463ffffffff60a01b1916600160a01b61ffff9485160261ffff60b01b191617600160b01b92909316919091029190911766ffffffffffffff60c01b1916600160c01b66ffffffffffffff938416021790556001600160d81b0319909416670100000000000000969095169590950266ffffffffffffff191693909317919093161790555062000298565b600080546001600160a01b038381166001600160a01b0319831681178455604051919092169283917f8be0079c531659141344cd1fd0a4f28419497f9722a3daafe3b4186f6b6457e09190a35050565b6001600160a01b03811681146200017a57600080fd5b50565b805161ffff811681146200019057600080fd5b919050565b805166ffffffffffffff811681146200019057600080fd5b60008060008060008060008060008060006101608c8e031215620001d057600080fd5b8b51620001dd8162000164565b60208d0151909b50620001f08162000164565b60408d0151909a50620002038162000164565b60608d0151909950620002168162000164565b60808d015160a08e01519199509750620002308162000164565b60c08d0151909650620002438162000164565b94506200025360e08d016200017d565b9350620002646101008d016200017d565b9250620002756101208d0162000195565b9150620002866101408d0162000195565b90509295989b509295989b9093969950565b60805160a05160c05160e05161010051612007620003076000396000818161037301528181610399015281816104c10152610b3001526000818161034c01526104ed015260008181610125015261055c0152600081816101c10152610534015260006102ff01526120076000f3fe608060405234801561001057600080fd5b506004361061011b5760003560e01c8063715018a6116100b2578063ad007d6311610081578063f2fde38b11610066578063f2fde38b14610334578063f5434b5d14610347578063f77c47911461036e57600080fd5b8063ad007d63146102fa578063cbd6a5281461032157600080fd5b8063715018a6146102835780637f67d87e1461028b5780638da5cb5b146102b15780638f3d964b146102cf57600080fd5b8063631f44bd116100ee578063631f44bd146101e35780636482c9111461021257806366c29790146102335780636f9e2acb1461026e57600080fd5b806302d454571461012057806311fa21ad1461017157806320f6a58d1461019157806341398b15146101bc575b600080fd5b6101477f000000000000000000000000000000000000000000000000000000000000000081565b60405173ffffffffffffffffffffffffffffffffffffffff90911681526020015b60405180910390f35b6002546101479073ffffffffffffffffffffffffffffffffffffffff1681565b6001546101a49066ffffffffffffff1681565b60405166ffffffffffffff9091168152602001610168565b6101477f000000000000000000000000000000000000000000000000000000000000000081565b6000546101a4907801000000000000000000000000000000000000000000000000900466ffffffffffffff1681565b6102256102203660046116fd565b610395565b604051908152602001610168565b60005461025b90760100000000000000000000000000000000000000000000900461ffff1681565b60405161ffff9091168152602001610168565b61028161027c36600461182e565b610773565b005b610281610921565b60005461025b9074010000000000000000000000000000000000000000900461ffff1681565b60005473ffffffffffffffffffffffffffffffffffffffff16610147565b60015461014790670100000000000000900473ffffffffffffffffffffffffffffffffffffffff1681565b6101477f000000000000000000000000000000000000000000000000000000000000000081565b61028161032f366004611882565b610935565b6102816103423660046118bb565b6109b7565b6102257f000000000000000000000000000000000000000000000000000000000000000081565b6101477f000000000000000000000000000000000000000000000000000000000000000081565b60007f000000000000000000000000000000000000000000000000000000000000000073ffffffffffffffffffffffffffffffffffffffff16638b79543c6040518163ffffffff1660e01b8152600401602060405180830381865afa158015610402573d6000803e3d6000fd5b505050506040513d601f19601f8201168201806040525081019061042691906118df565b73ffffffffffffffffffffffffffffffffffffffff166306661abd6040518163ffffffff1660e01b8152600401602060405180830381865afa158015610470573d6000803e3d6000fd5b505050506040513d601f19601f8201168201806040525081019061049491906118fc565b61049f906001611915565b604080516101408101825273ffffffffffffffffffffffffffffffffffffffff7f00000000000000000000000000000000000000000000000000000000000000008116825265ffffffffffff7f0000000000000000000000000000000000000000000000000000000000000000811660208085019190915290851693830193909352918601515164ffffffffff1660608201527f0000000000000000000000000000000000000000000000000000000000000000821660808201527f000000000000000000000000000000000000000000000000000000000000000090911660a08201526000805461ffff740100000000000000000000000000000000000000008204811660c085015276010000000000000000000000000000000000000000000082041660e084015266ffffffffffffff78010000000000000000000000000000000000000000000000009091048116610100840152600154166101208301529192509083156106ac576002546040517f227e767c00000000000000000000000000000000000000000000000000000000815273ffffffffffffffffffffffffffffffffffffffff9091169063227e767c906106629085908a90600401611a9b565b6020604051808303816000875af1158015610681573d6000803e3d6000fd5b505050506040513d601f19601f820116820180604052508101906106a591906118df565b9050610754565b6001546040517f227e767c00000000000000000000000000000000000000000000000000000000815267010000000000000090910473ffffffffffffffffffffffffffffffffffffffff169063227e767c9061070e9085908a90600401611a9b565b6020604051808303816000875af115801561072d573d6000803e3d6000fd5b505050506040513d601f19601f8201168201806040525081019061075191906118df565b90505b61075e8582610a73565b945061076a8186610b2e565b50509392505050565b61077b610bff565b6101f48461ffff1611156107bb576040517fe0ab694100000000000000000000000000000000000000000000000000000000815260040160405180910390fd5b8361ffff168361ffff1611806107e257508166ffffffffffffff168166ffffffffffffff16115b15610819576040517f0c8d1b0a00000000000000000000000000000000000000000000000000000000815260040160405180910390fd5b600080547fffffffffffffffff00000000ffffffffffffffffffffffffffffffffffffffff167401000000000000000000000000000000000000000061ffff968716027fffffffffffffffff0000ffffffffffffffffffffffffffffffffffffffffffff16177601000000000000000000000000000000000000000000009490951693909302939093177fff00000000000000ffffffffffffffffffffffffffffffffffffffffffffffff16780100000000000000000000000000000000000000000000000066ffffffffffffff9283160217909155600180547fffffffffffffffffffffffffffffffffffffffffffffffffff000000000000001692909116919091179055565b610929610bff565b6109336000610c80565b565b61093d610bff565b600180547fffffffffff0000000000000000000000000000000000000000ffffffffffffff1667010000000000000073ffffffffffffffffffffffffffffffffffffffff94851602179055600280547fffffffffffffffffffffffff00000000000000000000000000000000000000001691909216179055565b6109bf610bff565b73ffffffffffffffffffffffffffffffffffffffff8116610a67576040517f08c379a000000000000000000000000000000000000000000000000000000000815260206004820152602660248201527f4f776e61626c653a206e6577206f776e657220697320746865207a65726f206160448201527f646472657373000000000000000000000000000000000000000000000000000060648201526084015b60405180910390fd5b610a7081610c80565b50565b610a7b610cf5565b826020015160200151600003610abd576040517fbc11a31500000000000000000000000000000000000000000000000000000000815260040160405180910390fd5b506040808301805173ffffffffffffffffffffffffffffffffffffffff841661020090910152805160016101c090910181905281516101e0018190528151600060c0909101819052825161271090850152915151909201919091526020830180516060018290525152815b92915050565b7f000000000000000000000000000000000000000000000000000000000000000073ffffffffffffffffffffffffffffffffffffffff1663b3c5267383836000015184602001518560400151866060015187608001518860a001518960c001518a60e001516040518a63ffffffff1660e01b8152600401610bb799989796959493929190611ecf565b6020604051808303816000875af1158015610bd6573d6000803e3d6000fd5b505050506040513d601f19601f82011682018060405250810190610bfa91906118fc565b505050565b60005473ffffffffffffffffffffffffffffffffffffffff163314610933576040517f08c379a000000000000000000000000000000000000000000000000000000000815260206004820181905260248201527f4f776e61626c653a2063616c6c6572206973206e6f7420746865206f776e65726044820152606401610a5e565b6000805473ffffffffffffffffffffffffffffffffffffffff8381167fffffffffffffffffffffffff0000000000000000000000000000000000000000831681178455604051919092169283917f8be0079c531659141344cd1fd0a4f28419497f9722a3daafe3b4186f6b6457e09190a35050565b60408051610140810190915260606101008201908152600061012083015281908152602001610d5b6040518060800160405280600081526020016000815260200160008152602001600073ffffffffffffffffffffffffffffffffffffffff1681525090565b8152604080516102a081018252600061024082018181526102608301829052610280830182905282526020828101829052928201819052606082018190526080820181905260a0820181905260c0820181905260e08201819052610100820181905261012082018190526101408201819052610160820181905261018082018190526101a082018190526101c082018190526101e082018190526102008201819052610220820152910190815260200160008152602001606081526020016060815260200160608152602001606081525090565b7f4e487b7100000000000000000000000000000000000000000000000000000000600052604160045260246000fd5b60405160e0810167ffffffffffffffff81118282101715610e8157610e81610e2f565b60405290565b6040805190810167ffffffffffffffff81118282101715610e8157610e81610e2f565b604051610240810167ffffffffffffffff81118282101715610e8157610e81610e2f565b60405160c0810167ffffffffffffffff81118282101715610e8157610e81610e2f565b604051610100810167ffffffffffffffff81118282101715610e8157610e81610e2f565b604051601f82017fffffffffffffffffffffffffffffffffffffffffffffffffffffffffffffffe016810167ffffffffffffffff81118282101715610f5c57610f5c610e2f565b604052919050565b73ffffffffffffffffffffffffffffffffffffffff81168114610a7057600080fd5b8035610f9181610f64565b919050565b80356affffffffffffffffffffff81168114610f9157600080fd5b803561ffff81168114610f9157600080fd5b600067ffffffffffffffff821115610fdd57610fdd610e2f565b5060051b60200190565b80358015158114610f9157600080fd5b600082601f83011261100857600080fd5b8135602061101d61101883610fc3565b610f15565b82815260e0928302850182019282820191908785111561103c57600080fd5b8387015b858110156110cb5781818a0312156110585760008081fd5b611060610e5e565b61106982610fe7565b8152611076868301610fe7565b81870152604082810135908201526060808301359082015260808083013561109d81610f64565b9082015260a0828101359082015260c0808301356110ba81610f64565b908201528452928401928101611040565b5090979650505050505050565b600082601f8301126110e957600080fd5b813567ffffffffffffffff81111561110357611103610e2f565b61113460207fffffffffffffffffffffffffffffffffffffffffffffffffffffffffffffffe0601f84011601610f15565b81815284602083860101111561114957600080fd5b816020850160208301376000918101602001919091529392505050565b60006040828403121561117857600080fd5b611180610e87565b9050813567ffffffffffffffff81111561119957600080fd5b6111a5848285016110d8565b8252506020820135602082015292915050565b6000608082840312156111ca57600080fd5b6040516080810181811067ffffffffffffffff821117156111ed576111ed610e2f565b8060405250809150823581526020830135602082015260408301356040820152606083013561121b81610f64565b6060919091015292915050565b60006060828403121561123a57600080fd5b6040516060810181811067ffffffffffffffff8211171561125d5761125d610e2f565b60405290508061126c83610fe7565b815261127a60208401610fe7565b602082015261128b60408401610fe7565b60408201525092915050565b600061028082840312156112aa57600080fd5b6112b2610eaa565b90506112be8383611228565b8152606082013560208201526080820135604082015260a082013560608201526112ea60c08301610fe7565b60808201526112fb60e08301610fe7565b60a082015261010061130e818401610fe7565b60c0830152610120611321818501610fe7565b60e0840152610140611334818601610fe7565b838501526101609250611348838601610fe7565b82850152610180915061135c828601610fe7565b908401526101a061136e858201610fe7565b838501526101c09250611382838601610fe7565b828501526101e09150611396828601610fe7565b908401526102006113a8858201610fe7565b8385015261022092506113bc838601610fe7565b828501526113cd6102408601610f86565b818501525050610260830135818301525092915050565b600082601f8301126113f557600080fd5b8135602061140561101883610fc3565b82815260059290921b8401810191818101908684111561142457600080fd5b8286015b848110156114c557803567ffffffffffffffff808211156114495760008081fd5b81890191506040807fffffffffffffffffffffffffffffffffffffffffffffffffffffffffffffffe0848d030112156114825760008081fd5b61148a610e87565b8388013581529083013590828211156114a35760008081fd5b6114b18c8984870101610ff7565b818901528652505050918301918301611428565b509695505050505050565b600082601f8301126114e157600080fd5b813560206114f161101883610fc3565b82815260c0928302850182019282820191908785111561151057600080fd5b8387015b858110156110cb5781818a03121561152c5760008081fd5b611534610ece565b813561153f81610f64565b81528186013561154e81610f64565b8187015260408281013590820152606080830135908201526080808301359082015260a080830135908201528452928401928101611514565b600082601f83011261159857600080fd5b813560206115a861101883610fc3565b82815260059290921b840181019181810190868411156115c757600080fd5b8286015b848110156114c55780356115de81610f64565b83529183019183016115cb565b60006103c082840312156115fe57600080fd5b611606610ef1565b9050813567ffffffffffffffff8082111561162057600080fd5b61162c85838601611166565b835261163b85602086016111b8565b602084015261164d8560a08601611297565b6040840152610320840135606084015261034084013591508082111561167257600080fd5b61167e858386016113e4565b608084015261036084013591508082111561169857600080fd5b6116a4858386016114d0565b60a08401526103808401359150808211156116be57600080fd5b6116ca85838601611587565b60c08401526103a08401359150808211156116e457600080fd5b506116f1848285016110d8565b60e08301525092915050565b60008060006060848603121561171257600080fd5b833567ffffffffffffffff8082111561172a57600080fd5b90850190610100828803121561173f57600080fd5b611747610ef1565b61175083610f86565b815261175e60208401610f86565b602082015261176f60408401610f96565b604082015261178060608401610f96565b606082015261179160808401610fb1565b608082015260a0830135828111156117a857600080fd5b6117b489828601610ff7565b60a0830152506117c660c08401610fe7565b60c08201526117d760e08401610fe7565b60e0820152945060208601359150808211156117f257600080fd5b506117ff868287016115eb565b92505061180e60408501610fe7565b90509250925092565b803566ffffffffffffff81168114610f9157600080fd5b6000806000806080858703121561184457600080fd5b61184d85610fb1565b935061185b60208601610fb1565b925061186960408601611817565b915061187760608601611817565b905092959194509250565b6000806040838503121561189557600080fd5b82356118a081610f64565b915060208301356118b081610f64565b809150509250929050565b6000602082840312156118cd57600080fd5b81356118d881610f64565b9392505050565b6000602082840312156118f157600080fd5b81516118d881610f64565b60006020828403121561190e57600080fd5b5051919050565b80820180821115610b28577f4e487b7100000000000000000000000000000000000000000000000000000000600052601160045260246000fd5b600081518084526020808501945080840160005b838110156119dd57815180511515885283810151151584890152604080820151908901526060808201519089015260808082015173ffffffffffffffffffffffffffffffffffffffff908116918a019190915260a080830151908a015260c091820151169088015260e09096019590820190600101611963565b509495945050505050565b600061010073ffffffffffffffffffffffffffffffffffffffff8084511685528060208501511660208601525060408301516affffffffffffffffffffff808216604087015280606086015116606087015250506080830151611a51608086018261ffff169052565b5060a08301518160a0860152611a698286018261194f565b91505060c0830151611a7f60c086018215159052565b5060e0830151611a9360e086018215159052565b509392505050565b825173ffffffffffffffffffffffffffffffffffffffff16815260006101606020850151611ad3602085018265ffffffffffff169052565b506040850151611aed604085018265ffffffffffff169052565b506060850151611b06606085018264ffffffffff169052565b506080850151611b2e608085018273ffffffffffffffffffffffffffffffffffffffff169052565b5060a0850151611b5660a085018273ffffffffffffffffffffffffffffffffffffffff169052565b5060c0850151611b6c60c085018261ffff169052565b5060e0850151611b8260e085018261ffff169052565b506101008581015166ffffffffffffff81168583015250506101208581015166ffffffffffffff811685830152505080610140840152611bc4818401856119e8565b95945050505050565b6000815180845260005b81811015611bf357602081850181015186830182015201611bd7565b5060006020828601015260207fffffffffffffffffffffffffffffffffffffffffffffffffffffffffffffffe0601f83011685010191505092915050565b611c568282518051151582526020808201511515908301526040908101511515910152565b6020810151606083015260408101516080830152606081015160a08301526080810151611c8760c084018215159052565b5060a081015180151560e08401525060c0810151610100611cab8185018315159052565b60e08301519150610120611cc28186018415159052565b90830151915061014090611cd98583018415159052565b8301519150610160611cee8582018415159052565b90830151915061018090611d058583018415159052565b83015191506101a0611d1a8582018415159052565b9083015191506101c090611d318583018415159052565b83015191506101e0611d468582018415159052565b90830151915061020090611d5d8583018415159052565b8301519150610220611d728582018415159052565b9083015173ffffffffffffffffffffffffffffffffffffffff16610240850152909101516102609092019190915250565b600081518084526020808501808196508360051b8101915082860160005b85811015611dff5782840389528151805185528501516040868601819052611deb8187018361194f565b9a87019a9550505090840190600101611dc1565b5091979650505050505050565b600081518084526020808501945080840160005b838110156119dd578151805173ffffffffffffffffffffffffffffffffffffffff908116895284820151168489015260408082015190890152606080820151908901526080808201519089015260a0908101519088015260c09096019590820190600101611e20565b600081518084526020808501945080840160005b838110156119dd57815173ffffffffffffffffffffffffffffffffffffffff1687529582019590820190600101611e9d565b60006103e073ffffffffffffffffffffffffffffffffffffffff8c1683528060208401528a51604082850152611f09610420850182611bcd565b91505060208b0151610400840152611f5b604084018b80518252602081015160208301526040810151604083015273ffffffffffffffffffffffffffffffffffffffff60608201511660608301525050565b611f6860c084018a611c31565b87610340840152828103610360840152611f828188611da3565b9050828103610380840152611f978187611e0c565b90508281036103a0840152611fac8186611e89565b90508281036103c0840152611fc18185611bcd565b9c9b50505050505050505050505056fea2646970667358221220ddc853af82a1075a69768c5ea30c7e0965cbbe8d33ae8a5374f73258efa63e9e64736f6c63430008110033",
    "linkReferences": {}
  },
  "methodIdentifiers": {
    "_setDelegates(address,address)": "cbd6a528",
    "_setFees(uint16,uint16,uint56,uint56)": "6f9e2acb",
    "bluntProjectId()": "f5434b5d",
    "controller()": "f77c4791",
    "delegateCloner()": "11fa21ad",
    "delegateDeployer()": "8f3d964b",
    "ethAddress()": "41398b15",
    "launchProjectFor((address,address,uint88,uint88,uint16,(bool,bool,uint256,uint256,address,uint256,address)[],bool,bool),((string,uint256),(uint256,uint256,uint256,address),((bool,bool,bool),uint256,uint256,uint256,bool,bool,bool,bool,bool,bool,bool,bool,bool,bool,bool,bool,address,uint256),uint256,(uint256,(bool,bool,uint256,uint256,address,uint256,address)[])[],(address,address,uint256,uint256,uint256,uint256)[],address[],string),bool)": "6482c911",
    "lowerFundraiseBoundary()": "20f6a58d",
    "maxK()": "7f67d87e",
    "minK()": "66c29790",
    "operatorStore()": "ad007d63",
    "owner()": "8da5cb5b",
    "renounceOwnership()": "715018a6",
    "transferOwnership(address)": "f2fde38b",
    "upperFundraiseBoundary()": "631f44bd",
    "usdcAddress()": "02d45457"
  },
  "id": 4
}