{
  "abi": [
    {
      "inputs": [
        {
          "internalType": "address",
          "name": "deployer",
          "type": "address"
        },
        {
          "internalType": "contract IBluntDelegateCloner",
          "name": "_delegateCloner",
          "type": "address"
        },
        {
          "internalType": "contract IJBController3_1",
          "name": "_controller",
          "type": "address"
        },
        {
          "internalType": "uint256",
          "name": "_feeProjectId",
          "type": "uint256"
        },
        {
          "internalType": "address",
          "name": "_ethAddress",
          "type": "address"
        },
        {
          "internalType": "address",
          "name": "_usdcAddress",
          "type": "address"
        },
        {
          "internalType": "uint16",
          "name": "_maxK",
          "type": "uint16"
        },
        {
          "internalType": "uint16",
          "name": "_minK",
          "type": "uint16"
        },
        {
          "internalType": "uint56",
          "name": "_upperFundraiseBoundary",
          "type": "uint56"
        },
        {
          "internalType": "uint56",
          "name": "_lowerFundraiseBoundary",
          "type": "uint56"
        }
      ],
      "stateMutability": "nonpayable",
      "type": "constructor"
    },
    {
      "inputs": [],
      "name": "EXCEEDED_MAX_FEE",
      "type": "error"
    },
    {
      "inputs": [],
      "name": "INVALID_INPUTS",
      "type": "error"
    },
    {
      "inputs": [],
      "name": "INVALID_TOKEN_ISSUANCE",
      "type": "error"
    },
    {
      "anonymous": false,
      "inputs": [
        {
          "indexed": true,
          "internalType": "address",
          "name": "previousOwner",
          "type": "address"
        },
        {
          "indexed": true,
          "internalType": "address",
          "name": "newOwner",
          "type": "address"
        }
      ],
      "name": "OwnershipTransferred",
      "type": "event"
    },
    {
      "inputs": [
        {
          "internalType": "contract IBluntDelegateCloner",
          "name": "newDelegateCloner_",
          "type": "address"
        }
      ],
      "name": "_setDeployer",
      "outputs": [],
      "stateMutability": "nonpayable",
      "type": "function"
    },
    {
      "inputs": [
        {
          "internalType": "uint16",
          "name": "maxK_",
          "type": "uint16"
        },
        {
          "internalType": "uint16",
          "name": "minK_",
          "type": "uint16"
        },
        {
          "internalType": "uint56",
          "name": "upperFundraiseBoundary_",
          "type": "uint56"
        },
        {
          "internalType": "uint56",
          "name": "lowerFundraiseBoundary_",
          "type": "uint56"
        }
      ],
      "name": "_setFees",
      "outputs": [],
      "stateMutability": "nonpayable",
      "type": "function"
    },
    {
      "inputs": [],
      "name": "controller",
      "outputs": [
        {
          "internalType": "contract IJBController3_1",
          "name": "",
          "type": "address"
        }
      ],
      "stateMutability": "view",
      "type": "function"
    },
    {
      "inputs": [],
      "name": "delegateCloner",
      "outputs": [
        {
          "internalType": "contract IBluntDelegateCloner",
          "name": "",
          "type": "address"
        }
      ],
      "stateMutability": "view",
      "type": "function"
    },
    {
      "inputs": [],
      "name": "ethAddress",
      "outputs": [
        {
          "internalType": "address",
          "name": "",
          "type": "address"
        }
      ],
      "stateMutability": "view",
      "type": "function"
    },
    {
      "inputs": [],
      "name": "feeProjectId",
      "outputs": [
        {
          "internalType": "uint256",
          "name": "",
          "type": "uint256"
        }
      ],
      "stateMutability": "view",
      "type": "function"
    },
    {
      "inputs": [
        {
          "components": [
            {
              "internalType": "contract IJBDirectory",
              "name": "directory",
              "type": "address"
            },
            {
              "internalType": "address",
              "name": "projectOwner",
              "type": "address"
            },
            {
              "internalType": "uint88",
              "name": "hardcap",
              "type": "uint88"
            },
            {
              "internalType": "uint88",
              "name": "target",
              "type": "uint88"
            },
            {
              "internalType": "bool",
              "name": "isTargetUsd",
              "type": "bool"
            },
            {
              "internalType": "bool",
              "name": "isHardcapUsd",
              "type": "bool"
            },
            {
              "internalType": "string",
              "name": "tokenName",
              "type": "string"
            },
            {
              "internalType": "string",
              "name": "tokenSymbol",
              "type": "string"
            }
          ],
          "internalType": "struct DeployBluntDelegateData",
          "name": "_deployBluntDelegateData",
          "type": "tuple"
        },
        {
          "components": [
            {
              "components": [
                {
                  "internalType": "string",
                  "name": "content",
                  "type": "string"
                },
                {
                  "internalType": "uint256",
                  "name": "domain",
                  "type": "uint256"
                }
              ],
              "internalType": "struct JBProjectMetadata",
              "name": "projectMetadata",
              "type": "tuple"
            },
            {
              "components": [
                {
                  "internalType": "uint256",
                  "name": "duration",
                  "type": "uint256"
                },
                {
                  "internalType": "uint256",
                  "name": "weight",
                  "type": "uint256"
                },
                {
                  "internalType": "uint256",
                  "name": "discountRate",
                  "type": "uint256"
                },
                {
                  "internalType": "contract IJBFundingCycleBallot",
                  "name": "ballot",
                  "type": "address"
                }
              ],
              "internalType": "struct JBFundingCycleData",
              "name": "data",
              "type": "tuple"
            },
            {
              "components": [
                {
                  "components": [
                    {
                      "internalType": "bool",
                      "name": "allowSetTerminals",
                      "type": "bool"
                    },
                    {
                      "internalType": "bool",
                      "name": "allowSetController",
                      "type": "bool"
                    },
                    {
                      "internalType": "bool",
                      "name": "pauseTransfers",
                      "type": "bool"
                    }
                  ],
                  "internalType": "struct JBGlobalFundingCycleMetadata",
                  "name": "global",
                  "type": "tuple"
                },
                {
                  "internalType": "uint256",
                  "name": "reservedRate",
                  "type": "uint256"
                },
                {
                  "internalType": "uint256",
                  "name": "redemptionRate",
                  "type": "uint256"
                },
                {
                  "internalType": "uint256",
                  "name": "ballotRedemptionRate",
                  "type": "uint256"
                },
                {
                  "internalType": "bool",
                  "name": "pausePay",
                  "type": "bool"
                },
                {
                  "internalType": "bool",
                  "name": "pauseDistributions",
                  "type": "bool"
                },
                {
                  "internalType": "bool",
                  "name": "pauseRedeem",
                  "type": "bool"
                },
                {
                  "internalType": "bool",
                  "name": "pauseBurn",
                  "type": "bool"
                },
                {
                  "internalType": "bool",
                  "name": "allowMinting",
                  "type": "bool"
                },
                {
                  "internalType": "bool",
                  "name": "allowTerminalMigration",
                  "type": "bool"
                },
                {
                  "internalType": "bool",
                  "name": "allowControllerMigration",
                  "type": "bool"
                },
                {
                  "internalType": "bool",
                  "name": "holdFees",
                  "type": "bool"
                },
                {
                  "internalType": "bool",
                  "name": "preferClaimedTokenOverride",
                  "type": "bool"
                },
                {
                  "internalType": "bool",
                  "name": "useTotalOverflowForRedemptions",
                  "type": "bool"
                },
                {
                  "internalType": "bool",
                  "name": "useDataSourceForPay",
                  "type": "bool"
                },
                {
                  "internalType": "bool",
                  "name": "useDataSourceForRedeem",
                  "type": "bool"
                },
                {
                  "internalType": "address",
                  "name": "dataSource",
                  "type": "address"
                },
                {
                  "internalType": "uint256",
                  "name": "metadata",
                  "type": "uint256"
                }
              ],
              "internalType": "struct JBFundingCycleMetadata",
              "name": "metadata",
              "type": "tuple"
            },
            {
              "internalType": "uint256",
              "name": "mustStartAtOrAfter",
              "type": "uint256"
            },
            {
              "components": [
                {
                  "internalType": "uint256",
                  "name": "group",
                  "type": "uint256"
                },
                {
                  "components": [
                    {
                      "internalType": "bool",
                      "name": "preferClaimed",
                      "type": "bool"
                    },
                    {
                      "internalType": "bool",
                      "name": "preferAddToBalance",
                      "type": "bool"
                    },
                    {
                      "internalType": "uint256",
                      "name": "percent",
                      "type": "uint256"
                    },
                    {
                      "internalType": "uint256",
                      "name": "projectId",
                      "type": "uint256"
                    },
                    {
                      "internalType": "address payable",
                      "name": "beneficiary",
                      "type": "address"
                    },
                    {
                      "internalType": "uint256",
                      "name": "lockedUntil",
                      "type": "uint256"
                    },
                    {
                      "internalType": "contract IJBSplitAllocator",
                      "name": "allocator",
                      "type": "address"
                    }
                  ],
                  "internalType": "struct JBSplit[]",
                  "name": "splits",
                  "type": "tuple[]"
                }
              ],
              "internalType": "struct JBGroupedSplits[]",
              "name": "groupedSplits",
              "type": "tuple[]"
            },
            {
              "components": [
                {
                  "internalType": "contract IJBPaymentTerminal",
                  "name": "terminal",
                  "type": "address"
                },
                {
                  "internalType": "address",
                  "name": "token",
                  "type": "address"
                },
                {
                  "internalType": "uint256",
                  "name": "distributionLimit",
                  "type": "uint256"
                },
                {
                  "internalType": "uint256",
                  "name": "distributionLimitCurrency",
                  "type": "uint256"
                },
                {
                  "internalType": "uint256",
                  "name": "overflowAllowance",
                  "type": "uint256"
                },
                {
                  "internalType": "uint256",
                  "name": "overflowAllowanceCurrency",
                  "type": "uint256"
                }
              ],
              "internalType": "struct JBFundAccessConstraints[]",
              "name": "fundAccessConstraints",
              "type": "tuple[]"
            },
            {
              "internalType": "contract IJBPaymentTerminal[]",
              "name": "terminals",
              "type": "address[]"
            },
            {
              "internalType": "string",
              "name": "memo",
              "type": "string"
            }
          ],
          "internalType": "struct JBLaunchProjectData",
          "name": "_launchProjectData",
          "type": "tuple"
        }
      ],
      "name": "launchProjectFor",
      "outputs": [
        {
          "internalType": "uint256",
          "name": "projectId",
          "type": "uint256"
        }
      ],
      "stateMutability": "nonpayable",
      "type": "function"
    },
    {
      "inputs": [],
      "name": "lowerFundraiseBoundary",
      "outputs": [
        {
          "internalType": "uint56",
          "name": "",
          "type": "uint56"
        }
      ],
      "stateMutability": "view",
      "type": "function"
    },
    {
      "inputs": [],
      "name": "maxK",
      "outputs": [
        {
          "internalType": "uint16",
          "name": "",
          "type": "uint16"
        }
      ],
      "stateMutability": "view",
      "type": "function"
    },
    {
      "inputs": [],
      "name": "minK",
      "outputs": [
        {
          "internalType": "uint16",
          "name": "",
          "type": "uint16"
        }
      ],
      "stateMutability": "view",
      "type": "function"
    },
    {
      "inputs": [],
      "name": "owner",
      "outputs": [
        {
          "internalType": "address",
          "name": "",
          "type": "address"
        }
      ],
      "stateMutability": "view",
      "type": "function"
    },
    {
      "inputs": [],
      "name": "renounceOwnership",
      "outputs": [],
      "stateMutability": "nonpayable",
      "type": "function"
    },
    {
      "inputs": [
        {
          "internalType": "address",
          "name": "newOwner",
          "type": "address"
        }
      ],
      "name": "transferOwnership",
      "outputs": [],
      "stateMutability": "nonpayable",
      "type": "function"
    },
    {
      "inputs": [],
      "name": "upperFundraiseBoundary",
      "outputs": [
        {
          "internalType": "uint56",
          "name": "",
          "type": "uint56"
        }
      ],
      "stateMutability": "view",
      "type": "function"
    },
    {
      "inputs": [],
      "name": "usdcAddress",
      "outputs": [
        {
          "internalType": "address",
          "name": "",
          "type": "address"
        }
      ],
      "stateMutability": "view",
      "type": "function"
    }
  ],
  "bytecode": {
    "object": "0x6101006040523480156200001257600080fd5b506040516200210d3803806200210d833981016040819052620000359162000197565b6200004033620000fe565b6200004b8a620000fe565b600180546001600160a01b03998a1660e05260c09890985295881660805293871660a0526000805463ffffffff60a01b1916600160a01b61ffff9586160261ffff60b01b191617600160b01b93909416929092029290921766ffffffffffffff60c01b1916600160c01b66ffffffffffffff938416021790556001600160d81b0319909316670100000000000000959094169490940266ffffffffffffff1916929092179216919091179055506200026b565b600080546001600160a01b038381166001600160a01b0319831681178455604051919092169283917f8be0079c531659141344cd1fd0a4f28419497f9722a3daafe3b4186f6b6457e09190a35050565b6001600160a01b03811681146200016457600080fd5b50565b805161ffff811681146200017a57600080fd5b919050565b805166ffffffffffffff811681146200017a57600080fd5b6000806000806000806000806000806101408b8d031215620001b857600080fd5b8a51620001c5816200014e565b60208c0151909a50620001d8816200014e565b60408c0151909950620001eb816200014e565b60608c015160808d0151919950975062000205816200014e565b60a08c015190965062000218816200014e565b94506200022860c08c0162000167565b93506200023860e08c0162000167565b9250620002496101008c016200017f565b91506200025a6101208c016200017f565b90509295989b9194979a5092959850565b60805160a05160c05160e051611e3f620002ce6000396000818161030601528181610530015281816106580152610b3f0152600081816101a6015261068401526000818160ff01526106ef0152600081816101db01526106c70152611e3f6000f3fe608060405234801561001057600080fd5b50600436106100f55760003560e01c80636f9e2acb11610097578063988f507511610066578063988f5075146102c8578063a266dc2c146102db578063f2fde38b146102ee578063f77c47911461030157600080fd5b80636f9e2acb14610267578063715018a61461027c5780637f67d87e146102845780638da5cb5b146102aa57600080fd5b806326c0e4b2116100d357806326c0e4b2146101a157806341398b15146101d6578063631f44bd146101fd57806366c297901461022c57600080fd5b806302d45457146100fa57806311fa21ad1461014b57806320f6a58d14610176575b600080fd5b6101217f000000000000000000000000000000000000000000000000000000000000000081565b60405173ffffffffffffffffffffffffffffffffffffffff90911681526020015b60405180910390f35b60015461012190670100000000000000900473ffffffffffffffffffffffffffffffffffffffff1681565b6001546101899066ffffffffffffff1681565b60405166ffffffffffffff9091168152602001610142565b6101c87f000000000000000000000000000000000000000000000000000000000000000081565b604051908152602001610142565b6101217f000000000000000000000000000000000000000000000000000000000000000081565b600054610189907801000000000000000000000000000000000000000000000000900466ffffffffffffff1681565b60005461025490760100000000000000000000000000000000000000000000900461ffff1681565b60405161ffff9091168152602001610142565b61027a610275366004610cd1565b610328565b005b61027a6104d6565b6000546102549074010000000000000000000000000000000000000000900461ffff1681565b60005473ffffffffffffffffffffffffffffffffffffffff16610121565b6101c86102d63660046115d4565b6104ea565b61027a6102e93660046116f1565b61083a565b61027a6102fc3660046116f1565b610894565b6101217f000000000000000000000000000000000000000000000000000000000000000081565b610330610950565b6101f48461ffff161115610370576040517fe0ab694100000000000000000000000000000000000000000000000000000000815260040160405180910390fd5b8361ffff168361ffff16118061039757508166ffffffffffffff168166ffffffffffffff16115b156103ce576040517f0c8d1b0a00000000000000000000000000000000000000000000000000000000815260040160405180910390fd5b600080547fffffffffffffffff00000000ffffffffffffffffffffffffffffffffffffffff167401000000000000000000000000000000000000000061ffff968716027fffffffffffffffff0000ffffffffffffffffffffffffffffffffffffffffffff16177601000000000000000000000000000000000000000000009490951693909302939093177fff00000000000000ffffffffffffffffffffffffffffffffffffffffffffffff16780100000000000000000000000000000000000000000000000066ffffffffffffff9283160217909155600180547fffffffffffffffffffffffffffffffffffffffffffffffffff000000000000001692909116919091179055565b6104de610950565b6104e860006109d1565b565b600081602001516020015160000361052e576040517fbc11a31500000000000000000000000000000000000000000000000000000000815260040160405180910390fd5b7f000000000000000000000000000000000000000000000000000000000000000073ffffffffffffffffffffffffffffffffffffffff16638b79543c6040518163ffffffff1660e01b8152600401602060405180830381865afa158015610599573d6000803e3d6000fd5b505050506040513d601f19601f820116820180604052508101906105bd9190611715565b73ffffffffffffffffffffffffffffffffffffffff166306661abd6040518163ffffffff1660e01b8152600401602060405180830381865afa158015610607573d6000803e3d6000fd5b505050506040513d601f19601f8201168201806040525081019061062b9190611732565b61063690600161174b565b604080516101408101825273ffffffffffffffffffffffffffffffffffffffff7f00000000000000000000000000000000000000000000000000000000000000008116825265ffffffffffff7f00000000000000000000000000000000000000000000000000000000000000008116602080850191909152908516838501528601515164ffffffffff1660608301527f0000000000000000000000000000000000000000000000000000000000000000811660808301527f0000000000000000000000000000000000000000000000000000000000000000811660a08301526000805461ffff740100000000000000000000000000000000000000008204811660c086015276010000000000000000000000000000000000000000000082041660e085015266ffffffffffffff7801000000000000000000000000000000000000000000000000909104811661010085015260015490811661012085015293517f50027ce900000000000000000000000000000000000000000000000000000000815294955091939192670100000000000000900416906350027ce9906107e390859089906004016118b4565b6020604051808303816000875af1158015610802573d6000803e3d6000fd5b505050506040513d601f19601f820116820180604052508101906108269190611715565b90506108328185610a46565b505092915050565b610842610950565b6001805473ffffffffffffffffffffffffffffffffffffffff909216670100000000000000027fffffffffff0000000000000000000000000000000000000000ffffffffffffff909216919091179055565b61089c610950565b73ffffffffffffffffffffffffffffffffffffffff8116610944576040517f08c379a000000000000000000000000000000000000000000000000000000000815260206004820152602660248201527f4f776e61626c653a206e6577206f776e657220697320746865207a65726f206160448201527f646472657373000000000000000000000000000000000000000000000000000060648201526084015b60405180910390fd5b61094d816109d1565b50565b60005473ffffffffffffffffffffffffffffffffffffffff1633146104e8576040517f08c379a000000000000000000000000000000000000000000000000000000000815260206004820181905260248201527f4f776e61626c653a2063616c6c6572206973206e6f7420746865206f776e6572604482015260640161093b565b6000805473ffffffffffffffffffffffffffffffffffffffff8381167fffffffffffffffffffffffff0000000000000000000000000000000000000000831681178455604051919092169283917f8be0079c531659141344cd1fd0a4f28419497f9722a3daafe3b4186f6b6457e09190a35050565b80516040805160808082018352600080835260208087015181015181850152838501829052606080850183905285516102a08101875261024081018481526102608201859052600161028083018190529082528184018590526127108289018190528284015294810184905260a0810184905260c0810184905260e08101849052610100810184905261012081018490526101408101849052610160810184905261018081018490526101a081018490526101c081018590526101e081019490945273ffffffffffffffffffffffffffffffffffffffff89811661020086015261022085018490529088015186518481529283019096527f0000000000000000000000000000000000000000000000000000000000000000169563b3c526739589959194919391929091610b9d565b604080518082019091526000815260606020820152815260200190600190039081610b755790505b506040805160008082526020820190925290610c2c565b610c196040518060c00160405280600073ffffffffffffffffffffffffffffffffffffffff168152602001600073ffffffffffffffffffffffffffffffffffffffff168152602001600081526020016000815260200160008152602001600081525090565b815260200190600190039081610bb45790505b508960c001518a60e001516040518a63ffffffff1660e01b8152600401610c5b99989796959493929190611d07565b6020604051808303816000875af1158015610c7a573d6000803e3d6000fd5b505050506040513d601f19601f82011682018060405250810190610c9e9190611732565b505050565b803561ffff81168114610cb557600080fd5b919050565b803566ffffffffffffff81168114610cb557600080fd5b60008060008060808587031215610ce757600080fd5b610cf085610ca3565b9350610cfe60208601610ca3565b9250610d0c60408601610cba565b9150610d1a60608601610cba565b905092959194509250565b7f4e487b7100000000000000000000000000000000000000000000000000000000600052604160045260246000fd5b6040805190810167ffffffffffffffff81118282101715610d7757610d77610d25565b60405290565b604051610240810167ffffffffffffffff81118282101715610d7757610d77610d25565b60405160e0810167ffffffffffffffff81118282101715610d7757610d77610d25565b60405160c0810167ffffffffffffffff81118282101715610d7757610d77610d25565b604051610100810167ffffffffffffffff81118282101715610d7757610d77610d25565b604051601f82017fffffffffffffffffffffffffffffffffffffffffffffffffffffffffffffffe016810167ffffffffffffffff81118282101715610e5257610e52610d25565b604052919050565b73ffffffffffffffffffffffffffffffffffffffff8116811461094d57600080fd5b8035610cb581610e5a565b80356affffffffffffffffffffff81168114610cb557600080fd5b80358015158114610cb557600080fd5b600082601f830112610ec357600080fd5b813567ffffffffffffffff811115610edd57610edd610d25565b610f0e60207fffffffffffffffffffffffffffffffffffffffffffffffffffffffffffffffe0601f84011601610e0b565b818152846020838601011115610f2357600080fd5b816020850160208301376000918101602001919091529392505050565b600060408284031215610f5257600080fd5b610f5a610d54565b9050813567ffffffffffffffff811115610f7357600080fd5b610f7f84828501610eb2565b8252506020820135602082015292915050565b600060808284031215610fa457600080fd5b6040516080810181811067ffffffffffffffff82111715610fc757610fc7610d25565b80604052508091508235815260208301356020820152604083013560408201526060830135610ff581610e5a565b6060919091015292915050565b60006060828403121561101457600080fd5b6040516060810181811067ffffffffffffffff8211171561103757611037610d25565b60405290508061104683610ea2565b815261105460208401610ea2565b602082015261106560408401610ea2565b60408201525092915050565b6000610280828403121561108457600080fd5b61108c610d7d565b90506110988383611002565b8152606082013560208201526080820135604082015260a082013560608201526110c460c08301610ea2565b60808201526110d560e08301610ea2565b60a08201526101006110e8818401610ea2565b60c08301526101206110fb818501610ea2565b60e084015261014061110e818601610ea2565b838501526101609250611122838601610ea2565b828501526101809150611136828601610ea2565b908401526101a0611148858201610ea2565b838501526101c0925061115c838601610ea2565b828501526101e09150611170828601610ea2565b90840152610200611182858201610ea2565b838501526102209250611196838601610ea2565b828501526111a76102408601610e7c565b818501525050610260830135818301525092915050565b600067ffffffffffffffff8211156111d8576111d8610d25565b5060051b60200190565b600082601f8301126111f357600080fd5b81356020611208611203836111be565b610e0b565b82815260059290921b8401810191818101908684111561122757600080fd5b8286015b8481101561138f57803567ffffffffffffffff8082111561124b57600080fd5b81890191506040807fffffffffffffffffffffffffffffffffffffffffffffffffffffffffffffffe0848d0301121561128357600080fd5b61128b610d54565b87840135815281840135838111156112a257600080fd5b8085019450508b603f8501126112b757600080fd5b8784013592506112c9611203846111be565b83815260e09093028401820192888101908d8511156112e757600080fd5b948301945b8486101561137a5760e0868f03121561130457600080fd5b61130c610da1565b61131587610ea2565b81526113228b8801610ea2565b8b820152848701358582015260608701356060820152608087013561134681610e5a565b608082015260a0878101359082015260c087013561136381610e5a565b60c0820152825260e09590950194908901906112ec565b828a015250865250505091830191830161122b565b509695505050505050565b600082601f8301126113ab57600080fd5b813560206113bb611203836111be565b82815260c092830285018201928282019190878511156113da57600080fd5b8387015b858110156114515781818a0312156113f65760008081fd5b6113fe610dc4565b813561140981610e5a565b81528186013561141881610e5a565b8187015260408281013590820152606080830135908201526080808301359082015260a0808301359082015284529284019281016113de565b5090979650505050505050565b600082601f83011261146f57600080fd5b8135602061147f611203836111be565b82815260059290921b8401810191818101908684111561149e57600080fd5b8286015b8481101561138f5780356114b581610e5a565b83529183019183016114a2565b60006103c082840312156114d557600080fd5b6114dd610de7565b9050813567ffffffffffffffff808211156114f757600080fd5b61150385838601610f40565b83526115128560208601610f92565b60208401526115248560a08601611071565b6040840152610320840135606084015261034084013591508082111561154957600080fd5b611555858386016111e2565b608084015261036084013591508082111561156f57600080fd5b61157b8583860161139a565b60a084015261038084013591508082111561159557600080fd5b6115a18583860161145e565b60c08401526103a08401359150808211156115bb57600080fd5b506115c884828501610eb2565b60e08301525092915050565b600080604083850312156115e757600080fd5b823567ffffffffffffffff808211156115ff57600080fd5b90840190610100828703121561161457600080fd5b61161c610de7565b61162583610e7c565b815261163360208401610e7c565b602082015261164460408401610e87565b604082015261165560608401610e87565b606082015261166660808401610ea2565b608082015261167760a08401610ea2565b60a082015260c08301358281111561168e57600080fd5b61169a88828601610eb2565b60c08301525060e0830135828111156116b257600080fd5b6116be88828601610eb2565b60e083015250935060208501359150808211156116da57600080fd5b506116e7858286016114c2565b9150509250929050565b60006020828403121561170357600080fd5b813561170e81610e5a565b9392505050565b60006020828403121561172757600080fd5b815161170e81610e5a565b60006020828403121561174457600080fd5b5051919050565b80820180821115611785577f4e487b7100000000000000000000000000000000000000000000000000000000600052601160045260246000fd5b92915050565b6000815180845260005b818110156117b157602081850181015186830182015201611795565b5060006020828601015260207fffffffffffffffffffffffffffffffffffffffffffffffffffffffffffffffe0601f83011685010191505092915050565b600061010073ffffffffffffffffffffffffffffffffffffffff808451168552806020850151166020860152506affffffffffffffffffffff6040840151166040850152606083015161185160608601826affffffffffffffffffffff169052565b506080830151611865608086018215159052565b5060a083015161187960a086018215159052565b5060c08301518160c08601526118918286018261178b565b91505060e083015184820360e08601526118ab828261178b565b95945050505050565b825173ffffffffffffffffffffffffffffffffffffffff168152600061016060208501516118ec602085018265ffffffffffff169052565b506040850151611906604085018265ffffffffffff169052565b50606085015161191f606085018264ffffffffff169052565b506080850151611947608085018273ffffffffffffffffffffffffffffffffffffffff169052565b5060a085015161196f60a085018273ffffffffffffffffffffffffffffffffffffffff169052565b5060c085015161198560c085018261ffff169052565b5060e085015161199b60e085018261ffff169052565b506101008581015166ffffffffffffff81168583015250506101208581015166ffffffffffffff8116858301525050806101408401526118ab818401856117ef565b611a028282518051151582526020808201511515908301526040908101511515910152565b6020810151606083015260408101516080830152606081015160a08301526080810151611a3360c084018215159052565b5060a081015180151560e08401525060c0810151610100611a578185018315159052565b60e08301519150610120611a6e8186018415159052565b90830151915061014090611a858583018415159052565b8301519150610160611a9a8582018415159052565b90830151915061018090611ab18583018415159052565b83015191506101a0611ac68582018415159052565b9083015191506101c090611add8583018415159052565b83015191506101e0611af28582018415159052565b90830151915061020090611b098583018415159052565b8301519150610220611b1e8582018415159052565b9083015173ffffffffffffffffffffffffffffffffffffffff16610240850152909101516102609092019190915250565b6000815180845260208085019450848260051b86018286016000805b86811015611c2b578484038a52825180518552860151604087860181905281518187018190529188019160609081880190865b81811015611c145785518051151584528c81015115158d8501528581015186850152848101518585015260808082015173ffffffffffffffffffffffffffffffffffffffff9081169186019190915260a0808301519086015260c0918201511690840152948b019460e090920191600101611b9e565b50509c89019c965050509286019250600101611b6b565b509198975050505050505050565b600081518084526020808501945080840160005b83811015611cb6578151805173ffffffffffffffffffffffffffffffffffffffff908116895284820151168489015260408082015190890152606080820151908901526080808201519089015260a0908101519088015260c09096019590820190600101611c4d565b509495945050505050565b600081518084526020808501945080840160005b83811015611cb657815173ffffffffffffffffffffffffffffffffffffffff1687529582019590820190600101611cd5565b60006103e073ffffffffffffffffffffffffffffffffffffffff8c1683528060208401528a51604082850152611d4161042085018261178b565b91505060208b0151610400840152611d93604084018b80518252602081015160208301526040810151604083015273ffffffffffffffffffffffffffffffffffffffff60608201511660608301525050565b611da060c084018a6119dd565b87610340840152828103610360840152611dba8188611b4f565b9050828103610380840152611dcf8187611c39565b90508281036103a0840152611de48186611cc1565b90508281036103c0840152611df9818561178b565b9c9b50505050505050505050505056fea264697066735822122017c7f0d0631d8f12a17202fa442dd6a81fbbaf96c58756d478f6dbed6ce943d564736f6c63430008110033",
    "linkReferences": {}
  },
  "methodIdentifiers": {
    "_setDeployer(address)": "a266dc2c",
    "_setFees(uint16,uint16,uint56,uint56)": "6f9e2acb",
    "controller()": "f77c4791",
    "delegateCloner()": "11fa21ad",
    "ethAddress()": "41398b15",
    "feeProjectId()": "26c0e4b2",
    "launchProjectFor((address,address,uint88,uint88,bool,bool,string,string),((string,uint256),(uint256,uint256,uint256,address),((bool,bool,bool),uint256,uint256,uint256,bool,bool,bool,bool,bool,bool,bool,bool,bool,bool,bool,bool,address,uint256),uint256,(uint256,(bool,bool,uint256,uint256,address,uint256,address)[])[],(address,address,uint256,uint256,uint256,uint256)[],address[],string))": "988f5075",
    "lowerFundraiseBoundary()": "20f6a58d",
    "maxK()": "7f67d87e",
    "minK()": "66c29790",
    "owner()": "8da5cb5b",
    "renounceOwnership()": "715018a6",
    "transferOwnership(address)": "f2fde38b",
    "upperFundraiseBoundary()": "631f44bd",
    "usdcAddress()": "02d45457"
  },
  "id": 2
}