{
  "abi": [
    {
      "inputs": [
        {
          "components": [
            {
              "internalType": "contract IJBController",
              "name": "controller",
              "type": "address"
            },
            {
              "internalType": "uint48",
              "name": "bluntProjectId",
              "type": "uint48"
            },
            {
              "internalType": "uint48",
              "name": "projectId",
              "type": "uint48"
            },
            {
              "internalType": "uint40",
              "name": "duration",
              "type": "uint40"
            },
            {
              "internalType": "address",
              "name": "ethAddress",
              "type": "address"
            },
            {
              "internalType": "address",
              "name": "usdcAddress",
              "type": "address"
            },
            {
              "internalType": "uint16",
              "name": "maxK",
              "type": "uint16"
            },
            {
              "internalType": "uint16",
              "name": "minK",
              "type": "uint16"
            },
            {
              "internalType": "uint56",
              "name": "upperFundraiseBoundary",
              "type": "uint56"
            },
            {
              "internalType": "uint56",
              "name": "lowerFundraiseBoundary",
              "type": "uint56"
            }
          ],
          "internalType": "struct DeployBluntDelegateDeployerData",
          "name": "_deployBluntDelegateDeployerData",
          "type": "tuple"
        },
        {
          "components": [
            {
              "internalType": "contract IJBDirectory",
              "name": "directory",
              "type": "address"
            },
            {
              "internalType": "address",
              "name": "projectOwner",
              "type": "address"
            },
            {
              "internalType": "uint88",
              "name": "hardcap",
              "type": "uint88"
            },
            {
              "internalType": "uint88",
              "name": "target",
              "type": "uint88"
            },
            {
              "internalType": "uint16",
              "name": "afterRoundReservedRate",
              "type": "uint16"
            },
            {
              "components": [
                {
                  "internalType": "bool",
                  "name": "preferClaimed",
                  "type": "bool"
                },
                {
                  "internalType": "bool",
                  "name": "preferAddToBalance",
                  "type": "bool"
                },
                {
                  "internalType": "uint256",
                  "name": "percent",
                  "type": "uint256"
                },
                {
                  "internalType": "uint256",
                  "name": "projectId",
                  "type": "uint256"
                },
                {
                  "internalType": "address payable",
                  "name": "beneficiary",
                  "type": "address"
                },
                {
                  "internalType": "uint256",
                  "name": "lockedUntil",
                  "type": "uint256"
                },
                {
                  "internalType": "contract IJBSplitAllocator",
                  "name": "allocator",
                  "type": "address"
                }
              ],
              "internalType": "struct JBSplit[]",
              "name": "afterRoundSplits",
              "type": "tuple[]"
            },
            {
              "internalType": "bool",
              "name": "isTargetUsd",
              "type": "bool"
            },
            {
              "internalType": "bool",
              "name": "isHardcapUsd",
              "type": "bool"
            }
          ],
          "internalType": "struct DeployBluntDelegateData",
          "name": "_deployBluntDelegateData",
          "type": "tuple"
        }
      ],
      "stateMutability": "nonpayable",
      "type": "constructor"
    },
    {
      "inputs": [],
      "name": "CAP_REACHED",
      "type": "error"
    },
    {
      "inputs": [],
      "name": "INVALID_PAYMENT_EVENT",
      "type": "error"
    },
    {
      "inputs": [],
      "name": "NOT_PROJECT_OWNER",
      "type": "error"
    },
    {
      "inputs": [],
      "name": "ROUND_CLOSED",
      "type": "error"
    },
    {
      "inputs": [],
      "name": "ROUND_ENDED",
      "type": "error"
    },
    {
      "inputs": [],
      "name": "ROUND_NOT_CLOSED",
      "type": "error"
    },
    {
      "inputs": [],
      "name": "ROUND_NOT_ENDED",
      "type": "error"
    },
    {
      "anonymous": false,
      "inputs": [],
      "name": "RoundClosed",
      "type": "event"
    },
    {
      "anonymous": false,
      "inputs": [
        {
          "components": [
            {
              "internalType": "contract IJBDirectory",
              "name": "directory",
              "type": "address"
            },
            {
              "internalType": "address",
              "name": "projectOwner",
              "type": "address"
            },
            {
              "internalType": "uint88",
              "name": "hardcap",
              "type": "uint88"
            },
            {
              "internalType": "uint88",
              "name": "target",
              "type": "uint88"
            },
            {
              "internalType": "uint16",
              "name": "afterRoundReservedRate",
              "type": "uint16"
            },
            {
              "components": [
                {
                  "internalType": "bool",
                  "name": "preferClaimed",
                  "type": "bool"
                },
                {
                  "internalType": "bool",
                  "name": "preferAddToBalance",
                  "type": "bool"
                },
                {
                  "internalType": "uint256",
                  "name": "percent",
                  "type": "uint256"
                },
                {
                  "internalType": "uint256",
                  "name": "projectId",
                  "type": "uint256"
                },
                {
                  "internalType": "address payable",
                  "name": "beneficiary",
                  "type": "address"
                },
                {
                  "internalType": "uint256",
                  "name": "lockedUntil",
                  "type": "uint256"
                },
                {
                  "internalType": "contract IJBSplitAllocator",
                  "name": "allocator",
                  "type": "address"
                }
              ],
              "internalType": "struct JBSplit[]",
              "name": "afterRoundSplits",
              "type": "tuple[]"
            },
            {
              "internalType": "bool",
              "name": "isTargetUsd",
              "type": "bool"
            },
            {
              "internalType": "bool",
              "name": "isHardcapUsd",
              "type": "bool"
            }
          ],
          "indexed": false,
          "internalType": "struct DeployBluntDelegateData",
          "name": "deployBluntDelegateData",
          "type": "tuple"
        },
        {
          "indexed": false,
          "internalType": "uint256",
          "name": "projectId",
          "type": "uint256"
        },
        {
          "indexed": false,
          "internalType": "uint256",
          "name": "duration",
          "type": "uint256"
        }
      ],
      "name": "RoundCreated",
      "type": "event"
    },
    {
      "inputs": [],
      "name": "LOWER_FUNDRAISE_BOUNDARY_USD",
      "outputs": [
        {
          "internalType": "uint256",
          "name": "",
          "type": "uint256"
        }
      ],
      "stateMutability": "view",
      "type": "function"
    },
    {
      "inputs": [],
      "name": "MAX_K",
      "outputs": [
        {
          "internalType": "uint256",
          "name": "",
          "type": "uint256"
        }
      ],
      "stateMutability": "view",
      "type": "function"
    },
    {
      "inputs": [],
      "name": "MIN_K",
      "outputs": [
        {
          "internalType": "uint256",
          "name": "",
          "type": "uint256"
        }
      ],
      "stateMutability": "view",
      "type": "function"
    },
    {
      "inputs": [],
      "name": "UPPER_FUNDRAISE_BOUNDARY_USD",
      "outputs": [
        {
          "internalType": "uint256",
          "name": "",
          "type": "uint256"
        }
      ],
      "stateMutability": "view",
      "type": "function"
    },
    {
      "inputs": [],
      "name": "bluntProjectId",
      "outputs": [
        {
          "internalType": "uint256",
          "name": "",
          "type": "uint256"
        }
      ],
      "stateMutability": "view",
      "type": "function"
    },
    {
      "inputs": [],
      "name": "closeRound",
      "outputs": [],
      "stateMutability": "nonpayable",
      "type": "function"
    },
    {
      "inputs": [
        {
          "internalType": "address",
          "name": "",
          "type": "address"
        }
      ],
      "name": "contributions",
      "outputs": [
        {
          "internalType": "uint256",
          "name": "",
          "type": "uint256"
        }
      ],
      "stateMutability": "view",
      "type": "function"
    },
    {
      "inputs": [
        {
          "components": [
            {
              "internalType": "address",
              "name": "payer",
              "type": "address"
            },
            {
              "internalType": "uint256",
              "name": "projectId",
              "type": "uint256"
            },
            {
              "internalType": "uint256",
              "name": "currentFundingCycleConfiguration",
              "type": "uint256"
            },
            {
              "components": [
                {
                  "internalType": "address",
                  "name": "token",
                  "type": "address"
                },
                {
                  "internalType": "uint256",
                  "name": "value",
                  "type": "uint256"
                },
                {
                  "internalType": "uint256",
                  "name": "decimals",
                  "type": "uint256"
                },
                {
                  "internalType": "uint256",
                  "name": "currency",
                  "type": "uint256"
                }
              ],
              "internalType": "struct JBTokenAmount",
              "name": "amount",
              "type": "tuple"
            },
            {
              "components": [
                {
                  "internalType": "address",
                  "name": "token",
                  "type": "address"
                },
                {
                  "internalType": "uint256",
                  "name": "value",
                  "type": "uint256"
                },
                {
                  "internalType": "uint256",
                  "name": "decimals",
                  "type": "uint256"
                },
                {
                  "internalType": "uint256",
                  "name": "currency",
                  "type": "uint256"
                }
              ],
              "internalType": "struct JBTokenAmount",
              "name": "forwardedAmount",
              "type": "tuple"
            },
            {
              "internalType": "uint256",
              "name": "projectTokenCount",
              "type": "uint256"
            },
            {
              "internalType": "address",
              "name": "beneficiary",
              "type": "address"
            },
            {
              "internalType": "bool",
              "name": "preferClaimedTokens",
              "type": "bool"
            },
            {
              "internalType": "string",
              "name": "memo",
              "type": "string"
            },
            {
              "internalType": "bytes",
              "name": "metadata",
              "type": "bytes"
            }
          ],
          "internalType": "struct JBDidPayData",
          "name": "_data",
          "type": "tuple"
        }
      ],
      "name": "didPay",
      "outputs": [],
      "stateMutability": "payable",
      "type": "function"
    },
    {
      "inputs": [
        {
          "components": [
            {
              "internalType": "address",
              "name": "holder",
              "type": "address"
            },
            {
              "internalType": "uint256",
              "name": "projectId",
              "type": "uint256"
            },
            {
              "internalType": "uint256",
              "name": "currentFundingCycleConfiguration",
              "type": "uint256"
            },
            {
              "internalType": "uint256",
              "name": "projectTokenCount",
              "type": "uint256"
            },
            {
              "components": [
                {
                  "internalType": "address",
                  "name": "token",
                  "type": "address"
                },
                {
                  "internalType": "uint256",
                  "name": "value",
                  "type": "uint256"
                },
                {
                  "internalType": "uint256",
                  "name": "decimals",
                  "type": "uint256"
                },
                {
                  "internalType": "uint256",
                  "name": "currency",
                  "type": "uint256"
                }
              ],
              "internalType": "struct JBTokenAmount",
              "name": "reclaimedAmount",
              "type": "tuple"
            },
            {
              "components": [
                {
                  "internalType": "address",
                  "name": "token",
                  "type": "address"
                },
                {
                  "internalType": "uint256",
                  "name": "value",
                  "type": "uint256"
                },
                {
                  "internalType": "uint256",
                  "name": "decimals",
                  "type": "uint256"
                },
                {
                  "internalType": "uint256",
                  "name": "currency",
                  "type": "uint256"
                }
              ],
              "internalType": "struct JBTokenAmount",
              "name": "forwardedAmount",
              "type": "tuple"
            },
            {
              "internalType": "address payable",
              "name": "beneficiary",
              "type": "address"
            },
            {
              "internalType": "string",
              "name": "memo",
              "type": "string"
            },
            {
              "internalType": "bytes",
              "name": "metadata",
              "type": "bytes"
            }
          ],
          "internalType": "struct JBDidRedeemData",
          "name": "_data",
          "type": "tuple"
        }
      ],
      "name": "didRedeem",
      "outputs": [],
      "stateMutability": "payable",
      "type": "function"
    },
    {
      "inputs": [],
      "name": "getRoundInfo",
      "outputs": [
        {
          "components": [
            {
              "internalType": "uint256",
              "name": "totalContributions",
              "type": "uint256"
            },
            {
              "internalType": "uint256",
              "name": "target",
              "type": "uint256"
            },
            {
              "internalType": "uint256",
              "name": "hardcap",
              "type": "uint256"
            },
            {
              "internalType": "address",
              "name": "projectOwner",
              "type": "address"
            },
            {
              "internalType": "uint256",
              "name": "afterRoundReservedRate",
              "type": "uint256"
            },
            {
              "components": [
                {
                  "internalType": "bool",
                  "name": "preferClaimed",
                  "type": "bool"
                },
                {
                  "internalType": "bool",
                  "name": "preferAddToBalance",
                  "type": "bool"
                },
                {
                  "internalType": "uint256",
                  "name": "percent",
                  "type": "uint256"
                },
                {
                  "internalType": "uint256",
                  "name": "projectId",
                  "type": "uint256"
                },
                {
                  "internalType": "address payable",
                  "name": "beneficiary",
                  "type": "address"
                },
                {
                  "internalType": "uint256",
                  "name": "lockedUntil",
                  "type": "uint256"
                },
                {
                  "internalType": "contract IJBSplitAllocator",
                  "name": "allocator",
                  "type": "address"
                }
              ],
              "internalType": "struct JBSplit[]",
              "name": "afterRoundSplits",
              "type": "tuple[]"
            },
            {
              "internalType": "bool",
              "name": "isRoundClosed",
              "type": "bool"
            },
            {
              "internalType": "uint256",
              "name": "deadline",
              "type": "uint256"
            },
            {
              "internalType": "bool",
              "name": "isTargetUsd",
              "type": "bool"
            },
            {
              "internalType": "bool",
              "name": "isHardcapUsd",
              "type": "bool"
            }
          ],
          "internalType": "struct RoundInfo",
          "name": "roundInfo",
          "type": "tuple"
        }
      ],
      "stateMutability": "view",
      "type": "function"
    },
    {
      "inputs": [],
      "name": "isTargetReached",
      "outputs": [
        {
          "internalType": "bool",
          "name": "",
          "type": "bool"
        }
      ],
      "stateMutability": "view",
      "type": "function"
    },
    {
      "inputs": [
        {
          "internalType": "address",
          "name": "",
          "type": "address"
        },
        {
          "internalType": "address",
          "name": "",
          "type": "address"
        },
        {
          "internalType": "uint256",
          "name": "",
          "type": "uint256"
        },
        {
          "internalType": "bytes",
          "name": "",
          "type": "bytes"
        }
      ],
      "name": "onERC721Received",
      "outputs": [
        {
          "internalType": "bytes4",
          "name": "",
          "type": "bytes4"
        }
      ],
      "stateMutability": "pure",
      "type": "function"
    },
    {
      "inputs": [
        {
          "components": [
            {
              "internalType": "contract IJBPaymentTerminal",
              "name": "terminal",
              "type": "address"
            },
            {
              "internalType": "address",
              "name": "payer",
              "type": "address"
            },
            {
              "components": [
                {
                  "internalType": "address",
                  "name": "token",
                  "type": "address"
                },
                {
                  "internalType": "uint256",
                  "name": "value",
                  "type": "uint256"
                },
                {
                  "internalType": "uint256",
                  "name": "decimals",
                  "type": "uint256"
                },
                {
                  "internalType": "uint256",
                  "name": "currency",
                  "type": "uint256"
                }
              ],
              "internalType": "struct JBTokenAmount",
              "name": "amount",
              "type": "tuple"
            },
            {
              "internalType": "uint256",
              "name": "projectId",
              "type": "uint256"
            },
            {
              "internalType": "uint256",
              "name": "currentFundingCycleConfiguration",
              "type": "uint256"
            },
            {
              "internalType": "address",
              "name": "beneficiary",
              "type": "address"
            },
            {
              "internalType": "uint256",
              "name": "weight",
              "type": "uint256"
            },
            {
              "internalType": "uint256",
              "name": "reservedRate",
              "type": "uint256"
            },
            {
              "internalType": "string",
              "name": "memo",
              "type": "string"
            },
            {
              "internalType": "bytes",
              "name": "metadata",
              "type": "bytes"
            }
          ],
          "internalType": "struct JBPayParamsData",
          "name": "_data",
          "type": "tuple"
        }
      ],
      "name": "payParams",
      "outputs": [
        {
          "internalType": "uint256",
          "name": "weight",
          "type": "uint256"
        },
        {
          "internalType": "string",
          "name": "memo",
          "type": "string"
        },
        {
          "components": [
            {
              "internalType": "contract IJBPayDelegate",
              "name": "delegate",
              "type": "address"
            },
            {
              "internalType": "uint256",
              "name": "amount",
              "type": "uint256"
            }
          ],
          "internalType": "struct JBPayDelegateAllocation[]",
          "name": "delegateAllocations",
          "type": "tuple[]"
        }
      ],
      "stateMutability": "view",
      "type": "function"
    },
    {
      "inputs": [],
      "name": "projectId",
      "outputs": [
        {
          "internalType": "uint256",
          "name": "",
          "type": "uint256"
        }
      ],
      "stateMutability": "view",
      "type": "function"
    },
    {
      "inputs": [
        {
          "components": [
            {
              "internalType": "contract IJBPaymentTerminal",
              "name": "terminal",
              "type": "address"
            },
            {
              "internalType": "address",
              "name": "holder",
              "type": "address"
            },
            {
              "internalType": "uint256",
              "name": "projectId",
              "type": "uint256"
            },
            {
              "internalType": "uint256",
              "name": "currentFundingCycleConfiguration",
              "type": "uint256"
            },
            {
              "internalType": "uint256",
              "name": "tokenCount",
              "type": "uint256"
            },
            {
              "internalType": "uint256",
              "name": "totalSupply",
              "type": "uint256"
            },
            {
              "internalType": "uint256",
              "name": "overflow",
              "type": "uint256"
            },
            {
              "components": [
                {
                  "internalType": "address",
                  "name": "token",
                  "type": "address"
                },
                {
                  "internalType": "uint256",
                  "name": "value",
                  "type": "uint256"
                },
                {
                  "internalType": "uint256",
                  "name": "decimals",
                  "type": "uint256"
                },
                {
                  "internalType": "uint256",
                  "name": "currency",
                  "type": "uint256"
                }
              ],
              "internalType": "struct JBTokenAmount",
              "name": "reclaimAmount",
              "type": "tuple"
            },
            {
              "internalType": "bool",
              "name": "useTotalOverflow",
              "type": "bool"
            },
            {
              "internalType": "uint256",
              "name": "redemptionRate",
              "type": "uint256"
            },
            {
              "internalType": "string",
              "name": "memo",
              "type": "string"
            },
            {
              "internalType": "bytes",
              "name": "metadata",
              "type": "bytes"
            }
          ],
          "internalType": "struct JBRedeemParamsData",
          "name": "_data",
          "type": "tuple"
        }
      ],
      "name": "redeemParams",
      "outputs": [
        {
          "internalType": "uint256",
          "name": "reclaimAmount",
          "type": "uint256"
        },
        {
          "internalType": "string",
          "name": "memo",
          "type": "string"
        },
        {
          "components": [
            {
              "internalType": "contract IJBRedemptionDelegate",
              "name": "delegate",
              "type": "address"
            },
            {
              "internalType": "uint256",
              "name": "amount",
              "type": "uint256"
            }
          ],
          "internalType": "struct JBRedemptionDelegateAllocation[]",
          "name": "delegateAllocations",
          "type": "tuple[]"
        }
      ],
      "stateMutability": "view",
      "type": "function"
    },
    {
      "inputs": [
        {
          "internalType": "bytes4",
          "name": "_interfaceId",
          "type": "bytes4"
        }
      ],
      "name": "supportsInterface",
      "outputs": [
        {
          "internalType": "bool",
          "name": "",
          "type": "bool"
        }
      ],
      "stateMutability": "view",
      "type": "function"
    }
  ],
  "bytecode": {
    "object": "0x6102a06040523480156200001257600080fd5b5060405162003665380380620036658339810160408190526200003591620005ae565b60c08083015161ffff90811661010090815260e08086015183166101209081529186015166ffffffffffffff90811661014052918601519091166101605260208086015165ffffffffffff908116855260408088015190911683526080808801516001600160a01b039081166101805260a0808a015182166101a052895182169052875181168252928701519092166101c05290850151909216610220526060848101516001600160581b039081166101e0529385015115156102605291840151909216610200529082015115156102805282015164ffffffffff1615620001355760608201516200012f9064ffffffffff1642620006ce565b62000138565b60005b6102405260005b8160a0015151811015620002185760018260a001518281518110620001685762000168620006f6565b602090810291909101810151825460018181018555600094855293839020825160069092020180549383015115156101000261ff00199215159290921661ffff19909416939093171782556040810151828401556060810151600283015560808101516003830180546001600160a01b039283166001600160a01b03199182161790915560a0830151600485015560c090920151600590930180549390911692909116919091179055016200013f565b507ff8e12f9e589f21d445dfbd50a8122bbab2c138573a952c3cde5297470d56ad1a818360400151846060015160405162000256939291906200079a565b60405180910390a150506200086b565b634e487b7160e01b600052604160045260246000fd5b60405160e081016001600160401b0381118282101715620002a157620002a162000266565b60405290565b60405161010081016001600160401b0381118282101715620002a157620002a162000266565b60405161014081016001600160401b0381118282101715620002a157620002a162000266565b604051601f8201601f191681016001600160401b03811182821017156200031e576200031e62000266565b604052919050565b6001600160a01b03811681146200033c57600080fd5b50565b80516200034c8162000326565b919050565b805165ffffffffffff811681146200034c57600080fd5b805164ffffffffff811681146200034c57600080fd5b805161ffff811681146200034c57600080fd5b805166ffffffffffffff811681146200034c57600080fd5b80516001600160581b03811681146200034c57600080fd5b805180151581146200034c57600080fd5b600082601f830112620003e457600080fd5b815160206001600160401b0382111562000402576200040262000266565b62000412818360051b01620002f3565b82815260e092830285018201928282019190878511156200043257600080fd5b8387015b85811015620004ce5781818a031215620004505760008081fd5b6200045a6200027c565b6200046582620003c1565b815262000474868301620003c1565b8187015260408281015190820152606080830151908201526080808301516200049d8162000326565b9082015260a0828101519082015260c080830151620004bc8162000326565b90820152845292840192810162000436565b5090979650505050505050565b60006101008284031215620004ef57600080fd5b620004f9620002a7565b905062000506826200033f565b815262000516602083016200033f565b60208201526200052960408301620003a9565b60408201526200053c60608301620003a9565b60608201526200054f608083016200037e565b608082015260a08201516001600160401b038111156200056e57600080fd5b6200057c84828501620003d2565b60a0830152506200059060c08301620003c1565b60c0820152620005a360e08301620003c1565b60e082015292915050565b600080828403610160811215620005c457600080fd5b61014080821215620005d557600080fd5b620005df620002cd565b9150620005ec856200033f565b8252620005fc6020860162000351565b60208301526200060f6040860162000351565b6040830152620006226060860162000368565b606083015262000635608086016200033f565b60808301526200064860a086016200033f565b60a08301526200065b60c086016200037e565b60c08301526200066e60e086016200037e565b60e08301526101006200068381870162000391565b908301526101206200069786820162000391565b908301528401519092506001600160401b03811115620006b657600080fd5b620006c485828601620004db565b9150509250929050565b80820180821115620006f057634e487b7160e01b600052601160045260246000fd5b92915050565b634e487b7160e01b600052603260045260246000fd5b600081518084526020808501945080840160005b838110156200078f5781518051151588528381015115158489015260408082015190890152606080820151908901526080808201516001600160a01b03908116918a019190915260a080830151908a015260c091820151169088015260e0909601959082019060010162000720565b509495945050505050565b606080825284516001600160a01b0316908201526020840151600090620007cc60808401826001600160a01b03169052565b5060408501516001600160581b03811660a08401525060608501516001600160581b03811660c084015250608085015161ffff811660e08401525060a085015161010083810152620008236101608401826200070c565b905060c08601516200083a61012085018215159052565b5060e0959095015115156101408301525065ffffffffffff92909216602083015264ffffffffff1660409091015290565b60805160a05160c05160e05161010051610120516101405161016051610180516101a0516101c0516101e0516102005161022051610240516102605161028051612c1962000a4c60003960008181610abf01526114d00152600081816106a50152610a97015260008181610a7101528181610dec01528181610e16015281816110d301526110fd01526000818161095a015261184d0152600081816108f801526114a901526000818161067e01526108d201526000818161091e01528181610fc4015281816113e901526119b301526000818161071e015281816115490152611e02015260008181610746015281816115710152611dda01526000818161022b01528181611e9a01528181611f380152611f7b01526000818161013f01528181611ee90152611f590152600081816101f701528181611f120152611f9e01526000818161027401528181611ec301528181611fbf0152611ff00152600081816102a80152818161049a0152818161054f01528181610ca701528181610d5c015281816111b101528181611263015281816114110152818161179f0152611bba0152600081816103b7015261198d01526000818161117501526117ca0152600081816104c601528181610cd3015281816113190152611c000152612c196000f3fe6080604052600436106100f35760003560e01c806342e94c901161008a578063d46cf17111610059578063d46cf1711461035d578063da9ee8b71461037d578063e278fe6f14610390578063f5434b5d146103a557600080fd5b806342e94c90146102ca5780635e098f05146102f757806384bc76a61461030c578063a51cfd181461032e57600080fd5b806323238648116100c657806323238648146102195780632b13c58f1461024d5780633e4c6ab0146102625780633fafa1271461029657600080fd5b806301ffc9a7146100f857806310faea861461012d578063150b7a021461016f578063160e0901146101e5575b600080fd5b34801561010457600080fd5b50610118610113366004612022565b6103d9565b60405190151581526020015b60405180910390f35b34801561013957600080fd5b506101617f000000000000000000000000000000000000000000000000000000000000000081565b604051908152602001610124565b34801561017b57600080fd5b506101b461018a36600461208d565b7f150b7a020000000000000000000000000000000000000000000000000000000095945050505050565b6040517fffffffff000000000000000000000000000000000000000000000000000000009091168152602001610124565b3480156101f157600080fd5b506101617f000000000000000000000000000000000000000000000000000000000000000081565b34801561022557600080fd5b506101617f000000000000000000000000000000000000000000000000000000000000000081565b61026061025b366004612145565b610472565b005b34801561026e57600080fd5b506101617f000000000000000000000000000000000000000000000000000000000000000081565b3480156102a257600080fd5b506101617f000000000000000000000000000000000000000000000000000000000000000081565b3480156102d657600080fd5b506101616102e5366004612182565b60026020526000908152604090205481565b34801561030357600080fd5b5061011861067a565b34801561031857600080fd5b50610321610800565b6040516101249190612238565b34801561033a57600080fd5b5061034e610349366004612145565b610aeb565b60405161012493929190612355565b34801561036957600080fd5b5061034e6103783660046123d4565b610bd9565b61026061038b366004612410565b610c7f565b34801561039c57600080fd5b50610260610fac565b3480156103b157600080fd5b506101617f000000000000000000000000000000000000000000000000000000000000000081565b60007fffffffff0000000000000000000000000000000000000000000000000000000082167f71700c6900000000000000000000000000000000000000000000000000000000148061046c57507fffffffff0000000000000000000000000000000000000000000000000000000082167fda9ee8b700000000000000000000000000000000000000000000000000000000145b92915050565b6040517f6e49181f0000000000000000000000000000000000000000000000000000000081527f000000000000000000000000000000000000000000000000000000000000000060048201523360248201527f000000000000000000000000000000000000000000000000000000000000000073ffffffffffffffffffffffffffffffffffffffff1690636e49181f90604401602060405180830381865afa158015610522573d6000803e3d6000fd5b505050506040513d601f19601f820116820180604052508101906105469190612461565b158061057657507f0000000000000000000000000000000000000000000000000000000000000000816020013514155b156105ad576040517fc715ec6c00000000000000000000000000000000000000000000000000000000815260040160405180910390fd5b6000547f0100000000000000000000000000000000000000000000000000000000000000900460ff1661067757600080547fff00000000000000000000000000000000000000000000000000000000000000811660a08401357effffffffffffffffffffffffffffffffffffffffffffffffffffffffffffff928316819003909216178255906002906106486101a085016101808601612182565b73ffffffffffffffffffffffffffffffffffffffff168152602081019190915260400160002080549190910390555b50565b60007f000000000000000000000000000000000000000000000000000000000000000080156107d6577f0000000000000000000000000000000000000000000000000000000000000000156107d6576040517f637113620000000000000000000000000000000000000000000000000000000081526fffffffffffffffffffffffffffffffff8216600482015273ffffffffffffffffffffffffffffffffffffffff7f0000000000000000000000000000000000000000000000000000000000000000811660248301527f0000000000000000000000000000000000000000000000000000000000000000166044820152610708606482015273f2e8176c0b67232b20205f4dfbcec3e74bca471f90636371136290608401602060405180830381865afa1580156107af573d6000803e3d6000fd5b505050506040513d601f19601f820116820180604052508101906107d3919061247c565b90505b6000547effffffffffffffffffffffffffffffffffffffffffffffffffffffffffffff1611919050565b610872604051806101400160405280600081526020016000815260200160008152602001600073ffffffffffffffffffffffffffffffffffffffff1681526020016000815260200160608152602001600015158152602001600081526020016000151581526020016000151581525090565b60405180610140016040528060008054906101000a90047effffffffffffffffffffffffffffffffffffffffffffffffffffffffffffff167effffffffffffffffffffffffffffffffffffffffffffffffffffffffffffff1681526020017f000000000000000000000000000000000000000000000000000000000000000081526020017f000000000000000000000000000000000000000000000000000000000000000081526020017f000000000000000000000000000000000000000000000000000000000000000073ffffffffffffffffffffffffffffffffffffffff1681526020017f000000000000000000000000000000000000000000000000000000000000000081526020016001805480602002602001604051908101604052809291908181526020016000905b82821015610a385760008481526020908190206040805160e08101825260068602909201805460ff80821615158552610100909104161515838501526001808201549284019290925260028101546060840152600381015473ffffffffffffffffffffffffffffffffffffffff9081166080850152600482015460a08501526005909101541660c083015290835290920191016109a0565b505050908252506000547f0100000000000000000000000000000000000000000000000000000000000000900460ff16151560208201527f000000000000000000000000000000000000000000000000000000000000000060408201527f0000000000000000000000000000000000000000000000000000000000000000151560608201527f00000000000000000000000000000000000000000000000000000000000000001515608090910152919050565b6040805160018082528183019092526000916060918291849190816020015b6040805180820190915260008082526020820152815260200190600190039081610b0a57905050905060405180604001604052803073ffffffffffffffffffffffffffffffffffffffff168152602001600081525081600081518110610b7257610b72612495565b6020908102919091010152610100850135610b916101a08701876124c4565b8382828080601f016020809104026020016040519081016040528093929190818152602001838380828437600092019190915250969c929b5092995090975050505050505050565b6040805160018082528183019092526000916060918291849190816020015b6040805180820190915260008082526020820152815260200190600190039081610bf857905050905060405180604001604052803073ffffffffffffffffffffffffffffffffffffffff168152602001600081525081600081518110610c6057610c60612495565b6020908102919091010152610120850135610b916101608701876124c4565b6040517f6e49181f0000000000000000000000000000000000000000000000000000000081527f000000000000000000000000000000000000000000000000000000000000000060048201523360248201527f000000000000000000000000000000000000000000000000000000000000000073ffffffffffffffffffffffffffffffffffffffff1690636e49181f90604401602060405180830381865afa158015610d2f573d6000803e3d6000fd5b505050506040513d601f19601f82011682018060405250810190610d539190612461565b1580610d8357507f0000000000000000000000000000000000000000000000000000000000000000816020013514155b80610db357506000547f0100000000000000000000000000000000000000000000000000000000000000900460ff165b15610dea576040517fc715ec6c00000000000000000000000000000000000000000000000000000000815260040160405180910390fd5b7f000000000000000000000000000000000000000000000000000000000000000015801590610e3857507f000000000000000000000000000000000000000000000000000000000000000042115b15610e6f576040517ffa5646f400000000000000000000000000000000000000000000000000000000815260040160405180910390fd5b7effffffffffffffffffffffffffffffffffffffffffffffffffffffffffffff60808201351115610ecc576040517f60349ef100000000000000000000000000000000000000000000000000000000815260040160405180910390fd5b60008054608083013591908190610f059084907effffffffffffffffffffffffffffffffffffffffffffffffffffffffffffff16612530565b92506101000a8154817effffffffffffffffffffffffffffffffffffffffffffffffffffffffffffff02191690837effffffffffffffffffffffffffffffffffffffffffffffffffffffffffffff160217905550610f616114a7565b608081013560026000610f7c6101a085016101808601612182565b73ffffffffffffffffffffffffffffffffffffffff16815260208101919091526040016000208054909101905550565b3373ffffffffffffffffffffffffffffffffffffffff7f0000000000000000000000000000000000000000000000000000000000000000161461101b576040517f75e669b400000000000000000000000000000000000000000000000000000000815260040160405180910390fd5b6000547f0100000000000000000000000000000000000000000000000000000000000000900460ff161561107b576040517f2c926ffe00000000000000000000000000000000000000000000000000000000815260040160405180910390fd5b600080547effffffffffffffffffffffffffffffffffffffffffffffffffffffffffffff167f01000000000000000000000000000000000000000000000000000000000000001790556110cc61067a565b1561147c577f00000000000000000000000000000000000000000000000000000000000000001580159061111f57507f000000000000000000000000000000000000000000000000000000000000000042105b15611156576040517f92cada5e00000000000000000000000000000000000000000000000000000000815260040160405180910390fd5b60008060008060008061116761165e565b9550955095509550955095507f000000000000000000000000000000000000000000000000000000000000000073ffffffffffffffffffffffffffffffffffffffff1663badbdf287f00000000000000000000000000000000000000000000000000000000000000008686600087876040518763ffffffff1660e01b81526004016111f79695949392919061267c565b6020604051808303816000875af1158015611216573d6000803e3d6000fd5b505050506040513d601f19601f8201168201806040525081019061123a919061247c565b506040517f2b267b4e0000000000000000000000000000000000000000000000000000000081527f00000000000000000000000000000000000000000000000000000000000000006004820152602481018690526001604482015261eeee606482015260006084820181905260c060a483015260c482015273ffffffffffffffffffffffffffffffffffffffff871690632b267b4e9060e4016020604051808303816000875af11580156112f2573d6000803e3d6000fd5b505050506040513d601f19601f82011682018060405250810190611316919061247c565b507f000000000000000000000000000000000000000000000000000000000000000073ffffffffffffffffffffffffffffffffffffffff16638b79543c6040518163ffffffff1660e01b8152600401602060405180830381865afa158015611382573d6000803e3d6000fd5b505050506040513d601f19601f820116820180604052508101906113a69190612867565b6040517f42842e0e00000000000000000000000000000000000000000000000000000000815230600482015273ffffffffffffffffffffffffffffffffffffffff7f0000000000000000000000000000000000000000000000000000000000000000811660248301527f0000000000000000000000000000000000000000000000000000000000000000604483015291909116906342842e0e90606401600060405180830381600087803b15801561145d57600080fd5b505af1158015611471573d6000803e3d6000fd5b505050505050505050505b6040517f5e26bbc33940bf0ea57d4933bd129b7dc4805a4933d6b9892762b2e74005555490600090a1565b7f00000000000000000000000000000000000000000000000000000000000000008015610677577f000000000000000000000000000000000000000000000000000000000000000015611601576040517f637113620000000000000000000000000000000000000000000000000000000081526fffffffffffffffffffffffffffffffff8216600482015273ffffffffffffffffffffffffffffffffffffffff7f0000000000000000000000000000000000000000000000000000000000000000811660248301527f0000000000000000000000000000000000000000000000000000000000000000166044820152610708606482015273f2e8176c0b67232b20205f4dfbcec3e74bca471f90636371136290608401602060405180830381865afa1580156115da573d6000803e3d6000fd5b505050506040513d601f19601f820116820180604052508101906115fe919061247c565b90505b6000547effffffffffffffffffffffffffffffffffffffffffffffffffffffffffffff16811015610677576040517f60349ef100000000000000000000000000000000000000000000000000000000815260040160405180910390fd5b6000806116a26040518060800160405280600081526020016000815260200160008152602001600073ffffffffffffffffffffffffffffffffffffffff1681525090565b604080516102a0810182526000610240820181815261026083018290526102808301829052825260208201819052918101829052606081018290526080810182905260a0810182905260c0810182905260e08101829052610100810182905261012081018290526101408101829052610160810182905261018081018290526101a081018290526101c081018290526101e08101829052610200810182905261022081019190915260408051608081018252600080825269d3c21bcecceda1000000602083015281830181905260608281019190915291517f8776c4990000000000000000000000000000000000000000000000000000000081527f0000000000000000000000000000000000000000000000000000000000000000600482015290935081907f000000000000000000000000000000000000000000000000000000000000000073ffffffffffffffffffffffffffffffffffffffff1690638776c499906024016103a060405180830381865afa158015611827573d6000803e3d6000fd5b505050506040513d601f19601f8201168201806040525081019061184b9190612b0e565b7f00000000000000000000000000000000000000000000000000000000000000006020820152600160c0820181905260006040808401829052835101819052608083019190915260a082018190526101c082018190526101e082018190526102008201819052549094506118e091507effffffffffffffffffffffffffffffffffffffffffffffffffffffffffffff16611d85565b60408051600180825281830190925291965060009190816020015b6040805160e08101825260008082526020808301829052928201819052606082018190526080820181905260a0820181905260c082015282527fffffffffffffffffffffffffffffffffffffffffffffffffffffffffffffffff9092019101816118fb5790505090506040518060e00160405280600015158152602001600015158152602001633b9aca0081526020017f000000000000000000000000000000000000000000000000000000000000000081526020017f000000000000000000000000000000000000000000000000000000000000000073ffffffffffffffffffffffffffffffffffffffff16815260200160008152602001600073ffffffffffffffffffffffffffffffffffffffff1681525081600081518110611a2257611a22612495565b60209081029190910101526040805160028082526060820190925290816020015b604080518082019091526000815260606020820152815260200190600190039081611a435790505092506040518060400160405280600181526020018281525083600081518110611a9657611a96612495565b60200260200101819052506040518060400160405280600281526020016001805480602002602001604051908101604052809291908181526020016000905b82821015611b6d5760008481526020908190206040805160e08101825260068602909201805460ff80821615158552610100909104161515838501526001808201549284019290925260028101546060840152600381015473ffffffffffffffffffffffffffffffffffffffff9081166080850152600482015460a08501526005909101541660c08301529083529092019101611ad5565b5050505081525083600181518110611b8757611b87612495565b60209081029190910101526040517f862026500000000000000000000000000000000000000000000000000000000081527f0000000000000000000000000000000000000000000000000000000000000000600482015261eeee602482015260009073ffffffffffffffffffffffffffffffffffffffff7f00000000000000000000000000000000000000000000000000000000000000001690638620265090604401602060405180830381865afa158015611c47573d6000803e3d6000fd5b505050506040513d601f19601f82011682018060405250810190611c6b9190612867565b604080516001808252818301909252919950899250816020015b611cea6040518060c00160405280600073ffffffffffffffffffffffffffffffffffffffff168152602001600073ffffffffffffffffffffffffffffffffffffffff168152602001600081526020016000815260200160008152602001600081525090565b815260200190600190039081611c855790505092506040518060c001604052808273ffffffffffffffffffffffffffffffffffffffff16815260200161eeee73ffffffffffffffffffffffffffffffffffffffff1681526020018881526020016001815260200160008152602001600081525083600081518110611d7057611d70612495565b60200260200101819052505050909192939495565b6040517f637113620000000000000000000000000000000000000000000000000000000081526fffffffffffffffffffffffffffffffff8216600482015273ffffffffffffffffffffffffffffffffffffffff7f0000000000000000000000000000000000000000000000000000000000000000811660248301527f00000000000000000000000000000000000000000000000000000000000000001660448201526107086064820152600090819073f2e8176c0b67232b20205f4dfbcec3e74bca471f90636371136290608401602060405180830381865afa158015611e70573d6000803e3d6000fd5b505050506040513d601f19601f82011682018060405250810190611e94919061247c565b905060007f0000000000000000000000000000000000000000000000000000000000000000821015611ee757507f0000000000000000000000000000000000000000000000000000000000000000612013565b7f0000000000000000000000000000000000000000000000000000000000000000821115611f3657507f0000000000000000000000000000000000000000000000000000000000000000612013565b7f00000000000000000000000000000000000000000000000000000000000000007f0000000000000000000000000000000000000000000000000000000000000000037f000000000000000000000000000000000000000000000000000000000000000083037f00000000000000000000000000000000000000000000000000000000000000007f0000000000000000000000000000000000000000000000000000000000000000030281611fed57611fed612bb4565b047f00000000000000000000000000000000000000000000000000000000000000000390505b61271081850204949350505050565b60006020828403121561203457600080fd5b81357fffffffff000000000000000000000000000000000000000000000000000000008116811461206457600080fd5b9392505050565b73ffffffffffffffffffffffffffffffffffffffff8116811461067757600080fd5b6000806000806000608086880312156120a557600080fd5b85356120b08161206b565b945060208601356120c08161206b565b935060408601359250606086013567ffffffffffffffff808211156120e457600080fd5b818801915088601f8301126120f857600080fd5b81358181111561210757600080fd5b89602082850101111561211957600080fd5b9699959850939650602001949392505050565b60006101e0828403121561213f57600080fd5b50919050565b60006020828403121561215757600080fd5b813567ffffffffffffffff81111561216e57600080fd5b61217a8482850161212c565b949350505050565b60006020828403121561219457600080fd5b81356120648161206b565b600081518084526020808501945080840160005b8381101561222d57815180511515885283810151151584890152604080820151908901526060808201519089015260808082015173ffffffffffffffffffffffffffffffffffffffff908116918a019190915260a080830151908a015260c091820151169088015260e090960195908201906001016121b3565b509495945050505050565b6020815281516020820152602082015160408201526040820151606082015260006060830151612280608084018273ffffffffffffffffffffffffffffffffffffffff169052565b50608083015160a083015260a08301516101408060c08501526122a761016085018361219f565b915060c08501516122bc60e086018215159052565b5060e0850151610100858101919091528501516101206122df8187018315159052565b90950151151593019290925250919050565b6000815180845260005b81811015612317576020818501810151868301820152016122fb565b5060006020828601015260207fffffffffffffffffffffffffffffffffffffffffffffffffffffffffffffffe0601f83011685010191505092915050565b8381526000602060608184015261236f60608401866122f1565b83810360408581019190915285518083528387019284019060005b818110156123c5578451805173ffffffffffffffffffffffffffffffffffffffff16845286015186840152938501939183019160010161238a565b50909998505050505050505050565b6000602082840312156123e657600080fd5b813567ffffffffffffffff8111156123fd57600080fd5b82016101a0818503121561206457600080fd5b60006020828403121561242257600080fd5b813567ffffffffffffffff81111561243957600080fd5b8201610200818503121561206457600080fd5b8051801515811461245c57600080fd5b919050565b60006020828403121561247357600080fd5b6120648261244c565b60006020828403121561248e57600080fd5b5051919050565b7f4e487b7100000000000000000000000000000000000000000000000000000000600052603260045260246000fd5b60008083357fffffffffffffffffffffffffffffffffffffffffffffffffffffffffffffffe18436030181126124f957600080fd5b83018035915067ffffffffffffffff82111561251457600080fd5b60200191503681900382131561252957600080fd5b9250929050565b7effffffffffffffffffffffffffffffffffffffffffffffffffffffffffffff81811683821601908082111561258f577f4e487b7100000000000000000000000000000000000000000000000000000000600052601160045260246000fd5b5092915050565b600081518084526020808501808196508360051b8101915082860160005b858110156125f257828403895281518051855285015160408686018190526125de8187018361219f565b9a87019a95505050908401906001016125b4565b5091979650505050505050565b600081518084526020808501945080840160005b8381101561222d578151805173ffffffffffffffffffffffffffffffffffffffff908116895284820151168489015260408082015190890152606080820151908901526080808201519089015260a0908101519088015260c09096019590820190600101612613565b60006103a088835287516020840152602088015160408401526040880151606084015273ffffffffffffffffffffffffffffffffffffffff60608901511660808401526126e760a0840188518051151582526020808201511515908301526040908101511515910152565b6020870151610100818186015260408901519150610120828187015260608a01519250610140838188015260808b015193506101606127298189018615159052565b60a08c01519450610180612740818a018715159052565b60c08d015195506101a0612757818b018815159052565b60e08e015196506101c061276e818c018915159052565b958e015196506101e0956127858b88018915159052565b948e015196506102009461279c8b87018915159052565b938e01519650610220936127b38b86018915159052565b928e015115156102408b0152908d015115156102608a01528c015115156102808901528b015115156102a0880152918a015115156102c087015289015173ffffffffffffffffffffffffffffffffffffffff166102e0860152880151610300850152506103208301869052610340830181905261283281840186612596565b905082810361036084015261284781856125ff565b838103610380850152600081529050602081019998505050505050505050565b60006020828403121561287957600080fd5b81516120648161206b565b604051610240810167ffffffffffffffff811182821017156128cf577f4e487b7100000000000000000000000000000000000000000000000000000000600052604160045260246000fd5b60405290565b604051610120810167ffffffffffffffff811182821017156128cf577f4e487b7100000000000000000000000000000000000000000000000000000000600052604160045260246000fd5b805161245c8161206b565b60006060828403121561293d57600080fd5b6040516060810181811067ffffffffffffffff82111715612987577f4e487b7100000000000000000000000000000000000000000000000000000000600052604160045260246000fd5b6040529050806129968361244c565b81526129a46020840161244c565b60208201526129b56040840161244c565b60408201525092915050565b600061028082840312156129d457600080fd5b6129dc612884565b90506129e8838361292b565b8152606082015160208201526080820151604082015260a08201516060820152612a1460c0830161244c565b6080820152612a2560e0830161244c565b60a0820152610100612a3881840161244c565b60c0830152610120612a4b81850161244c565b60e0840152610140612a5e81860161244c565b838501526101609250612a7283860161244c565b828501526101809150612a8682860161244c565b908401526101a0612a9885820161244c565b838501526101c09250612aac83860161244c565b828501526101e09150612ac082860161244c565b90840152610200612ad285820161244c565b838501526102209250612ae683860161244c565b82850152612af76102408601612920565b818501525050610260830151818301525092915050565b6000808284036103a0811215612b2357600080fd5b61012080821215612b3357600080fd5b612b3b6128d5565b9150845182526020850151602083015260408501516040830152606085015160608301526080850151608083015260a085015160a083015260c085015160c0830152612b8960e08601612920565b60e0830152610100808601518184015250819350612ba9868287016129c1565b925050509250929050565b7f4e487b7100000000000000000000000000000000000000000000000000000000600052601260045260246000fdfea2646970667358221220f0c8085b3025421d91babf3b314a09d9ea59653e1bb8cf52d50a8f1acaae174664736f6c63430008110033",
    "linkReferences": {}
  },
  "methodIdentifiers": {
    "LOWER_FUNDRAISE_BOUNDARY_USD()": "23238648",
    "MAX_K()": "3e4c6ab0",
    "MIN_K()": "160e0901",
    "UPPER_FUNDRAISE_BOUNDARY_USD()": "10faea86",
    "bluntProjectId()": "f5434b5d",
    "closeRound()": "e278fe6f",
    "contributions(address)": "42e94c90",
    "didPay((address,uint256,uint256,(address,uint256,uint256,uint256),(address,uint256,uint256,uint256),uint256,address,bool,string,bytes))": "da9ee8b7",
    "didRedeem((address,uint256,uint256,uint256,(address,uint256,uint256,uint256),(address,uint256,uint256,uint256),address,string,bytes))": "2b13c58f",
    "getRoundInfo()": "84bc76a6",
    "isTargetReached()": "5e098f05",
    "onERC721Received(address,address,uint256,bytes)": "150b7a02",
    "payParams((address,address,(address,uint256,uint256,uint256),uint256,uint256,address,uint256,uint256,string,bytes))": "d46cf171",
    "projectId()": "3fafa127",
    "redeemParams((address,address,uint256,uint256,uint256,uint256,uint256,(address,uint256,uint256,uint256),bool,uint256,string,bytes))": "a51cfd18",
    "supportsInterface(bytes4)": "01ffc9a7"
  },
  "id": 0
}