{
  "abi": [
    {
      "inputs": [],
      "stateMutability": "nonpayable",
      "type": "constructor"
    },
    {
      "inputs": [],
      "name": "CAP_REACHED",
      "type": "error"
    },
    {
      "inputs": [],
      "name": "DEADLINE_SET",
      "type": "error"
    },
    {
      "inputs": [],
      "name": "INVALID_DEADLINE",
      "type": "error"
    },
    {
      "inputs": [],
      "name": "INVALID_PAYMENT_EVENT",
      "type": "error"
    },
    {
      "inputs": [],
      "name": "NOT_PROJECT_OWNER",
      "type": "error"
    },
    {
      "inputs": [],
      "name": "ROUND_CLOSED",
      "type": "error"
    },
    {
      "inputs": [],
      "name": "ROUND_ENDED",
      "type": "error"
    },
    {
      "inputs": [],
      "name": "ROUND_NOT_CLOSED",
      "type": "error"
    },
    {
      "inputs": [],
      "name": "ROUND_NOT_ENDED",
      "type": "error"
    },
    {
      "anonymous": false,
      "inputs": [
        {
          "indexed": false,
          "internalType": "uint256",
          "name": "deadline",
          "type": "uint256"
        }
      ],
      "name": "DeadlineSet",
      "type": "event"
    },
    {
      "anonymous": false,
      "inputs": [
        {
          "indexed": false,
          "internalType": "uint8",
          "name": "version",
          "type": "uint8"
        }
      ],
      "name": "Initialized",
      "type": "event"
    },
    {
      "anonymous": false,
      "inputs": [],
      "name": "RoundClosed",
      "type": "event"
    },
    {
      "anonymous": false,
      "inputs": [
        {
          "components": [
            {
              "internalType": "contract IJBDirectory",
              "name": "directory",
              "type": "address"
            },
            {
              "internalType": "address",
              "name": "projectOwner",
              "type": "address"
            },
            {
              "internalType": "uint88",
              "name": "hardcap",
              "type": "uint88"
            },
            {
              "internalType": "uint88",
              "name": "target",
              "type": "uint88"
            },
            {
              "internalType": "bool",
              "name": "isTargetUsd",
              "type": "bool"
            },
            {
              "internalType": "bool",
              "name": "isHardcapUsd",
              "type": "bool"
            },
            {
              "internalType": "string",
              "name": "tokenName",
              "type": "string"
            },
            {
              "internalType": "string",
              "name": "tokenSymbol",
              "type": "string"
            }
          ],
          "indexed": false,
          "internalType": "struct DeployBluntDelegateData",
          "name": "deployBluntDelegateData",
          "type": "tuple"
        },
        {
          "indexed": false,
          "internalType": "uint256",
          "name": "projectId",
          "type": "uint256"
        },
        {
          "indexed": false,
          "internalType": "uint256",
          "name": "duration",
          "type": "uint256"
        }
      ],
      "name": "RoundCreated",
      "type": "event"
    },
    {
      "anonymous": false,
      "inputs": [
        {
          "indexed": false,
          "internalType": "string",
          "name": "tokenName_",
          "type": "string"
        },
        {
          "indexed": false,
          "internalType": "string",
          "name": "tokenSymbol_",
          "type": "string"
        }
      ],
      "name": "TokenMetadataSet",
      "type": "event"
    },
    {
      "inputs": [],
      "name": "LOWER_FUNDRAISE_BOUNDARY_USD",
      "outputs": [
        {
          "internalType": "uint56",
          "name": "",
          "type": "uint56"
        }
      ],
      "stateMutability": "view",
      "type": "function"
    },
    {
      "inputs": [],
      "name": "MAX_K",
      "outputs": [
        {
          "internalType": "uint16",
          "name": "",
          "type": "uint16"
        }
      ],
      "stateMutability": "view",
      "type": "function"
    },
    {
      "inputs": [],
      "name": "MIN_K",
      "outputs": [
        {
          "internalType": "uint16",
          "name": "",
          "type": "uint16"
        }
      ],
      "stateMutability": "view",
      "type": "function"
    },
    {
      "inputs": [],
      "name": "UPPER_FUNDRAISE_BOUNDARY_USD",
      "outputs": [
        {
          "internalType": "uint56",
          "name": "",
          "type": "uint56"
        }
      ],
      "stateMutability": "view",
      "type": "function"
    },
    {
      "inputs": [],
      "name": "closeRound",
      "outputs": [],
      "stateMutability": "nonpayable",
      "type": "function"
    },
    {
      "inputs": [
        {
          "internalType": "address",
          "name": "",
          "type": "address"
        }
      ],
      "name": "contributions",
      "outputs": [
        {
          "internalType": "uint256",
          "name": "",
          "type": "uint256"
        }
      ],
      "stateMutability": "view",
      "type": "function"
    },
    {
      "inputs": [
        {
          "components": [
            {
              "internalType": "address",
              "name": "payer",
              "type": "address"
            },
            {
              "internalType": "uint256",
              "name": "projectId",
              "type": "uint256"
            },
            {
              "internalType": "uint256",
              "name": "currentFundingCycleConfiguration",
              "type": "uint256"
            },
            {
              "components": [
                {
                  "internalType": "address",
                  "name": "token",
                  "type": "address"
                },
                {
                  "internalType": "uint256",
                  "name": "value",
                  "type": "uint256"
                },
                {
                  "internalType": "uint256",
                  "name": "decimals",
                  "type": "uint256"
                },
                {
                  "internalType": "uint256",
                  "name": "currency",
                  "type": "uint256"
                }
              ],
              "internalType": "struct JBTokenAmount",
              "name": "amount",
              "type": "tuple"
            },
            {
              "components": [
                {
                  "internalType": "address",
                  "name": "token",
                  "type": "address"
                },
                {
                  "internalType": "uint256",
                  "name": "value",
                  "type": "uint256"
                },
                {
                  "internalType": "uint256",
                  "name": "decimals",
                  "type": "uint256"
                },
                {
                  "internalType": "uint256",
                  "name": "currency",
                  "type": "uint256"
                }
              ],
              "internalType": "struct JBTokenAmount",
              "name": "forwardedAmount",
              "type": "tuple"
            },
            {
              "internalType": "uint256",
              "name": "projectTokenCount",
              "type": "uint256"
            },
            {
              "internalType": "address",
              "name": "beneficiary",
              "type": "address"
            },
            {
              "internalType": "bool",
              "name": "preferClaimedTokens",
              "type": "bool"
            },
            {
              "internalType": "string",
              "name": "memo",
              "type": "string"
            },
            {
              "internalType": "bytes",
              "name": "metadata",
              "type": "bytes"
            }
          ],
          "internalType": "struct JBDidPayData",
          "name": "_data",
          "type": "tuple"
        }
      ],
      "name": "didPay",
      "outputs": [],
      "stateMutability": "payable",
      "type": "function"
    },
    {
      "inputs": [
        {
          "components": [
            {
              "internalType": "address",
              "name": "holder",
              "type": "address"
            },
            {
              "internalType": "uint256",
              "name": "projectId",
              "type": "uint256"
            },
            {
              "internalType": "uint256",
              "name": "currentFundingCycleConfiguration",
              "type": "uint256"
            },
            {
              "internalType": "uint256",
              "name": "projectTokenCount",
              "type": "uint256"
            },
            {
              "components": [
                {
                  "internalType": "address",
                  "name": "token",
                  "type": "address"
                },
                {
                  "internalType": "uint256",
                  "name": "value",
                  "type": "uint256"
                },
                {
                  "internalType": "uint256",
                  "name": "decimals",
                  "type": "uint256"
                },
                {
                  "internalType": "uint256",
                  "name": "currency",
                  "type": "uint256"
                }
              ],
              "internalType": "struct JBTokenAmount",
              "name": "reclaimedAmount",
              "type": "tuple"
            },
            {
              "components": [
                {
                  "internalType": "address",
                  "name": "token",
                  "type": "address"
                },
                {
                  "internalType": "uint256",
                  "name": "value",
                  "type": "uint256"
                },
                {
                  "internalType": "uint256",
                  "name": "decimals",
                  "type": "uint256"
                },
                {
                  "internalType": "uint256",
                  "name": "currency",
                  "type": "uint256"
                }
              ],
              "internalType": "struct JBTokenAmount",
              "name": "forwardedAmount",
              "type": "tuple"
            },
            {
              "internalType": "address payable",
              "name": "beneficiary",
              "type": "address"
            },
            {
              "internalType": "string",
              "name": "memo",
              "type": "string"
            },
            {
              "internalType": "bytes",
              "name": "metadata",
              "type": "bytes"
            }
          ],
          "internalType": "struct JBDidRedeemData",
          "name": "_data",
          "type": "tuple"
        }
      ],
      "name": "didRedeem",
      "outputs": [],
      "stateMutability": "payable",
      "type": "function"
    },
    {
      "inputs": [],
      "name": "feeProjectId",
      "outputs": [
        {
          "internalType": "uint48",
          "name": "",
          "type": "uint48"
        }
      ],
      "stateMutability": "view",
      "type": "function"
    },
    {
      "inputs": [],
      "name": "getRoundInfo",
      "outputs": [
        {
          "components": [
            {
              "internalType": "uint256",
              "name": "totalContributions",
              "type": "uint256"
            },
            {
              "internalType": "uint256",
              "name": "target",
              "type": "uint256"
            },
            {
              "internalType": "uint256",
              "name": "hardcap",
              "type": "uint256"
            },
            {
              "internalType": "address",
              "name": "projectOwner",
              "type": "address"
            },
            {
              "internalType": "string",
              "name": "tokenName",
              "type": "string"
            },
            {
              "internalType": "string",
              "name": "tokenSymbol",
              "type": "string"
            },
            {
              "internalType": "bool",
              "name": "isRoundClosed",
              "type": "bool"
            },
            {
              "internalType": "uint256",
              "name": "deadline",
              "type": "uint256"
            },
            {
              "internalType": "bool",
              "name": "isTargetUsd",
              "type": "bool"
            },
            {
              "internalType": "bool",
              "name": "isHardcapUsd",
              "type": "bool"
            }
          ],
          "internalType": "struct RoundInfo",
          "name": "",
          "type": "tuple"
        }
      ],
      "stateMutability": "view",
      "type": "function"
    },
    {
      "inputs": [
        {
          "components": [
            {
              "internalType": "contract IJBController3_1",
              "name": "controller",
              "type": "address"
            },
            {
              "internalType": "uint48",
              "name": "feeProjectId",
              "type": "uint48"
            },
            {
              "internalType": "uint48",
              "name": "projectId",
              "type": "uint48"
            },
            {
              "internalType": "uint40",
              "name": "duration",
              "type": "uint40"
            },
            {
              "internalType": "address",
              "name": "ethAddress",
              "type": "address"
            },
            {
              "internalType": "address",
              "name": "usdcAddress",
              "type": "address"
            },
            {
              "internalType": "uint16",
              "name": "maxK",
              "type": "uint16"
            },
            {
              "internalType": "uint16",
              "name": "minK",
              "type": "uint16"
            },
            {
              "internalType": "uint56",
              "name": "upperFundraiseBoundary",
              "type": "uint56"
            },
            {
              "internalType": "uint56",
              "name": "lowerFundraiseBoundary",
              "type": "uint56"
            }
          ],
          "internalType": "struct DeployBluntDelegateDeployerData",
          "name": "_deployBluntDelegateDeployerData",
          "type": "tuple"
        },
        {
          "components": [
            {
              "internalType": "contract IJBDirectory",
              "name": "directory",
              "type": "address"
            },
            {
              "internalType": "address",
              "name": "projectOwner",
              "type": "address"
            },
            {
              "internalType": "uint88",
              "name": "hardcap",
              "type": "uint88"
            },
            {
              "internalType": "uint88",
              "name": "target",
              "type": "uint88"
            },
            {
              "internalType": "bool",
              "name": "isTargetUsd",
              "type": "bool"
            },
            {
              "internalType": "bool",
              "name": "isHardcapUsd",
              "type": "bool"
            },
            {
              "internalType": "string",
              "name": "tokenName",
              "type": "string"
            },
            {
              "internalType": "string",
              "name": "tokenSymbol",
              "type": "string"
            }
          ],
          "internalType": "struct DeployBluntDelegateData",
          "name": "_deployBluntDelegateData",
          "type": "tuple"
        }
      ],
      "name": "initialize",
      "outputs": [],
      "stateMutability": "nonpayable",
      "type": "function"
    },
    {
      "inputs": [],
      "name": "isTargetReached",
      "outputs": [
        {
          "internalType": "bool",
          "name": "",
          "type": "bool"
        }
      ],
      "stateMutability": "view",
      "type": "function"
    },
    {
      "inputs": [
        {
          "internalType": "address",
          "name": "",
          "type": "address"
        },
        {
          "internalType": "address",
          "name": "",
          "type": "address"
        },
        {
          "internalType": "uint256",
          "name": "",
          "type": "uint256"
        },
        {
          "internalType": "bytes",
          "name": "",
          "type": "bytes"
        }
      ],
      "name": "onERC721Received",
      "outputs": [
        {
          "internalType": "bytes4",
          "name": "",
          "type": "bytes4"
        }
      ],
      "stateMutability": "pure",
      "type": "function"
    },
    {
      "inputs": [
        {
          "components": [
            {
              "internalType": "contract IJBPaymentTerminal",
              "name": "terminal",
              "type": "address"
            },
            {
              "internalType": "address",
              "name": "payer",
              "type": "address"
            },
            {
              "components": [
                {
                  "internalType": "address",
                  "name": "token",
                  "type": "address"
                },
                {
                  "internalType": "uint256",
                  "name": "value",
                  "type": "uint256"
                },
                {
                  "internalType": "uint256",
                  "name": "decimals",
                  "type": "uint256"
                },
                {
                  "internalType": "uint256",
                  "name": "currency",
                  "type": "uint256"
                }
              ],
              "internalType": "struct JBTokenAmount",
              "name": "amount",
              "type": "tuple"
            },
            {
              "internalType": "uint256",
              "name": "projectId",
              "type": "uint256"
            },
            {
              "internalType": "uint256",
              "name": "currentFundingCycleConfiguration",
              "type": "uint256"
            },
            {
              "internalType": "address",
              "name": "beneficiary",
              "type": "address"
            },
            {
              "internalType": "uint256",
              "name": "weight",
              "type": "uint256"
            },
            {
              "internalType": "uint256",
              "name": "reservedRate",
              "type": "uint256"
            },
            {
              "internalType": "string",
              "name": "memo",
              "type": "string"
            },
            {
              "internalType": "bytes",
              "name": "metadata",
              "type": "bytes"
            }
          ],
          "internalType": "struct JBPayParamsData",
          "name": "_data",
          "type": "tuple"
        }
      ],
      "name": "payParams",
      "outputs": [
        {
          "internalType": "uint256",
          "name": "weight",
          "type": "uint256"
        },
        {
          "internalType": "string",
          "name": "memo",
          "type": "string"
        },
        {
          "components": [
            {
              "internalType": "contract IJBPayDelegate",
              "name": "delegate",
              "type": "address"
            },
            {
              "internalType": "uint256",
              "name": "amount",
              "type": "uint256"
            }
          ],
          "internalType": "struct JBPayDelegateAllocation[]",
          "name": "delegateAllocations",
          "type": "tuple[]"
        }
      ],
      "stateMutability": "view",
      "type": "function"
    },
    {
      "inputs": [],
      "name": "projectId",
      "outputs": [
        {
          "internalType": "uint48",
          "name": "",
          "type": "uint48"
        }
      ],
      "stateMutability": "view",
      "type": "function"
    },
    {
      "inputs": [
        {
          "components": [
            {
              "internalType": "contract IJBPaymentTerminal",
              "name": "terminal",
              "type": "address"
            },
            {
              "internalType": "address",
              "name": "holder",
              "type": "address"
            },
            {
              "internalType": "uint256",
              "name": "projectId",
              "type": "uint256"
            },
            {
              "internalType": "uint256",
              "name": "currentFundingCycleConfiguration",
              "type": "uint256"
            },
            {
              "internalType": "uint256",
              "name": "tokenCount",
              "type": "uint256"
            },
            {
              "internalType": "uint256",
              "name": "totalSupply",
              "type": "uint256"
            },
            {
              "internalType": "uint256",
              "name": "overflow",
              "type": "uint256"
            },
            {
              "components": [
                {
                  "internalType": "address",
                  "name": "token",
                  "type": "address"
                },
                {
                  "internalType": "uint256",
                  "name": "value",
                  "type": "uint256"
                },
                {
                  "internalType": "uint256",
                  "name": "decimals",
                  "type": "uint256"
                },
                {
                  "internalType": "uint256",
                  "name": "currency",
                  "type": "uint256"
                }
              ],
              "internalType": "struct JBTokenAmount",
              "name": "reclaimAmount",
              "type": "tuple"
            },
            {
              "internalType": "bool",
              "name": "useTotalOverflow",
              "type": "bool"
            },
            {
              "internalType": "uint256",
              "name": "redemptionRate",
              "type": "uint256"
            },
            {
              "internalType": "string",
              "name": "memo",
              "type": "string"
            },
            {
              "internalType": "bytes",
              "name": "metadata",
              "type": "bytes"
            }
          ],
          "internalType": "struct JBRedeemParamsData",
          "name": "_data",
          "type": "tuple"
        }
      ],
      "name": "redeemParams",
      "outputs": [
        {
          "internalType": "uint256",
          "name": "reclaimAmount",
          "type": "uint256"
        },
        {
          "internalType": "string",
          "name": "memo",
          "type": "string"
        },
        {
          "components": [
            {
              "internalType": "contract IJBRedemptionDelegate",
              "name": "delegate",
              "type": "address"
            },
            {
              "internalType": "uint256",
              "name": "amount",
              "type": "uint256"
            }
          ],
          "internalType": "struct JBRedemptionDelegateAllocation[]",
          "name": "delegateAllocations",
          "type": "tuple[]"
        }
      ],
      "stateMutability": "view",
      "type": "function"
    },
    {
      "inputs": [
        {
          "internalType": "uint256",
          "name": "deadline_",
          "type": "uint256"
        }
      ],
      "name": "setDeadline",
      "outputs": [],
      "stateMutability": "nonpayable",
      "type": "function"
    },
    {
      "inputs": [
        {
          "internalType": "string",
          "name": "tokenName_",
          "type": "string"
        },
        {
          "internalType": "string",
          "name": "tokenSymbol_",
          "type": "string"
        }
      ],
      "name": "setTokenMetadata",
      "outputs": [],
      "stateMutability": "nonpayable",
      "type": "function"
    },
    {
      "inputs": [
        {
          "internalType": "bytes4",
          "name": "_interfaceId",
          "type": "bytes4"
        }
      ],
      "name": "supportsInterface",
      "outputs": [
        {
          "internalType": "bool",
          "name": "",
          "type": "bool"
        }
      ],
      "stateMutability": "view",
      "type": "function"
    }
  ],
  "bytecode": {
    "object": "0x60806040523480156200001157600080fd5b506200001c62000022565b620000e3565b600054610100900460ff16156200008f5760405162461bcd60e51b815260206004820152602760248201527f496e697469616c697a61626c653a20636f6e747261637420697320696e697469604482015266616c697a696e6760c81b606482015260840160405180910390fd5b60005460ff90811614620000e1576000805460ff191660ff9081179091556040519081527f7f26b83ff96e1f2b6a682f133852f6798a09c465da95921460cefb38474024989060200160405180910390a15b565b61381f80620000f36000396000f3fe6080604052600436106101445760003560e01c80633e4c6ab0116100c0578063a51cfd1811610074578063d46cf17111610059578063d46cf1711461043c578063da9ee8b71461045c578063e278fe6f1461046f57600080fd5b8063a51cfd18146103ed578063a75e53961461041c57600080fd5b806342e94c90116100a557806342e94c901461037b5780635e098f05146103b657806384bc76a6146103cb57600080fd5b80633e4c6ab01461033a5780633fafa1271461035557600080fd5b8063160e09011161011757806323238648116100fc57806323238648146102aa57806326c0e4b2146102d95780632b13c58f1461032757600080fd5b8063160e090114610256578063195199f61461028a57600080fd5b806301ffc9a7146101495780630d71e3d71461017e57806310faea86146101a0578063150b7a02146101e0575b600080fd5b34801561015557600080fd5b50610169610164366004612533565b610484565b60405190151581526020015b60405180910390f35b34801561018a57600080fd5b5061019e6101993660046126ec565b610601565b005b3480156101ac57600080fd5b506002546101c890640100000000900466ffffffffffffff1681565b60405166ffffffffffffff9091168152602001610175565b3480156101ec57600080fd5b506102256101fb366004612775565b7f150b7a020000000000000000000000000000000000000000000000000000000095945050505050565b6040517fffffffff000000000000000000000000000000000000000000000000000000009091168152602001610175565b34801561026257600080fd5b506002546102779062010000900461ffff1681565b60405161ffff9091168152602001610175565b34801561029657600080fd5b5061019e6102a5366004612814565b6106fc565b3480156102b657600080fd5b506002546101c8906b010000000000000000000000900466ffffffffffffff1681565b3480156102e557600080fd5b506001546103109074010000000000000000000000000000000000000000900465ffffffffffff1681565b60405165ffffffffffff9091168152602001610175565b61019e610335366004612846565b610896565b34801561034657600080fd5b506002546102779061ffff1681565b34801561036157600080fd5b5060015461031090600160d01b900465ffffffffffff1681565b34801561038757600080fd5b506103a8610396366004612883565b600a6020526000908152604090205481565b604051908152602001610175565b3480156103c257600080fd5b50610169610a4e565b3480156103d757600080fd5b506103e0610b86565b6040516101759190612904565b3480156103f957600080fd5b5061040d610408366004612846565b610e03565b604051610175939291906129e2565b34801561042857600080fd5b5061019e610437366004612bb2565b610ee4565b34801561044857600080fd5b5061040d610457366004612cae565b6113a5565b61019e61046a366004612cea565b61143e565b34801561047b57600080fd5b5061019e61181f565b60007fffffffff0000000000000000000000000000000000000000000000000000000082167f01ffc9a700000000000000000000000000000000000000000000000000000000148061051757507fffffffff0000000000000000000000000000000000000000000000000000000082167f71700c6900000000000000000000000000000000000000000000000000000000145b8061056357507fffffffff0000000000000000000000000000000000000000000000000000000082167fda9ee8b700000000000000000000000000000000000000000000000000000000145b806105af57507fffffffff0000000000000000000000000000000000000000000000000000000082167f2b13c58f00000000000000000000000000000000000000000000000000000000145b806105fb57507fffffffff0000000000000000000000000000000000000000000000000000000082167f2ced7ded00000000000000000000000000000000000000000000000000000000145b92915050565b6005546001600160a01b03163314610645576040517f75e669b400000000000000000000000000000000000000000000000000000000815260040160405180910390fd5b6007547f0100000000000000000000000000000000000000000000000000000000000000900460ff16156106a5576040517f2c926ffe00000000000000000000000000000000000000000000000000000000815260040160405180910390fd5b60086106b18382612dc1565b5060096106be8282612dc1565b507f0d398822381eae0e3a93b65acd33efeddbeab022957a12d680a4d03764d998da82826040516106f0929190612edb565b60405180910390a15050565b6005546001600160a01b03163314610740576040517f75e669b400000000000000000000000000000000000000000000000000000000815260040160405180910390fd5b6007547f0100000000000000000000000000000000000000000000000000000000000000900460ff16156107a0576040517f2c926ffe00000000000000000000000000000000000000000000000000000000815260040160405180910390fd5b600754600160d01b900464ffffffffff16156107e8576040517f32ad778500000000000000000000000000000000000000000000000000000000815260040160405180910390fd5b428164ffffffffff161015610829576040517fb16be21c00000000000000000000000000000000000000000000000000000000815260040160405180910390fd5b600780547fff0000000000ffffffffffffffffffffffffffffffffffffffffffffffffffff16600160d01b64ffffffffff8416021790556040518181527f337b880688eb06df8adb77036a6c8def1da2b520bc901c04b3a5a23f9ae130399060200160405180910390a150565b6000546001546040517f6e49181f000000000000000000000000000000000000000000000000000000008152600160d01b90910465ffffffffffff166004820152336024820152620100009091046001600160a01b031690636e49181f90604401602060405180830381865afa158015610914573d6000803e3d6000fd5b505050506040513d601f19601f820116820180604052508101906109389190612f14565b15806109595750600154600160d01b900465ffffffffffff16602082013514155b15610990576040517fc715ec6c00000000000000000000000000000000000000000000000000000000815260040160405180910390fd5b60a0810135600a60006109ab6101a085016101808601612883565b6001600160a01b03168152602081019190915260400160002080549190910390556007547f0100000000000000000000000000000000000000000000000000000000000000900460ff16610a4b57600780547fffffffffffff0000000000000000000000000000000000000000000000000000811660a084013579ffffffffffffffffffffffffffffffffffffffffffffffffffff928316039091161790555b50565b6005546000907401000000000000000000000000000000000000000090046affffffffffffffffffffff168015610b61576006546b010000000000000000000000900460ff1615610b6157600480546003546040517f637113620000000000000000000000000000000000000000000000000000000081526fffffffffffffffffffffffffffffffff8516938101939093526001600160a01b03918216602484015216604482015261070860648201527371c96edd5d36935d5c8d6b78bccd4113725297e390636371136290608401602060405180830381865afa158015610b3a573d6000803e3d6000fd5b505050506040513d601f19601f82011682018060405250810190610b5e9190612f31565b90505b60075479ffffffffffffffffffffffffffffffffffffffffffffffffffff1611919050565b610beb60405180610140016040528060008152602001600081526020016000815260200160006001600160a01b031681526020016060815260200160608152602001600015158152602001600081526020016000151581526020016000151581525090565b604080516101408101825260075479ffffffffffffffffffffffffffffffffffffffffffffffffffff1681526005546affffffffffffffffffffff7401000000000000000000000000000000000000000082048116602084015260065416928201929092526001600160a01b03909116606082015260088054608083019190610c7390612d26565b80601f0160208091040260200160405190810160405280929190818152602001828054610c9f90612d26565b8015610cec5780601f10610cc157610100808354040283529160200191610cec565b820191906000526020600020905b815481529060010190602001808311610ccf57829003601f168201915b5050505050815260200160098054610d0390612d26565b80601f0160208091040260200160405190810160405280929190818152602001828054610d2f90612d26565b8015610d7c5780601f10610d5157610100808354040283529160200191610d7c565b820191906000526020600020905b815481529060010190602001808311610d5f57829003601f168201915b50505091835250506007547f0100000000000000000000000000000000000000000000000000000000000000810460ff90811615156020840152600160d01b90910464ffffffffff1660408301526006546b01000000000000000000000081048216151560608401526c010000000000000000000000009004161515608090910152919050565b6040805160018082528183019092526000916060918291849190816020015b6040805180820190915260008082526020820152815260200190600190039081610e225790505090506040518060400160405280306001600160a01b03168152602001600081525081600081518110610e7d57610e7d612f4a565b6020908102919091010152610100850135610e9c6101a0870187612f79565b8382828080601f016020809104026020016040519081016040528093929190818152602001838380828437600092019190915250969c929b5092995090975050505050505050565b600054610100900460ff1615808015610f045750600054600160ff909116105b80610f1e5750303b158015610f1e575060005460ff166001145b610fae576040517f08c379a000000000000000000000000000000000000000000000000000000000815260206004820152602e60248201527f496e697469616c697a61626c653a20636f6e747261637420697320616c72656160448201527f647920696e697469616c697a6564000000000000000000000000000000000000606482015260840160405180910390fd5b600080547fffffffffffffffffffffffffffffffffffffffffffffffffffffffffffffff00166001179055801561100c57600080547fffffffffffffffffffffffffffffffffffffffffffffffffffffffffffff00ff166101001790555b8260c00151600260006101000a81548161ffff021916908361ffff1602179055508260e001516002806101000a81548161ffff021916908361ffff160217905550826101000151600260046101000a81548166ffffffffffffff021916908366ffffffffffffff1602179055508261012001516002600b6101000a81548166ffffffffffffff021916908366ffffffffffffff1602179055508260200151600160146101000a81548165ffffffffffff021916908365ffffffffffff16021790555082604001516001601a6101000a81548165ffffffffffff021916908365ffffffffffff1602179055508260800151600360006101000a8154816001600160a01b0302191690836001600160a01b031602179055508260a00151600460006101000a8154816001600160a01b0302191690836001600160a01b031602179055508260000151600160006101000a8154816001600160a01b0302191690836001600160a01b031602179055508160000151600060026101000a8154816001600160a01b0302191690836001600160a01b031602179055508160200151600560006101000a8154816001600160a01b0302191690836001600160a01b031602179055508160600151600560146101000a8154816affffffffffffffffffffff02191690836affffffffffffffffffffff16021790555081608001516006600b6101000a81548160ff0219169083151502179055508160400151600660006101000a8154816affffffffffffffffffffff02191690836affffffffffffffffffffff1602179055508160a001516006600c6101000a81548160ff0219169083151502179055508160c00151516000146112915760c082015160089061128f9082612dc1565b505b60e082015151156112b05760e08201516009906112ae9082612dc1565b505b606083015164ffffffffff16156112fa5760608301516112d79064ffffffffff1642613014565b6007601a6101000a81548164ffffffffff021916908364ffffffffff1602179055505b7fd4c28cce8990dc4ee75b3a4ed8d715768abe04e27ffa0b82c70a3195f038856c828460400151856060015160405161133593929190613027565b60405180910390a180156113a057600080547fffffffffffffffffffffffffffffffffffffffffffffffffffffffffffff00ff169055604051600181527f7f26b83ff96e1f2b6a682f133852f6798a09c465da95921460cefb38474024989060200160405180910390a15b505050565b6040805160018082528183019092526000916060918291849190816020015b60408051808201909152600080825260208201528152602001906001900390816113c45790505090506040518060400160405280306001600160a01b0316815260200160008152508160008151811061141f5761141f612f4a565b6020908102919091010152610120850135610e9c610160870187612f79565b6000546001546040517f6e49181f000000000000000000000000000000000000000000000000000000008152600160d01b90910465ffffffffffff166004820152336024820152620100009091046001600160a01b031690636e49181f90604401602060405180830381865afa1580156114bc573d6000803e3d6000fd5b505050506040513d601f19601f820116820180604052508101906114e09190612f14565b15806115015750600154600160d01b900465ffffffffffff16602082013514155b15611538576040517fc715ec6c00000000000000000000000000000000000000000000000000000000815260040160405180910390fd5b6007547f0100000000000000000000000000000000000000000000000000000000000000900460ff16806115955750600754600160d01b900464ffffffffff16158015906115955750600754600160d01b900464ffffffffff1642115b156115cc576040517ffa5646f400000000000000000000000000000000000000000000000000000000815260040160405180910390fd5b79ffffffffffffffffffffffffffffffffffffffffffffffffffff60808201351115611624576040517f60349ef100000000000000000000000000000000000000000000000000000000815260040160405180910390fd5b600780546080830135919060009061165990849079ffffffffffffffffffffffffffffffffffffffffffffffffffff16613130565b825479ffffffffffffffffffffffffffffffffffffffffffffffffffff9182166101009390930a9283029190920219909116179055506006546affffffffffffffffffffff1680156117e0576006546c01000000000000000000000000900460ff161561178857600480546003546040517f637113620000000000000000000000000000000000000000000000000000000081526fffffffffffffffffffffffffffffffff8516938101939093526001600160a01b03918216602484015216604482015261070860648201527371c96edd5d36935d5c8d6b78bccd4113725297e390636371136290608401602060405180830381865afa158015611761573d6000803e3d6000fd5b505050506040513d601f19601f820116820180604052508101906117859190612f31565b90505b60075479ffffffffffffffffffffffffffffffffffffffffffffffffffff168110156117e0576040517f60349ef100000000000000000000000000000000000000000000000000000000815260040160405180910390fd5b6080820135600a60006117fb6101a086016101808701612883565b6001600160a01b031681526020810191909152604001600020805490910190555050565b6005546001600160a01b03163314611863576040517f75e669b400000000000000000000000000000000000000000000000000000000815260040160405180910390fd5b6007547f0100000000000000000000000000000000000000000000000000000000000000900460ff16156118c3576040517f2c926ffe00000000000000000000000000000000000000000000000000000000815260040160405180910390fd5b600780547effffffffffffffffffffffffffffffffffffffffffffffffffffffffffffff167f0100000000000000000000000000000000000000000000000000000000000000179055611914610a4e565b15611e5157600754600160d01b900464ffffffffff16158015906119475750600754600160d01b900464ffffffffff1642105b1561197e576040517f92cada5e00000000000000000000000000000000000000000000000000000000815260040160405180910390fd5b60006008805461198d90612d26565b80601f01602080910402602001604051908101604052809291908181526020018280546119b990612d26565b8015611a065780601f106119db57610100808354040283529160200191611a06565b820191906000526020600020905b8154815290600101906020018083116119e957829003601f168201915b50505050509050600060098054611a1c90612d26565b80601f0160208091040260200160405190810160405280929190818152602001828054611a4890612d26565b8015611a955780601f10611a6a57610100808354040283529160200191611a95565b820191906000526020600020905b815481529060010190602001808311611a7857829003601f168201915b505050505090508151600014158015611aae5750805115155b15611bb257600160009054906101000a90046001600160a01b03166001600160a01b031663619306306040518163ffffffff1660e01b8152600401602060405180830381865afa158015611b06573d6000803e3d6000fd5b505050506040513d601f19601f82011682018060405250810190611b2a919061316a565b6001600160a01b031663a7f2a70b6001601a9054906101000a900465ffffffffffff1684846040518463ffffffff1660e01b8152600401611b6d93929190613187565b6020604051808303816000875af1158015611b8c573d6000803e3d6000fd5b505050506040513d601f19601f82011682018060405250810190611bb0919061316a565b505b600080600080600080611bc3611e7c565b6001546040517fbadbdf28000000000000000000000000000000000000000000000000000000008152969c50949a50929850909650945092506001600160a01b0381169163badbdf2891611c3591600160d01b90910465ffffffffffff16908890889060009089908990600401613484565b6020604051808303816000875af1158015611c54573d6000803e3d6000fd5b505050506040513d601f19601f82011682018060405250810190611c789190612f31565b50600180546040517f4a4305c0000000000000000000000000000000000000000000000000000000008152600160d01b90910465ffffffffffff16600482015260248101879052604481019190915261eeee606482015260006084820181905260c060a483015260c48201526001600160a01b03871690634a4305c09060e4016020604051808303816000875af1158015611d17573d6000803e3d6000fd5b505050506040513d601f19601f82011682018060405250810190611d3b9190612f31565b50600060029054906101000a90046001600160a01b03166001600160a01b0316638b79543c6040518163ffffffff1660e01b8152600401602060405180830381865afa158015611d8f573d6000803e3d6000fd5b505050506040513d601f19601f82011682018060405250810190611db3919061316a565b6005546001546040517f42842e0e0000000000000000000000000000000000000000000000000000000081523060048201526001600160a01b039283166024820152600160d01b90910465ffffffffffff1660448201529116906342842e0e90606401600060405180830381600087803b158015611e3057600080fd5b505af1158015611e44573d6000803e3d6000fd5b5050505050505050505050505b6040517f5e26bbc33940bf0ea57d4933bd129b7dc4805a4933d6b9892762b2e74005555490600090a1565b600080611eb3604051806080016040528060008152602001600081526020016000815260200160006001600160a01b031681525090565b604080516102a0810182526000610240820181815261026083018290526102808301829052825260208201819052918101829052606081018290526080810182905260a0810182905260c0810182905260e08101829052610100810182905261012081018290526101408101829052610160810182905261018081018290526101a081018290526101c081018290526101e0810182905261020081018290526102208101919091526040805160808101825260008082526020820181905281830181905260608083019190915260015492517f8776c499000000000000000000000000000000000000000000000000000000008152600160d01b840465ffffffffffff1660048201529194509182916001600160a01b0390911690638776c499906024016103a060405180830381865afa158015611ff5573d6000803e3d6000fd5b505050506040513d601f19601f820116820180604052508101906120199190613714565b600160c082018190526000604080840182905260608401829052835101819052608083019190915260a082018190526101c082018190526101e0820181905261020082015260075490945061208a915079ffffffffffffffffffffffffffffffffffffffffffffffffffff16612393565b60408051600180825281830190925291965060009190816020015b6040805160e08101825260008082526020808301829052928201819052606082018190526080820181905260a0820181905260c082015282527fffffffffffffffffffffffffffffffffffffffffffffffffffffffffffffffff9092019101816120a5579050506040805160e081018252600080825260208201819052633b9aca009282019290925260015474010000000000000000000000000000000000000000900465ffffffffffff1660608201526005546001600160a01b0316608082015260a0810182905260c0810182905282519293509183919061218a5761218a612f4a565b602090810291909101015260408051600180825281830190925290816020015b6040805180820190915260008152606060208201528152602001906001900390816121aa57905050925060405180604001604052806001815260200182815250836000815181106121fd576121fd612f4a565b6020908102919091010152600080546001546040517f86202650000000000000000000000000000000000000000000000000000000008152600160d01b90910465ffffffffffff16600482015261eeee6024820152620100009091046001600160a01b031690638620265090604401602060405180830381865afa158015612289573d6000803e3d6000fd5b505050506040513d601f19601f820116820180604052508101906122ad919061316a565b604080516001808252818301909252919950899250816020015b6123126040518060c0016040528060006001600160a01b0316815260200160006001600160a01b03168152602001600081526020016000815260200160008152602001600081525090565b8152602001906001900390816122c75790505092506040518060c00160405280826001600160a01b0316815260200161eeee6001600160a01b03168152602001888152602001600181526020016000815260200160008152508360008151811061237e5761237e612f4a565b60200260200101819052505050909192939495565b600354600480546040517f637113620000000000000000000000000000000000000000000000000000000081526fffffffffffffffffffffffffffffffff8516928101929092526001600160a01b039283166024830152919091166044820152610708606482015260009081907371c96edd5d36935d5c8d6b78bccd4113725297e390636371136290608401602060405180830381865afa15801561243c573d6000803e3d6000fd5b505050506040513d601f19601f820116820180604052508101906124609190612f31565b6002549091506000906b010000000000000000000000900466ffffffffffffff16821015612495575060025461ffff16612524565b600254640100000000900466ffffffffffffff168211156124c3575060025462010000900461ffff16612524565b60025466ffffffffffffff6b01000000000000000000000082048116640100000000830482168190039091169161ffff620100008204811691811691909103169084030281612514576125146137ba565b60025491900461ffff9091160390505b61271081850204949350505050565b60006020828403121561254557600080fd5b81357fffffffff000000000000000000000000000000000000000000000000000000008116811461257557600080fd5b9392505050565b7f4e487b7100000000000000000000000000000000000000000000000000000000600052604160045260246000fd5b604051610100810167ffffffffffffffff811182821017156125cf576125cf61257c565b60405290565b604051610140810167ffffffffffffffff811182821017156125cf576125cf61257c565b604051610240810167ffffffffffffffff811182821017156125cf576125cf61257c565b604051610120810167ffffffffffffffff811182821017156125cf576125cf61257c565b600082601f83011261265257600080fd5b813567ffffffffffffffff8082111561266d5761266d61257c565b604051601f83017fffffffffffffffffffffffffffffffffffffffffffffffffffffffffffffffe0908116603f011681019082821181831017156126b3576126b361257c565b816040528381528660208588010111156126cc57600080fd5b836020870160208301376000602085830101528094505050505092915050565b600080604083850312156126ff57600080fd5b823567ffffffffffffffff8082111561271757600080fd5b61272386838701612641565b9350602085013591508082111561273957600080fd5b5061274685828601612641565b9150509250929050565b6001600160a01b0381168114610a4b57600080fd5b803561277081612750565b919050565b60008060008060006080868803121561278d57600080fd5b853561279881612750565b945060208601356127a881612750565b935060408601359250606086013567ffffffffffffffff808211156127cc57600080fd5b818801915088601f8301126127e057600080fd5b8135818111156127ef57600080fd5b89602082850101111561280157600080fd5b9699959850939650602001949392505050565b60006020828403121561282657600080fd5b5035919050565b60006101e0828403121561284057600080fd5b50919050565b60006020828403121561285857600080fd5b813567ffffffffffffffff81111561286f57600080fd5b61287b8482850161282d565b949350505050565b60006020828403121561289557600080fd5b813561257581612750565b6000815180845260005b818110156128c6576020818501810151868301820152016128aa565b5060006020828601015260207fffffffffffffffffffffffffffffffffffffffffffffffffffffffffffffffe0601f83011685010191505092915050565b602081528151602082015260208201516040820152604082015160608201526000606083015161293f60808401826001600160a01b03169052565b5060808301516101408060a085015261295c6101608501836128a0565b915060a08501517fffffffffffffffffffffffffffffffffffffffffffffffffffffffffffffffe08584030160c086015261299783826128a0565b92505060c08501516129ad60e086018215159052565b5060e0850151610100858101919091528501516101206129d08187018315159052565b90950151151593019290925250919050565b838152600060206060818401526129fc60608401866128a0565b83810360408581019190915285518083528387019284019060005b81811015612a4557845180516001600160a01b03168452860151868401529385019391830191600101612a17565b50909998505050505050505050565b803565ffffffffffff8116811461277057600080fd5b803564ffffffffff8116811461277057600080fd5b803561ffff8116811461277057600080fd5b803566ffffffffffffff8116811461277057600080fd5b80356affffffffffffffffffffff8116811461277057600080fd5b8015158114610a4b57600080fd5b803561277081612ac3565b60006101008284031215612aef57600080fd5b612af76125ab565b9050612b0282612765565b8152612b1060208301612765565b6020820152612b2160408301612aa8565b6040820152612b3260608301612aa8565b6060820152612b4360808301612ad1565b6080820152612b5460a08301612ad1565b60a082015260c082013567ffffffffffffffff80821115612b7457600080fd5b612b8085838601612641565b60c084015260e0840135915080821115612b9957600080fd5b50612ba684828501612641565b60e08301525092915050565b600080828403610160811215612bc757600080fd5b61014080821215612bd757600080fd5b612bdf6125d5565b9150612bea85612765565b8252612bf860208601612a54565b6020830152612c0960408601612a54565b6040830152612c1a60608601612a6a565b6060830152612c2b60808601612765565b6080830152612c3c60a08601612765565b60a0830152612c4d60c08601612a7f565b60c0830152612c5e60e08601612a7f565b60e0830152610100612c71818701612a91565b90830152610120612c83868201612a91565b9083015290925083013567ffffffffffffffff811115612ca257600080fd5b61274685828601612adc565b600060208284031215612cc057600080fd5b813567ffffffffffffffff811115612cd757600080fd5b82016101a0818503121561257557600080fd5b600060208284031215612cfc57600080fd5b813567ffffffffffffffff811115612d1357600080fd5b8201610200818503121561257557600080fd5b600181811c90821680612d3a57607f821691505b602082108103612840577f4e487b7100000000000000000000000000000000000000000000000000000000600052602260045260246000fd5b601f8211156113a057600081815260208120601f850160051c81016020861015612d9a5750805b601f850160051c820191505b81811015612db957828155600101612da6565b505050505050565b815167ffffffffffffffff811115612ddb57612ddb61257c565b612def81612de98454612d26565b84612d73565b602080601f831160018114612e425760008415612e0c5750858301515b7fffffffffffffffffffffffffffffffffffffffffffffffffffffffffffffffff600386901b1c1916600185901b178555612db9565b6000858152602081207fffffffffffffffffffffffffffffffffffffffffffffffffffffffffffffffe08616915b82811015612e8f57888601518255948401946001909101908401612e70565b5085821015612ecb57878501517fffffffffffffffffffffffffffffffffffffffffffffffffffffffffffffffff600388901b60f8161c191681555b5050505050600190811b01905550565b604081526000612eee60408301856128a0565b8281036020840152612f0081856128a0565b95945050505050565b805161277081612ac3565b600060208284031215612f2657600080fd5b815161257581612ac3565b600060208284031215612f4357600080fd5b5051919050565b7f4e487b7100000000000000000000000000000000000000000000000000000000600052603260045260246000fd5b60008083357fffffffffffffffffffffffffffffffffffffffffffffffffffffffffffffffe1843603018112612fae57600080fd5b83018035915067ffffffffffffffff821115612fc957600080fd5b602001915036819003821315612fde57600080fd5b9250929050565b7f4e487b7100000000000000000000000000000000000000000000000000000000600052601160045260246000fd5b808201808211156105fb576105fb612fe5565b606081526001600160a01b0384511660608201526000602085015161305760808401826001600160a01b03169052565b5060408501516affffffffffffffffffffff811660a08401525060608501516affffffffffffffffffffff811660c084015250608085015180151560e08401525060a08501516101006130ad8185018315159052565b60c0870151915080610120850152506130ca6101608401826128a0565b905060e08601517fffffffffffffffffffffffffffffffffffffffffffffffffffffffffffffffa08483030161014085015261310682826128a0565b9250505061311e602083018565ffffffffffff169052565b64ffffffffff8316604083015261287b565b79ffffffffffffffffffffffffffffffffffffffffffffffffffff81811683821601908082111561316357613163612fe5565b5092915050565b60006020828403121561317c57600080fd5b815161257581612750565b65ffffffffffff841681526060602082015260006131a860608301856128a0565b82810360408401526131ba81856128a0565b9695505050505050565b6131e98282518051151582526020808201511515908301526040908101511515910152565b6020810151606083015260408101516080830152606081015160a0830152608081015161321a60c084018215159052565b5060a081015180151560e08401525060c081015161010061323e8185018315159052565b60e083015191506101206132558186018415159052565b9083015191506101409061326c8583018415159052565b83015191506101606132818582018415159052565b908301519150610180906132988583018415159052565b83015191506101a06132ad8582018415159052565b9083015191506101c0906132c48583018415159052565b83015191506101e06132d98582018415159052565b908301519150610200906132f08583018415159052565b83015191506102206133058582018415159052565b908301516001600160a01b0316610240850152909101516102609092019190915250565b600081518084526020808501808196508360051b810191508286016000805b868110156133fb578385038a52825180518652860151604087870181905281518188018190529188019160609081890190865b818110156133e45785518051151584528c81015115158d850152858101518685015284810151858501526080808201516001600160a01b039081169186019190915260a0808301519086015260c0918201511690840152948b019460e09092019160010161337b565b50509c89019c975050509286019250600101613348565b509298975050505050505050565b600081518084526020808501945080840160005b8381101561347957815180516001600160a01b03908116895284820151168489015260408082015190890152606080820151908901526080808201519089015260a0908101519088015260c0909601959082019060010161341d565b509495945050505050565b60006103a065ffffffffffff891683528751602084015260208801516040840152604088015160608401526001600160a01b0360608901511660808401526134cf60a08401886131c4565b85610320840152806103408401526134e981840186613329565b90508281036103608401526134fe8185613409565b838103610380850152601581527f426c756e7420726f756e6420636f6d706c65746564000000000000000000000060208201529050604081019998505050505050505050565b805161277081612750565b60006060828403121561356157600080fd5b6040516060810181811067ffffffffffffffff821117156135845761358461257c565b8060405250809150825161359781612ac3565b815260208301516135a781612ac3565b602082015260408301516135ba81612ac3565b6040919091015292915050565b600061028082840312156135da57600080fd5b6135e26125f9565b90506135ee838361354f565b8152606082015160208201526080820151604082015260a0820151606082015261361a60c08301612f09565b608082015261362b60e08301612f09565b60a082015261010061363e818401612f09565b60c0830152610120613651818501612f09565b60e0840152610140613664818601612f09565b838501526101609250613678838601612f09565b82850152610180915061368c828601612f09565b908401526101a061369e858201612f09565b838501526101c092506136b2838601612f09565b828501526101e091506136c6828601612f09565b908401526102006136d8858201612f09565b8385015261022092506136ec838601612f09565b828501526136fd6102408601613544565b818501525050610260830151818301525092915050565b6000808284036103a081121561372957600080fd5b6101208082121561373957600080fd5b61374161261d565b9150845182526020850151602083015260408501516040830152606085015160608301526080850151608083015260a085015160a083015260c085015160c083015261378f60e08601613544565b60e08301526101008086015181840152508193506137af868287016135c7565b925050509250929050565b7f4e487b7100000000000000000000000000000000000000000000000000000000600052601260045260246000fdfea2646970667358221220796be798fb2bb2193c7282dbf9bf70a3e032fbae3c7b0809fee313f6d2a6007d64736f6c63430008110033",
    "linkReferences": {}
  },
  "methodIdentifiers": {
    "LOWER_FUNDRAISE_BOUNDARY_USD()": "23238648",
    "MAX_K()": "3e4c6ab0",
    "MIN_K()": "160e0901",
    "UPPER_FUNDRAISE_BOUNDARY_USD()": "10faea86",
    "closeRound()": "e278fe6f",
    "contributions(address)": "42e94c90",
    "didPay((address,uint256,uint256,(address,uint256,uint256,uint256),(address,uint256,uint256,uint256),uint256,address,bool,string,bytes))": "da9ee8b7",
    "didRedeem((address,uint256,uint256,uint256,(address,uint256,uint256,uint256),(address,uint256,uint256,uint256),address,string,bytes))": "2b13c58f",
    "feeProjectId()": "26c0e4b2",
    "getRoundInfo()": "84bc76a6",
    "initialize((address,uint48,uint48,uint40,address,address,uint16,uint16,uint56,uint56),(address,address,uint88,uint88,bool,bool,string,string))": "a75e5396",
    "isTargetReached()": "5e098f05",
    "onERC721Received(address,address,uint256,bytes)": "150b7a02",
    "payParams((address,address,(address,uint256,uint256,uint256),uint256,uint256,address,uint256,uint256,string,bytes))": "d46cf171",
    "projectId()": "3fafa127",
    "redeemParams((address,address,uint256,uint256,uint256,uint256,uint256,(address,uint256,uint256,uint256),bool,uint256,string,bytes))": "a51cfd18",
    "setDeadline(uint256)": "195199f6",
    "setTokenMetadata(string,string)": "0d71e3d7",
    "supportsInterface(bytes4)": "01ffc9a7"
  },
  "id": 0
}