{
  "abi": [
    {
      "inputs": [
        {
          "internalType": "uint256",
          "name": "_baseWeightCurrency",
          "type": "uint256"
        },
        {
          "internalType": "contract IJBOperatorStore",
          "name": "_operatorStore",
          "type": "address"
        },
        {
          "internalType": "contract IJBProjects",
          "name": "_projects",
          "type": "address"
        },
        {
          "internalType": "contract IJBDirectory",
          "name": "_directory",
          "type": "address"
        },
        {
          "internalType": "contract IJBSplitsStore",
          "name": "_splitsStore",
          "type": "address"
        },
        {
          "internalType": "contract IJBPrices",
          "name": "_prices",
          "type": "address"
        },
        {
          "internalType": "contract IJBSingleTokenPaymentTerminalStore",
          "name": "_store",
          "type": "address"
        },
        {
          "internalType": "address",
          "name": "_owner",
          "type": "address"
        }
      ],
      "stateMutability": "nonpayable",
      "type": "constructor"
    },
    {
      "inputs": [],
      "name": "FEE_TOO_HIGH",
      "type": "error"
    },
    {
      "inputs": [],
      "name": "INADEQUATE_DISTRIBUTION_AMOUNT",
      "type": "error"
    },
    {
      "inputs": [],
      "name": "INADEQUATE_RECLAIM_AMOUNT",
      "type": "error"
    },
    {
      "inputs": [],
      "name": "INADEQUATE_TOKEN_COUNT",
      "type": "error"
    },
    {
      "inputs": [],
      "name": "NO_MSG_VALUE_ALLOWED",
      "type": "error"
    },
    {
      "inputs": [],
      "name": "PAY_TO_ZERO_ADDRESS",
      "type": "error"
    },
    {
      "inputs": [
        {
          "internalType": "uint256",
          "name": "prod1",
          "type": "uint256"
        },
        {
          "internalType": "uint256",
          "name": "denominator",
          "type": "uint256"
        }
      ],
      "name": "PRBMath__MulDivOverflow",
      "type": "error"
    },
    {
      "inputs": [],
      "name": "PROJECT_TERMINAL_MISMATCH",
      "type": "error"
    },
    {
      "inputs": [],
      "name": "REDEEM_TO_ZERO_ADDRESS",
      "type": "error"
    },
    {
      "inputs": [],
      "name": "TERMINAL_IN_SPLIT_ZERO_ADDRESS",
      "type": "error"
    },
    {
      "inputs": [],
      "name": "TERMINAL_TOKENS_INCOMPATIBLE",
      "type": "error"
    },
    {
      "inputs": [],
      "name": "UNAUTHORIZED",
      "type": "error"
    },
    {
      "anonymous": false,
      "inputs": [
        {
          "indexed": true,
          "internalType": "uint256",
          "name": "projectId",
          "type": "uint256"
        },
        {
          "indexed": false,
          "internalType": "uint256",
          "name": "amount",
          "type": "uint256"
        },
        {
          "indexed": false,
          "internalType": "uint256",
          "name": "refundedFees",
          "type": "uint256"
        },
        {
          "indexed": false,
          "internalType": "string",
          "name": "memo",
          "type": "string"
        },
        {
          "indexed": false,
          "internalType": "bytes",
          "name": "metadata",
          "type": "bytes"
        },
        {
          "indexed": false,
          "internalType": "address",
          "name": "caller",
          "type": "address"
        }
      ],
      "name": "AddToBalance",
      "type": "event"
    },
    {
      "anonymous": false,
      "inputs": [
        {
          "indexed": true,
          "internalType": "contract IJBPayDelegate",
          "name": "delegate",
          "type": "address"
        },
        {
          "components": [
            {
              "internalType": "address",
              "name": "payer",
              "type": "address"
            },
            {
              "internalType": "uint256",
              "name": "projectId",
              "type": "uint256"
            },
            {
              "internalType": "uint256",
              "name": "currentFundingCycleConfiguration",
              "type": "uint256"
            },
            {
              "components": [
                {
                  "internalType": "address",
                  "name": "token",
                  "type": "address"
                },
                {
                  "internalType": "uint256",
                  "name": "value",
                  "type": "uint256"
                },
                {
                  "internalType": "uint256",
                  "name": "decimals",
                  "type": "uint256"
                },
                {
                  "internalType": "uint256",
                  "name": "currency",
                  "type": "uint256"
                }
              ],
              "internalType": "struct JBTokenAmount",
              "name": "amount",
              "type": "tuple"
            },
            {
              "components": [
                {
                  "internalType": "address",
                  "name": "token",
                  "type": "address"
                },
                {
                  "internalType": "uint256",
                  "name": "value",
                  "type": "uint256"
                },
                {
                  "internalType": "uint256",
                  "name": "decimals",
                  "type": "uint256"
                },
                {
                  "internalType": "uint256",
                  "name": "currency",
                  "type": "uint256"
                }
              ],
              "internalType": "struct JBTokenAmount",
              "name": "forwardedAmount",
              "type": "tuple"
            },
            {
              "internalType": "uint256",
              "name": "projectTokenCount",
              "type": "uint256"
            },
            {
              "internalType": "address",
              "name": "beneficiary",
              "type": "address"
            },
            {
              "internalType": "bool",
              "name": "preferClaimedTokens",
              "type": "bool"
            },
            {
              "internalType": "string",
              "name": "memo",
              "type": "string"
            },
            {
              "internalType": "bytes",
              "name": "metadata",
              "type": "bytes"
            }
          ],
          "indexed": false,
          "internalType": "struct JBDidPayData",
          "name": "data",
          "type": "tuple"
        },
        {
          "indexed": false,
          "internalType": "uint256",
          "name": "delegatedAmount",
          "type": "uint256"
        },
        {
          "indexed": false,
          "internalType": "address",
          "name": "caller",
          "type": "address"
        }
      ],
      "name": "DelegateDidPay",
      "type": "event"
    },
    {
      "anonymous": false,
      "inputs": [
        {
          "indexed": true,
          "internalType": "contract IJBRedemptionDelegate",
          "name": "delegate",
          "type": "address"
        },
        {
          "components": [
            {
              "internalType": "address",
              "name": "holder",
              "type": "address"
            },
            {
              "internalType": "uint256",
              "name": "projectId",
              "type": "uint256"
            },
            {
              "internalType": "uint256",
              "name": "currentFundingCycleConfiguration",
              "type": "uint256"
            },
            {
              "internalType": "uint256",
              "name": "projectTokenCount",
              "type": "uint256"
            },
            {
              "components": [
                {
                  "internalType": "address",
                  "name": "token",
                  "type": "address"
                },
                {
                  "internalType": "uint256",
                  "name": "value",
                  "type": "uint256"
                },
                {
                  "internalType": "uint256",
                  "name": "decimals",
                  "type": "uint256"
                },
                {
                  "internalType": "uint256",
                  "name": "currency",
                  "type": "uint256"
                }
              ],
              "internalType": "struct JBTokenAmount",
              "name": "reclaimedAmount",
              "type": "tuple"
            },
            {
              "components": [
                {
                  "internalType": "address",
                  "name": "token",
                  "type": "address"
                },
                {
                  "internalType": "uint256",
                  "name": "value",
                  "type": "uint256"
                },
                {
                  "internalType": "uint256",
                  "name": "decimals",
                  "type": "uint256"
                },
                {
                  "internalType": "uint256",
                  "name": "currency",
                  "type": "uint256"
                }
              ],
              "internalType": "struct JBTokenAmount",
              "name": "forwardedAmount",
              "type": "tuple"
            },
            {
              "internalType": "address payable",
              "name": "beneficiary",
              "type": "address"
            },
            {
              "internalType": "string",
              "name": "memo",
              "type": "string"
            },
            {
              "internalType": "bytes",
              "name": "metadata",
              "type": "bytes"
            }
          ],
          "indexed": false,
          "internalType": "struct JBDidRedeemData",
          "name": "data",
          "type": "tuple"
        },
        {
          "indexed": false,
          "internalType": "uint256",
          "name": "delegatedAmount",
          "type": "uint256"
        },
        {
          "indexed": false,
          "internalType": "address",
          "name": "caller",
          "type": "address"
        }
      ],
      "name": "DelegateDidRedeem",
      "type": "event"
    },
    {
      "anonymous": false,
      "inputs": [
        {
          "indexed": true,
          "internalType": "uint256",
          "name": "fundingCycleConfiguration",
          "type": "uint256"
        },
        {
          "indexed": true,
          "internalType": "uint256",
          "name": "fundingCycleNumber",
          "type": "uint256"
        },
        {
          "indexed": true,
          "internalType": "uint256",
          "name": "projectId",
          "type": "uint256"
        },
        {
          "indexed": false,
          "internalType": "address",
          "name": "beneficiary",
          "type": "address"
        },
        {
          "indexed": false,
          "internalType": "uint256",
          "name": "amount",
          "type": "uint256"
        },
        {
          "indexed": false,
          "internalType": "uint256",
          "name": "distributedAmount",
          "type": "uint256"
        },
        {
          "indexed": false,
          "internalType": "uint256",
          "name": "fee",
          "type": "uint256"
        },
        {
          "indexed": false,
          "internalType": "uint256",
          "name": "beneficiaryDistributionAmount",
          "type": "uint256"
        },
        {
          "indexed": false,
          "internalType": "string",
          "name": "memo",
          "type": "string"
        },
        {
          "indexed": false,
          "internalType": "address",
          "name": "caller",
          "type": "address"
        }
      ],
      "name": "DistributePayouts",
      "type": "event"
    },
    {
      "anonymous": false,
      "inputs": [
        {
          "indexed": true,
          "internalType": "uint256",
          "name": "projectId",
          "type": "uint256"
        },
        {
          "indexed": true,
          "internalType": "uint256",
          "name": "domain",
          "type": "uint256"
        },
        {
          "indexed": true,
          "internalType": "uint256",
          "name": "group",
          "type": "uint256"
        },
        {
          "components": [
            {
              "internalType": "bool",
              "name": "preferClaimed",
              "type": "bool"
            },
            {
              "internalType": "bool",
              "name": "preferAddToBalance",
              "type": "bool"
            },
            {
              "internalType": "uint256",
              "name": "percent",
              "type": "uint256"
            },
            {
              "internalType": "uint256",
              "name": "projectId",
              "type": "uint256"
            },
            {
              "internalType": "address payable",
              "name": "beneficiary",
              "type": "address"
            },
            {
              "internalType": "uint256",
              "name": "lockedUntil",
              "type": "uint256"
            },
            {
              "internalType": "contract IJBSplitAllocator",
              "name": "allocator",
              "type": "address"
            }
          ],
          "indexed": false,
          "internalType": "struct JBSplit",
          "name": "split",
          "type": "tuple"
        },
        {
          "indexed": false,
          "internalType": "uint256",
          "name": "amount",
          "type": "uint256"
        },
        {
          "indexed": false,
          "internalType": "address",
          "name": "caller",
          "type": "address"
        }
      ],
      "name": "DistributeToPayoutSplit",
      "type": "event"
    },
    {
      "anonymous": false,
      "inputs": [
        {
          "indexed": true,
          "internalType": "uint256",
          "name": "projectId",
          "type": "uint256"
        },
        {
          "indexed": true,
          "internalType": "uint256",
          "name": "amount",
          "type": "uint256"
        },
        {
          "indexed": true,
          "internalType": "uint256",
          "name": "fee",
          "type": "uint256"
        },
        {
          "indexed": false,
          "internalType": "uint256",
          "name": "feeDiscount",
          "type": "uint256"
        },
        {
          "indexed": false,
          "internalType": "address",
          "name": "beneficiary",
          "type": "address"
        },
        {
          "indexed": false,
          "internalType": "address",
          "name": "caller",
          "type": "address"
        }
      ],
      "name": "HoldFee",
      "type": "event"
    },
    {
      "anonymous": false,
      "inputs": [
        {
          "indexed": true,
          "internalType": "uint256",
          "name": "projectId",
          "type": "uint256"
        },
        {
          "indexed": true,
          "internalType": "contract IJBPaymentTerminal",
          "name": "to",
          "type": "address"
        },
        {
          "indexed": false,
          "internalType": "uint256",
          "name": "amount",
          "type": "uint256"
        },
        {
          "indexed": false,
          "internalType": "address",
          "name": "caller",
          "type": "address"
        }
      ],
      "name": "Migrate",
      "type": "event"
    },
    {
      "anonymous": false,
      "inputs": [
        {
          "indexed": true,
          "internalType": "address",
          "name": "previousOwner",
          "type": "address"
        },
        {
          "indexed": true,
          "internalType": "address",
          "name": "newOwner",
          "type": "address"
        }
      ],
      "name": "OwnershipTransferred",
      "type": "event"
    },
    {
      "anonymous": false,
      "inputs": [
        {
          "indexed": true,
          "internalType": "uint256",
          "name": "fundingCycleConfiguration",
          "type": "uint256"
        },
        {
          "indexed": true,
          "internalType": "uint256",
          "name": "fundingCycleNumber",
          "type": "uint256"
        },
        {
          "indexed": true,
          "internalType": "uint256",
          "name": "projectId",
          "type": "uint256"
        },
        {
          "indexed": false,
          "internalType": "address",
          "name": "payer",
          "type": "address"
        },
        {
          "indexed": false,
          "internalType": "address",
          "name": "beneficiary",
          "type": "address"
        },
        {
          "indexed": false,
          "internalType": "uint256",
          "name": "amount",
          "type": "uint256"
        },
        {
          "indexed": false,
          "internalType": "uint256",
          "name": "beneficiaryTokenCount",
          "type": "uint256"
        },
        {
          "indexed": false,
          "internalType": "string",
          "name": "memo",
          "type": "string"
        },
        {
          "indexed": false,
          "internalType": "bytes",
          "name": "metadata",
          "type": "bytes"
        },
        {
          "indexed": false,
          "internalType": "address",
          "name": "caller",
          "type": "address"
        }
      ],
      "name": "Pay",
      "type": "event"
    },
    {
      "anonymous": false,
      "inputs": [
        {
          "indexed": true,
          "internalType": "uint256",
          "name": "projectId",
          "type": "uint256"
        },
        {
          "indexed": true,
          "internalType": "uint256",
          "name": "amount",
          "type": "uint256"
        },
        {
          "indexed": true,
          "internalType": "bool",
          "name": "wasHeld",
          "type": "bool"
        },
        {
          "indexed": false,
          "internalType": "address",
          "name": "beneficiary",
          "type": "address"
        },
        {
          "indexed": false,
          "internalType": "address",
          "name": "caller",
          "type": "address"
        }
      ],
      "name": "ProcessFee",
      "type": "event"
    },
    {
      "anonymous": false,
      "inputs": [
        {
          "indexed": true,
          "internalType": "uint256",
          "name": "fundingCycleConfiguration",
          "type": "uint256"
        },
        {
          "indexed": true,
          "internalType": "uint256",
          "name": "fundingCycleNumber",
          "type": "uint256"
        },
        {
          "indexed": true,
          "internalType": "uint256",
          "name": "projectId",
          "type": "uint256"
        },
        {
          "indexed": false,
          "internalType": "address",
          "name": "holder",
          "type": "address"
        },
        {
          "indexed": false,
          "internalType": "address",
          "name": "beneficiary",
          "type": "address"
        },
        {
          "indexed": false,
          "internalType": "uint256",
          "name": "tokenCount",
          "type": "uint256"
        },
        {
          "indexed": false,
          "internalType": "uint256",
          "name": "reclaimedAmount",
          "type": "uint256"
        },
        {
          "indexed": false,
          "internalType": "string",
          "name": "memo",
          "type": "string"
        },
        {
          "indexed": false,
          "internalType": "bytes",
          "name": "metadata",
          "type": "bytes"
        },
        {
          "indexed": false,
          "internalType": "address",
          "name": "caller",
          "type": "address"
        }
      ],
      "name": "RedeemTokens",
      "type": "event"
    },
    {
      "anonymous": false,
      "inputs": [
        {
          "indexed": true,
          "internalType": "uint256",
          "name": "projectId",
          "type": "uint256"
        },
        {
          "indexed": true,
          "internalType": "uint256",
          "name": "amount",
          "type": "uint256"
        },
        {
          "indexed": true,
          "internalType": "uint256",
          "name": "refundedFees",
          "type": "uint256"
        },
        {
          "indexed": false,
          "internalType": "uint256",
          "name": "leftoverAmount",
          "type": "uint256"
        },
        {
          "indexed": false,
          "internalType": "address",
          "name": "caller",
          "type": "address"
        }
      ],
      "name": "RefundHeldFees",
      "type": "event"
    },
    {
      "anonymous": false,
      "inputs": [
        {
          "indexed": false,
          "internalType": "uint256",
          "name": "fee",
          "type": "uint256"
        },
        {
          "indexed": false,
          "internalType": "address",
          "name": "caller",
          "type": "address"
        }
      ],
      "name": "SetFee",
      "type": "event"
    },
    {
      "anonymous": false,
      "inputs": [
        {
          "indexed": true,
          "internalType": "contract IJBFeeGauge",
          "name": "feeGauge",
          "type": "address"
        },
        {
          "indexed": false,
          "internalType": "address",
          "name": "caller",
          "type": "address"
        }
      ],
      "name": "SetFeeGauge",
      "type": "event"
    },
    {
      "anonymous": false,
      "inputs": [
        {
          "indexed": true,
          "internalType": "address",
          "name": "addrs",
          "type": "address"
        },
        {
          "indexed": true,
          "internalType": "bool",
          "name": "flag",
          "type": "bool"
        },
        {
          "indexed": false,
          "internalType": "address",
          "name": "caller",
          "type": "address"
        }
      ],
      "name": "SetFeelessAddress",
      "type": "event"
    },
    {
      "anonymous": false,
      "inputs": [
        {
          "indexed": true,
          "internalType": "uint256",
          "name": "fundingCycleConfiguration",
          "type": "uint256"
        },
        {
          "indexed": true,
          "internalType": "uint256",
          "name": "fundingCycleNumber",
          "type": "uint256"
        },
        {
          "indexed": true,
          "internalType": "uint256",
          "name": "projectId",
          "type": "uint256"
        },
        {
          "indexed": false,
          "internalType": "address",
          "name": "beneficiary",
          "type": "address"
        },
        {
          "indexed": false,
          "internalType": "uint256",
          "name": "amount",
          "type": "uint256"
        },
        {
          "indexed": false,
          "internalType": "uint256",
          "name": "distributedAmount",
          "type": "uint256"
        },
        {
          "indexed": false,
          "internalType": "uint256",
          "name": "netDistributedamount",
          "type": "uint256"
        },
        {
          "indexed": false,
          "internalType": "string",
          "name": "memo",
          "type": "string"
        },
        {
          "indexed": false,
          "internalType": "address",
          "name": "caller",
          "type": "address"
        }
      ],
      "name": "UseAllowance",
      "type": "event"
    },
    {
      "inputs": [
        {
          "internalType": "address",
          "name": "_token",
          "type": "address"
        },
        {
          "internalType": "uint256",
          "name": "_projectId",
          "type": "uint256"
        }
      ],
      "name": "acceptsToken",
      "outputs": [
        {
          "internalType": "bool",
          "name": "",
          "type": "bool"
        }
      ],
      "stateMutability": "view",
      "type": "function"
    },
    {
      "inputs": [
        {
          "internalType": "uint256",
          "name": "_projectId",
          "type": "uint256"
        },
        {
          "internalType": "uint256",
          "name": "_amount",
          "type": "uint256"
        },
        {
          "internalType": "address",
          "name": "_token",
          "type": "address"
        },
        {
          "internalType": "string",
          "name": "_memo",
          "type": "string"
        },
        {
          "internalType": "bytes",
          "name": "_metadata",
          "type": "bytes"
        }
      ],
      "name": "addToBalanceOf",
      "outputs": [],
      "stateMutability": "payable",
      "type": "function"
    },
    {
      "inputs": [],
      "name": "baseWeightCurrency",
      "outputs": [
        {
          "internalType": "uint256",
          "name": "",
          "type": "uint256"
        }
      ],
      "stateMutability": "view",
      "type": "function"
    },
    {
      "inputs": [],
      "name": "currency",
      "outputs": [
        {
          "internalType": "uint256",
          "name": "",
          "type": "uint256"
        }
      ],
      "stateMutability": "view",
      "type": "function"
    },
    {
      "inputs": [
        {
          "internalType": "address",
          "name": "_token",
          "type": "address"
        }
      ],
      "name": "currencyForToken",
      "outputs": [
        {
          "internalType": "uint256",
          "name": "",
          "type": "uint256"
        }
      ],
      "stateMutability": "view",
      "type": "function"
    },
    {
      "inputs": [
        {
          "internalType": "uint256",
          "name": "_projectId",
          "type": "uint256"
        }
      ],
      "name": "currentEthOverflowOf",
      "outputs": [
        {
          "internalType": "uint256",
          "name": "",
          "type": "uint256"
        }
      ],
      "stateMutability": "view",
      "type": "function"
    },
    {
      "inputs": [],
      "name": "decimals",
      "outputs": [
        {
          "internalType": "uint256",
          "name": "",
          "type": "uint256"
        }
      ],
      "stateMutability": "view",
      "type": "function"
    },
    {
      "inputs": [
        {
          "internalType": "address",
          "name": "_token",
          "type": "address"
        }
      ],
      "name": "decimalsForToken",
      "outputs": [
        {
          "internalType": "uint256",
          "name": "",
          "type": "uint256"
        }
      ],
      "stateMutability": "view",
      "type": "function"
    },
    {
      "inputs": [],
      "name": "directory",
      "outputs": [
        {
          "internalType": "contract IJBDirectory",
          "name": "",
          "type": "address"
        }
      ],
      "stateMutability": "view",
      "type": "function"
    },
    {
      "inputs": [
        {
          "internalType": "uint256",
          "name": "_projectId",
          "type": "uint256"
        },
        {
          "internalType": "uint256",
          "name": "_amount",
          "type": "uint256"
        },
        {
          "internalType": "uint256",
          "name": "_currency",
          "type": "uint256"
        },
        {
          "internalType": "address",
          "name": "_token",
          "type": "address"
        },
        {
          "internalType": "uint256",
          "name": "_minReturnedTokens",
          "type": "uint256"
        },
        {
          "internalType": "string",
          "name": "_memo",
          "type": "string"
        }
      ],
      "name": "distributePayoutsOf",
      "outputs": [
        {
          "internalType": "uint256",
          "name": "netLeftoverDistributionAmount",
          "type": "uint256"
        }
      ],
      "stateMutability": "nonpayable",
      "type": "function"
    },
    {
      "inputs": [],
      "name": "fee",
      "outputs": [
        {
          "internalType": "uint256",
          "name": "",
          "type": "uint256"
        }
      ],
      "stateMutability": "view",
      "type": "function"
    },
    {
      "inputs": [],
      "name": "feeGauge",
      "outputs": [
        {
          "internalType": "contract IJBFeeGauge",
          "name": "",
          "type": "address"
        }
      ],
      "stateMutability": "view",
      "type": "function"
    },
    {
      "inputs": [
        {
          "internalType": "uint256",
          "name": "_projectId",
          "type": "uint256"
        }
      ],
      "name": "heldFeesOf",
      "outputs": [
        {
          "components": [
            {
              "internalType": "uint256",
              "name": "amount",
              "type": "uint256"
            },
            {
              "internalType": "uint32",
              "name": "fee",
              "type": "uint32"
            },
            {
              "internalType": "uint32",
              "name": "feeDiscount",
              "type": "uint32"
            },
            {
              "internalType": "address",
              "name": "beneficiary",
              "type": "address"
            }
          ],
          "internalType": "struct JBFee[]",
          "name": "",
          "type": "tuple[]"
        }
      ],
      "stateMutability": "view",
      "type": "function"
    },
    {
      "inputs": [
        {
          "internalType": "address",
          "name": "",
          "type": "address"
        }
      ],
      "name": "isFeelessAddress",
      "outputs": [
        {
          "internalType": "bool",
          "name": "",
          "type": "bool"
        }
      ],
      "stateMutability": "view",
      "type": "function"
    },
    {
      "inputs": [
        {
          "internalType": "uint256",
          "name": "_projectId",
          "type": "uint256"
        },
        {
          "internalType": "contract IJBPaymentTerminal",
          "name": "_to",
          "type": "address"
        }
      ],
      "name": "migrate",
      "outputs": [
        {
          "internalType": "uint256",
          "name": "balance",
          "type": "uint256"
        }
      ],
      "stateMutability": "nonpayable",
      "type": "function"
    },
    {
      "inputs": [],
      "name": "operatorStore",
      "outputs": [
        {
          "internalType": "contract IJBOperatorStore",
          "name": "",
          "type": "address"
        }
      ],
      "stateMutability": "view",
      "type": "function"
    },
    {
      "inputs": [],
      "name": "owner",
      "outputs": [
        {
          "internalType": "address",
          "name": "",
          "type": "address"
        }
      ],
      "stateMutability": "view",
      "type": "function"
    },
    {
      "inputs": [
        {
          "internalType": "uint256",
          "name": "_projectId",
          "type": "uint256"
        },
        {
          "internalType": "uint256",
          "name": "_amount",
          "type": "uint256"
        },
        {
          "internalType": "address",
          "name": "_token",
          "type": "address"
        },
        {
          "internalType": "address",
          "name": "_beneficiary",
          "type": "address"
        },
        {
          "internalType": "uint256",
          "name": "_minReturnedTokens",
          "type": "uint256"
        },
        {
          "internalType": "bool",
          "name": "_preferClaimedTokens",
          "type": "bool"
        },
        {
          "internalType": "string",
          "name": "_memo",
          "type": "string"
        },
        {
          "internalType": "bytes",
          "name": "_metadata",
          "type": "bytes"
        }
      ],
      "name": "pay",
      "outputs": [
        {
          "internalType": "uint256",
          "name": "",
          "type": "uint256"
        }
      ],
      "stateMutability": "payable",
      "type": "function"
    },
    {
      "inputs": [],
      "name": "payoutSplitsGroup",
      "outputs": [
        {
          "internalType": "uint256",
          "name": "",
          "type": "uint256"
        }
      ],
      "stateMutability": "view",
      "type": "function"
    },
    {
      "inputs": [],
      "name": "prices",
      "outputs": [
        {
          "internalType": "contract IJBPrices",
          "name": "",
          "type": "address"
        }
      ],
      "stateMutability": "view",
      "type": "function"
    },
    {
      "inputs": [
        {
          "internalType": "uint256",
          "name": "_projectId",
          "type": "uint256"
        }
      ],
      "name": "processFees",
      "outputs": [],
      "stateMutability": "nonpayable",
      "type": "function"
    },
    {
      "inputs": [],
      "name": "projects",
      "outputs": [
        {
          "internalType": "contract IJBProjects",
          "name": "",
          "type": "address"
        }
      ],
      "stateMutability": "view",
      "type": "function"
    },
    {
      "inputs": [
        {
          "internalType": "address",
          "name": "_holder",
          "type": "address"
        },
        {
          "internalType": "uint256",
          "name": "_projectId",
          "type": "uint256"
        },
        {
          "internalType": "uint256",
          "name": "_tokenCount",
          "type": "uint256"
        },
        {
          "internalType": "address",
          "name": "_token",
          "type": "address"
        },
        {
          "internalType": "uint256",
          "name": "_minReturnedTokens",
          "type": "uint256"
        },
        {
          "internalType": "address payable",
          "name": "_beneficiary",
          "type": "address"
        },
        {
          "internalType": "string",
          "name": "_memo",
          "type": "string"
        },
        {
          "internalType": "bytes",
          "name": "_metadata",
          "type": "bytes"
        }
      ],
      "name": "redeemTokensOf",
      "outputs": [
        {
          "internalType": "uint256",
          "name": "reclaimAmount",
          "type": "uint256"
        }
      ],
      "stateMutability": "nonpayable",
      "type": "function"
    },
    {
      "inputs": [],
      "name": "renounceOwnership",
      "outputs": [],
      "stateMutability": "nonpayable",
      "type": "function"
    },
    {
      "inputs": [
        {
          "internalType": "uint256",
          "name": "_fee",
          "type": "uint256"
        }
      ],
      "name": "setFee",
      "outputs": [],
      "stateMutability": "nonpayable",
      "type": "function"
    },
    {
      "inputs": [
        {
          "internalType": "contract IJBFeeGauge",
          "name": "_feeGauge",
          "type": "address"
        }
      ],
      "name": "setFeeGauge",
      "outputs": [],
      "stateMutability": "nonpayable",
      "type": "function"
    },
    {
      "inputs": [
        {
          "internalType": "address",
          "name": "_address",
          "type": "address"
        },
        {
          "internalType": "bool",
          "name": "_flag",
          "type": "bool"
        }
      ],
      "name": "setFeelessAddress",
      "outputs": [],
      "stateMutability": "nonpayable",
      "type": "function"
    },
    {
      "inputs": [],
      "name": "splitsStore",
      "outputs": [
        {
          "internalType": "contract IJBSplitsStore",
          "name": "",
          "type": "address"
        }
      ],
      "stateMutability": "view",
      "type": "function"
    },
    {
      "inputs": [],
      "name": "store",
      "outputs": [
        {
          "internalType": "contract IJBSingleTokenPaymentTerminalStore",
          "name": "",
          "type": "address"
        }
      ],
      "stateMutability": "view",
      "type": "function"
    },
    {
      "inputs": [
        {
          "internalType": "bytes4",
          "name": "_interfaceId",
          "type": "bytes4"
        }
      ],
      "name": "supportsInterface",
      "outputs": [
        {
          "internalType": "bool",
          "name": "",
          "type": "bool"
        }
      ],
      "stateMutability": "view",
      "type": "function"
    },
    {
      "inputs": [],
      "name": "token",
      "outputs": [
        {
          "internalType": "address",
          "name": "",
          "type": "address"
        }
      ],
      "stateMutability": "view",
      "type": "function"
    },
    {
      "inputs": [
        {
          "internalType": "address",
          "name": "newOwner",
          "type": "address"
        }
      ],
      "name": "transferOwnership",
      "outputs": [],
      "stateMutability": "nonpayable",
      "type": "function"
    },
    {
      "inputs": [
        {
          "internalType": "uint256",
          "name": "_projectId",
          "type": "uint256"
        },
        {
          "internalType": "uint256",
          "name": "_amount",
          "type": "uint256"
        },
        {
          "internalType": "uint256",
          "name": "_currency",
          "type": "uint256"
        },
        {
          "internalType": "address",
          "name": "_token",
          "type": "address"
        },
        {
          "internalType": "uint256",
          "name": "_minReturnedTokens",
          "type": "uint256"
        },
        {
          "internalType": "address payable",
          "name": "_beneficiary",
          "type": "address"
        },
        {
          "internalType": "string",
          "name": "_memo",
          "type": "string"
        }
      ],
      "name": "useAllowanceOf",
      "outputs": [
        {
          "internalType": "uint256",
          "name": "netDistributedAmount",
          "type": "uint256"
        }
      ],
      "stateMutability": "nonpayable",
      "type": "function"
    }
  ],
  "bytecode": {
    "object": "0x6101e060405263017d78406002553480156200001a57600080fd5b5060405162005f3a38038062005f3a8339810160408190526200003d9162000216565b61eeee6080819052601260a0819052600160c08190526001600160a01b038a1660e0528a818b8b8b8b8b8b8b6200007433620000cf565b6101a08990526101c08890526001600160a01b0380871661010052858116610120528481166101405283811661016052821661018052620000b5816200011f565b5050505050505050505050505050505050505050620002cb565b600080546001600160a01b038381166001600160a01b0319831681178455604051919092169283917f8be0079c531659141344cd1fd0a4f28419497f9722a3daafe3b4186f6b6457e09190a35050565b62000129620001a2565b6001600160a01b038116620001945760405162461bcd60e51b815260206004820152602660248201527f4f776e61626c653a206e6577206f776e657220697320746865207a65726f206160448201526564647265737360d01b60648201526084015b60405180910390fd5b6200019f81620000cf565b50565b6000546001600160a01b03163314620001fe5760405162461bcd60e51b815260206004820181905260248201527f4f776e61626c653a2063616c6c6572206973206e6f7420746865206f776e657260448201526064016200018b565b565b6001600160a01b03811681146200019f57600080fd5b600080600080600080600080610100898b0312156200023457600080fd5b885197506020890151620002488162000200565b60408a01519097506200025b8162000200565b60608a01519096506200026e8162000200565b60808a0151909550620002818162000200565b60a08a0151909450620002948162000200565b60c08a0151909350620002a78162000200565b60e08a0151909250620002ba8162000200565b809150509295985092959890939650565b60805160a05160c05160e05161010051610120516101405161016051610180516101a0516101c051615a1a62000520600039600081816103d401526123e101526000818161032c0152611d1e0152600081816104fc01528181610f0a015281816115ff01528181611ad901528181611cec0152818161225d01528181612d270152613019015260008181610648015261179d0152600081816102e00152613ce60152600081816106140152818161095901528181610b6501528181611de8015281816129e00152818161311601528181613b6201526140400152600081816104aa01528181610d7a01528181611286015281816118560152818161233b0152612e0f01526000818161055001528181612524015281816125e4015281816127ce015261288e01526000818161026b01528181610700015281816116cf0152818161174a01528181611cc601528181611fbb015281816132950152613354015260008181610360015281816105c0015281816116700152818161169c015281816116fc0152818161177701528181611ca001528181611f950152818161326f0152818161332e0152613e7b0152600081816106be0152818161075401528181610a0401528181610c0801528181610e2b01528181610f8b0152818161101701528181611c6b01528181611f6001528181612098015281816129b501528181612a9301528181612b2101528181613239015281816132f9015281816133f301528181613b3501528181613e4601528181613ed20152818161406d015281816142640152818161433601526143af0152615a1a6000f3fe6080604052600436106101fe5760003560e01c80638b79543c1161011d578063c41c2f24116100b0578063df21a7dd1161007f578063f2fde38b11610064578063f2fde38b14610722578063fc0c546a14610742578063fe663f0f1461077657600080fd5b8063df21a7dd146106a0578063e5a6b10f146106ee57600080fd5b8063c41c2f2414610602578063d3419bf314610636578063d6dacc531461066a578063ddca3f431461068a57600080fd5b8063ad007d63116100ec578063ad007d631461053e578063b631b50014610572578063b7bad1b1146105a2578063bc8926e9146105e257600080fd5b80638b79543c146104985780638da5cb5b146104cc578063975057e7146104ea578063a32e1e961461051e57600080fd5b8063405b84fa11610195578063715018a611610164578063715018a6146104165780637258002c1461042b57806389701db51461044b5780638af560941461046b57600080fd5b8063405b84fa14610382578063637913ac146103a257806366248b86146103c257806369fe0e2d146103f657600080fd5b80632b267b4e116101d15780632b267b4e146102ae5780632bdfe004146102ce5780632d1a59031461031a578063313ce5671461034e57600080fd5b806301ffc9a7146102035780630cf8e858146102385780631982d6791461024d5780631ebc263f1461029b575b600080fd5b34801561020f57600080fd5b5061022361021e366004614767565b610796565b60405190151581526020015b60405180910390f35b61024b610246366004614807565b610922565b005b34801561025957600080fd5b5061028d61026836600461489d565b507f000000000000000000000000000000000000000000000000000000000000000090565b60405190815260200161022f565b61028d6102a93660046148c8565b610b23565b3480156102ba57600080fd5b5061028d6102c9366004614990565b610d2c565b3480156102da57600080fd5b506103027f000000000000000000000000000000000000000000000000000000000000000081565b6040516001600160a01b03909116815260200161022f565b34801561032657600080fd5b5061028d7f000000000000000000000000000000000000000000000000000000000000000081565b34801561035a57600080fd5b5061028d7f000000000000000000000000000000000000000000000000000000000000000081565b34801561038e57600080fd5b5061028d61039d3660046149fa565b610d48565b3480156103ae57600080fd5b5061024b6103bd36600461489d565b6110c1565b3480156103ce57600080fd5b5061028d7f000000000000000000000000000000000000000000000000000000000000000081565b34801561040257600080fd5b5061024b610411366004614a2a565b611135565b34801561042257600080fd5b5061024b6111bb565b34801561043757600080fd5b5061024b610446366004614a43565b6111cf565b34801561045757600080fd5b5061024b610466366004614a2a565b611257565b34801561047757600080fd5b5061048b610486366004614a2a565b61150b565b60405161022f9190614a71565b3480156104a457600080fd5b506103027f000000000000000000000000000000000000000000000000000000000000000081565b3480156104d857600080fd5b506000546001600160a01b0316610302565b3480156104f657600080fd5b506103027f000000000000000000000000000000000000000000000000000000000000000081565b34801561052a57600080fd5b5061028d610539366004614a2a565b6115bd565b34801561054a57600080fd5b506103027f000000000000000000000000000000000000000000000000000000000000000081565b34801561057e57600080fd5b5061022361058d36600461489d565b60046020526000908152604090205460ff1681565b3480156105ae57600080fd5b5061028d6105bd36600461489d565b507f000000000000000000000000000000000000000000000000000000000000000090565b3480156105ee57600080fd5b5061028d6105fd366004614c35565b611824565b34801561060e57600080fd5b506103027f000000000000000000000000000000000000000000000000000000000000000081565b34801561064257600080fd5b506103027f000000000000000000000000000000000000000000000000000000000000000081565b34801561067657600080fd5b50600354610302906001600160a01b031681565b34801561069657600080fd5b5061028d60025481565b3480156106ac57600080fd5b506102236106bb366004614cbe565b507f00000000000000000000000000000000000000000000000000000000000000006001600160a01b0390811691161490565b3480156106fa57600080fd5b5061028d7f000000000000000000000000000000000000000000000000000000000000000081565b34801561072e57600080fd5b5061024b61073d36600461489d565b6118f4565b34801561074e57600080fd5b506103027f000000000000000000000000000000000000000000000000000000000000000081565b34801561078257600080fd5b5061028d610791366004614cea565b6119a3565b60007fffffffff0000000000000000000000000000000000000000000000000000000082167fedb527eb00000000000000000000000000000000000000000000000000000000148061082957507fffffffff0000000000000000000000000000000000000000000000000000000082167f2b267b4e00000000000000000000000000000000000000000000000000000000145b8061087557507fffffffff0000000000000000000000000000000000000000000000000000000082167fbc8926e900000000000000000000000000000000000000000000000000000000145b806108c157507fffffffff0000000000000000000000000000000000000000000000000000000082167ffe663f0f00000000000000000000000000000000000000000000000000000000145b8061090d57507fffffffff0000000000000000000000000000000000000000000000000000000082167fad007d6300000000000000000000000000000000000000000000000000000000145b8061091c575061091c826119c3565b92915050565b6040517f6e49181f0000000000000000000000000000000000000000000000000000000081526004810188905230602482015287907f00000000000000000000000000000000000000000000000000000000000000006001600160a01b031690636e49181f90604401602060405180830381865afa1580156109a8573d6000803e3d6000fd5b505050506040513d601f19601f820116820180604052508101906109cc9190614da3565b610a02576040517fd8ead2c800000000000000000000000000000000000000000000000000000000815260040160405180910390fd5b7f00000000000000000000000000000000000000000000000000000000000000006001600160a01b031661eeee14610a8a573415610a6c576040517fbcfd35be00000000000000000000000000000000000000000000000000000000815260040160405180910390fd5b47610a7833308a611aa6565b610a828147614def565b975050610a8e565b3496505b33600090815260046020908152604091829020548251601f8801839004830281018301909352868352610b19928b928b9260ff161591908a908a908190840183828082843760009201919091525050604080516020601f8c018190048102820181019092528a815292508a9150899081908401838280828437600092019190915250611ab592505050565b5050505050505050565b6040517f6e49181f000000000000000000000000000000000000000000000000000000008152600481018b90523060248201526000908b906001600160a01b037f00000000000000000000000000000000000000000000000000000000000000001690636e49181f90604401602060405180830381865afa158015610bac573d6000803e3d6000fd5b505050506040513d601f19601f82011682018060405250810190610bd09190614da3565b610c06576040517fd8ead2c800000000000000000000000000000000000000000000000000000000815260040160405180910390fd5b7f00000000000000000000000000000000000000000000000000000000000000006001600160a01b031661eeee14610c8e573415610c70576040517fbcfd35be00000000000000000000000000000000000000000000000000000000815260040160405180910390fd5b47610c7c33308e611aa6565b610c868147614def565b9b5050610c92565b349a505b610d1c8b338e8c8c8c8c8c8080601f016020809104026020016040519081016040528093929190818152602001838380828437600081840152601f19601f820116905080830192505050505050508b8b8080601f016020809104026020016040519081016040528093929190818152602001838380828437600092019190915250611bbf92505050565b9c9b505050505050505050505050565b6000610d3c888888878787612211565b98975050505050505050565b6040517f6352211e000000000000000000000000000000000000000000000000000000008152600481018390526000907f00000000000000000000000000000000000000000000000000000000000000006001600160a01b031690636352211e90602401602060405180830381865afa158015610dc9573d6000803e3d6000fd5b505050506040513d601f19601f82011682018060405250810190610ded9190614e02565b836004610dfb8383836124c4565b6040517fdf21a7dd0000000000000000000000000000000000000000000000000000000081526001600160a01b037f0000000000000000000000000000000000000000000000000000000000000000811660048301526024820188905286169063df21a7dd90604401602060405180830381865afa158015610e81573d6000803e3d6000fd5b505050506040513d601f19601f82011682018060405250810190610ea59190614da3565b610edb576040517f581010ed00000000000000000000000000000000000000000000000000000000815260040160405180910390fd5b6040517f6bb6a5ad000000000000000000000000000000000000000000000000000000008152600481018790527f00000000000000000000000000000000000000000000000000000000000000006001600160a01b031690636bb6a5ad906024016020604051808303816000875af1158015610f5b573d6000803e3d6000fd5b505050506040513d601f19601f82011682018060405250810190610f7f9190614e1f565b935083156110735760007f00000000000000000000000000000000000000000000000000000000000000006001600160a01b031661eeee14610fc2576000610fc4565b845b604080516020810182526000815290517f0cf8e8580000000000000000000000000000000000000000000000000000000081529192506001600160a01b03881691630cf8e85891849161103f918c918b917f000000000000000000000000000000000000000000000000000000000000000091600401614e88565b6000604051808303818588803b15801561105857600080fd5b505af115801561106c573d6000803e3d6000fd5b5050505050505b604080518581523360208201526001600160a01b0387169188917fa7519e5f94697b7f53e97c5eb46a0c730a296ab686ab8fd333835c5f735784eb910160405180910390a350505092915050565b6110c9612688565b600380547fffffffffffffffffffffffff0000000000000000000000000000000000000000166001600160a01b0383169081179091556040513381527f0a9a80fe9716605b3e52abb3d792d6a4e7816d6afc02a5a4ef023081feaf9f609060200160405180910390a250565b61113d612688565b6302faf08081111561117b576040517f45fbd9c100000000000000000000000000000000000000000000000000000000815260040160405180910390fd5b6002819055604080518281523360208201527fd7414e590e1cb532989ab2a34c8f4c2c17f7ab6f006efeeaef2e87cd5008c202910160405180910390a150565b6111c3612688565b6111cd60006126fc565b565b6111d7612688565b6001600160a01b03821660008181526004602090815260409182902080547fffffffffffffffffffffffffffffffffffffffffffffffffffffffffffffff001685151590811790915591513381529192917fa2653e25a502c023a5830d0de847ef6f458387865b1f4f575d7594f9f2c0d71e910160405180910390a35050565b6040517f6352211e000000000000000000000000000000000000000000000000000000008152600481018290527f00000000000000000000000000000000000000000000000000000000000000006001600160a01b031690636352211e90602401602060405180830381865afa1580156112d5573d6000803e3d6000fd5b505050506040513d601f19601f820116820180604052508101906112f99190614e02565b81600561130e6000546001600160a01b031690565b6001600160a01b0316336001600160a01b03161461132e84848484612764565b600085815260016020908152604080832080548251818502810185019093528083529192909190849084015b828210156113cc57600084815260209081902060408051608081018252600286029092018054835260019081015463ffffffff8082168587015264010000000082041692840192909252680100000000000000009091046001600160a01b03166060830152908352909201910161135a565b50505060008881526001602052604081209293506113eb929150614708565b805160005b81811015610b1957600061146884838151811061140f5761140f614ece565b60200260200101516000015185848151811061142d5761142d614ece565b60200260200101516020015163ffffffff1686858151811061145157611451614ece565b60200260200101516040015163ffffffff16612938565b90506114918185848151811061148057611480614ece565b60200260200101516060015161297e565b60011515818a7fcf0c92a2c6d7c42f488326b0cb900104b99984b6b218db81cd29371364a352518786815181106114ca576114ca614ece565b602002602001015160600151336040516114fa9291906001600160a01b0392831681529116602082015260400190565b60405180910390a4506001016113f0565b606060016000838152602001908152602001600020805480602002602001604051908101604052809291908181526020016000905b828210156115b257600084815260209081902060408051608081018252600286029092018054835260019081015463ffffffff8082168587015264010000000082041692840192909252680100000000000000009091046001600160a01b031660608301529083529092019101611540565b505050509050919050565b6040517fd49031c00000000000000000000000000000000000000000000000000000000081523060048201526024810182905260009081906001600160a01b037f0000000000000000000000000000000000000000000000000000000000000000169063d49031c090604401602060405180830381865afa158015611646573d6000803e3d6000fd5b505050506040513d601f19601f8201168201806040525081019061166a9190614e1f565b905060007f00000000000000000000000000000000000000000000000000000000000000006012146116c7576116c2827f00000000000000000000000000000000000000000000000000000000000000006012612b98565b6116c9565b815b905060017f00000000000000000000000000000000000000000000000000000000000000001461181a57611815816117227f0000000000000000000000000000000000000000000000000000000000000000600a614fe1565b6040517fa4d0caf20000000000000000000000000000000000000000000000000000000081527f00000000000000000000000000000000000000000000000000000000000000006004820152600160248201527f000000000000000000000000000000000000000000000000000000000000000060448201527f00000000000000000000000000000000000000000000000000000000000000006001600160a01b03169063a4d0caf290606401602060405180830381865afa1580156117ec573d6000803e3d6000fd5b505050506040513d601f19601f820116820180604052508101906118109190614e1f565b612bf5565b61181c565b805b949350505050565b6040517f6352211e000000000000000000000000000000000000000000000000000000008152600481018890526000907f00000000000000000000000000000000000000000000000000000000000000006001600160a01b031690636352211e90602401602060405180830381865afa1580156118a5573d6000803e3d6000fd5b505050506040513d601f19601f820116820180604052508101906118c99190614e02565b8860116118d78383836124c4565b6118e58b8b8b8a8a8a612cdb565b9b9a5050505050505050505050565b6118fc612688565b6001600160a01b038116611997576040517f08c379a000000000000000000000000000000000000000000000000000000000815260206004820152602660248201527f4f776e61626c653a206e6577206f776e657220697320746865207a65726f206160448201527f646472657373000000000000000000000000000000000000000000000000000060648201526084015b60405180910390fd5b6119a0816126fc565b50565b6000888860026119b48383836124c4565b610d1c8c8c8c8b8b8b8b612f4c565b60007fffffffff0000000000000000000000000000000000000000000000000000000082167fc07370e4000000000000000000000000000000000000000000000000000000001480611a5657507fffffffff0000000000000000000000000000000000000000000000000000000082167f2896000200000000000000000000000000000000000000000000000000000000145b8061091c57507f01ffc9a7000000000000000000000000000000000000000000000000000000007fffffffff0000000000000000000000000000000000000000000000000000000083161461091c565b611ab0828261357a565b505050565b600083611ac3576000611acd565b611acd86866136c7565b90506001600160a01b037f00000000000000000000000000000000000000000000000000000000000000001663e7c8e3e387611b098489614fed565b6040517fffffffff0000000000000000000000000000000000000000000000000000000060e085901b16815260048101929092526024820152604401600060405180830381600087803b158015611b5f57600080fd5b505af1158015611b73573d6000803e3d6000fd5b50505050857f9ecaf7fc3dfffd6867c175d6e684b1f1e3aef019398ba8db2c1ffab4a09db2538683868633604051611baf959493929190615000565b60405180910390a2505050505050565b60006001600160a01b038616611c01576040517fa762251300000000000000000000000000000000000000000000000000000000815260040160405180910390fd5b611c596040518061012001604052806000815260200160008152602001600081526020016000815260200160008152602001600081526020016000815260200160006001600160a01b03168152602001600081525090565b606060008060405180608001604052807f00000000000000000000000000000000000000000000000000000000000000006001600160a01b031681526020018e81526020017f000000000000000000000000000000000000000000000000000000000000000081526020017f000000000000000000000000000000000000000000000000000000000000000081525090507f00000000000000000000000000000000000000000000000000000000000000006001600160a01b0316632fa1b3918d838e7f00000000000000000000000000000000000000000000000000000000000000008f8d8d6040518863ffffffff1660e01b8152600401611d62979695949392919061504d565b6000604051808303816000875af1158015611d81573d6000803e3d6000fd5b505050506040513d6000823e601f3d908101601f19168201604052611da991908101906151da565b995091955090935091508115611f10576040517f5dd8f6aa000000000000000000000000000000000000000000000000000000008152600481018c90527f00000000000000000000000000000000000000000000000000000000000000006001600160a01b031690635dd8f6aa90602401602060405180830381865afa158015611e37573d6000803e3d6000fd5b505050506040513d601f19601f82011682018060405250810190611e5b9190614e02565b6040517f8ae9c07b000000000000000000000000000000000000000000000000000000008152600481018d9052602481018490526001600160a01b038c8116604483015260c06064830152600060c48301528a15156084830152600160a48301529190911690638ae9c07b9060e4016020604051808303816000875af1158015611ee9573d6000803e3d6000fd5b505050506040513d601f19601f82011682018060405250810190611f0d9190614e1f565b94505b88851015611f4a576040517f7b94612600000000000000000000000000000000000000000000000000000000815260040160405180910390fd5b8251156121b357600060405180608001604052807f00000000000000000000000000000000000000000000000000000000000000006001600160a01b031681526020018f81526020017f000000000000000000000000000000000000000000000000000000000000000081526020017f0000000000000000000000000000000000000000000000000000000000000000815250905060006040518061014001604052808f6001600160a01b031681526020018e8152602001876020015181526020018481526020018381526020018881526020018d6001600160a01b031681526020018b151581526020018a815260200189815250905060008551905060005b818110156121ae57600087828151811061206657612066614ece565b6020908102919091010151905060007fffffffffffffffffffffffffffffffffffffffffffffffffffffffffffff11127f00000000000000000000000000000000000000000000000000000000000000006001600160a01b0316016120cc575060208101515b60208083015160808701519091015281516040517fda9ee8b70000000000000000000000000000000000000000000000000000000081526001600160a01b039091169063da9ee8b79083906121259089906004016153d6565b6000604051808303818588803b15801561213e57600080fd5b505af1158015612152573d6000803e3d6000fd5b505050505081600001516001600160a01b03167f16112c26e14efc4be6c690149aa5a1ba75160de245f60d2273e28adb277b9e128684602001513360405161219c939291906153e9565b60405180910390a2505060010161204a565b505050505b50505087816000015182602001517f133161f1c9161488f777ab9a26aae91d47c0d9a3fafb398960f138db02c737978c8b8f888b8b336040516121fc979695949392919061541b565b60405180910390a45098975050505050505050565b6040517fc6644597000000000000000000000000000000000000000000000000000000008152600481018790526024810186905260448101859052600090819081906001600160a01b037f0000000000000000000000000000000000000000000000000000000000000000169063c664459790606401610140604051808303816000875af11580156122a7573d6000803e3d6000fd5b505050506040513d601f19601f820116820180604052508101906122cb919061547c565b9150915085811015612309576040517fb01493c100000000000000000000000000000000000000000000000000000000815260040160405180910390fd5b6040517f6352211e000000000000000000000000000000000000000000000000000000008152600481018a90526000907f00000000000000000000000000000000000000000000000000000000000000006001600160a01b031690636352211e90602401602060405180830381865afa15801561238a573d6000803e3d6000fd5b505050506040513d601f19601f820116820180604052508101906123ae9190614e02565b90506000806002546000146123cb576123c68c613afe565b6123d1565b633b9aca005b90506000806124078e88602001517f00000000000000000000000000000000000000000000000000000000000000008987613c9c565b92509050633b9aca00831461241b57908101905b8160000361242a576000612437565b6124378e88848887614549565b935080156124635761244c8160025485612938565b6124569082614def565b975061246330868a611aa6565b5050508a846000015185602001517f24352f49df447b14e0e08a323625c663d865ce20c343c4638af12e1dc48aa760858e88878c8f8f336040516124ae9897969594939291906154ab565b60405180910390a4505050509695505050505050565b336001600160a01b0384161480159061259157506040517fc161c93f0000000000000000000000000000000000000000000000000000000081523360048201526001600160a01b03848116602483015260448201849052606482018390527f0000000000000000000000000000000000000000000000000000000000000000169063c161c93f90608401602060405180830381865afa15801561256b573d6000803e3d6000fd5b505050506040513d601f19601f8201168201806040525081019061258f9190614da3565b155b801561265157506040517fc161c93f0000000000000000000000000000000000000000000000000000000081523360048201526001600160a01b03848116602483015260006044830152606482018390527f0000000000000000000000000000000000000000000000000000000000000000169063c161c93f90608401602060405180830381865afa15801561262b573d6000803e3d6000fd5b505050506040513d601f19601f8201168201806040525081019061264f9190614da3565b155b15611ab0576040517f075fd2b100000000000000000000000000000000000000000000000000000000815260040160405180910390fd5b6000546001600160a01b031633146111cd576040517f08c379a000000000000000000000000000000000000000000000000000000000815260206004820181905260248201527f4f776e61626c653a2063616c6c6572206973206e6f7420746865206f776e6572604482015260640161198e565b600080546001600160a01b038381167fffffffffffffffffffffffff0000000000000000000000000000000000000000831681178455604051919092169283917f8be0079c531659141344cd1fd0a4f28419497f9722a3daafe3b4186f6b6457e09190a35050565b8015801561277b5750336001600160a01b03851614155b801561283b57506040517fc161c93f0000000000000000000000000000000000000000000000000000000081523360048201526001600160a01b03858116602483015260448201859052606482018490527f0000000000000000000000000000000000000000000000000000000000000000169063c161c93f90608401602060405180830381865afa158015612815573d6000803e3d6000fd5b505050506040513d601f19601f820116820180604052508101906128399190614da3565b155b80156128fb57506040517fc161c93f0000000000000000000000000000000000000000000000000000000081523360048201526001600160a01b03858116602483015260006044830152606482018490527f0000000000000000000000000000000000000000000000000000000000000000169063c161c93f90608401602060405180830381865afa1580156128d5573d6000803e3d6000fd5b505050506040513d601f19601f820116820180604052508101906128f99190614da3565b155b15612932576040517f075fd2b100000000000000000000000000000000000000000000000000000000815260040160405180910390fd5b50505050565b60008061294a8484633b9aca00612bf5565b6129549085614def565b905061296985633b9aca006118108185614fed565b6129739086614def565b9150505b9392505050565b6040517f86202650000000000000000000000000000000000000000000000000000000008152600160048201526001600160a01b037f0000000000000000000000000000000000000000000000000000000000000000811660248301526000917f000000000000000000000000000000000000000000000000000000000000000090911690638620265090604401602060405180830381865afa158015612a29573d6000803e3d6000fd5b505050506040513d601f19601f82011682018060405250810190612a4d9190614e02565b9050306001600160a01b03821603612a8f5761293283306001856000806040518060200160405280600081525060405180602001604052806000815250611bbf565b60007f00000000000000000000000000000000000000000000000000000000000000006001600160a01b031661eeee14612aca576000612acc565b835b60408051602081018252600080825291517f1ebc263f0000000000000000000000000000000000000000000000000000000081529293506001600160a01b03851692631ebc263f928592612b4e926001928b927f0000000000000000000000000000000000000000000000000000000000000000928c9291829160040161550f565b60206040518083038185885af1158015612b6c573d6000803e3d6000fd5b50505050506040513d601f19601f82011682018060405250810190612b919190614e1f565b5050505050565b6000828203612ba8575082612977565b82821115612bd657612bba8383614def565b612bc590600a614fe1565b612bcf9085615566565b9050612977565b612be08284614def565b612beb90600a614fe1565b612bcf90856155ac565b6000808060001985870985870292508281108382030391505080600003612c2f57838281612c2557612c2561557d565b0492505050612977565b838110612c72576040517f773cc18c000000000000000000000000000000000000000000000000000000008152600481018290526024810185905260440161198e565b60008486880960026001871981018816978890046003810283188082028403028082028403028082028403028082028403028082028403029081029092039091026000889003889004909101858311909403939093029303949094049190911702949350505050565b6040517f25386715000000000000000000000000000000000000000000000000000000008152600481018790526024810186905260448101859052600090819081906001600160a01b037f00000000000000000000000000000000000000000000000000000000000000001690632538671590606401610140604051808303816000875af1158015612d71573d6000803e3d6000fd5b505050506040513d601f19601f82011682018060405250810190612d95919061547c565b9150915085811015612dd3576040517fb01493c100000000000000000000000000000000000000000000000000000000815260040160405180910390fd5b6040517f6352211e000000000000000000000000000000000000000000000000000000008152600481018a905260009081906001600160a01b037f00000000000000000000000000000000000000000000000000000000000000001690636352211e90602401602060405180830381865afa158015612e56573d6000803e3d6000fd5b505050506040513d601f19601f82011682018060405250810190612e7a9190614e02565b9050600060025460001480612e9e57503360009081526004602052604090205460ff165b612eb057612eab8c613afe565b612eb6565b633b9aca005b9050633b9aca008114612ed557612ed08c86868585614549565b612ed8565b60005b80850396509250838314612ef157612ef1308988611aa6565b50505088826000015183602001517f8657a0c05a68a912c23c1bd00124afaa8c669063b046bd9bfd22b21d573c5e6d888c86898b33604051612f38969594939291906155e7565b60405180910390a450509695505050505050565b60006001600160a01b038416612f8e576040517ff74a1b6600000000000000000000000000000000000000000000000000000000815260040160405180910390fd5b612fe66040518061012001604052806000815260200160008152602001600081526020016000815260200160008152602001600081526020016000815260200160006001600160a01b03168152602001600081525090565b6040517fa2df1f950000000000000000000000000000000000000000000000000000000081526060906001600160a01b037f0000000000000000000000000000000000000000000000000000000000000000169063a2df1f9590613056908d908d908d908b908b90600401615632565b6000604051808303816000875af1158015613075573d6000803e3d6000fd5b505050506040513d6000823e601f3d908101601f1916820160405261309d9190810190615672565b97509094509092509050868310156130e1576040517ff896960b00000000000000000000000000000000000000000000000000000000815260040160405180910390fd5b8715613223576040517f5dd8f6aa000000000000000000000000000000000000000000000000000000008152600481018a90527f00000000000000000000000000000000000000000000000000000000000000006001600160a01b031690635dd8f6aa90602401602060405180830381865afa158015613165573d6000803e3d6000fd5b505050506040513d601f19601f820116820180604052508101906131899190614e02565b6040517f1665bc0f0000000000000000000000000000000000000000000000000000000081526001600160a01b038c81166004830152602482018c9052604482018b905260a06064830152600060a4830181905260848301529190911690631665bc0f9060c401600060405180830381600087803b15801561320a57600080fd5b505af115801561321e573d6000803e3d6000fd5b505050505b80511561350e57600060405180608001604052807f00000000000000000000000000000000000000000000000000000000000000006001600160a01b03168152602001600081526020017f000000000000000000000000000000000000000000000000000000000000000081526020017f0000000000000000000000000000000000000000000000000000000000000000815250905060006040518061012001604052808d6001600160a01b031681526020018c8152602001856020015181526020018b815260200160405180608001604052807f00000000000000000000000000000000000000000000000000000000000000006001600160a01b031681526020018881526020017f000000000000000000000000000000000000000000000000000000000000000081526020017f00000000000000000000000000000000000000000000000000000000000000008152508152602001838152602001896001600160a01b0316815260200188815260200187815250905060008351905060005b818110156135095760008582815181106133c1576133c1614ece565b6020908102919091010151905060007fffffffffffffffffffffffffffffffffffffffffffffffffffffffffffff11127f00000000000000000000000000000000000000000000000000000000000000006001600160a01b031601613427575060208101515b60208083015160a08701519091015281516040517f2b13c58f0000000000000000000000000000000000000000000000000000000081526001600160a01b0390911690632b13c58f908390613480908990600401615835565b6000604051808303818588803b15801561349957600080fd5b505af11580156134ad573d6000803e3d6000fd5b505050505081600001516001600160a01b03167f54b3744c489f40987dd2726ca12131243334e8292f567389f761c5a432d813e4868460200151336040516134f793929190615848565b60405180910390a250506001016133a5565b505050505b50811561352057613520308684611aa6565b87816000015182602001517f2be10f2a0203c77d0fcaa9fd6484a8a1d6904de31cd820587f60c1c8c338c8148c898c888b8b33604051613566979695949392919061541b565b60405180910390a450979650505050505050565b804710156135e4576040517f08c379a000000000000000000000000000000000000000000000000000000000815260206004820152601d60248201527f416464726573733a20696e73756666696369656e742062616c616e6365000000604482015260640161198e565b6000826001600160a01b03168260405160006040518083038185875af1925050503d8060008114613631576040519150601f19603f3d011682016040523d82523d6000602084013e613636565b606091505b5050905080611ab0576040517f08c379a000000000000000000000000000000000000000000000000000000000815260206004820152603a60248201527f416464726573733a20756e61626c6520746f2073656e642076616c75652c207260448201527f6563697069656e74206d61792068617665207265766572746564000000000000606482015260840161198e565b600082815260016020908152604080832080548251818502810185019093528083528493849084015b8282101561376257600084815260209081902060408051608081018252600286029092018054835260019081015463ffffffff8082168587015264010000000082041692840192909252680100000000000000009091046001600160a01b0316606083015290835290920191016136f0565b5050506000868152600160205260408120929350613781929150614708565b8051839060005b81811015613ab6578260000361387857600087815260016020526040902084518590839081106137ba576137ba614ece565b60209081029190910181015182546001818101855560009485529383902082516002909202019081559181015191909201805460408401516060909401516001600160a01b031668010000000000000000027fffffffff0000000000000000000000000000000000000000ffffffffffffffff63ffffffff958616640100000000027fffffffffffffffffffffffffffffffffffffffffffffffff000000000000000090931695909416949094171791909116919091179055613aae565b83818151811061388a5761388a614ece565b602002602001015160000151831061391e578381815181106138ae576138ae614ece565b602002602001015160000151830392506139158482815181106138d3576138d3614ece565b6020026020010151600001518583815181106138f1576138f1614ece565b60200260200101516020015163ffffffff1686848151811061145157611451614ece565b85019450613aae565b6001600088815260200190815260200160002060405180608001604052808587858151811061394f5761394f614ece565b60200260200101516000015103815260200186848151811061397357613973614ece565b60200260200101516020015163ffffffff16815260200186848151811061399c5761399c614ece565b60200260200101516040015163ffffffff1681526020018684815181106139c5576139c5614ece565b6020908102919091018101516060908101516001600160a01b039081169093528454600181810187556000968752958390208551600290920201908155918401519190940180546040850151949095015190921668010000000000000000027fffffffff0000000000000000000000000000000000000000ffffffffffffffff63ffffffff948516640100000000027fffffffffffffffffffffffffffffffffffffffffffffffff0000000000000000909616949092169390931793909317929092161790558351613aa59084908690849081106138f1576138f1614ece565b85019450600092505b600101613788565b50604080518381523360208201528591879189917f59860d79d97c1fce2be7f987915c631471f4b08f671200463cc40a3380194ffb910160405180910390a450505092915050565b6040517f86202650000000000000000000000000000000000000000000000000000000008152600160048201526001600160a01b037f00000000000000000000000000000000000000000000000000000000000000008116602483015260009182917f00000000000000000000000000000000000000000000000000000000000000001690638620265090604401602060405180830381865afa158015613ba9573d6000803e3d6000fd5b505050506040513d601f19601f82011682018060405250810190613bcd9190614e02565b6001600160a01b031603613be65750633b9aca00919050565b6003546001600160a01b031615613c94576003546040517f77695896000000000000000000000000000000000000000000000000000000008152600481018490526001600160a01b0390911690637769589690602401602060405180830381865afa925050508015613c75575060408051601f3d908101601f19168201909252613c7291810190614e1f565b60015b613c8157506000919050565b633b9aca008111613c925792915050565b505b506000919050565b6040517f69e11cc50000000000000000000000000000000000000000000000000000000081526004810186905260248101859052604481018490528290600090633b9aca009082907f00000000000000000000000000000000000000000000000000000000000000006001600160a01b0316906369e11cc590606401600060405180830381865afa158015613d35573d6000803e3d6000fd5b505050506040513d6000823e601f3d908101601f19168201604052613d5d919081019061585b565b905060005b815181101561453c576000828281518110613d7f57613d7f614ece565b60200260200101519050600084826040015114613dae57613da9898360400151633b9aca00612bf5565b613db0565b865b9050816040015185613dc29190614def565b9450600081156144f05760c08301516001600160a01b031615613ffe57633b9aca00891480613e0d575060c08301516001600160a01b031660009081526004602052604090205460ff165b15613e19575080613e37565b613e26826002548b612938565b82039050613e348288614fed565b96505b60006040518060c001604052807f00000000000000000000000000000000000000000000000000000000000000006001600160a01b031681526020018381526020017f000000000000000000000000000000000000000000000000000000000000000081526020018f81526020018d81526020018581525090508360c001516001600160a01b0316639d740bfa61eeee6001600160a01b03167f00000000000000000000000000000000000000000000000000000000000000006001600160a01b031614613f06576000613f08565b835b604080517fffffffff0000000000000000000000000000000000000000000000000000000060e085901b16815285516001600160a01b039081166004830152602080880151602484015283880151604484015260608089015160648501526080808a0151608486015260a0808b01518051151560a488015293840151151560c48701529583015160e48601529082015161010485015281015182166101248401529283015161014483015260c090920151909116610164820152610184016000604051808303818588803b158015613fdf57600080fd5b505af1158015613ff3573d6000803e3d6000fd5b5050505050506144ea565b6060830151156144895760608301516040517f862026500000000000000000000000000000000000000000000000000000000081526000916001600160a01b037f000000000000000000000000000000000000000000000000000000000000000016916386202650916140a7917f0000000000000000000000000000000000000000000000000000000000000000906004019182526001600160a01b0316602082015260400190565b602060405180830381865afa1580156140c4573d6000803e3d6000fd5b505050506040513d601f19601f820116820180604052508101906140e89190614e02565b90506001600160a01b03811661412a576040517f6921234300000000000000000000000000000000000000000000000000000000815260040160405180910390fd5b306001600160a01b0382160361420b576040805160208082528183019092528493506000916020820181803683370190505090508e60405160200161417191815260200190565b60405160208183030381529060405290508460200151156141b2576141ad85606001518460006040518060200160405280600081525085611ab5565b614205565b6142038330876060015160006001600160a01b031689608001516001600160a01b0316036141e057336141e6565b88608001515b60008a600001516040518060200160405280600081525088611bbf565b505b50614483565b633b9aca008a148061423557506001600160a01b03811660009081526004602052604090205460ff165b1561424257829150614260565b61424f836002548c612938565b8303915061425d8389614fed565b97505b60007f00000000000000000000000000000000000000000000000000000000000000006001600160a01b031661eeee1461429b57600061429d565b825b604080516020808252818301909252919250600091906020820181803683370190505090508f6040516020016142d591815260200190565b60405160208183030381529060405290508560200151156143975760608601516040517f0cf8e8580000000000000000000000000000000000000000000000000000000081526001600160a01b03851691630cf8e8589185916143609189907f0000000000000000000000000000000000000000000000000000000000000000908890600401614e88565b6000604051808303818588803b15801561437957600080fd5b505af115801561438d573d6000803e3d6000fd5b5050505050614480565b826001600160a01b0316631ebc263f838860600151877f000000000000000000000000000000000000000000000000000000000000000060006001600160a01b03168c608001516001600160a01b0316036143f257336143f8565b8b608001515b8c516040517fffffffff0000000000000000000000000000000000000000000000000000000060e089901b16815261443b95949392916000918b9060040161550f565b60206040518083038185885af1158015614459573d6000803e3d6000fd5b50505050506040513d601f19601f8201168201806040525081019061447e9190614e1f565b505b50505b506144ea565b60808301516000906001600160a01b03166144a457336144aa565b83608001515b9050633b9aca008a036144bf578291506144dd565b6144cc836002548c612938565b830391506144da8389614fed565b97505b6144e8308284611aa6565b505b81880397505b8a8c8e7f2a1f2df21da49f011c6165709ae4b279f8d6d7cffe9043c582352882d8c9698b86853360405161452693929190615965565b60405180910390a4836001019350505050613d62565b5050509550959350505050565b60006145588460025484612938565b610100860151909150604f1c6001908116036146ac57600086815260016020818152604080842081516080810183528981526002805463ffffffff9081168387019081528a82168487019081526001600160a01b03808e16606087019081528754808c018955978c5298909a209451958402909401948555519390960180549251955190971668010000000000000000027fffffffff0000000000000000000000000000000000000000ffffffffffffffff958716640100000000027fffffffffffffffffffffffffffffffffffffffffffffffff0000000000000000909316939096169290921717929092169290921790925590549051859088907f77813be0661650ddc1a5193ff2837df4162b251cb432651e2c060c3fc39756be9061469f908790899033909283526001600160a01b03918216602084015216604082015260600190565b60405180910390a46146ff565b6146b6818461297e565b604080516001600160a01b0385168152336020820152600091839189917fcf0c92a2c6d7c42f488326b0cb900104b99984b6b218db81cd29371364a35251910160405180910390a45b95945050505050565b50805460008255600202906000526020600020908101906119a091905b8082111561476357600081556001810180547fffffffff00000000000000000000000000000000000000000000000000000000169055600201614725565b5090565b60006020828403121561477957600080fd5b81357fffffffff000000000000000000000000000000000000000000000000000000008116811461297757600080fd5b6001600160a01b03811681146119a057600080fd5b60008083601f8401126147d057600080fd5b50813567ffffffffffffffff8111156147e857600080fd5b60208301915083602082850101111561480057600080fd5b9250929050565b600080600080600080600060a0888a03121561482257600080fd5b8735965060208801359550604088013561483b816147a9565b9450606088013567ffffffffffffffff8082111561485857600080fd5b6148648b838c016147be565b909650945060808a013591508082111561487d57600080fd5b5061488a8a828b016147be565b989b979a50959850939692959293505050565b6000602082840312156148af57600080fd5b8135612977816147a9565b80151581146119a057600080fd5b6000806000806000806000806000806101008b8d0312156148e857600080fd5b8a35995060208b0135985060408b0135614901816147a9565b975060608b0135614911816147a9565b965060808b0135955060a08b0135614928816148ba565b945060c08b013567ffffffffffffffff8082111561494557600080fd5b6149518e838f016147be565b909650945060e08d013591508082111561496a57600080fd5b506149778d828e016147be565b915080935050809150509295989b9194979a5092959850565b600080600080600080600060c0888a0312156149ab57600080fd5b87359650602088013595506040880135945060608801356149cb816147a9565b93506080880135925060a088013567ffffffffffffffff8111156149ee57600080fd5b61488a8a828b016147be565b60008060408385031215614a0d57600080fd5b823591506020830135614a1f816147a9565b809150509250929050565b600060208284031215614a3c57600080fd5b5035919050565b60008060408385031215614a5657600080fd5b8235614a61816147a9565b91506020830135614a1f816148ba565b602080825282518282018190526000919060409081850190868401855b82811015614ada578151805185528681015163ffffffff908116888701528682015116868601526060908101516001600160a01b03169085015260809093019290850190600101614a8e565b5091979650505050505050565b7f4e487b7100000000000000000000000000000000000000000000000000000000600052604160045260246000fd5b604051610120810167ffffffffffffffff81118282101715614b3a57614b3a614ae7565b60405290565b6040805190810167ffffffffffffffff81118282101715614b3a57614b3a614ae7565b60405160e0810167ffffffffffffffff81118282101715614b3a57614b3a614ae7565b604051601f8201601f1916810167ffffffffffffffff81118282101715614baf57614baf614ae7565b604052919050565b600067ffffffffffffffff821115614bd157614bd1614ae7565b50601f01601f191660200190565b600082601f830112614bf057600080fd5b8135614c03614bfe82614bb7565b614b86565b818152846020838601011115614c1857600080fd5b816020850160208301376000918101602001919091529392505050565b600080600080600080600060e0888a031215614c5057600080fd5b8735965060208801359550604088013594506060880135614c70816147a9565b93506080880135925060a0880135614c87816147a9565b915060c088013567ffffffffffffffff811115614ca357600080fd5b614caf8a828b01614bdf565b91505092959891949750929550565b60008060408385031215614cd157600080fd5b8235614cdc816147a9565b946020939093013593505050565b600080600080600080600080610100898b031215614d0757600080fd5b8835614d12816147a9565b975060208901359650604089013595506060890135614d30816147a9565b94506080890135935060a0890135614d47816147a9565b925060c089013567ffffffffffffffff80821115614d6457600080fd5b614d708c838d01614bdf565b935060e08b0135915080821115614d8657600080fd5b50614d938b828c01614bdf565b9150509295985092959890939650565b600060208284031215614db557600080fd5b8151612977816148ba565b7f4e487b7100000000000000000000000000000000000000000000000000000000600052601160045260246000fd5b8181038181111561091c5761091c614dc0565b600060208284031215614e1457600080fd5b8151612977816147a9565b600060208284031215614e3157600080fd5b5051919050565b60005b83811015614e53578181015183820152602001614e3b565b50506000910152565b60008151808452614e74816020860160208601614e38565b601f01601f19169290920160200192915050565b8481528360208201526001600160a01b038316604082015260a06060820152600060a082015260c060808201526000614ec460c0830184614e5c565b9695505050505050565b7f4e487b7100000000000000000000000000000000000000000000000000000000600052603260045260246000fd5b600181815b80851115614f38578160001904821115614f1e57614f1e614dc0565b80851615614f2b57918102915b93841c9390800290614f02565b509250929050565b600082614f4f5750600161091c565b81614f5c5750600061091c565b8160018114614f725760028114614f7c57614f98565b600191505061091c565b60ff841115614f8d57614f8d614dc0565b50506001821b61091c565b5060208310610133831016604e8410600b8410161715614fbb575081810a61091c565b614fc58383614efd565b8060001904821115614fd957614fd9614dc0565b029392505050565b60006129778383614f40565b8082018082111561091c5761091c614dc0565b85815284602082015260a06040820152600061501f60a0830186614e5c565b82810360608401526150318186614e5c565b9150506001600160a01b03831660808301529695505050505050565b60006101406001600160a01b03808b168452615096602085018b6001600160a01b0381511682526020810151602083015260408101516040830152606081015160608301525050565b8860a08501528760c085015280871660e085015250806101008401526150be81840186614e5c565b90508281036101208401526150d38185614e5c565b9a9950505050505050505050565b80516150ec816147a9565b919050565b6000610120828403121561510457600080fd5b61510c614b16565b9050815181526020820151602082015260408201516040820152606082015160608201526080820151608082015260a082015160a082015260c082015160c082015261515a60e083016150e1565b60e082015261010080830151818301525092915050565b600067ffffffffffffffff82111561518b5761518b614ae7565b5060051b60200190565b600082601f8301126151a657600080fd5b81516151b4614bfe82614bb7565b8181528460208386010111156151c957600080fd5b61181c826020830160208701614e38565b60008060008061018085870312156151f157600080fd5b6151fb86866150f1565b9350610120850151925061014085015167ffffffffffffffff8082111561522157600080fd5b818701915087601f83011261523557600080fd5b81516020615245614bfe83615171565b82815260069290921b8401810191818101908b84111561526457600080fd5b948201945b838610156152b0576040868d0312156152825760008081fd5b61528a614b40565b8651615295816147a9565b81528684015184820152825260409095019490820190615269565b6101608b01519097509450505050808211156152cb57600080fd5b506152d887828801615195565b91505092959194509250565b80516001600160a01b031682526000610200602083810151858201526040808501518187015260608086015180516001600160a01b0316828901529283015160808801529082015160a087015281015160c086015250608083015180516001600160a01b031660e08601526020810151610100860152604081015161012086015260608101516101408601525060a083015161016085015260c08301516001600160a01b0381166101808601525060e08301518015156101a086015250610100830151816101c08601526153ba82860182614e5c565b9150506101208301518482036101e08601526146ff8282614e5c565b60208152600061297760208301846152e4565b6060815260006153fc60608301866152e4565b90508360208301526001600160a01b0383166040830152949350505050565b60006001600160a01b03808a168352808916602084015287604084015286606084015260e0608084015261545260e0840187614e5c565b83810360a08501526154648187614e5c565b92505080841660c08401525098975050505050505050565b600080610140838503121561549057600080fd5b61549a84846150f1565b915061012083015190509250929050565b60006001600160a01b03808b16835289602084015288604084015287606084015286608084015260e060a08401528460e08401526101008587828601376000848701820152931660c083015250601f909201601f1916909101019695505050505050565b60006101008983528860208401526001600160a01b03808916604085015280881660608501525085608084015284151560a08401528060c0840152600081840152506101208060e08401526150d381840185614e5c565b808202811582820484141761091c5761091c614dc0565b7f4e487b7100000000000000000000000000000000000000000000000000000000600052601260045260246000fd5b6000826155e2577f4e487b7100000000000000000000000000000000000000000000000000000000600052601260045260246000fd5b500490565b60006001600160a01b03808916835287602084015286604084015285606084015260c0608084015261561c60c0840186614e5c565b915080841660a084015250979650505050505050565b6001600160a01b038616815284602082015283604082015260a06060820152600061566060a0830185614e5c565b8281036080840152610d3c8185614e5c565b600080600080610180858703121561568957600080fd5b61569386866150f1565b9350610120850151925061014085015167ffffffffffffffff808211156156b957600080fd5b818701915087601f8301126156cd57600080fd5b815160206156dd614bfe83615171565b82815260069290921b8401810191818101908b8411156156fc57600080fd5b948201945b838610156152b0576040868d03121561571a5760008081fd5b615722614b40565b865161572d816147a9565b81528684015184820152825260409095019490820190615701565b80516001600160a01b0316825260006101e060208301516020850152604083015160408501526060830151606085015260808301516157b460808601826001600160a01b0381511682526020810151602083015260408101516040830152606081015160608301525050565b5060a083015180516001600160a01b03908116610100878101919091526020830151610120880152604083015161014088015260609092015161016087015260c08501511661018086015260e08401516101a086018390529061581983870183614e5c565b9250808501519150508482036101c08601526146ff8282614e5c565b6020815260006129776020830184615748565b6060815260006153fc6060830186615748565b6000602080838503121561586e57600080fd5b825167ffffffffffffffff81111561588557600080fd5b8301601f8101851361589657600080fd5b80516158a4614bfe82615171565b81815260e091820283018401918482019190888411156158c357600080fd5b938501935b838510156159595780858a0312156158e05760008081fd5b6158e8614b63565b85516158f3816148ba565b815285870151615902816148ba565b818801526040868101519082015260608087015190820152608080870151615929816147a9565b9082015260a0868101519082015260c080870151615946816147a9565b90820152835293840193918501916158c8565b50979650505050505050565b61012081016159c68286805115158252602081015115156020830152604081015160408301526060810151606083015260808101516001600160a01b03808216608085015260a083015160a08501528060c08401511660c085015250505050565b8360e08301526001600160a01b03831661010083015294935050505056fea26469706673582212208532bde4b8b6b86b03e72c5a4bd23f71126075d17092dc3017568950d1f55daa64736f6c63430008110033",
    "linkReferences": {}
  },
  "methodIdentifiers": {
    "acceptsToken(address,uint256)": "df21a7dd",
    "addToBalanceOf(uint256,uint256,address,string,bytes)": "0cf8e858",
    "baseWeightCurrency()": "2d1a5903",
    "currency()": "e5a6b10f",
    "currencyForToken(address)": "1982d679",
    "currentEthOverflowOf(uint256)": "a32e1e96",
    "decimals()": "313ce567",
    "decimalsForToken(address)": "b7bad1b1",
    "directory()": "c41c2f24",
    "distributePayoutsOf(uint256,uint256,uint256,address,uint256,string)": "2b267b4e",
    "fee()": "ddca3f43",
    "feeGauge()": "d6dacc53",
    "heldFeesOf(uint256)": "8af56094",
    "isFeelessAddress(address)": "b631b500",
    "migrate(uint256,address)": "405b84fa",
    "operatorStore()": "ad007d63",
    "owner()": "8da5cb5b",
    "pay(uint256,uint256,address,address,uint256,bool,string,bytes)": "1ebc263f",
    "payoutSplitsGroup()": "66248b86",
    "prices()": "d3419bf3",
    "processFees(uint256)": "89701db5",
    "projects()": "8b79543c",
    "redeemTokensOf(address,uint256,uint256,address,uint256,address,string,bytes)": "fe663f0f",
    "renounceOwnership()": "715018a6",
    "setFee(uint256)": "69fe0e2d",
    "setFeeGauge(address)": "637913ac",
    "setFeelessAddress(address,bool)": "7258002c",
    "splitsStore()": "2bdfe004",
    "store()": "975057e7",
    "supportsInterface(bytes4)": "01ffc9a7",
    "token()": "fc0c546a",
    "transferOwnership(address)": "f2fde38b",
    "useAllowanceOf(uint256,uint256,uint256,address,uint256,address,string)": "bc8926e9"
  },
  "id": 42
}