{
  "abi": [
    {
      "inputs": [
        {
          "internalType": "address",
          "name": "uniswapV3Factory_",
          "type": "address"
        }
      ],
      "stateMutability": "nonpayable",
      "type": "constructor"
    },
    {
      "inputs": [],
      "name": "T",
      "type": "error"
    },
    {
      "anonymous": false,
      "inputs": [
        {
          "components": [
            {
              "internalType": "address",
              "name": "poolAddress",
              "type": "address"
            },
            {
              "internalType": "uint24",
              "name": "fee",
              "type": "uint24"
            },
            {
              "internalType": "uint48",
              "name": "lastUpdatedTimestamp",
              "type": "uint48"
            },
            {
              "internalType": "uint16",
              "name": "lastUpdatedCardinalityNext",
              "type": "uint16"
            }
          ],
          "indexed": false,
          "internalType": "struct PoolData",
          "name": "pool",
          "type": "tuple"
        }
      ],
      "name": "PoolUpdated",
      "type": "event"
    },
    {
      "inputs": [],
      "name": "MAX_CARDINALITY",
      "outputs": [
        {
          "internalType": "uint16",
          "name": "",
          "type": "uint16"
        }
      ],
      "stateMutability": "view",
      "type": "function"
    },
    {
      "inputs": [],
      "name": "UPDATE_INTERVAL",
      "outputs": [
        {
          "internalType": "uint32",
          "name": "",
          "type": "uint32"
        }
      ],
      "stateMutability": "view",
      "type": "function"
    },
    {
      "inputs": [
        {
          "internalType": "uint24",
          "name": "",
          "type": "uint24"
        }
      ],
      "name": "activeFees",
      "outputs": [
        {
          "internalType": "bool",
          "name": "",
          "type": "bool"
        }
      ],
      "stateMutability": "view",
      "type": "function"
    },
    {
      "inputs": [
        {
          "internalType": "uint24",
          "name": "fee",
          "type": "uint24"
        }
      ],
      "name": "addFee",
      "outputs": [],
      "stateMutability": "nonpayable",
      "type": "function"
    },
    {
      "inputs": [
        {
          "internalType": "uint256",
          "name": "",
          "type": "uint256"
        }
      ],
      "name": "fees",
      "outputs": [
        {
          "internalType": "uint24",
          "name": "",
          "type": "uint24"
        }
      ],
      "stateMutability": "view",
      "type": "function"
    },
    {
      "inputs": [
        {
          "internalType": "address",
          "name": "tokenA",
          "type": "address"
        },
        {
          "internalType": "address",
          "name": "tokenB",
          "type": "address"
        }
      ],
      "name": "getPool",
      "outputs": [
        {
          "components": [
            {
              "internalType": "address",
              "name": "poolAddress",
              "type": "address"
            },
            {
              "internalType": "uint24",
              "name": "fee",
              "type": "uint24"
            },
            {
              "internalType": "uint48",
              "name": "lastUpdatedTimestamp",
              "type": "uint48"
            },
            {
              "internalType": "uint16",
              "name": "lastUpdatedCardinalityNext",
              "type": "uint16"
            }
          ],
          "internalType": "struct PoolData",
          "name": "pool",
          "type": "tuple"
        }
      ],
      "stateMutability": "view",
      "type": "function"
    },
    {
      "inputs": [
        {
          "internalType": "uint128",
          "name": "baseAmount",
          "type": "uint128"
        },
        {
          "internalType": "address",
          "name": "baseToken",
          "type": "address"
        },
        {
          "internalType": "address",
          "name": "quoteToken",
          "type": "address"
        },
        {
          "internalType": "uint32",
          "name": "secondsTwapInterval",
          "type": "uint32"
        }
      ],
      "name": "getQuote",
      "outputs": [
        {
          "internalType": "uint256",
          "name": "quoteAmount",
          "type": "uint256"
        }
      ],
      "stateMutability": "view",
      "type": "function"
    },
    {
      "inputs": [
        {
          "internalType": "uint128",
          "name": "baseAmount",
          "type": "uint128"
        },
        {
          "internalType": "address",
          "name": "baseToken",
          "type": "address"
        },
        {
          "internalType": "address",
          "name": "quoteToken",
          "type": "address"
        },
        {
          "internalType": "uint32",
          "name": "secondsTwapInterval",
          "type": "uint32"
        },
        {
          "internalType": "uint256",
          "name": "secondsUpdateInterval",
          "type": "uint256"
        },
        {
          "internalType": "uint8",
          "name": "cardinalityNextIncrease",
          "type": "uint8"
        }
      ],
      "name": "getQuoteAndUpdatePool",
      "outputs": [
        {
          "internalType": "uint256",
          "name": "quoteAmount",
          "type": "uint256"
        }
      ],
      "stateMutability": "nonpayable",
      "type": "function"
    },
    {
      "inputs": [
        {
          "internalType": "address",
          "name": "tokenA",
          "type": "address"
        },
        {
          "internalType": "address",
          "name": "tokenB",
          "type": "address"
        },
        {
          "internalType": "uint256",
          "name": "secondsUpdateInterval",
          "type": "uint256"
        },
        {
          "internalType": "uint8",
          "name": "cardinalityNextIncrease",
          "type": "uint8"
        }
      ],
      "name": "getUpdatedPool",
      "outputs": [
        {
          "components": [
            {
              "internalType": "address",
              "name": "poolAddress",
              "type": "address"
            },
            {
              "internalType": "uint24",
              "name": "fee",
              "type": "uint24"
            },
            {
              "internalType": "uint48",
              "name": "lastUpdatedTimestamp",
              "type": "uint48"
            },
            {
              "internalType": "uint16",
              "name": "lastUpdatedCardinalityNext",
              "type": "uint16"
            }
          ],
          "internalType": "struct PoolData",
          "name": "pool",
          "type": "tuple"
        },
        {
          "internalType": "int56[]",
          "name": "tickCumulatives",
          "type": "int56[]"
        },
        {
          "internalType": "uint160",
          "name": "sqrtPriceX96",
          "type": "uint160"
        }
      ],
      "stateMutability": "nonpayable",
      "type": "function"
    },
    {
      "inputs": [
        {
          "internalType": "address",
          "name": "",
          "type": "address"
        },
        {
          "internalType": "address",
          "name": "",
          "type": "address"
        }
      ],
      "name": "pools",
      "outputs": [
        {
          "internalType": "address",
          "name": "poolAddress",
          "type": "address"
        },
        {
          "internalType": "uint24",
          "name": "fee",
          "type": "uint24"
        },
        {
          "internalType": "uint48",
          "name": "lastUpdatedTimestamp",
          "type": "uint48"
        },
        {
          "internalType": "uint16",
          "name": "lastUpdatedCardinalityNext",
          "type": "uint16"
        }
      ],
      "stateMutability": "view",
      "type": "function"
    },
    {
      "inputs": [],
      "name": "uniswapV3Factory",
      "outputs": [
        {
          "internalType": "address",
          "name": "",
          "type": "address"
        }
      ],
      "stateMutability": "view",
      "type": "function"
    },
    {
      "inputs": [
        {
          "internalType": "address",
          "name": "tokenA",
          "type": "address"
        },
        {
          "internalType": "address",
          "name": "tokenB",
          "type": "address"
        },
        {
          "internalType": "uint8",
          "name": "cardinalityNextIncrease",
          "type": "uint8"
        }
      ],
      "name": "updatePool",
      "outputs": [
        {
          "components": [
            {
              "internalType": "address",
              "name": "poolAddress",
              "type": "address"
            },
            {
              "internalType": "uint24",
              "name": "fee",
              "type": "uint24"
            },
            {
              "internalType": "uint48",
              "name": "lastUpdatedTimestamp",
              "type": "uint48"
            },
            {
              "internalType": "uint16",
              "name": "lastUpdatedCardinalityNext",
              "type": "uint16"
            }
          ],
          "internalType": "struct PoolData",
          "name": "highestLiquidityPool",
          "type": "tuple"
        },
        {
          "internalType": "int56[]",
          "name": "tickCumulatives",
          "type": "int56[]"
        },
        {
          "internalType": "uint160",
          "name": "sqrtPriceX96",
          "type": "uint160"
        }
      ],
      "stateMutability": "nonpayable",
      "type": "function"
    }
  ],
  "bytecode": {
    "object": "0x60e060405261070860a0908152600060c08190526200002091600262000112565b50604080516080810182526127108152610bb860208201526101f4918101919091526064606082015262000059906001906004620001c8565b503480156200006757600080fd5b50604051620028dd380380620028dd8339810160408190526200008a916200027d565b6001600160a01b03811660805260005b6001548110156200010a5760016002600060018481548110620000c157620000c1620002af565b60009182526020808320600a8084049091015492066003026101000a90910462ffffff1683528201929092526040019020805460ff19169115159190911790556001016200009a565b5050620002c5565b82805482825590600052602060002090600701600890048101928215620001b65791602002820160005b838211156200018257835183826101000a81548163ffffffff021916908363ffffffff16021790555092602001926004016020816003010492830192600103026200013c565b8015620001b45782816101000a81549063ffffffff021916905560040160208160030104928301926001030262000182565b505b50620001c492915062000266565b5090565b82805482825590600052602060002090600901600a90048101928215620001b65791602002820160005b838211156200023557835183826101000a81548162ffffff021916908361ffff1602179055509260200192600301602081600201049283019260010302620001f2565b8015620001b45782816101000a81549062ffffff021916905560030160208160020104928301926001030262000235565b5b80821115620001c4576000815560010162000267565b6000602082840312156200029057600080fd5b81516001600160a01b0381168114620002a857600080fd5b9392505050565b634e487b7160e01b600052603260045260246000fd5b6080516125ee620002ef600039600081816101b2015281816105db0152610bff01526125ee6000f3fe608060405234801561001057600080fd5b50600436106100d45760003560e01c80638200d87311610081578063a2d7046f1161005b578063a2d7046f1461034a578063b21dfd201461035d578063d5cefadc1461039057600080fd5b80638200d8731461021a57806389ac414714610236578063901754d71461025457600080fd5b8063531aa03e116100b2578063531aa03e146101405780635b549182146101ad57806363711362146101f957600080fd5b806311be8a52146100d9578063403e05d3146101045780634acc79ed14610119575b600080fd5b6100ec6100e7366004611bab565b6103a3565b6040516100fb93929190611bf6565b60405180910390f35b610117610112366004611cab565b6105a8565b005b61012c610127366004611cd0565b610717565b60405162ffffff90911681526020016100fb565b61015361014e366004611ce9565b610750565b6040516100fb9190815173ffffffffffffffffffffffffffffffffffffffff16815260208083015162ffffff169082015260408083015165ffffffffffff169082015260609182015161ffff169181019190915260800190565b6101d47f000000000000000000000000000000000000000000000000000000000000000081565b60405173ffffffffffffffffffffffffffffffffffffffff90911681526020016100fb565b61020c610207366004611d5b565b61087a565b6040519081526020016100fb565b61022361010081565b60405161ffff90911681526020016100fb565b61023f61070881565b60405163ffffffff90911681526020016100fb565b6102fe610262366004611ce9565b600360209081526000928352604080842090915290825290205473ffffffffffffffffffffffffffffffffffffffff81169074010000000000000000000000000000000000000000810462ffffff169077010000000000000000000000000000000000000000000000810465ffffffffffff16907d010000000000000000000000000000000000000000000000000000000000900461ffff1684565b6040805173ffffffffffffffffffffffffffffffffffffffff909516855262ffffff909316602085015265ffffffffffff9091169183019190915261ffff1660608201526080016100fb565b6100ec610358366004611db3565b610965565b61038061036b366004611cab565b60026020526000908152604090205460ff1681565b60405190151581526020016100fb565b61020c61039e366004611e06565b610a0a565b604080516080810182526000808252602082018190529181018290526060810191909152606060008060008673ffffffffffffffffffffffffffffffffffffffff168873ffffffffffffffffffffffffffffffffffffffff161061040857868861040b565b87875b9150915061041a828288610bc1565b73ffffffffffffffffffffffffffffffffffffffff858116600090815260036020908152604080832088851684528252918290208651815488840180518a870180516060808e01805197909b167fffffffffffffffffff000000000000000000000000000000000000000000000090961686177401000000000000000000000000000000000000000062ffffff95861602177fff0000000000000000ffffffffffffffffffffffffffffffffffffffffffffff167701000000000000000000000000000000000000000000000065ffffffffffff938416027fff0000ffffffffffffffffffffffffffffffffffffffffffffffffffffffffff16177d01000000000000000000000000000000000000000000000000000000000061ffff9889160217909755885194855292519091169583019590955293519093169383019390935292519091169181019190915292975090955093507fa4f1f360d824552e10292fb28c429d3e58b8d91cb89604b82559507cf4d72ff69060800160405180910390a1505093509350939050565b6040517f22afcccb00000000000000000000000000000000000000000000000000000000815262ffffff821660048201527f000000000000000000000000000000000000000000000000000000000000000073ffffffffffffffffffffffffffffffffffffffff16906322afcccb90602401602060405180830381865afa158015610637573d6000803e3d6000fd5b505050506040513d601f19601f8201168201806040525081019061065b9190611e8d565b60020b15801590610681575062ffffff811660009081526002602052604090205460ff16155b156107145762ffffff808216600081815260026020526040812080547fffffffffffffffffffffffffffffffffffffffffffffffffffffffffffffff00166001908117909155805480820182559152600a8082047fb10e2d527612073b26eecdfd717e6a320cf44b4afac2b0732d9fcbe2b7fa0cf6018054600392909306919091026101000a9283029290930219161790555b50565b6001818154811061072757600080fd5b90600052602060002090600a9182820401919006600302915054906101000a900462ffffff1681565b6040805160808101825260008082526020820181905291810182905260608101919091526000808373ffffffffffffffffffffffffffffffffffffffff168573ffffffffffffffffffffffffffffffffffffffff16106107b15783856107b4565b84845b73ffffffffffffffffffffffffffffffffffffffff918216600090815260036020908152604080832093851683529281529082902082516080810184529054938416815274010000000000000000000000000000000000000000840462ffffff169181019190915277010000000000000000000000000000000000000000000000830465ffffffffffff16918101919091527d01000000000000000000000000000000000000000000000000000000000090910461ffff16606082015295945050505050565b6000806108878585610750565b51905073ffffffffffffffffffffffffffffffffffffffff81161561095c5763ffffffff831661093e5760008173ffffffffffffffffffffffffffffffffffffffff16633850c7bd6040518163ffffffff1660e01b815260040160e060405180830381865afa1580156108fe573d6000803e3d6000fd5b505050506040513d601f19601f820116820180604052508101906109229190611eba565b505050505050905061093681888888610ee2565b92505061095c565b600061094a82856110af565b9050610958818888886112ac565b9250505b50949350505050565b60408051608081018252600080825260208201819052918101829052606081019190915260606000846109a85761099d8787866103a3565b925092509250610a00565b6109b28787610750565b805190935073ffffffffffffffffffffffffffffffffffffffff1615806109f057504285846040015165ffffffffffff166109ed9190611f7d565b11155b15610a005761099d8787866103a3565b9450945094915050565b600080600080610a1c89898888610965565b8251929550909350915073ffffffffffffffffffffffffffffffffffffffff1615610bb45763ffffffff8716610af75773ffffffffffffffffffffffffffffffffffffffff8116610ae457826000015173ffffffffffffffffffffffffffffffffffffffff16633850c7bd6040518163ffffffff1660e01b815260040160e060405180830381865afa158015610ab6573d6000803e3d6000fd5b505050506040513d601f19601f82011682018060405250810190610ada9190611eba565b5094955050505050505b610af0818b8b8b610ee2565b9350610bb4565b60008251600014610b9557600083600081518110610b1757610b17611f95565b602002602001015184600181518110610b3257610b32611f95565b6020026020010151610b449190611fc4565b9050610b5663ffffffff8a168261205b565b915060008160060b128015610b7c5750610b7663ffffffff8a16826120cf565b60060b15155b15610b8f5781610b8b816120f1565b9250505b50610ba4565b8351610ba190896110af565b90505b610bb0818c8c8c6112ac565b9450505b5050509695505050505050565b604080516080810182526000808252602082018190529181018290526060810191909152606060008060008060005b600154811015610d7a57610ca67f000000000000000000000000000000000000000000000000000000000000000060405180606001604052808d73ffffffffffffffffffffffffffffffffffffffff1681526020018c73ffffffffffffffffffffffffffffffffffffffff16815260200160018581548110610c7457610c74611f95565b90600052602060002090600a91828204019190066003029054906101000a900462ffffff1662ffffff16815250611471565b925073ffffffffffffffffffffffffffffffffffffffff83163b15610d7257610cce836115ca565b96506fffffffffffffffffffffffffffffffff16915083821115610d725781935060405180608001604052808473ffffffffffffffffffffffffffffffffffffffff16815260200160018381548110610d2957610d29611f95565b90600052602060002090600a91828204019190066003029054906101000a900462ffffff1662ffffff1681526020014265ffffffffffff168152602001600061ffff1681525096505b600101610bf0565b50855173ffffffffffffffffffffffffffffffffffffffff1615610ed657856000015173ffffffffffffffffffffffffffffffffffffffff16633850c7bd6040518163ffffffff1660e01b815260040160e060405180830381865afa158015610de7573d6000803e3d6000fd5b505050506040513d601f19601f82011682018060405250810190610e0b9190611eba565b505061ffff1660608b015250919550505060ff871615801590610e3b575061010061ffff16866060015161ffff16105b15610ed65760608601805160ff89160161ffff169081905286516040517f32148f67000000000000000000000000000000000000000000000000000000008152600481019290925273ffffffffffffffffffffffffffffffffffffffff16906332148f6790602401600060405180830381600087803b158015610ebd57600080fd5b505af1158015610ed1573d6000803e3d6000fd5b505050505b50505093509350939050565b60006fffffffffffffffffffffffffffffffff73ffffffffffffffffffffffffffffffffffffffff861611610fe1576000610f3373ffffffffffffffffffffffffffffffffffffffff87168061214f565b90508273ffffffffffffffffffffffffffffffffffffffff168473ffffffffffffffffffffffffffffffffffffffff1610610fa357610f9e7801000000000000000000000000000000000000000000000000866fffffffffffffffffffffffffffffffff1683611744565b610fd9565b610fd981866fffffffffffffffffffffffffffffffff167801000000000000000000000000000000000000000000000000611744565b9150506110a7565b600061100d73ffffffffffffffffffffffffffffffffffffffff87168068010000000000000000611744565b90508273ffffffffffffffffffffffffffffffffffffffff168473ffffffffffffffffffffffffffffffffffffffff161061107557611070700100000000000000000000000000000000866fffffffffffffffffffffffffffffffff1683611744565b6110a3565b6110a381866fffffffffffffffffffffffffffffffff16700100000000000000000000000000000000611744565b9150505b949350505050565b6040805160028082526060820183526000928392919060208301908036833701905050905082816000815181106110e8576110e8611f95565b602002602001019063ffffffff16908163ffffffff168152505060008160018151811061111757611117611f95565b602002602001019063ffffffff16908163ffffffff16815250506000808573ffffffffffffffffffffffffffffffffffffffff1663883bdbfd8460405160240161116191906121bb565b6040516020818303038152906040529060e01b6020820180517bffffffffffffffffffffffffffffffffffffffffffffffffffffffff83818316178352505050506040516111af9190612205565b600060405180830381855afa9150503d80600081146111ea576040519150601f19603f3d011682016040523d82523d6000602084013e6111ef565b606091505b509150915081156112a3576000818060200190518101906112109190612327565b50905060008160008151811061122857611228611f95565b60200260200101518260018151811061124357611243611f95565b60200260200101516112559190611fc4565b905061126763ffffffff88168261205b565b955060008160060b12801561128d575061128763ffffffff8816826120cf565b60060b15155b156112a0578561129c816120f1565b9650505b50505b50505092915050565b6000806112b886611816565b90506fffffffffffffffffffffffffffffffff73ffffffffffffffffffffffffffffffffffffffff8216116113af57600061130973ffffffffffffffffffffffffffffffffffffffff83168061214f565b90508373ffffffffffffffffffffffffffffffffffffffff168573ffffffffffffffffffffffffffffffffffffffff1610611379576113747801000000000000000000000000000000000000000000000000876fffffffffffffffffffffffffffffffff1683611744565b610936565b61093681876fffffffffffffffffffffffffffffffff167801000000000000000000000000000000000000000000000000611744565b60006113db73ffffffffffffffffffffffffffffffffffffffff83168068010000000000000000611744565b90508373ffffffffffffffffffffffffffffffffffffffff168573ffffffffffffffffffffffffffffffffffffffff16106114435761143e700100000000000000000000000000000000876fffffffffffffffffffffffffffffffff1683611744565b610958565b61095881876fffffffffffffffffffffffffffffffff16700100000000000000000000000000000000611744565b6000816020015173ffffffffffffffffffffffffffffffffffffffff16826000015173ffffffffffffffffffffffffffffffffffffffff16106114b357600080fd5b8151602080840151604080860151815173ffffffffffffffffffffffffffffffffffffffff95861681860152949092168482015262ffffff90911660608085019190915281518085038201815260808501909252815191909201207fff0000000000000000000000000000000000000000000000000000000000000060a08401529085901b7fffffffffffffffffffffffffffffffffffffffff0000000000000000000000001660a183015260b58201527fe34f199b19b2b4f47f68442619d555527d244f78a3297ea89325f843f87b8b5460d582015260f501604080517fffffffffffffffffffffffffffffffffffffffffffffffffffffffffffffffe081840301815291905280516020909101209392505050565b600060606000808473ffffffffffffffffffffffffffffffffffffffff1663883bdbfd60006040516024016115ff91906123f3565b6040516020818303038152906040529060e01b6020820180517bffffffffffffffffffffffffffffffffffffffffffffffffffffffff838183161783525050505060405161164d9190612205565b600060405180830381855afa9150503d8060008114611688576040519150601f19603f3d011682016040523d82523d6000602084013e61168d565b606091505b5091509150811561173d576060818060200190518101906116ae9190612327565b80925081955050506000816000815181106116cb576116cb611f95565b6020026020010151826001815181106116e6576116e6611f95565b60200260200101516116f89190612575565b905061173877ffffffffffffffffffffffffffffffffffffffff00000000602083901b1675070800000000000000000000000000000000000000006125aa565b955050505b5050915091565b600080807fffffffffffffffffffffffffffffffffffffffffffffffffffffffffffffffff858709858702925082811083820303915050806000141561179c576000841161179157600080fd5b50829004905061180f565b8084116117a857600080fd5b6000848688096000868103871696879004966002600389028118808a02820302808a02820302808a02820302808a02820302808a02820302808a02909103029181900381900460010186841190950394909402919094039290920491909117919091029150505b9392505050565b60008060008360020b1261182d578260020b611835565b8260020b6000035b9050620d89e8811115611874576040517f2bc80f3a00000000000000000000000000000000000000000000000000000000815260040160405180910390fd5b600060018216611895577001000000000000000000000000000000006118a7565b6ffffcb933bd6fad37aa2d162d1a5940015b70ffffffffffffffffffffffffffffffffff16905060028216156118db576ffff97272373d413259a46990580e213a0260801c5b60048216156118fa576ffff2e50f5f656932ef12357cf3c7fdcc0260801c5b6008821615611919576fffe5caca7e10e4e61c3624eaa0941cd00260801c5b6010821615611938576fffcb9843d60f6159c9db58835c9266440260801c5b6020821615611957576fff973b41fa98c081472e6896dfb254c00260801c5b6040821615611976576fff2ea16466c96a3843ec78b326b528610260801c5b6080821615611995576ffe5dee046a99a2a811c461f1969c30530260801c5b6101008216156119b5576ffcbe86c7900a88aedcffc83b479aa3a40260801c5b6102008216156119d5576ff987a7253ac413176f2b074cf7815e540260801c5b6104008216156119f5576ff3392b0822b70005940c7a398e4b70f30260801c5b610800821615611a15576fe7159475a2c29b7443b29c7fa6e889d90260801c5b611000821615611a35576fd097f3bdfd2022b8845ad8f792aa58250260801c5b612000821615611a55576fa9f746462d870fdf8a65dc1f90e061e50260801c5b614000821615611a75576f70d869a156d2a1b890bb3df62baf32f70260801c5b618000821615611a95576f31be135f97d08fd981231505542fcfa60260801c5b62010000821615611ab6576f09aa508b5b7a84e1c677de54f3e99bc90260801c5b62020000821615611ad6576e5d6af8dedb81196699c329225ee6040260801c5b62040000821615611af5576d2216e584f5fa1ea926041bedfe980260801c5b62080000821615611b12576b048a170391f7dc42444e8fa20260801c5b60008460020b1315611b5157807fffffffffffffffffffffffffffffffffffffffffffffffffffffffffffffffff81611b4d57611b4d61202c565b0490505b640100000000810615611b65576001611b68565b60005b60ff16602082901c0192505050919050565b73ffffffffffffffffffffffffffffffffffffffff8116811461071457600080fd5b60ff8116811461071457600080fd5b600080600060608486031215611bc057600080fd5b8335611bcb81611b7a565b92506020840135611bdb81611b7a565b91506040840135611beb81611b9c565b809150509250925092565b835173ffffffffffffffffffffffffffffffffffffffff16815260208085015162ffffff169082015260408085015165ffffffffffff169082015260608085015161ffff1690820152600060c0820160c0608084015284519081905260209060e084019082870160005b82811015611c7f57815160060b84529284019290840190600101611c60565b505050809250505073ffffffffffffffffffffffffffffffffffffffff831660a0830152949350505050565b600060208284031215611cbd57600080fd5b813562ffffff8116811461180f57600080fd5b600060208284031215611ce257600080fd5b5035919050565b60008060408385031215611cfc57600080fd5b8235611d0781611b7a565b91506020830135611d1781611b7a565b809150509250929050565b80356fffffffffffffffffffffffffffffffff81168114611d4257600080fd5b919050565b803563ffffffff81168114611d4257600080fd5b60008060008060808587031215611d7157600080fd5b611d7a85611d22565b93506020850135611d8a81611b7a565b92506040850135611d9a81611b7a565b9150611da860608601611d47565b905092959194509250565b60008060008060808587031215611dc957600080fd5b8435611dd481611b7a565b93506020850135611de481611b7a565b9250604085013591506060850135611dfb81611b9c565b939692955090935050565b60008060008060008060c08789031215611e1f57600080fd5b611e2887611d22565b95506020870135611e3881611b7a565b94506040870135611e4881611b7a565b9350611e5660608801611d47565b92506080870135915060a0870135611e6d81611b9c565b809150509295509295509295565b8051600281900b8114611d4257600080fd5b600060208284031215611e9f57600080fd5b61180f82611e7b565b805161ffff81168114611d4257600080fd5b600080600080600080600060e0888a031215611ed557600080fd5b8751611ee081611b7a565b9650611eee60208901611e7b565b9550611efc60408901611ea8565b9450611f0a60608901611ea8565b9350611f1860808901611ea8565b925060a0880151611f2881611b9c565b60c08901519092508015158114611f3e57600080fd5b8091505092959891949750929550565b7f4e487b7100000000000000000000000000000000000000000000000000000000600052601160045260246000fd5b60008219821115611f9057611f90611f4e565b500190565b7f4e487b7100000000000000000000000000000000000000000000000000000000600052603260045260246000fd5b60008160060b8360060b60008112817fffffffffffffffffffffffffffffffffffffffffffffffffff800000000000000183128115161561200757612007611f4e565b81667fffffffffffff01831381161561202257612022611f4e565b5090039392505050565b7f4e487b7100000000000000000000000000000000000000000000000000000000600052601260045260246000fd5b60008160060b8360060b806120725761207261202c565b7fffffffffffffffffffffffffffffffffffffffffffffffffffffffffffffffff81147fffffffffffffffffffffffffffffffffffffffffffffffffff80000000000000831416156120c6576120c6611f4e565b90059392505050565b60008260060b806120e2576120e261202c565b808360060b0791505092915050565b60008160020b7fffffffffffffffffffffffffffffffffffffffffffffffffffffffffff80000081141561212757612127611f4e565b7fffffffffffffffffffffffffffffffffffffffffffffffffffffffffffffffff0192915050565b6000817fffffffffffffffffffffffffffffffffffffffffffffffffffffffffffffffff048311821515161561218757612187611f4e565b500290565b7f4e487b7100000000000000000000000000000000000000000000000000000000600052604160045260246000fd5b6020808252825182820181905260009190848201906040850190845b818110156121f957835163ffffffff16835292840192918401916001016121d7565b50909695505050505050565b6000825160005b81811015612226576020818601810151858301520161220c565b81811115612235576000828501525b509190910192915050565b604051601f82017fffffffffffffffffffffffffffffffffffffffffffffffffffffffffffffffe016810167ffffffffffffffff811182821017156122875761228761218c565b604052919050565b600067ffffffffffffffff8211156122a9576122a961218c565b5060051b60200190565b600082601f8301126122c457600080fd5b815160206122d96122d48361228f565b612240565b82815260059290921b840181019181810190868411156122f857600080fd5b8286015b8481101561231c57805161230f81611b7a565b83529183019183016122fc565b509695505050505050565b6000806040838503121561233a57600080fd5b825167ffffffffffffffff8082111561235257600080fd5b818501915085601f83011261236657600080fd5b815160206123766122d48361228f565b82815260059290921b8401810191818101908984111561239557600080fd5b948201945b838610156123c35785518060060b81146123b45760008081fd5b8252948201949082019061239a565b918801519196509093505050808211156123dc57600080fd5b506123e9858286016122b3565b9150509250929050565b6000602080830181845280855461240e818490815260200190565b60008881526020812094509092505b8160078201101561249357835463ffffffff808216855281871c811687860152604082811c821690860152606082811c821690860152608082811c82169086015260a082811c82169086015260c082811c9091169085015260e090811c908401526001909301926101009092019160080161241d565b925492818110156124af5763ffffffff84168352918401916001015b818110156124ca5783851c63ffffffff168352918401916001015b818110156124e757604084901c63ffffffff168352918401916001015b8181101561250457606084901c63ffffffff168352918401916001015b8181101561252157608084901c63ffffffff168352918401916001015b8181101561253e5760a084901c63ffffffff168352918401916001015b8181101561255b5760c084901c63ffffffff168352918401916001015b818110156121f957505060e09190911c8152019392505050565b600073ffffffffffffffffffffffffffffffffffffffff838116908316818110156125a2576125a2611f4e565b039392505050565b600077ffffffffffffffffffffffffffffffffffffffffffffffff808416806125d5576125d561202c565b9216919091049291505056fea164736f6c634300080c000a",
    "linkReferences": {}
  },
  "methodIdentifiers": {
    "MAX_CARDINALITY()": "8200d873",
    "UPDATE_INTERVAL()": "89ac4147",
    "activeFees(uint24)": "b21dfd20",
    "addFee(uint24)": "403e05d3",
    "fees(uint256)": "4acc79ed",
    "getPool(address,address)": "531aa03e",
    "getQuote(uint128,address,address,uint32)": "63711362",
    "getQuoteAndUpdatePool(uint128,address,address,uint32,uint256,uint8)": "d5cefadc",
    "getUpdatedPool(address,address,uint256,uint8)": "a2d7046f",
    "pools(address,address)": "901754d7",
    "uniswapV3Factory()": "5b549182",
    "updatePool(address,address,uint8)": "11be8a52"
  },
  "id": 0
}